2024-10-20 22:56:52.218985 IP glados > RAC2V1S: ICMP echo request, id 59797, seq 149, length 64
	0x0000:  34db 9c70 9d1a 0800 271e 364a 0800 4500  4..p....'.6J..E.
	0x0010:  0054 cde0 4000 4001 e911 c0a8 0165 c0a8  .T..@.@......e..
	0x0020:  0101 0800 fa80 e995 0095 f4c2 1567 0000  .............g..
	0x0030:  0000 4757 0300 0000 0000 1011 1213 1415  ..GW............
	0x0040:  1617 1819 1a1b 1c1d 1e1f 2021 2223 2425  ...........!"#$%
	0x0050:  2627 2829 2a2b 2c2d 2e2f 3031 3233 3435  &'()*+,-./012345
	0x0060:  3637                                     67
2024-10-20 22:56:52.221559 IP RAC2V1S > glados: ICMP echo reply, id 59797, seq 149, length 64
	0x0000:  0800 271e 364a 34db 9c70 9d1a 0800 4500  ..'.6J4..p....E.
	0x0010:  0054 6aa5 0000 4001 8c4d c0a8 0101 c0a8  .Tj...@..M......
	0x0020:  0165 0000 0281 e995 0095 f4c2 1567 0000  .e...........g..
	0x0030:  0000 4757 0300 0000 0000 1011 1213 1415  ..GW............
	0x0040:  1617 1819 1a1b 1c1d 1e1f 2021 2223 2425  ...........!"#$%
	0x0050:  2627 2829 2a2b 2c2d 2e2f 3031 3233 3435  &'()*+,-./012345
	0x0060:  3637                                     67
2024-10-20 22:56:53.055982 IP glados.58709 > RAC2V1S.domain: 54079+ PTR? 1.1.168.192.in-addr.arpa. (42)
	0x0000:  34db 9c70 9d1a 0800 271e 364a 0800 4500  4..p....'.6J..E.
	0x0010:  0046 f96a 4000 4011 bd85 c0a8 0165 c0a8  .F.j@.@......e..
	0x0020:  0101 e555 0035 0032 83fa d33f 0100 0001  ...U.5.2...?....
	0x0030:  0000 0000 0000 0131 0131 0331 3638 0331  .......1.1.168.1
	0x0040:  3932 0769 6e2d 6164 6472 0461 7270 6100  92.in-addr.arpa.
	0x0050:  000c 0001                                ....
2024-10-20 22:56:53.058672 IP RAC2V1S.domain > glados.58709: 54079* 1/0/0 PTR RAC2V1S. (63)
	0x0000:  0800 271e 364a 34db 9c70 9d1a 0800 4500  ..'.6J4..p....E.
	0x0010:  005b fb26 4000 4011 bbb4 c0a8 0101 c0a8  .[.&@.@.........
	0x0020:  0165 0035 e555 0047 4580 d33f 8580 0001  .e.5.U.GE..?....
	0x0030:  0001 0000 0000 0131 0131 0331 3638 0331  .......1.1.168.1
	0x0040:  3932 0769 6e2d 6164 6472 0461 7270 6100  92.in-addr.arpa.
	0x0050:  000c 0001 c00c 000c 0001 0000 0000 0009  ................
	0x0060:  0752 4143 3256 3153 00                   .RAC2V1S.
2024-10-20 22:56:53.058986 IP glados.35719 > RAC2V1S.domain: 34983+ PTR? 101.1.168.192.in-addr.arpa. (44)
	0x0000:  34db 9c70 9d1a 0800 271e 364a 0800 4500  4..p....'.6J..E.
	0x0010:  0048 74e2 4000 4011 420c c0a8 0165 c0a8  .Ht.@.@.B....e..
	0x0020:  0101 8b87 0035 0034 83fc 88a7 0100 0001  .....5.4........
	0x0030:  0000 0000 0000 0331 3031 0131 0331 3638  .......101.1.168
	0x0040:  0331 3932 0769 6e2d 6164 6472 0461 7270  .192.in-addr.arp
	0x0050:  6100 000c 0001                           a.....
2024-10-20 22:56:53.061648 IP RAC2V1S.domain > glados.35719: 34983* 1/0/0 PTR glados. (64)
	0x0000:  0800 271e 364a 34db 9c70 9d1a 0800 4500  ..'.6J4..p....E.
	0x0010:  005c fb27 4000 4011 bbb2 c0a8 0101 c0a8  .\.'@.@.........
	0x0020:  0165 0035 8b87 0048 19bb 88a7 8580 0001  .e.5...H........
	0x0030:  0001 0000 0000 0331 3031 0131 0331 3638  .......101.1.168
	0x0040:  0331 3932 0769 6e2d 6164 6472 0461 7270  .192.in-addr.arp
	0x0050:  6100 000c 0001 c00c 000c 0001 0000 0000  a...............
	0x0060:  0008 0667 6c61 646f 7300                 ...glados.
2024-10-20 22:56:53.220446 IP glados > RAC2V1S: ICMP echo request, id 59797, seq 150, length 64
	0x0000:  34db 9c70 9d1a 0800 271e 364a 0800 4500  4..p....'.6J..E.
	0x0010:  0054 ceb3 4000 4001 e83e c0a8 0165 c0a8  .T..@.@..>...e..
	0x0020:  0101 0800 487a e995 0096 f5c2 1567 0000  ....Hz.......g..
	0x0030:  0000 f85c 0300 0000 0000 1011 1213 1415  ...\............
	0x0040:  1617 1819 1a1b 1c1d 1e1f 2021 2223 2425  ...........!"#$%
	0x0050:  2627 2829 2a2b 2c2d 2e2f 3031 3233 3435  &'()*+,-./012345
	0x0060:  3637                                     67
2024-10-20 22:56:53.222901 IP RAC2V1S > glados: ICMP echo reply, id 59797, seq 150, length 64
	0x0000:  0800 271e 364a 34db 9c70 9d1a 0800 4500  ..'.6J4..p....E.
	0x0010:  0054 6ad9 0000 4001 8c19 c0a8 0101 c0a8  .Tj...@.........
	0x0020:  0165 0000 507a e995 0096 f5c2 1567 0000  .e..Pz.......g..
	0x0030:  0000 f85c 0300 0000 0000 1011 1213 1415  ...\............
	0x0040:  1617 1819 1a1b 1c1d 1e1f 2021 2223 2425  ...........!"#$%
	0x0050:  2627 2829 2a2b 2c2d 2e2f 3031 3233 3435  &'()*+,-./012345
	0x0060:  3637                                     67
2024-10-20 22:56:53.407363 ARP, Request who-has RAC2V1S tell glados, length 28
	0x0000:  34db 9c70 9d1a 0800 271e 364a 0806 0001  4..p....'.6J....
	0x0010:  0800 0604 0001 0800 271e 364a c0a8 0165  ........'.6J...e
	0x0020:  0000 0000 0000 c0a8 0101                 ..........
2024-10-20 22:56:53.409704 ARP, Reply RAC2V1S is-at 34:db:9c:70:9d:1a (oui Unknown), length 46
	0x0000:  0800 271e 364a 34db 9c70 9d1a 0806 0001  ..'.6J4..p......
	0x0010:  0800 0604 0002 34db 9c70 9d1a c0a8 0101  ......4..p......
	0x0020:  0800 271e 364a c0a8 0165 0000 0000 0000  ..'.6J...e......
	0x0030:  0000 0000 0000 0000 0000 0000            ............
