2024-10-20 20:59:23.760118 ARP, Request who-has 192.168.1.118 tell 192.168.1.100, length 46
	0x0000:  ffff ffff ffff ec2e 987a c577 0806 0001  .........z.w....
	0x0010:  0800 0604 0001 ec2e 987a c577 c0a8 0164  .........z.w...d
	0x0020:  0000 0000 0000 c0a8 0176 0000 0000 0000  .........v......
	0x0030:  0000 0000 0000 0000 0000 0000            ............
2024-10-20 20:59:23.910008 ARP, Request who-has MININT-EUI1DPH tell 0.0.0.0, length 46
	0x0000:  ffff ffff ffff 04cf 4bb7 4328 0806 0001  ........K.C(....
	0x0010:  0800 0604 0001 04cf 4bb7 4328 0000 0000  ........K.C(....
	0x0020:  0000 0000 0000 c0a8 0139 0000 0000 0000  .........9......
	0x0030:  0000 0000 0000 0000 0000 0000            ............
