2024-11-07 10:04:26.534903 IP6 fe80::2e21:310f:e54e:6438 > ip6-allnodes: ICMP6, router advertisement, length 80
	0x0000:  3333 0000 0001 2c21 314e 6b78 86dd 6000  33....,!1Nkx..`.
	0x0010:  0000 0050 3aff fe80 0000 0000 0000 2e21  ...P:..........!
	0x0020:  310f e54e 6438 ff02 0000 0000 0000 0000  1..Nd8..........
	0x0030:  0000 0000 0001 8600 51d5 4000 0708 0000  ........Q.@.....
	0x0040:  0000 0000 0000 0101 2c21 314e 6b78 1903  ........,!1Nkx..
	0x0050:  0000 0000 0708 2620 008d 8000 0000 0aba  ......&.........
	0x0060:  00ca daba 00ec 0304 40c0 0027 8d00 0009  ........@..'....
	0x0070:  3a80 0000 0000 2620 008d 8000 106c 0000  :.....&......l..
	0x0080:  0000 0000 0000                           ......
2024-11-07 10:04:26.535970 ARP, Request who-has 129.21.111.129 tell 129.21.111.129, length 28
	0x0000:  ffff ffff ffff 0800 271e 364a 0806 0001  ........'.6J....
	0x0010:  0800 0604 0001 0800 271e 364a 8115 6f81  ........'.6J..o.
	0x0020:  0000 0000 0000 8115 6f81                 ........o.
2024-11-07 10:04:26.536501 IP6 fe80::2e21:310f:e54e:6438 > ip6-allnodes: ICMP6, router advertisement, length 80
	0x0000:  3333 0000 0001 2c21 314e 6b78 86dd 6000  33....,!1Nkx..`.
	0x0010:  0000 0050 3aff fe80 0000 0000 0000 2e21  ...P:..........!
	0x0020:  310f e54e 6438 ff02 0000 0000 0000 0000  1..Nd8..........
	0x0030:  0000 0000 0001 8600 51d5 4000 0708 0000  ........Q.@.....
	0x0040:  0000 0000 0000 0101 2c21 314e 6b78 1903  ........,!1Nkx..
	0x0050:  0000 0000 0708 2620 008d 8000 0000 0aba  ......&.........
	0x0060:  00ca daba 00ec 0304 40c0 0027 8d00 0009  ........@..'....
	0x0070:  3a80 0000 0000 2620 008d 8000 106c 0000  :.....&......l..
	0x0080:  0000 0000 0000                           ......
2024-11-07 10:04:26.544577 IP6 fe80::dbdf:ce97:be6:dbd2 > ff02::16: HBH ICMP6, multicast listener report v2, 2 group record(s), length 48
	0x0000:  3333 0000 0016 0800 271e 364a 86dd 6000  33......'.6J..`.
	0x0010:  0000 0038 0001 fe80 0000 0000 0000 dbdf  ...8............
	0x0020:  ce97 0be6 dbd2 ff02 0000 0000 0000 0000  ................
	0x0030:  0000 0000 0016 3a00 0502 0000 0100 8f00  ......:.........
	0x0040:  eec1 0000 0002 0400 0000 ff02 0000 0000  ................
	0x0050:  0000 0000 0001 ff21 1123 0400 0000 ff02  .......!.#......
	0x0060:  0000 0000 0000 0000 0001 ffe6 dbd2       ..............
2024-11-07 10:04:26.563539 IP6 fe80::32b6:4f0f:e586:f6ed > ip6-allnodes: ICMP6, router advertisement, length 80
	0x0000:  3333 0000 0001 30b6 4f86 fe2d 86dd 6000  33....0.O..-..`.
	0x0010:  0000 0050 3aff fe80 0000 0000 0000 32b6  ...P:.........2.
	0x0020:  4f0f e586 f6ed ff02 0000 0000 0000 0000  O...............
	0x0030:  0000 0000 0001 8600 e6cf 4000 0708 0000  ..........@.....
	0x0040:  0000 0000 0000 0101 30b6 4f86 fe2d 1903  ........0.O..-..
	0x0050:  0000 0000 0708 2620 008d 8000 0000 0aba  ......&.........
	0x0060:  00ca daba 00ec 0304 40c0 0027 8d00 0009  ........@..'....
	0x0070:  3a80 0000 0000 2620 008d 8000 106c 0000  :.....&......l..
	0x0080:  0000 0000 0000                           ......
2024-11-07 10:04:26.772436 IP6 fe80::200:5eff:fe00:201 > ip6-allnodes: ICMP6, router advertisement, length 80
	0x0000:  3333 0000 0001 30b6 4f86 fe2d 86dd 6000  33....0.O..-..`.
	0x0010:  0000 0050 3aff fe80 0000 0000 0000 0200  ...P:...........
	0x0020:  5eff fe00 0201 ff02 0000 0000 0000 0000  ^...............
	0x0030:  0000 0000 0001 8600 0272 4000 0708 0000  .........r@.....
	0x0040:  0000 0000 0000 0101 0000 5e00 0201 1903  ..........^.....
	0x0050:  0000 0000 0708 2620 008d 8000 0000 0aba  ......&.........
	0x0060:  00ca daba 00ec 0304 40c0 0027 8d00 0009  ........@..'....
	0x0070:  3a80 0000 0000 2620 008d 8000 106c 0000  :.....&......l..
	0x0080:  0000 0000 0000                           ......
2024-11-07 10:04:26.787698 IP shonaxps.wireless.rit.edu.61757 > 224.0.0.252.5355: UDP, length 33
	0x0000:  0100 5e00 00fc e8c8 2942 3a29 0800 4500  ..^.....)B:)..E.
	0x0010:  003d 3e2f 0000 0111 aa51 8115 6f1e e000  .=>/.....Q..o...
	0x0020:  00fc f13d 14eb 0029 0385 68d5 0000 0001  ...=...)..h.....
	0x0030:  0000 0000 0000 0f42 5257 3330 4339 4142  .......BRW30C9AB
	0x0040:  3239 3836 3633 0000 0100 01              298663.....
2024-11-07 10:04:26.791941 IP6 fe80::dbdf:ce97:be6:dbd2 > ff02::16: HBH ICMP6, multicast listener report v2, 2 group record(s), length 48
	0x0000:  3333 0000 0016 0800 271e 364a 86dd 6000  33......'.6J..`.
	0x0010:  0000 0038 0001 fe80 0000 0000 0000 dbdf  ...8............
	0x0020:  ce97 0be6 dbd2 ff02 0000 0000 0000 0000  ................
	0x0030:  0000 0000 0016 3a00 0502 0000 0100 8f00  ......:.........
	0x0040:  eec1 0000 0002 0400 0000 ff02 0000 0000  ................
	0x0050:  0000 0000 0001 ff21 1123 0400 0000 ff02  .......!.#......
	0x0060:  0000 0000 0000 0000 0001 ffe6 dbd2       ..............
2024-11-07 10:04:27.074743 IP barbara.wireless.rit.edu.58032 > 255.255.255.255.22222: UDP, length 28
	0x0000:  ffff ffff ffff 10f6 0abb c5f6 0800 4500  ..............E.
	0x0010:  0038 4301 0000 8011 0886 8115 6e19 ffff  .8C.........n...
	0x0020:  ffff e2b0 56ce 0024 11b3 5354 525f 4243  ....V..$..STR_BC
	0x0030:  4153 5400 0000 0000 0000 5251 312e 302e  AST.......RQ1.0.
	0x0040:  3000 001c 6431                           0...d1
2024-11-07 10:04:27.074744 IP barbara.wireless.rit.edu.58034 > 255.255.255.255.22222: UDP, length 28
	0x0000:  ffff ffff ffff 10f6 0abb c5f6 0800 4500  ..............E.
	0x0010:  0038 4303 0000 8011 0884 8115 6e19 ffff  .8C.........n...
	0x0020:  ffff e2b2 56ce 0024 11b1 5354 525f 4243  ....V..$..STR_BC
	0x0030:  4153 5400 0000 0000 0000 5251 312e 302e  AST.......RQ1.0.
	0x0040:  3000 001c 6431                           0...d1
2024-11-07 10:04:27.074745 IP barbara.wireless.rit.edu.58035 > 255.255.255.255.22222: UDP, length 28
	0x0000:  ffff ffff ffff 10f6 0abb c5f6 0800 4500  ..............E.
	0x0010:  0038 4304 0000 8011 0883 8115 6e19 ffff  .8C.........n...
	0x0020:  ffff e2b3 56ce 0024 11b0 5354 525f 4243  ....V..$..STR_BC
	0x0030:  4153 5400 0000 0000 0000 5251 312e 302e  AST.......RQ1.0.
	0x0040:  3000 001c 6431                           0...d1
2024-11-07 10:04:27.076004 IP barbara.wireless.rit.edu.58029 > 255.255.255.255.22222: UDP, length 28
	0x0000:  ffff ffff ffff 10f6 0abb c5f6 0800 4500  ..............E.
	0x0010:  0038 42f9 0000 8011 088e 8115 6e19 ffff  .8B.........n...
	0x0020:  ffff e2ad 56ce 0024 11b6 5354 525f 4243  ....V..$..STR_BC
	0x0030:  4153 5400 0000 0000 0000 5251 312e 302e  AST.......RQ1.0.
	0x0040:  3000 001c 6431                           0...d1
2024-11-07 10:04:27.076005 IP barbara.wireless.rit.edu.58037 > 255.255.255.255.3289: UDP, length 14
	0x0000:  ffff ffff ffff 10f6 0abb c5f6 0800 4500  ..............E.
	0x0010:  002a 42fd 0000 8011 0898 8115 6e19 ffff  .*B.........n...
	0x0020:  ffff e2b5 0cd9 0016 3714 4550 534f 4e51  ........7.EPSONQ
	0x0030:  0300 0000 0000 0000 0000 0000            ............
2024-11-07 10:04:27.076006 IP barbara.wireless.rit.edu.58039 > 255.255.255.255.3289: UDP, length 14
	0x0000:  ffff ffff ffff 10f6 0abb c5f6 0800 4500  ..............E.
	0x0010:  002a 42fe 0000 8011 0897 8115 6e19 ffff  .*B.........n...
	0x0020:  ffff e2b7 0cd9 0016 3712 4550 534f 4e51  ........7.EPSONQ
	0x0030:  0300 0000 0000 0000 0000 0000            ............
2024-11-07 10:04:27.077529 IP barbara.wireless.rit.edu.58031 > 255.255.255.255.22222: UDP, length 28
	0x0000:  ffff ffff ffff 10f6 0abb c5f6 0800 4500  ..............E.
	0x0010:  0038 42ff 0000 8011 0888 8115 6e19 ffff  .8B.........n...
	0x0020:  ffff e2af 56ce 0024 11b4 5354 525f 4243  ....V..$..STR_BC
	0x0030:  4153 5400 0000 0000 0000 5251 312e 302e  AST.......RQ1.0.
	0x0040:  3000 001c 6431                           0...d1
2024-11-07 10:04:27.077530 IP barbara.wireless.rit.edu.58026 > 255.255.255.255.22222: UDP, length 28
	0x0000:  ffff ffff ffff 10f6 0abb c5f6 0800 4500  ..............E.
	0x0010:  0038 42f6 0000 8011 0891 8115 6e19 ffff  .8B.........n...
	0x0020:  ffff e2aa 56ce 0024 11b9 5354 525f 4243  ....V..$..STR_BC
	0x0030:  4153 5400 0000 0000 0000 5251 312e 302e  AST.......RQ1.0.
	0x0040:  3000 001c 6431                           0...d1
2024-11-07 10:04:27.077530 IP barbara.wireless.rit.edu.58027 > 255.255.255.255.22222: UDP, length 28
	0x0000:  ffff ffff ffff 10f6 0abb c5f6 0800 4500  ..............E.
	0x0010:  0038 42f8 0000 8011 088f 8115 6e19 ffff  .8B.........n...
	0x0020:  ffff e2ab 56ce 0024 11b8 5354 525f 4243  ....V..$..STR_BC
	0x0030:  4153 5400 0000 0000 0000 5251 312e 302e  AST.......RQ1.0.
	0x0040:  3000 001c 6431                           0...d1
2024-11-07 10:04:27.080141 IP barbara.wireless.rit.edu.58033 > 129.21.111.255.22222: UDP, length 28
	0x0000:  ffff ffff ffff 10f6 0abb c5f6 0800 4500  ..............E.
	0x0010:  0038 b281 0000 8011 a7f0 8115 6e19 8115  .8..........n...
	0x0020:  6fff e2b1 56ce 0024 209d 5354 525f 4243  o...V..$..STR_BC
	0x0030:  4153 5400 0000 0000 0000 5251 312e 302e  AST.......RQ1.0.
	0x0040:  3000 001c 6431                           0...d1
2024-11-07 10:04:27.080141 IP barbara.wireless.rit.edu.58030 > 255.255.255.255.22222: UDP, length 28
	0x0000:  ffff ffff ffff 10f6 0abb c5f6 0800 4500  ..............E.
	0x0010:  0038 42fa 0000 8011 088d 8115 6e19 ffff  .8B.........n...
	0x0020:  ffff e2ae 56ce 0024 11b5 5354 525f 4243  ....V..$..STR_BC
	0x0030:  4153 5400 0000 0000 0000 5251 312e 302e  AST.......RQ1.0.
	0x0040:  3000 001c 6431                           0...d1
2024-11-07 10:04:27.080845 IP barbara.wireless.rit.edu.58036 > 255.255.255.255.3289: UDP, length 14
	0x0000:  ffff ffff ffff 10f6 0abb c5f6 0800 4500  ..............E.
	0x0010:  002a 42fb 0000 8011 089a 8115 6e19 ffff  .*B.........n...
	0x0020:  ffff e2b4 0cd9 0016 3715 4550 534f 4e51  ........7.EPSONQ
	0x0030:  0300 0000 0000 0000 0000 0000            ............
2024-11-07 10:04:27.080846 IP barbara.wireless.rit.edu.58038 > 129.21.111.255.3289: UDP, length 14
	0x0000:  ffff ffff ffff 10f6 0abb c5f6 0800 4500  ..............E.
	0x0010:  002a b280 0000 8011 a7ff 8115 6e19 8115  .*..........n...
	0x0020:  6fff e2b6 0cd9 0016 45fe 4550 534f 4e51  o.......E.EPSONQ
	0x0030:  0300 0000 0000 0000 0000 0000            ............
2024-11-07 10:04:27.081763 IP barbara.wireless.rit.edu.10004 > 255.255.255.255.10004: UDP, length 83
	0x0000:  ffff ffff ffff 10f6 0abb c5f6 0800 4500  ..............E.
	0x0010:  006f 42f7 0000 8011 0859 8115 6e19 ffff  .oB......Y..n...
	0x0020:  ffff 2714 2714 005b bf57 3c58 4d4c 3e3c  ..'.'..[.W<XML><
	0x0030:  5061 636b 6574 5479 7065 3e52 6571 7565  PacketType>Reque
	0x0040:  7374 3c2f 5061 636b 6574 5479 7065 3e0a  st</PacketType>.
	0x0050:  3c50 726f 6475 6374 4e61 6d65 3e41 5047  <ProductName>APG
	0x0060:  2041 7477 6f6f 643c 2f50 726f 6475 6374  .Atwood</Product
	0x0070:  4e61 6d65 3e0a 3c2f 584d 4c3e 0a         Name>.</XML>.
2024-11-07 10:04:27.081764 IP barbara.wireless.rit.edu.10004 > 255.255.255.255.10004: UDP, length 83
	0x0000:  ffff ffff ffff 10f6 0abb c5f6 0800 4500  ..............E.
	0x0010:  006f 42fc 0000 8011 0854 8115 6e19 ffff  .oB......T..n...
	0x0020:  ffff 2714 2714 005b bf57 3c58 4d4c 3e3c  ..'.'..[.W<XML><
	0x0030:  5061 636b 6574 5479 7065 3e52 6571 7565  PacketType>Reque
	0x0040:  7374 3c2f 5061 636b 6574 5479 7065 3e0a  st</PacketType>.
	0x0050:  3c50 726f 6475 6374 4e61 6d65 3e41 5047  <ProductName>APG
	0x0060:  2041 7477 6f6f 643c 2f50 726f 6475 6374  .Atwood</Product
	0x0070:  4e61 6d65 3e0a 3c2f 584d 4c3e 0a         Name>.</XML>.
2024-11-07 10:04:27.081764 IP barbara.wireless.rit.edu.58040 > 255.255.255.255.3289: UDP, length 14
	0x0000:  ffff ffff ffff 10f6 0abb c5f6 0800 4500  ..............E.
	0x0010:  002a 4300 0000 8011 0895 8115 6e19 ffff  .*C.........n...
	0x0020:  ffff e2b8 0cd9 0016 3711 4550 534f 4e51  ........7.EPSONQ
	0x0030:  0300 0000 0000 0000 0000 0000            ............
2024-11-07 10:04:27.082894 IP barbara.wireless.rit.edu.10004 > 255.255.255.255.10004: UDP, length 83
	0x0000:  ffff ffff ffff 10f6 0abb c5f6 0800 4500  ..............E.
	0x0010:  006f 4302 0000 8011 084e 8115 6e19 ffff  .oC......N..n...
	0x0020:  ffff 2714 2714 005b bf57 3c58 4d4c 3e3c  ..'.'..[.W<XML><
	0x0030:  5061 636b 6574 5479 7065 3e52 6571 7565  PacketType>Reque
	0x0040:  7374 3c2f 5061 636b 6574 5479 7065 3e0a  st</PacketType>.
	0x0050:  3c50 726f 6475 6374 4e61 6d65 3e41 5047  <ProductName>APG
	0x0060:  2041 7477 6f6f 643c 2f50 726f 6475 6374  .Atwood</Product
	0x0070:  4e61 6d65 3e0a 3c2f 584d 4c3e 0a         Name>.</XML>.
2024-11-07 10:04:27.082894 IP barbara.wireless.rit.edu.10004 > 255.255.255.255.10004: UDP, length 83
	0x0000:  ffff ffff ffff 10f6 0abb c5f6 0800 4500  ..............E.
	0x0010:  006f 4305 0000 8011 084b 8115 6e19 ffff  .oC......K..n...
	0x0020:  ffff 2714 2714 005b bf57 3c58 4d4c 3e3c  ..'.'..[.W<XML><
	0x0030:  5061 636b 6574 5479 7065 3e52 6571 7565  PacketType>Reque
	0x0040:  7374 3c2f 5061 636b 6574 5479 7065 3e0a  st</PacketType>.
	0x0050:  3c50 726f 6475 6374 4e61 6d65 3e41 5047  <ProductName>APG
	0x0060:  2041 7477 6f6f 643c 2f50 726f 6475 6374  .Atwood</Product
	0x0070:  4e61 6d65 3e0a 3c2f 584d 4c3e 0a         Name>.</XML>.
2024-11-07 10:04:27.083549 IP barbara.wireless.rit.edu.10004 > 255.255.255.255.10004: UDP, length 83
	0x0000:  ffff ffff ffff 10f6 0abb c5f6 0800 4500  ..............E.
	0x0010:  006f 4306 0000 8011 084a 8115 6e19 ffff  .oC......J..n...
	0x0020:  ffff 2714 2714 005b bf57 3c58 4d4c 3e3c  ..'.'..[.W<XML><
	0x0030:  5061 636b 6574 5479 7065 3e52 6571 7565  PacketType>Reque
	0x0040:  7374 3c2f 5061 636b 6574 5479 7065 3e0a  st</PacketType>.
	0x0050:  3c50 726f 6475 6374 4e61 6d65 3e41 5047  <ProductName>APG
	0x0060:  2041 7477 6f6f 643c 2f50 726f 6475 6374  .Atwood</Product
	0x0070:  4e61 6d65 3e0a 3c2f 584d 4c3e 0a         Name>.</XML>.
2024-11-07 10:04:27.408190 IP 129.21.109.1.netbios-ns > 129.21.111.255.netbios-ns: UDP, length 68
	0x0000:  ffff ffff ffff 682f 6792 9083 0800 4500  ......h/g.....E.
	0x0010:  0060 5246 0000 4011 491c 8115 6d01 8115  .`RF..@.I...m...
	0x0020:  6fff 0089 0089 004c fc62 4567 2910 0001  o......L.bEg)...
	0x0030:  0000 0000 0001 2045 4e45 4245 4445 4345  .......ENEBEDECE
	0x0040:  5045 5045 4c46 4146 4345 5043 4e44 4a44  PEPELFAFCEPCNDJD
	0x0050:  4144 4944 4441 4100 0020 0001 c00c 0020  ADIDDAA.........
	0x0060:  0001 0000 0384 0006 6000 8115 6d01       ........`...m.
2024-11-07 10:04:27.417343 IP gccis-cdccis-w1.wireless.rit.edu.17500 > 255.255.255.255.17500: UDP, length 323
	0x0000:  ffff ffff ffff 1c99 57bc 0a02 0800 4500  ........W.....E.
	0x0010:  015f e230 0000 8011 6955 8115 6cf3 ffff  ._.0....iU..l...
	0x0020:  ffff 445c 445c 014b 1f55 7b22 7665 7273  ..D\D\.K.U{"vers
	0x0030:  696f 6e22 3a20 5b32 2c20 305d 2c20 2270  ion":.[2,.0],."p
	0x0040:  6f72 7422 3a20 3137 3530 302c 2022 686f  ort":.17500,."ho
	0x0050:  7374 5f69 6e74 223a 2032 3136 3538 3932  st_int":.2165892
	0x0060:  3733 3834 3337 3239 3132 3233 3431 3830  7384372912234180
	0x0070:  3330 3832 3732 3235 3234 3537 3731 3937  3082722524577197
	0x0080:  2c20 2264 6973 706c 6179 6e61 6d65 223a  ,."displayname":
	0x0090:  2022 222c 2022 6e61 6d65 7370 6163 6573  ."",."namespaces
	0x00a0:  223a 205b 3836 3035 3633 3636 3430 2c20  ":.[8605636640,.
	0x00b0:  3238 3539 3335 3737 3239 2c20 3835 3636  2859357729,.8566
	0x00c0:  3137 3231 3932 2c20 3335 3035 3231 3431  172192,.35052141
	0x00d0:  3435 2c20 3336 3435 3431 302c 2038 3630  45,.3645410,.860
	0x00e0:  3832 3734 3439 362c 2031 3238 3732 3730  8274496,.1287270
	0x00f0:  3438 2c20 3639 3233 3134 3331 3834 2c20  48,.6923143184,.
	0x0100:  3130 3130 3830 3539 3838 382c 2036 3933  10108059888,.693
	0x0110:  3533 3135 3530 342c 2038 3630 3634 3835  5315504,.8606485
	0x0120:  3034 302c 2033 3034 3237 3036 3136 312c  040,.3042706161,
	0x0130:  2036 3037 3231 3330 3232 342c 2032 3834  .6072130224,.284
	0x0140:  3430 3836 3637 332c 2033 3334 3237 3239  4086673,.3342729
	0x0150:  3336 312c 2034 3634 3836 3738 3238 382c  361,.4648678288,
	0x0160:  2039 3036 3733 3234 3834 385d 7d         .9067324848]}
2024-11-07 10:04:27.418029 IP gccis-cdccis-w1.wireless.rit.edu.17500 > 129.21.111.255.17500: UDP, length 323
	0x0000:  ffff ffff ffff 1c99 57bc 0a02 0800 4500  ........W.....E.
	0x0010:  015f 47c7 0000 8011 12aa 8115 6cf3 8115  ._G.........l...
	0x0020:  6fff 445c 445c 014b 2e40 7b22 7665 7273  o.D\D\.K.@{"vers
	0x0030:  696f 6e22 3a20 5b32 2c20 305d 2c20 2270  ion":.[2,.0],."p
	0x0040:  6f72 7422 3a20 3137 3530 302c 2022 686f  ort":.17500,."ho
	0x0050:  7374 5f69 6e74 223a 2032 3136 3538 3932  st_int":.2165892
	0x0060:  3733 3834 3337 3239 3132 3233 3431 3830  7384372912234180
	0x0070:  3330 3832 3732 3235 3234 3537 3731 3937  3082722524577197
	0x0080:  2c20 2264 6973 706c 6179 6e61 6d65 223a  ,."displayname":
	0x0090:  2022 222c 2022 6e61 6d65 7370 6163 6573  ."",."namespaces
	0x00a0:  223a 205b 3836 3035 3633 3636 3430 2c20  ":.[8605636640,.
	0x00b0:  3238 3539 3335 3737 3239 2c20 3835 3636  2859357729,.8566
	0x00c0:  3137 3231 3932 2c20 3335 3035 3231 3431  172192,.35052141
	0x00d0:  3435 2c20 3336 3435 3431 302c 2038 3630  45,.3645410,.860
	0x00e0:  3832 3734 3439 362c 2031 3238 3732 3730  8274496,.1287270
	0x00f0:  3438 2c20 3639 3233 3134 3331 3834 2c20  48,.6923143184,.
	0x0100:  3130 3130 3830 3539 3838 382c 2036 3933  10108059888,.693
	0x0110:  3533 3135 3530 342c 2038 3630 3634 3835  5315504,.8606485
	0x0120:  3034 302c 2033 3034 3237 3036 3136 312c  040,.3042706161,
	0x0130:  2036 3037 3231 3330 3232 342c 2032 3834  .6072130224,.284
	0x0140:  3430 3836 3637 332c 2033 3334 3237 3239  4086673,.3342729
	0x0150:  3336 312c 2034 3634 3836 3738 3238 382c  361,.4648678288,
	0x0160:  2039 3036 3733 3234 3834 385d 7d         .9067324848]}
