2024-10-23 14:06:58.283437 IP nicholass-mbp-2.wireless.rit.edu.netbios-ns > 129.21.95.255.netbios-ns: UDP, length 68
	0x0000:  ffff ffff ffff 6c7e 67d1 14b3 0800 4500  ......l~g.....E.
	0x0010:  0060 a0ab 0000 4011 1ae2 8115 5cd6 8115  .`....@.....\...
	0x0020:  5fff 0089 0089 004c 2bb7 4567 2910 0001  _......L+.Eg)...
	0x0030:  0000 0000 0001 2045 4f45 4a45 4445 4945  .......EOEJEDEIE
	0x0040:  5045 4d45 4246 4446 4443 4e45 4e45 4346  PEMEBFDFDCNENECF
	0x0050:  4143 4e44 4341 4100 0020 0001 c00c 0020  ACNDCAA.........
	0x0060:  0001 0000 0384 0006 6000 8115 5cd6       ........`...\.
2024-10-23 14:06:58.283438 IP metra.student.rit.edu.17500 > 10.118.255.255.17500: UDP, length 134
	0x0000:  ffff ffff ffff 9a70 b5d3 a472 0800 4500  .......p...r..E.
	0x0010:  00a2 1d47 0000 4011 368d 0a76 118c 0a76  ...G..@.6..v...v
	0x0020:  ffff 445c 445c 008e 87c5 7b22 7665 7273  ..D\D\....{"vers
	0x0030:  696f 6e22 3a20 5b32 2c20 305d 2c20 2270  ion":.[2,.0],."p
	0x0040:  6f72 7422 3a20 3137 3530 302c 2022 686f  ort":.17500,."ho
	0x0050:  7374 5f69 6e74 223a 2031 3431 3634 3131  st_int":.1416411
	0x0060:  3536 3238 3534 3533 3134 3036 3133 3637  5628545314061367
	0x0070:  3937 3635 3231 3431 3733 3434 3939 3632  9765214173449962
	0x0080:  2c20 2264 6973 706c 6179 6e61 6d65 223a  ,."displayname":
	0x0090:  2022 222c 2022 6e61 6d65 7370 6163 6573  ."",."namespaces
	0x00a0:  223a 205b 3132 3535 3336 3131 3936 5d7d  ":.[1255361196]}
2024-10-23 14:06:58.732332 IP hawat.wireless.rit.edu.mdns > mdns.mcast.net.mdns: 0 PTR (QU)? _ipp._tcp.local. (33)
	0x0000:  0100 5e00 00fb ec2e 987a c577 0800 4500  ..^......z.w..E.
	0x0010:  003d a57f 0000 0111 457a 8115 6ca6 e000  .=......Ez..l...
	0x0020:  00fb 14e9 14e9 0029 829d 0000 0000 0001  .......)........
	0x0030:  0000 0000 0000 045f 6970 7004 5f74 6370  ......._ipp._tcp
	0x0040:  056c 6f63 616c 0000 0c80 01              .local.....
2024-10-23 14:06:58.734018 IP6 fe80::255e:56bb:da1e:b905.mdns > ff02::fb.mdns: 0 PTR (QU)? _ipp._tcp.local. (33)
	0x0000:  3333 0000 00fb ec2e 987a c577 86dd 600b  33.......z.w..`.
	0x0010:  ccb7 0029 1101 fe80 0000 0000 0000 255e  ...)..........%^
	0x0020:  56bb da1e b905 ff02 0000 0000 0000 0000  V...............
	0x0030:  0000 0000 00fb 14e9 14e9 0029 4398 0000  ...........)C...
	0x0040:  0000 0001 0000 0000 0000 045f 6970 7004  ..........._ipp.
	0x0050:  5f74 6370 056c 6f63 616c 0000 0c80 01    _tcp.local.....
2024-10-23 14:06:58.736136 IP hawat.wireless.rit.edu.mdns > mdns.mcast.net.mdns: 0 PTR (QU)? _ipps._tcp.local. (34)
	0x0000:  0100 5e00 00fb ec2e 987a c577 0800 4500  ..^......z.w..E.
	0x0010:  003e a580 0000 0111 4578 8115 6ca6 e000  .>......Ex..l...
	0x0020:  00fb 14e9 14e9 002a 8326 0000 0000 0001  .......*.&......
	0x0030:  0000 0000 0000 055f 6970 7073 045f 7463  ......._ipps._tc
	0x0040:  7005 6c6f 6361 6c00 000c 8001            p.local.....
2024-10-23 14:06:58.736137 IP6 fe80::200:5eff:fe00:201 > ip6-allnodes: ICMP6, router advertisement, length 80
	0x0000:  3333 0000 0001 30b6 4f86 fe2d 86dd 6000  33....0.O..-..`.
	0x0010:  0000 0050 3aff fe80 0000 0000 0000 0200  ...P:...........
	0x0020:  5eff fe00 0201 ff02 0000 0000 0000 0000  ^...............
	0x0030:  0000 0000 0001 8600 0272 4000 0708 0000  .........r@.....
	0x0040:  0000 0000 0000 0101 0000 5e00 0201 1903  ..........^.....
	0x0050:  0000 0000 0708 2620 008d 8000 0000 0aba  ......&.........
	0x0060:  00ca daba 00ec 0304 40c0 0027 8d00 0009  ........@..'....
	0x0070:  3a80 0000 0000 2620 008d 8000 106c 0000  :.....&......l..
	0x0080:  0000 0000 0000                           ......
2024-10-23 14:06:58.736142 IP desktop-k1s9hfb.wireless.rit.edu.57851 > 224.0.0.252.5355: UDP, length 33
	0x0000:  0100 5e00 00fc 3005 05bb 1efd 0800 4500  ..^...0.......E.
	0x0010:  003d be63 0000 0111 3d1c 8115 5c1f e000  .=.c....=...\...
	0x0020:  00fc e1fb 14eb 0029 5504 2819 0000 0001  .......)U.(.....
	0x0030:  0000 0000 0000 0f44 4553 4b54 4f50 2d4b  .......DESKTOP-K
	0x0040:  3153 3948 4642 0000 ff00 01              1S9HFB.....
2024-10-23 14:06:58.736531 IP rit-dorm1-010-vlan4063.rit.edu > pim-routers.mcast.net: PIMv2, Hello, length 48
	0x0000:  0100 5e00 000d 30b6 4f86 fe2d 0800 45c0  ..^...0.O..-..E.
	0x0010:  0044 5517 0000 0167 a25d 8115 5ffc e000  .DU....g.].._...
	0x0020:  000d 2000 4e2a 0001 0002 0069 0002 0004  ....N*.....i....
	0x0030:  81f4 07d0 0013 0004 0000 00c8 0018 0006  ................
	0x0040:  0100 8115 5ffe 0014 0004 6251 c20a 001a  ...._.....bQ....
	0x0050:  0000                                     ..
2024-10-23 14:06:58.736532 IP jasons-mbp-9.wireless.rit.edu.netbios-ns > 129.21.111.255.netbios-ns: UDP, length 50
	0x0000:  ffff ffff ffff f40f 241a aa42 0800 4500  ........$..B..E.
	0x0010:  004e d0b2 0000 4011 cb36 8115 6c8c 8115  .N....@..6..l...
	0x0020:  6fff 0089 0089 003a 5729 460c 0110 0001  o......:W)F.....
	0x0030:  0000 0000 0000 2046 4845 5046 4345 4c45  .......FHEPFCELE
	0x0040:  4846 4345 5046 4646 4143 4143 4143 4143  HFCEPFFFACACACAC
	0x0050:  4143 4143 4142 4e00 0020 0001            ACACABN.....
2024-10-23 14:06:58.736533 IP jasons-mbp-9.wireless.rit.edu.netbios-dgm > 129.21.111.255.netbios-dgm: UDP, length 174
	0x0000:  ffff ffff ffff f40f 241a aa42 0800 4500  ........$..B..E.
	0x0010:  00ca 0146 0000 4011 9a27 8115 6c8c 8115  ...F..@..'..l...
	0x0020:  6fff 008a 008a 00b6 e2de 1102 460b 8115  o...........F...
	0x0030:  6c8c 0000 00a0 0000 2045 4e45 4245 4445  l........ENEBEDE
	0x0040:  4345 5045 5045 4c46 4146 4345 5043 4e45  CEPEPELFAFCEPCNE
	0x0050:  4245 4244 4544 4341 4100 2046 4845 5046  BEBDEDCAA..FHEPF
	0x0060:  4345 4c45 4846 4345 5046 4646 4143 4143  CELEHFCEPFFFACAC
	0x0070:  4143 4143 4143 4143 4142 4e00 ff53 4d42  ACACACACABN..SMB
	0x0080:  2500 0000 0000 0000 0000 0000 0000 0000  %...............
	0x0090:  0000 0000 0000 bad8 0000 0a46 1100 0006  ...........F....
	0x00a0:  0000 0000 0000 0002 0000 0000 0000 0000  ................
	0x00b0:  0000 0006 0056 0003 0001 0001 0002 0017  .....V..........
	0x00c0:  005c 4d41 494c 534c 4f54 5c42 524f 5753  .\MAILSLOT\BROWS
	0x00d0:  4500 0904 0946 0000                      E....F..
2024-10-23 14:06:58.736533 IP desktop-50hdvug.wireless.rit.edu.50543 > 224.0.0.252.5355: UDP, length 33
	0x0000:  0100 5e00 00fc ac12 034c 2ff7 0800 4500  ..^......L/...E.
	0x0010:  003d d2aa 0000 0111 2886 8115 5c6e e000  .=......(...\n..
	0x0020:  00fc c56f 14eb 0029 9d47 e320 0000 0001  ...o...).G......
	0x0030:  0000 0000 0000 0f44 4553 4b54 4f50 2d35  .......DESKTOP-5
	0x0040:  3048 4456 5547 0000 ff00 01              0HDVUG.....
2024-10-23 14:06:58.736534 IP laptop-glhdgldo.wireless.rit.edu.51207 > 224.0.0.252.5355: UDP, length 33
	0x0000:  0100 5e00 00fc e8fb 1ca3 4673 0800 4500  ..^.......Fs..E.
	0x0010:  003d ad80 0000 0111 3c52 8115 6dcc e000  .=......<R..m...
	0x0020:  00fc c807 14eb 0029 2a79 180b 0000 0001  .......)*y......
	0x0030:  0000 0000 0000 0f4c 4150 544f 502d 474c  .......LAPTOP-GL
	0x0040:  4844 474c 444f 0000 ff00 01              HDGLDO.....
2024-10-23 14:06:58.736841 IP 10.118.63.229.57621 > 10.118.255.255.57621: UDP, length 40
	0x0000:  ffff ffff ffff 2e3d 0a3a 9fa2 0800 4500  .......=.:....E.
	0x0010:  0044 a8df 0000 4011 7cf9 0a76 3fe5 0a76  .D....@.|..v?..v
	0x0020:  ffff e115 e115 0030 cbdc 5370 6f74 5564  .......0..SpotUd
	0x0030:  7030 d44c 49a2 d231 9efa 0001 0000 e401  p0.LI..1........
	0x0040:  3fce 3a60 0938 87c0 0549 bb83 c85b 17d4  ?.:`.8...I...[..
	0x0050:  74f9                                     t.
2024-10-23 14:06:58.736842 IP desktop-j3n2uai.wireless.rit.edu.54915 > 129.21.95.255.54915: UDP, length 263
	0x0000:  ffff ffff ffff 2c6f c93a 9e63 0800 4500  ......,o.:.c..E.
	0x0010:  0123 6b7c 0000 8011 0f69 8115 5cbb 8115  .#k|.....i..\...
	0x0020:  5fff d683 d683 010f f3b3 0044 4553 4b54  _..........DESKT
	0x0030:  4f50 2d4a 334e 3255 4149 00b3 6f27 0600  OP-J3N2UAI..o'..
	0x0040:  0000 0000 0000 0000 0000 3327 0000 0000  ..........3'....
	0x0050:  0000 40c7 542a 6301 0000 0015 482b 6301  ..@.T*c.....H+c.
	0x0060:  0000 6014 802a 6301 0000 0000 0000 0000  ..`..*c.........
	0x0070:  0000 7c6a 735f 0000 0000 b0a4 2160 0000  ..|js_......!`..
	0x0080:  0000 d9b7 6f27 0600 0000 0000 0000 0000  ....o'..........
	0x0090:  0000 5023 482b 6301 0000 24b4 6f27 0600  ..P#H+c...$.o'..
	0x00a0:  0000 40b4 6f27 0600 0000 282e db7b 6439  ..@.o'....(..{d9
	0x00b0:  3163 6537 3262 2d33 3266 302d 3438 6136  1ce72b-32f0-48a6
	0x00c0:  2d61 3733 392d 3737 3739 3338 6231 6536  -a739-777938b1e6
	0x00d0:  3263 7d00 0000 0000 0000 0100 0000 0000  2c}.............
	0x00e0:  0000 20b4 6f27 0600 0000 0000 0000 0000  ....o'..........
	0x00f0:  0000 0000 0000 0000 0000 0000 0000 0000  ................
	0x0100:  0000 0000 0000 0000 0000 0000 0000 0000  ................
	0x0110:  0000 0000 0000 0000 0000 0000 0000 0000  ................
	0x0120:  0000 0000 0000 0000 0000 0000 001f 1e4b  ...............K
	0x0130:  3d                                       =
2024-10-23 14:06:58.737285 IP6 fe80::2e21:310f:e54e:6438 > ip6-allnodes: ICMP6, router advertisement, length 80
	0x0000:  3333 0000 0001 2c21 314e 6b78 86dd 6000  33....,!1Nkx..`.
	0x0010:  0000 0050 3aff fe80 0000 0000 0000 2e21  ...P:..........!
	0x0020:  310f e54e 6438 ff02 0000 0000 0000 0000  1..Nd8..........
	0x0030:  0000 0000 0001 8600 51d5 4000 0708 0000  ........Q.@.....
	0x0040:  0000 0000 0000 0101 2c21 314e 6b78 1903  ........,!1Nkx..
	0x0050:  0000 0000 0708 2620 008d 8000 0000 0aba  ......&.........
	0x0060:  00ca daba 00ec 0304 40c0 0027 8d00 0009  ........@..'....
	0x0070:  3a80 0000 0000 2620 008d 8000 106c 0000  :.....&......l..
	0x0080:  0000 0000 0000                           ......
2024-10-23 14:06:58.737286 IP6 fe80::2e21:310f:e54e:6438 > ip6-allnodes: ICMP6, router advertisement, length 80
	0x0000:  3333 0000 0001 2c21 314e 6b78 86dd 6000  33....,!1Nkx..`.
	0x0010:  0000 0050 3aff fe80 0000 0000 0000 2e21  ...P:..........!
	0x0020:  310f e54e 6438 ff02 0000 0000 0000 0000  1..Nd8..........
	0x0030:  0000 0000 0001 8600 51d5 4000 0708 0000  ........Q.@.....
	0x0040:  0000 0000 0000 0101 2c21 314e 6b78 1903  ........,!1Nkx..
	0x0050:  0000 0000 0708 2620 008d 8000 0000 0aba  ......&.........
	0x0060:  00ca daba 00ec 0304 40c0 0027 8d00 0009  ........@..'....
	0x0070:  3a80 0000 0000 2620 008d 8000 106c 0000  :.....&......l..
	0x0080:  0000 0000 0000                           ......
2024-10-23 14:06:58.737797 IP6 fe80::255e:56bb:da1e:b905.mdns > ff02::fb.mdns: 0 PTR (QU)? _ipps._tcp.local. (34)
	0x0000:  3333 0000 00fb ec2e 987a c577 86dd 6007  33.......z.w..`.
	0x0010:  41c1 002a 1101 fe80 0000 0000 0000 255e  A..*..........%^
	0x0020:  56bb da1e b905 ff02 0000 0000 0000 0000  V...............
	0x0030:  0000 0000 00fb 14e9 14e9 002a 4421 0000  ...........*D!..
	0x0040:  0000 0001 0000 0000 0000 055f 6970 7073  ..........._ipps
	0x0050:  045f 7463 7005 6c6f 6361 6c00 000c 8001  ._tcp.local.....
2024-10-23 14:06:58.749044 IP6 fe80::dbdf:ce97:be6:dbd2 > ff02::16: HBH ICMP6, multicast listener report v2, 2 group record(s), length 48
	0x0000:  3333 0000 0016 0800 271e 364a 86dd 6000  33......'.6J..`.
	0x0010:  0000 0038 0001 fe80 0000 0000 0000 dbdf  ...8............
	0x0020:  ce97 0be6 dbd2 ff02 0000 0000 0000 0000  ................
	0x0030:  0000 0000 0016 3a00 0502 0000 0100 8f00  ......:.........
	0x0040:  eec1 0000 0002 0400 0000 ff02 0000 0000  ................
	0x0050:  0000 0000 0001 ff21 1123 0400 0000 ff02  .......!.#......
	0x0060:  0000 0000 0000 0000 0001 ffe6 dbd2       ..............
2024-10-23 14:06:58.902638 IP 10.118.44.227.57621 > 10.118.255.255.57621: UDP, length 40
	0x0000:  ffff ffff ffff 1211 7ce5 4c9a 0800 4500  ........|.L...E.
	0x0010:  0044 41f2 4000 4011 b6e8 0a76 2ce3 0a76  .DA.@.@....v,..v
	0x0020:  ffff e115 e115 0030 a9b8 5370 6f74 5564  .......0..SpotUd
	0x0030:  7030 829f 1986 3181 fede 0001 0000 f0dd  p0....1.........
	0x0040:  1ff0 65d2 ff2c 9889 6567 277f 8da3 12cc  ..e..,..eg'.....
	0x0050:  c12d                                     .-
2024-10-23 14:06:58.902639 IP desktop-no9108o.wireless.rit.edu.52936 > 224.0.0.252.5355: UDP, length 33
	0x0000:  0100 5e00 00fc 6ca1 0068 6ff7 0800 4500  ..^...l..ho...E.
	0x0010:  003d 3c70 0000 0111 bdf8 8115 5d36 e000  .=<p........]6..
	0x0020:  00fc cec8 14eb 0029 fb7c 8bde 0000 0001  .......).|......
	0x0030:  0000 0000 0000 0f44 4553 4b54 4f50 2d4e  .......DESKTOP-N
	0x0040:  4f39 3130 384f 0000 ff00 01              O9108O.....
