2024-11-10 23:35:29.537533 IP 192.168.0.141 > 192.168.0.203: ICMP echo request, id 21050, seq 9, length 64
	0x0000:  7ab9 bdf9 8c20 0800 271e 364a 0800 4500  z.......'.6J..E.
	0x0010:  0054 1147 4000 4001 a6b9 c0a8 008d c0a8  .T.G@.@.........
	0x0020:  00cb 0800 92c5 523a 0009 9189 3167 0000  ......R:....1g..
	0x0030:  0000 8933 0800 0000 0000 1011 1213 1415  ...3............
	0x0040:  1617 1819 1a1b 1c1d 1e1f 2021 2223 2425  ...........!"#$%
	0x0050:  2627 2829 2a2b 2c2d 2e2f 3031 3233 3435  &'()*+,-./012345
	0x0060:  3637                                     67
2024-11-10 23:35:29.672913 IP 192.168.0.203 > 192.168.0.141: ICMP echo reply, id 21050, seq 9, length 64
	0x0000:  0800 271e 364a 7ab9 bdf9 8c20 0800 4500  ..'.6Jz.......E.
	0x0010:  0054 0000 4000 4001 b800 c0a8 00cb c0a8  .T..@.@.........
	0x0020:  008d 0000 9ac5 523a 0009 9189 3167 0000  ......R:....1g..
	0x0030:  0000 8933 0800 0000 0000 1011 1213 1415  ...3............
	0x0040:  1617 1819 1a1b 1c1d 1e1f 2021 2223 2425  ...........!"#$%
	0x0050:  2627 2829 2a2b 2c2d 2e2f 3031 3233 3435  &'()*+,-./012345
	0x0060:  3637                                     67
2024-11-10 23:35:29.864107 IP 192.168.0.141.34940 > 192.168.0.1.domain: 57214+ PTR? 203.0.168.192.in-addr.arpa. (44)
	0x0000:  ac15 a269 6ce2 0800 271e 364a 0800 4500  ...il...'.6J..E.
	0x0010:  0048 abd7 4000 4011 0cef c0a8 008d c0a8  .H..@.@.........
	0x0020:  0001 887c 0035 0034 8224 df7e 0100 0001  ...|.5.4.$.~....
	0x0030:  0000 0000 0000 0332 3033 0130 0331 3638  .......203.0.168
	0x0040:  0331 3932 0769 6e2d 6164 6472 0461 7270  .192.in-addr.arp
	0x0050:  6100 000c 0001                           a.....
2024-11-10 23:35:29.885226 IP 192.168.0.1.domain > 192.168.0.141.34940: 57214 NXDomain 0/0/0 (44)
	0x0000:  0800 271e 364a ac15 a269 6ce2 0800 4500  ..'.6J...il...E.
	0x0010:  0048 01a3 0000 7611 c123 c0a8 0001 c0a8  .H....v..#......
	0x0020:  008d 0035 887c 0034 d644 df7e 8183 0001  ...5.|.4.D.~....
	0x0030:  0000 0000 0000 0332 3033 0130 0331 3638  .......203.0.168
	0x0040:  0331 3932 0769 6e2d 6164 6472 0461 7270  .192.in-addr.arp
	0x0050:  6100 000c 0001                           a.....
2024-11-10 23:35:29.885770 IP 192.168.0.141.59462 > 192.168.0.1.domain: 55053+ PTR? 141.0.168.192.in-addr.arpa. (44)
	0x0000:  ac15 a269 6ce2 0800 271e 364a 0800 4500  ...il...'.6J..E.
	0x0010:  0048 c888 4000 4011 f03d c0a8 008d c0a8  .H..@.@..=......
	0x0020:  0001 e846 0035 0034 8224 d70d 0100 0001  ...F.5.4.$......
	0x0030:  0000 0000 0000 0331 3431 0130 0331 3638  .......141.0.168
	0x0040:  0331 3932 0769 6e2d 6164 6472 0461 7270  .192.in-addr.arp
	0x0050:  6100 000c 0001                           a.....
2024-11-10 23:35:29.980859 IP 192.168.0.1.domain > 192.168.0.141.59462: 55053 NXDomain 0/0/0 (44)
	0x0000:  0800 271e 364a ac15 a269 6ce2 0800 4500  ..'.6J...il...E.
	0x0010:  0048 d116 0000 3611 31b0 c0a8 0001 c0a8  .H....6.1.......
	0x0020:  008d 0035 e846 0034 7aee d70d 8183 0001  ...5.F.4z.......
	0x0030:  0000 0000 0000 0331 3431 0130 0331 3638  .......141.0.168
	0x0040:  0331 3932 0769 6e2d 6164 6472 0461 7270  .192.in-addr.arp
	0x0050:  6100 000c 0001                           a.....
2024-11-10 23:35:30.577259 ARP, Request who-has 192.168.0.1 tell 192.168.0.141, length 28
	0x0000:  ac15 a269 6ce2 0800 271e 364a 0806 0001  ...il...'.6J....
	0x0010:  0800 0604 0001 0800 271e 364a c0a8 008d  ........'.6J....
	0x0020:  0000 0000 0000 c0a8 0001                 ..........
2024-11-10 23:35:30.577322 IP 192.168.0.141 > 192.168.0.203: ICMP echo request, id 21050, seq 10, length 64
	0x0000:  7ab9 bdf9 8c20 0800 271e 364a 0800 4500  z.......'.6J..E.
	0x0010:  0054 120d 4000 4001 a5f3 c0a8 008d c0a8  .T..@.@.........
	0x0020:  00cb 0800 2229 523a 000a 9289 3167 0000  ....")R:....1g..
	0x0030:  0000 f8ce 0800 0000 0000 1011 1213 1415  ................
	0x0040:  1617 1819 1a1b 1c1d 1e1f 2021 2223 2425  ...........!"#$%
	0x0050:  2627 2829 2a2b 2c2d 2e2f 3031 3233 3435  &'()*+,-./012345
	0x0060:  3637                                     67
2024-11-10 23:35:30.588227 ARP, Request who-has 192.168.0.141 tell 192.168.0.1, length 46
	0x0000:  ffff ffff ffff ac15 a269 6ce2 0806 0001  .........il.....
	0x0010:  0800 0604 0001 ac15 a269 6ce2 c0a8 0001  .........il.....
	0x0020:  0000 0000 0000 c0a8 008d 0000 0000 0000  ................
	0x0030:  0000 0000 0000 0000 0000 0000            ............
2024-11-10 23:35:30.588254 ARP, Reply 192.168.0.141 is-at 08:00:27:1e:36:4a (oui Unknown), length 28
	0x0000:  ac15 a269 6ce2 0800 271e 364a 0806 0001  ...il...'.6J....
	0x0010:  0800 0604 0002 0800 271e 364a c0a8 008d  ........'.6J....
	0x0020:  ac15 a269 6ce2 c0a8 0001                 ...il.....
2024-11-10 23:35:30.588228 ARP, Reply 192.168.0.1 is-at ac:15:a2:69:6c:e2 (oui Unknown), length 46
	0x0000:  0800 271e 364a ac15 a269 6ce2 0806 0001  ..'.6J...il.....
	0x0010:  0800 0604 0002 ac15 a269 6ce2 c0a8 0001  .........il.....
	0x0020:  0800 271e 364a c0a8 008d 0000 0000 0000  ..'.6J..........
	0x0030:  0000 0000 0000 0000 0000 0000            ............
2024-11-10 23:35:30.695523 IP 192.168.0.203 > 192.168.0.141: ICMP echo reply, id 21050, seq 10, length 64
	0x0000:  0800 271e 364a 7ab9 bdf9 8c20 0800 4500  ..'.6Jz.......E.
	0x0010:  0054 0000 4000 4001 b800 c0a8 00cb c0a8  .T..@.@.........
	0x0020:  008d 0000 2a29 523a 000a 9289 3167 0000  ....*)R:....1g..
	0x0030:  0000 f8ce 0800 0000 0000 1011 1213 1415  ................
	0x0040:  1617 1819 1a1b 1c1d 1e1f 2021 2223 2425  ...........!"#$%
	0x0050:  2627 2829 2a2b 2c2d 2e2f 3031 3233 3435  &'()*+,-./012345
	0x0060:  3637                                     67
2024-11-10 23:35:30.878398 IP 192.168.0.141.48587 > 192.168.0.1.domain: 39294+ PTR? 1.0.168.192.in-addr.arpa. (42)
	0x0000:  ac15 a269 6ce2 0800 271e 364a 0800 4500  ...il...'.6J..E.
	0x0010:  0046 2a84 4000 4011 8e44 c0a8 008d c0a8  .F*.@.@..D......
	0x0020:  0001 bdcb 0035 0032 8222 997e 0100 0001  .....5.2.".~....
	0x0030:  0000 0000 0000 0131 0130 0331 3638 0331  .......1.0.168.1
	0x0040:  3932 0769 6e2d 6164 6472 0461 7270 6100  92.in-addr.arpa.
	0x0050:  000c 0001                                ....
2024-11-10 23:35:31.000228 IP 192.168.0.1.domain > 192.168.0.141.48587: 39294 NXDomain 0/0/0 (42)
	0x0000:  0800 271e 364a ac15 a269 6ce2 0800 4500  ..'.6J...il...E.
	0x0010:  0046 400e 0000 7611 82ba c0a8 0001 c0a8  .F@...v.........
	0x0020:  008d 0035 bdcb 0032 192e 997e 8183 0001  ...5...2...~....
	0x0030:  0000 0000 0000 0131 0130 0331 3638 0331  .......1.0.168.1
	0x0040:  3932 0769 6e2d 6164 6472 0461 7270 6100  92.in-addr.arpa.
	0x0050:  000c 0001                                ....
2024-11-10 23:35:31.615663 IP 192.168.0.141 > 192.168.0.203: ICMP echo request, id 21050, seq 11, length 64
	0x0000:  7ab9 bdf9 8c20 0800 271e 364a 0800 4500  z.......'.6J..E.
	0x0010:  0054 12cb 4000 4001 a535 c0a8 008d c0a8  .T..@.@..5......
	0x0020:  00cb 0800 5a92 523a 000b 9389 3167 0000  ....Z.R:....1g..
	0x0030:  0000 be64 0900 0000 0000 1011 1213 1415  ...d............
	0x0040:  1617 1819 1a1b 1c1d 1e1f 2021 2223 2425  ...........!"#$%
	0x0050:  2627 2829 2a2b 2c2d 2e2f 3031 3233 3435  &'()*+,-./012345
	0x0060:  3637                                     67
2024-11-10 23:35:31.719175 IP 192.168.0.203 > 192.168.0.141: ICMP echo reply, id 21050, seq 11, length 64
	0x0000:  0800 271e 364a 7ab9 bdf9 8c20 0800 4500  ..'.6Jz.......E.
	0x0010:  0054 0000 4000 4001 b800 c0a8 00cb c0a8  .T..@.@.........
	0x0020:  008d 0000 6292 523a 000b 9389 3167 0000  ....b.R:....1g..
	0x0030:  0000 be64 0900 0000 0000 1011 1213 1415  ...d............
	0x0040:  1617 1819 1a1b 1c1d 1e1f 2021 2223 2425  ...........!"#$%
	0x0050:  2627 2829 2a2b 2c2d 2e2f 3031 3233 3435  &'()*+,-./012345
	0x0060:  3637                                     67
2024-11-10 23:35:32.227640 IP 192.168.0.1.59104 > mdns.mcast.net.mdns: 28135 PTR (QM)? 192.168.0.141.in-addr.arpa. (44)
	0x0000:  0100 5e00 00fb ac15 a269 6ce2 0800 4500  ..^......il...E.
	0x0010:  0048 0000 4000 0111 d800 c0a8 0001 e000  .H..@...........
	0x0020:  00fb e6e0 14e9 0034 3284 6de7 0000 0001  .......42.m.....
	0x0030:  0000 0000 0000 0331 3932 0331 3638 0130  .......192.168.0
	0x0040:  0331 3431 0769 6e2d 6164 6472 0461 7270  .141.in-addr.arp
	0x0050:  6100 000c 0001                           a.....
2024-11-10 23:35:32.227641 IP 192.168.0.1.50887 > mdns.mcast.net.mdns: 28136 PTR (QM)? 192.168.0.141.in-addr.arpa. (44)
	0x0000:  0100 5e00 00fb ac15 a269 6ce2 0800 4500  ..^......il...E.
	0x0010:  0048 0000 4000 0111 d800 c0a8 0001 e000  .H..@...........
	0x0020:  00fb c6c7 14e9 0034 529c 6de8 0000 0001  .......4R.m.....
	0x0030:  0000 0000 0000 0331 3932 0331 3638 0130  .......192.168.0
	0x0040:  0331 3431 0769 6e2d 6164 6472 0461 7270  .141.in-addr.arp
	0x0050:  6100 000c 0001                           a.....
2024-11-10 23:35:32.237118 IP 192.168.0.1.44151 > 192.168.0.141.netbios-ns: UDP, length 50
	0x0000:  0800 271e 364a ac15 a269 6ce2 0800 4500  ..'.6J...il...E.
	0x0010:  004e 0000 4000 4011 b8c0 c0a8 0001 c0a8  .N..@.@.........
	0x0020:  008d ac77 0089 003a 7109 2158 0000 0001  ...w...:q.!X....
	0x0030:  0000 0000 0000 2043 4b41 4141 4141 4141  .......CKAAAAAAA
	0x0040:  4141 4141 4141 4141 4141 4141 4141 4141  AAAAAAAAAAAAAAAA
	0x0050:  4141 4141 4141 4100 0021 0001            AAAAAAA..!..
2024-11-10 23:35:32.237118 IP 192.168.0.1.53385 > 192.168.0.141.netbios-ns: UDP, length 50
	0x0000:  0800 271e 364a ac15 a269 6ce2 0800 4500  ..'.6J...il...E.
	0x0010:  004e 0000 4000 4011 b8c0 c0a8 0001 c0a8  .N..@.@.........
	0x0020:  008d d089 0089 003a 4cf6 2159 0000 0001  .......:L.!Y....
	0x0030:  0000 0000 0000 2043 4b41 4141 4141 4141  .......CKAAAAAAA
	0x0040:  4141 4141 4141 4141 4141 4141 4141 4141  AAAAAAAAAAAAAAAA
	0x0050:  4141 4141 4141 4100 0021 0001            AAAAAAA..!..
2024-11-10 23:35:32.237211 IP 192.168.0.141 > 192.168.0.1: ICMP 192.168.0.141 udp port netbios-ns unreachable, length 86
	0x0000:  ac15 a269 6ce2 0800 271e 364a 0800 45c0  ...il...'.6J..E.
	0x0010:  006a ea75 0000 4001 0d7f c0a8 008d c0a8  .j.u..@.........
	0x0020:  0001 0303 7f27 0000 0000 4500 004e 0000  .....'....E..N..
	0x0030:  4000 4011 b8c0 c0a8 0001 c0a8 008d ac77  @.@............w
	0x0040:  0089 003a 7109 2158 0000 0001 0000 0000  ...:q.!X........
	0x0050:  0000 2043 4b41 4141 4141 4141 4141 4141  ...CKAAAAAAAAAAA
	0x0060:  4141 4141 4141 4141 4141 4141 4141 4141  AAAAAAAAAAAAAAAA
	0x0070:  4141 4100 0021 0001                      AAA..!..
2024-11-10 23:35:32.237247 IP 192.168.0.141 > 192.168.0.1: ICMP 192.168.0.141 udp port netbios-ns unreachable, length 86
	0x0000:  ac15 a269 6ce2 0800 271e 364a 0800 45c0  ...il...'.6J..E.
	0x0010:  006a ea76 0000 4001 0d7e c0a8 008d c0a8  .j.v..@..~......
	0x0020:  0001 0303 7f27 0000 0000 4500 004e 0000  .....'....E..N..
	0x0030:  4000 4011 b8c0 c0a8 0001 c0a8 008d d089  @.@.............
	0x0040:  0089 003a 4cf6 2159 0000 0001 0000 0000  ...:L.!Y........
	0x0050:  0000 2043 4b41 4141 4141 4141 4141 4141  ...CKAAAAAAAAAAA
	0x0060:  4141 4141 4141 4141 4141 4141 4141 4141  AAAAAAAAAAAAAAAA
	0x0070:  4141 4100 0021 0001                      AAA..!..
2024-11-10 23:35:32.619482 IP 192.168.0.141 > 192.168.0.203: ICMP echo request, id 21050, seq 12, length 64
	0x0000:  7ab9 bdf9 8c20 0800 271e 364a 0800 4500  z.......'.6J..E.
	0x0010:  0054 1313 4000 4001 a4ed c0a8 008d c0a8  .T..@.@.........
	0x0020:  00cb 0800 6882 523a 000c 9489 3167 0000  ....h.R:....1g..
	0x0030:  0000 af73 0900 0000 0000 1011 1213 1415  ...s............
	0x0040:  1617 1819 1a1b 1c1d 1e1f 2021 2223 2425  ...........!"#$%
	0x0050:  2627 2829 2a2b 2c2d 2e2f 3031 3233 3435  &'()*+,-./012345
	0x0060:  3637                                     67
2024-11-10 23:35:32.743728 IP 192.168.0.203 > 192.168.0.141: ICMP echo reply, id 21050, seq 12, length 64
	0x0000:  0800 271e 364a 7ab9 bdf9 8c20 0800 4500  ..'.6Jz.......E.
	0x0010:  0054 0000 4000 4001 b800 c0a8 00cb c0a8  .T..@.@.........
	0x0020:  008d 0000 7082 523a 000c 9489 3167 0000  ....p.R:....1g..
	0x0030:  0000 af73 0900 0000 0000 1011 1213 1415  ...s............
	0x0040:  1617 1819 1a1b 1c1d 1e1f 2021 2223 2425  ...........!"#$%
	0x0050:  2627 2829 2a2b 2c2d 2e2f 3031 3233 3435  &'()*+,-./012345
	0x0060:  3637                                     67
2024-11-10 23:35:32.996445 IP 192.168.0.141.48043 > 192.168.0.1.domain: 52287+ PTR? 251.0.0.224.in-addr.arpa. (42)
	0x0000:  ac15 a269 6ce2 0800 271e 364a 0800 4500  ...il...'.6J..E.
	0x0010:  0046 618c 4000 4011 573c c0a8 008d c0a8  .Fa.@.@.W<......
	0x0020:  0001 bbab 0035 0032 8222 cc3f 0100 0001  .....5.2.".?....
	0x0030:  0000 0000 0000 0332 3531 0130 0130 0332  .......251.0.0.2
	0x0040:  3234 0769 6e2d 6164 6472 0461 7270 6100  24.in-addr.arpa.
	0x0050:  000c 0001                                ....
2024-11-10 23:35:33.042474 IP 192.168.0.1.domain > 192.168.0.141.48043: 52287 1/0/0 PTR mdns.mcast.net. (70)
	0x0000:  0800 271e 364a ac15 a269 6ce2 0800 4500  ..'.6J...il...E.
	0x0010:  0062 fdbf 0000 3611 04ed c0a8 0001 c0a8  .b....6.........
	0x0020:  008d 0035 bbab 004e 0d6d cc3f 8180 0001  ...5...N.m.?....
	0x0030:  0001 0000 0000 0332 3531 0130 0130 0332  .......251.0.0.2
	0x0040:  3234 0769 6e2d 6164 6472 0461 7270 6100  24.in-addr.arpa.
	0x0050:  000c 0001 c00c 000c 0001 0000 21a3 0010  ............!...
	0x0060:  046d 646e 7305 6d63 6173 7403 6e65 7400  .mdns.mcast.net.
2024-11-10 23:35:33.620113 IP 192.168.0.141 > 192.168.0.203: ICMP echo request, id 21050, seq 13, length 64
	0x0000:  7ab9 bdf9 8c20 0800 271e 364a 0800 4500  z.......'.6J..E.
	0x0010:  0054 1359 4000 4001 a4a7 c0a8 008d c0a8  .T.Y@.@.........
	0x0020:  00cb 0800 eb7e 523a 000d 9589 3167 0000  .....~R:....1g..
	0x0030:  0000 2b76 0900 0000 0000 1011 1213 1415  ..+v............
	0x0040:  1617 1819 1a1b 1c1d 1e1f 2021 2223 2425  ...........!"#$%
	0x0050:  2627 2829 2a2b 2c2d 2e2f 3031 3233 3435  &'()*+,-./012345
	0x0060:  3637                                     67
2024-11-10 23:35:33.638432 IP 192.168.0.203 > 192.168.0.141: ICMP echo reply, id 21050, seq 13, length 64
	0x0000:  0800 271e 364a 7ab9 bdf9 8c20 0800 4500  ..'.6Jz.......E.
	0x0010:  0054 0000 4000 4001 b800 c0a8 00cb c0a8  .T..@.@.........
	0x0020:  008d 0000 f37e 523a 000d 9589 3167 0000  .....~R:....1g..
	0x0030:  0000 2b76 0900 0000 0000 1011 1213 1415  ..+v............
	0x0040:  1617 1819 1a1b 1c1d 1e1f 2021 2223 2425  ...........!"#$%
	0x0050:  2627 2829 2a2b 2c2d 2e2f 3031 3233 3435  &'()*+,-./012345
	0x0060:  3637                                     67
2024-11-10 23:35:34.678913 IP 192.168.0.141 > 192.168.0.203: ICMP echo request, id 21050, seq 14, length 64
	0x0000:  7ab9 bdf9 8c20 0800 271e 364a 0800 4500  z.......'.6J..E.
	0x0010:  0054 13f4 4000 4001 a40c c0a8 008d c0a8  .T..@.@.........
	0x0020:  00cb 0800 4098 523a 000e 9689 3167 0000  ....@.R:....1g..
	0x0030:  0000 d45b 0a00 0000 0000 1011 1213 1415  ...[............
	0x0040:  1617 1819 1a1b 1c1d 1e1f 2021 2223 2425  ...........!"#$%
	0x0050:  2627 2829 2a2b 2c2d 2e2f 3031 3233 3435  &'()*+,-./012345
	0x0060:  3637                                     67
2024-11-10 23:35:34.790818 IP 192.168.0.203 > 192.168.0.141: ICMP echo reply, id 21050, seq 14, length 64
	0x0000:  0800 271e 364a 7ab9 bdf9 8c20 0800 4500  ..'.6Jz.......E.
	0x0010:  0054 0000 4000 4001 b800 c0a8 00cb c0a8  .T..@.@.........
	0x0020:  008d 0000 4898 523a 000e 9689 3167 0000  ....H.R:....1g..
	0x0030:  0000 d45b 0a00 0000 0000 1011 1213 1415  ...[............
	0x0040:  1617 1819 1a1b 1c1d 1e1f 2021 2223 2425  ...........!"#$%
	0x0050:  2627 2829 2a2b 2c2d 2e2f 3031 3233 3435  &'()*+,-./012345
	0x0060:  3637                                     67
2024-11-10 23:35:35.679714 IP 192.168.0.141 > 192.168.0.203: ICMP echo request, id 21050, seq 15, length 64
	0x0000:  7ab9 bdf9 8c20 0800 271e 364a 0800 4500  z.......'.6J..E.
	0x0010:  0054 14cc 4000 4001 a334 c0a8 008d c0a8  .T..@.@..4......
	0x0020:  00cb 0800 2094 523a 000f 9789 3167 0000  ......R:....1g..
	0x0030:  0000 f35e 0a00 0000 0000 1011 1213 1415  ...^............
	0x0040:  1617 1819 1a1b 1c1d 1e1f 2021 2223 2425  ...........!"#$%
	0x0050:  2627 2829 2a2b 2c2d 2e2f 3031 3233 3435  &'()*+,-./012345
	0x0060:  3637                                     67
2024-11-10 23:35:35.811391 IP 192.168.0.203 > 192.168.0.141: ICMP echo reply, id 21050, seq 15, length 64
	0x0000:  0800 271e 364a 7ab9 bdf9 8c20 0800 4500  ..'.6Jz.......E.
	0x0010:  0054 0000 4000 4001 b800 c0a8 00cb c0a8  .T..@.@.........
	0x0020:  008d 0000 2894 523a 000f 9789 3167 0000  ....(.R:....1g..
	0x0030:  0000 f35e 0a00 0000 0000 1011 1213 1415  ...^............
	0x0040:  1617 1819 1a1b 1c1d 1e1f 2021 2223 2425  ...........!"#$%
	0x0050:  2627 2829 2a2b 2c2d 2e2f 3031 3233 3435  &'()*+,-./012345
	0x0060:  3637                                     67
2024-11-10 23:35:36.682889 IP 192.168.0.141 > 192.168.0.203: ICMP echo request, id 21050, seq 16, length 64
	0x0000:  7ab9 bdf9 8c20 0800 271e 364a 0800 4500  z.......'.6J..E.
	0x0010:  0054 1575 4000 4001 a28b c0a8 008d c0a8  .T.u@.@.........
	0x0020:  00cb 0800 b286 523a 0010 9889 3167 0000  ......R:....1g..
	0x0030:  0000 606b 0a00 0000 0000 1011 1213 1415  ..`k............
	0x0040:  1617 1819 1a1b 1c1d 1e1f 2021 2223 2425  ...........!"#$%
	0x0050:  2627 2829 2a2b 2c2d 2e2f 3031 3233 3435  &'()*+,-./012345
	0x0060:  3637                                     67
2024-11-10 23:35:36.838138 IP 192.168.0.203 > 192.168.0.141: ICMP echo reply, id 21050, seq 16, length 64
	0x0000:  0800 271e 364a 7ab9 bdf9 8c20 0800 4500  ..'.6Jz.......E.
	0x0010:  0054 0000 4000 4001 b800 c0a8 00cb c0a8  .T..@.@.........
	0x0020:  008d 0000 ba86 523a 0010 9889 3167 0000  ......R:....1g..
	0x0030:  0000 606b 0a00 0000 0000 1011 1213 1415  ..`k............
	0x0040:  1617 1819 1a1b 1c1d 1e1f 2021 2223 2425  ...........!"#$%
	0x0050:  2627 2829 2a2b 2c2d 2e2f 3031 3233 3435  &'()*+,-./012345
	0x0060:  3637                                     67
2024-11-10 23:35:37.698582 IP 192.168.0.141 > 192.168.0.203: ICMP echo request, id 21050, seq 17, length 64
	0x0000:  7ab9 bdf9 8c20 0800 271e 364a 0800 4500  z.......'.6J..E.
	0x0010:  0054 15d6 4000 4001 a22a c0a8 008d c0a8  .T..@.@..*......
	0x0020:  00cb 0800 6348 523a 0011 9989 3167 0000  ....cHR:....1g..
	0x0030:  0000 aea8 0a00 0000 0000 1011 1213 1415  ................
	0x0040:  1617 1819 1a1b 1c1d 1e1f 2021 2223 2425  ...........!"#$%
	0x0050:  2627 2829 2a2b 2c2d 2e2f 3031 3233 3435  &'()*+,-./012345
	0x0060:  3637                                     67
2024-11-10 23:35:37.859771 IP 192.168.0.203 > 192.168.0.141: ICMP echo reply, id 21050, seq 17, length 64
	0x0000:  0800 271e 364a 7ab9 bdf9 8c20 0800 4500  ..'.6Jz.......E.
	0x0010:  0054 0000 4000 4001 b800 c0a8 00cb c0a8  .T..@.@.........
	0x0020:  008d 0000 6b48 523a 0011 9989 3167 0000  ....kHR:....1g..
	0x0030:  0000 aea8 0a00 0000 0000 1011 1213 1415  ................
	0x0040:  1617 1819 1a1b 1c1d 1e1f 2021 2223 2425  ...........!"#$%
	0x0050:  2627 2829 2a2b 2c2d 2e2f 3031 3233 3435  &'()*+,-./012345
	0x0060:  3637                                     67
2024-11-10 23:35:38.626635 IP 192.168.0.130.mdns > mdns.mcast.net.mdns: 0 PTR (QU)? _ipp._tcp.local. (33)
	0x0000:  0100 5e00 00fb ec2e 987a c577 0800 4500  ..^......z.w..E.
	0x0010:  003d 52db 0000 0111 c4af c0a8 0082 e000  .=R.............
	0x0020:  00fb 14e9 14e9 0029 af2e 0000 0000 0001  .......)........
	0x0030:  0000 0000 0000 045f 6970 7004 5f74 6370  ......._ipp._tcp
	0x0040:  056c 6f63 616c 0000 0c80 01              .local.....
2024-11-10 23:35:38.627492 IP6 fe80::255e:56bb:da1e:b905.mdns > ff02::fb.mdns: 0 PTR (QU)? _ipp._tcp.local. (33)
	0x0000:  3333 0000 00fb ec2e 987a c577 86dd 6001  33.......z.w..`.
	0x0010:  4221 0029 1101 fe80 0000 0000 0000 255e  B!.)..........%^
	0x0020:  56bb da1e b905 ff02 0000 0000 0000 0000  V...............
	0x0030:  0000 0000 00fb 14e9 14e9 0029 4398 0000  ...........)C...
	0x0040:  0000 0001 0000 0000 0000 045f 6970 7004  ..........._ipp.
	0x0050:  5f74 6370 056c 6f63 616c 0000 0c80 01    _tcp.local.....
2024-11-10 23:35:38.628388 IP 192.168.0.130.mdns > mdns.mcast.net.mdns: 0 PTR (QU)? _ipps._tcp.local. (34)
	0x0000:  0100 5e00 00fb ec2e 987a c577 0800 4500  ..^......z.w..E.
	0x0010:  003e 52dc 0000 0111 c4ad c0a8 0082 e000  .>R.............
	0x0020:  00fb 14e9 14e9 002a afb7 0000 0000 0001  .......*........
	0x0030:  0000 0000 0000 055f 6970 7073 045f 7463  ......._ipps._tc
	0x0040:  7005 6c6f 6361 6c00 000c 8001            p.local.....
2024-11-10 23:35:38.628551 IP6 fe80::255e:56bb:da1e:b905.mdns > ff02::fb.mdns: 0 PTR (QU)? _ipps._tcp.local. (34)
	0x0000:  3333 0000 00fb ec2e 987a c577 86dd 6001  33.......z.w..`.
	0x0010:  4221 002a 1101 fe80 0000 0000 0000 255e  B!.*..........%^
	0x0020:  56bb da1e b905 ff02 0000 0000 0000 0000  V...............
	0x0030:  0000 0000 00fb 14e9 14e9 002a 4421 0000  ...........*D!..
	0x0040:  0000 0001 0000 0000 0000 055f 6970 7073  ..........._ipps
	0x0050:  045f 7463 7005 6c6f 6361 6c00 000c 8001  ._tcp.local.....
2024-11-10 23:35:38.729216 IP 192.168.0.141 > 192.168.0.203: ICMP echo request, id 21050, seq 18, length 64
	0x0000:  7ab9 bdf9 8c20 0800 271e 364a 0800 4500  z.......'.6J..E.
	0x0010:  0054 1692 4000 4001 a16e c0a8 008d c0a8  .T..@.@..n......
	0x0020:  00cb 0800 a9cf 523a 0012 9a89 3167 0000  ......R:....1g..
	0x0030:  0000 6620 0b00 0000 0000 1011 1213 1415  ..f.............
	0x0040:  1617 1819 1a1b 1c1d 1e1f 2021 2223 2425  ...........!"#$%
	0x0050:  2627 2829 2a2b 2c2d 2e2f 3031 3233 3435  &'()*+,-./012345
	0x0060:  3637                                     67
2024-11-10 23:35:38.740952 IP 192.168.0.203 > 192.168.0.141: ICMP echo reply, id 21050, seq 18, length 64
	0x0000:  0800 271e 364a 7ab9 bdf9 8c20 0800 4500  ..'.6Jz.......E.
	0x0010:  0054 0000 4000 4001 b800 c0a8 00cb c0a8  .T..@.@.........
	0x0020:  008d 0000 b1cf 523a 0012 9a89 3167 0000  ......R:....1g..
	0x0030:  0000 6620 0b00 0000 0000 1011 1213 1415  ..f.............
	0x0040:  1617 1819 1a1b 1c1d 1e1f 2021 2223 2425  ...........!"#$%
	0x0050:  2627 2829 2a2b 2c2d 2e2f 3031 3233 3435  &'()*+,-./012345
	0x0060:  3637                                     67
2024-11-10 23:35:39.169481 IP 192.168.0.141.54705 > 192.168.0.1.domain: 4426+ PTR? 130.0.168.192.in-addr.arpa. (44)
	0x0000:  ac15 a269 6ce2 0800 271e 364a 0800 4500  ...il...'.6J..E.
	0x0010:  0048 edcd 4000 4011 caf8 c0a8 008d c0a8  .H..@.@.........
	0x0020:  0001 d5b1 0035 0034 8224 114a 0100 0001  .....5.4.$.J....
	0x0030:  0000 0000 0000 0331 3330 0130 0331 3638  .......130.0.168
	0x0040:  0331 3932 0769 6e2d 6164 6472 0461 7270  .192.in-addr.arp
	0x0050:  6100 000c 0001                           a.....
2024-11-10 23:35:39.194049 IP 192.168.0.1.domain > 192.168.0.141.54705: 4426 NXDomain 0/0/0 (44)
	0x0000:  0800 271e 364a ac15 a269 6ce2 0800 4500  ..'.6J...il...E.
	0x0010:  0048 973a 0000 3611 6b8c c0a8 0001 c0a8  .H.:..6.k.......
	0x0020:  008d 0035 d5b1 0034 5448 114a 8183 0001  ...5...4TH.J....
	0x0030:  0000 0000 0000 0331 3330 0130 0331 3638  .......130.0.168
	0x0040:  0331 3932 0769 6e2d 6164 6472 0461 7270  .192.in-addr.arp
	0x0050:  6100 000c 0001                           a.....
2024-11-10 23:35:39.194488 IP 192.168.0.141.49710 > 192.168.0.1.domain: 50321+ PTR? b.f.0.0.0.0.0.0.0.0.0.0.0.0.0.0.0.0.0.0.0.0.0.0.0.0.0.0.2.0.f.f.ip6.arpa. (90)
	0x0000:  ac15 a269 6ce2 0800 271e 364a 0800 4500  ...il...'.6J..E.
	0x0010:  0076 91b9 4000 4011 26df c0a8 008d c0a8  .v..@.@.&.......
	0x0020:  0001 c22e 0035 0062 8252 c491 0100 0001  .....5.b.R......
	0x0030:  0000 0000 0000 0162 0166 0130 0130 0130  .......b.f.0.0.0
	0x0040:  0130 0130 0130 0130 0130 0130 0130 0130  .0.0.0.0.0.0.0.0
	0x0050:  0130 0130 0130 0130 0130 0130 0130 0130  .0.0.0.0.0.0.0.0
	0x0060:  0130 0130 0130 0130 0130 0130 0130 0132  .0.0.0.0.0.0.0.2
	0x0070:  0130 0166 0166 0369 7036 0461 7270 6100  .0.f.f.ip6.arpa.
	0x0080:  000c 0001                                ....
2024-11-10 23:35:39.291792 IP 192.168.0.1.domain > 192.168.0.141.49710: 50321 NXDomain 0/1/0 (154)
	0x0000:  0800 271e 364a ac15 a269 6ce2 0800 4500  ..'.6J...il...E.
	0x0010:  00b6 26d3 0000 7611 9b85 c0a8 0001 c0a8  ..&...v.........
	0x0020:  008d 0035 c22e 00a2 b3bb c491 8183 0001  ...5............
	0x0030:  0000 0001 0000 0162 0166 0130 0130 0130  .......b.f.0.0.0
	0x0040:  0130 0130 0130 0130 0130 0130 0130 0130  .0.0.0.0.0.0.0.0
	0x0050:  0130 0130 0130 0130 0130 0130 0130 0130  .0.0.0.0.0.0.0.0
	0x0060:  0130 0130 0130 0130 0130 0130 0130 0132  .0.0.0.0.0.0.0.2
	0x0070:  0130 0166 0166 0369 7036 0461 7270 6100  .0.f.f.ip6.arpa.
	0x0080:  000c 0001 c04c 0006 0001 0000 0c79 0034  .....L.......y.4
	0x0090:  0162 0b69 7036 2d73 6572 7665 7273 c050  .b.ip6-servers.P
	0x00a0:  056e 7374 6c64 0469 616e 6103 6f72 6700  .nstld.iana.org.
	0x00b0:  78a5 79cf 0000 0708 0000 0384 0009 3a80  x.y...........:.
	0x00c0:  0000 0e10                                ....
2024-11-10 23:35:39.292144 IP 192.168.0.141.59180 > 192.168.0.1.domain: 4940+ PTR? 5.0.9.b.e.1.a.d.b.b.6.5.e.5.5.2.0.0.0.0.0.0.0.0.0.0.0.0.0.8.e.f.ip6.arpa. (90)
	0x0000:  ac15 a269 6ce2 0800 271e 364a 0800 4500  ...il...'.6J..E.
	0x0010:  0076 22e5 4000 4011 95b3 c0a8 008d c0a8  .v".@.@.........
	0x0020:  0001 e72c 0035 0062 8252 134c 0100 0001  ...,.5.b.R.L....
	0x0030:  0000 0000 0000 0135 0130 0139 0162 0165  .......5.0.9.b.e
	0x0040:  0131 0161 0164 0162 0162 0136 0135 0165  .1.a.d.b.b.6.5.e
	0x0050:  0135 0135 0132 0130 0130 0130 0130 0130  .5.5.2.0.0.0.0.0
	0x0060:  0130 0130 0130 0130 0130 0130 0130 0130  .0.0.0.0.0.0.0.0
	0x0070:  0138 0165 0166 0369 7036 0461 7270 6100  .8.e.f.ip6.arpa.
	0x0080:  000c 0001                                ....
2024-11-10 23:35:39.303743 IP 192.168.0.1.34140 > 239.255.255.250.1900: UDP, length 380
	0x0000:  0100 5e7f fffa ac15 a269 6ce2 0800 4500  ..^......il...E.
	0x0010:  0198 0000 4000 0211 c6b1 c0a8 0001 efff  ....@...........
	0x0020:  fffa 855c 076c 0184 c4b5 4e4f 5449 4659  ...\.l....NOTIFY
	0x0030:  202a 2048 5454 502f 312e 310d 0a48 4f53  .*.HTTP/1.1..HOS
	0x0040:  543a 2032 3339 2e32 3535 2e32 3535 2e32  T:.239.255.255.2
	0x0050:  3530 3a31 3930 300d 0a43 4143 4845 2d43  50:1900..CACHE-C
	0x0060:  4f4e 5452 4f4c 3a20 6d61 782d 6167 653d  ONTROL:.max-age=
	0x0070:  3630 0d0a 4c4f 4341 5449 4f4e 3a20 6874  60..LOCATION:.ht
	0x0080:  7470 3a2f 2f31 3932 2e31 3638 2e30 2e31  tp://192.168.0.1
	0x0090:  3a31 3930 302f 726f 6f74 4465 7363 2e78  :1900/rootDesc.x
	0x00a0:  6d6c 0d0a 5345 5256 4552 3a20 5450 2d4c  ml..SERVER:.TP-L
	0x00b0:  696e 6b2f 5450 2d4c 494e 4b20 5550 6e50  ink/TP-LINK.UPnP
	0x00c0:  2f31 2e31 204d 696e 6955 506e 5064 2f31  /1.1.MiniUPnPd/1
	0x00d0:  2e38 0d0a 4e54 3a20 7570 6e70 3a72 6f6f  .8..NT:.upnp:roo
	0x00e0:  7464 6576 6963 650d 0a55 534e 3a20 7575  tdevice..USN:.uu
	0x00f0:  6964 3a37 6137 3134 6266 372d 6137 3432  id:7a714bf7-a742
	0x0100:  2d34 6135 662d 6239 3463 2d30 3430 6438  -4a5f-b94c-040d8
	0x0110:  3062 6232 6262 363a 3a75 706e 703a 726f  0bb2bb6::upnp:ro
	0x0120:  6f74 6465 7669 6365 0d0a 4e54 533a 2073  otdevice..NTS:.s
	0x0130:  7364 703a 616c 6976 650d 0a4f 5054 3a20  sdp:alive..OPT:.
	0x0140:  2268 7474 703a 2f2f 7363 6865 6d61 732e  "http://schemas.
	0x0150:  7570 6e70 2e6f 7267 2f75 706e 702f 312f  upnp.org/upnp/1/
	0x0160:  302f 223b 206e 733d 3031 0d0a 3031 2d4e  0/";.ns=01..01-N
	0x0170:  4c53 3a20 310d 0a42 4f4f 5449 442e 5550  LS:.1..BOOTID.UP
	0x0180:  4e50 2e4f 5247 3a20 310d 0a43 4f4e 4649  NP.ORG:.1..CONFI
	0x0190:  4749 442e 5550 4e50 2e4f 5247 3a20 3133  GID.UPNP.ORG:.13
	0x01a0:  3337 0d0a 0d0a                           37....
2024-11-10 23:35:39.303744 IP 192.168.0.1.34140 > 239.255.255.250.1900: UDP, length 389
	0x0000:  0100 5e7f fffa ac15 a269 6ce2 0800 4500  ..^......il...E.
	0x0010:  01a1 0000 4000 0211 c6a8 c0a8 0001 efff  ....@...........
	0x0020:  fffa 855c 076c 018d f3c3 4e4f 5449 4659  ...\.l....NOTIFY
	0x0030:  202a 2048 5454 502f 312e 310d 0a48 4f53  .*.HTTP/1.1..HOS
	0x0040:  543a 2032 3339 2e32 3535 2e32 3535 2e32  T:.239.255.255.2
	0x0050:  3530 3a31 3930 300d 0a43 4143 4845 2d43  50:1900..CACHE-C
	0x0060:  4f4e 5452 4f4c 3a20 6d61 782d 6167 653d  ONTROL:.max-age=
	0x0070:  3630 0d0a 4c4f 4341 5449 4f4e 3a20 6874  60..LOCATION:.ht
	0x0080:  7470 3a2f 2f31 3932 2e31 3638 2e30 2e31  tp://192.168.0.1
	0x0090:  3a31 3930 302f 726f 6f74 4465 7363 2e78  :1900/rootDesc.x
	0x00a0:  6d6c 0d0a 5345 5256 4552 3a20 5450 2d4c  ml..SERVER:.TP-L
	0x00b0:  696e 6b2f 5450 2d4c 494e 4b20 5550 6e50  ink/TP-LINK.UPnP
	0x00c0:  2f31 2e31 204d 696e 6955 506e 5064 2f31  /1.1.MiniUPnPd/1
	0x00d0:  2e38 0d0a 4e54 3a20 7575 6964 3a37 6137  .8..NT:.uuid:7a7
	0x00e0:  3134 6266 372d 6137 3432 2d34 6135 662d  14bf7-a742-4a5f-
	0x00f0:  6239 3463 2d30 3430 6438 3062 6232 6262  b94c-040d80bb2bb
	0x0100:  360d 0a55 534e 3a20 7575 6964 3a37 6137  6..USN:.uuid:7a7
	0x0110:  3134 6266 372d 6137 3432 2d34 6135 662d  14bf7-a742-4a5f-
	0x0120:  6239 3463 2d30 3430 6438 3062 6232 6262  b94c-040d80bb2bb
	0x0130:  360d 0a4e 5453 3a20 7373 6470 3a61 6c69  6..NTS:.ssdp:ali
	0x0140:  7665 0d0a 4f50 543a 2022 6874 7470 3a2f  ve..OPT:."http:/
	0x0150:  2f73 6368 656d 6173 2e75 706e 702e 6f72  /schemas.upnp.or
	0x0160:  672f 7570 6e70 2f31 2f30 2f22 3b20 6e73  g/upnp/1/0/";.ns
	0x0170:  3d30 310d 0a30 312d 4e4c 533a 2031 0d0a  =01..01-NLS:.1..
	0x0180:  424f 4f54 4944 2e55 504e 502e 4f52 473a  BOOTID.UPNP.ORG:
	0x0190:  2031 0d0a 434f 4e46 4947 4944 2e55 504e  .1..CONFIGID.UPN
	0x01a0:  502e 4f52 473a 2031 3333 370d 0a0d 0a    P.ORG:.1337....
2024-11-10 23:35:39.304560 IP 192.168.0.1.34140 > 239.255.255.250.1900: UDP, length 452
	0x0000:  0100 5e7f fffa ac15 a269 6ce2 0800 4500  ..^......il...E.
	0x0010:  01e0 0000 4000 0211 c669 c0a8 0001 efff  ....@....i......
	0x0020:  fffa 855c 076c 01cc 55b7 4e4f 5449 4659  ...\.l..U.NOTIFY
	0x0030:  202a 2048 5454 502f 312e 310d 0a48 4f53  .*.HTTP/1.1..HOS
	0x0040:  543a 2032 3339 2e32 3535 2e32 3535 2e32  T:.239.255.255.2
	0x0050:  3530 3a31 3930 300d 0a43 4143 4845 2d43  50:1900..CACHE-C
	0x0060:  4f4e 5452 4f4c 3a20 6d61 782d 6167 653d  ONTROL:.max-age=
	0x0070:  3630 0d0a 4c4f 4341 5449 4f4e 3a20 6874  60..LOCATION:.ht
	0x0080:  7470 3a2f 2f31 3932 2e31 3638 2e30 2e31  tp://192.168.0.1
	0x0090:  3a31 3930 302f 726f 6f74 4465 7363 2e78  :1900/rootDesc.x
	0x00a0:  6d6c 0d0a 5345 5256 4552 3a20 5450 2d4c  ml..SERVER:.TP-L
	0x00b0:  696e 6b2f 5450 2d4c 494e 4b20 5550 6e50  ink/TP-LINK.UPnP
	0x00c0:  2f31 2e31 204d 696e 6955 506e 5064 2f31  /1.1.MiniUPnPd/1
	0x00d0:  2e38 0d0a 4e54 3a20 7572 6e3a 7363 6865  .8..NT:.urn:sche
	0x00e0:  6d61 732d 7570 6e70 2d6f 7267 3a64 6576  mas-upnp-org:dev
	0x00f0:  6963 653a 496e 7465 726e 6574 4761 7465  ice:InternetGate
	0x0100:  7761 7944 6576 6963 653a 310d 0a55 534e  wayDevice:1..USN
	0x0110:  3a20 7575 6964 3a37 6137 3134 6266 372d  :.uuid:7a714bf7-
	0x0120:  6137 3432 2d34 6135 662d 6239 3463 2d30  a742-4a5f-b94c-0
	0x0130:  3430 6438 3062 6232 6262 363a 3a75 726e  40d80bb2bb6::urn
	0x0140:  3a73 6368 656d 6173 2d75 706e 702d 6f72  :schemas-upnp-or
	0x0150:  673a 6465 7669 6365 3a49 6e74 6572 6e65  g:device:Interne
	0x0160:  7447 6174 6577 6179 4465 7669 6365 3a31  tGatewayDevice:1
	0x0170:  0d0a 4e54 533a 2073 7364 703a 616c 6976  ..NTS:.ssdp:aliv
	0x0180:  650d 0a4f 5054 3a20 2268 7474 703a 2f2f  e..OPT:."http://
	0x0190:  7363 6865 6d61 732e 7570 6e70 2e6f 7267  schemas.upnp.org
	0x01a0:  2f75 706e 702f 312f 302f 223b 206e 733d  /upnp/1/0/";.ns=
	0x01b0:  3031 0d0a 3031 2d4e 4c53 3a20 310d 0a42  01..01-NLS:.1..B
	0x01c0:  4f4f 5449 442e 5550 4e50 2e4f 5247 3a20  OOTID.UPNP.ORG:.
	0x01d0:  310d 0a43 4f4e 4649 4749 442e 5550 4e50  1..CONFIGID.UPNP
	0x01e0:  2e4f 5247 3a20 3133 3337 0d0a 0d0a       .ORG:.1337....
2024-11-10 23:35:39.304560 IP 192.168.0.1.34140 > 239.255.255.250.1900: UDP, length 448
	0x0000:  0100 5e7f fffa ac15 a269 6ce2 0800 4500  ..^......il...E.
	0x0010:  01dc 0000 4000 0211 c66d c0a8 0001 efff  ....@....m......
	0x0020:  fffa 855c 076c 01c8 7be5 4e4f 5449 4659  ...\.l..{.NOTIFY
	0x0030:  202a 2048 5454 502f 312e 310d 0a48 4f53  .*.HTTP/1.1..HOS
	0x0040:  543a 2032 3339 2e32 3535 2e32 3535 2e32  T:.239.255.255.2
	0x0050:  3530 3a31 3930 300d 0a43 4143 4845 2d43  50:1900..CACHE-C
	0x0060:  4f4e 5452 4f4c 3a20 6d61 782d 6167 653d  ONTROL:.max-age=
	0x0070:  3630 0d0a 4c4f 4341 5449 4f4e 3a20 6874  60..LOCATION:.ht
	0x0080:  7470 3a2f 2f31 3932 2e31 3638 2e30 2e31  tp://192.168.0.1
	0x0090:  3a31 3930 302f 726f 6f74 4465 7363 2e78  :1900/rootDesc.x
	0x00a0:  6d6c 0d0a 5345 5256 4552 3a20 5450 2d4c  ml..SERVER:.TP-L
	0x00b0:  696e 6b2f 5450 2d4c 494e 4b20 5550 6e50  ink/TP-LINK.UPnP
	0x00c0:  2f31 2e31 204d 696e 6955 506e 5064 2f31  /1.1.MiniUPnPd/1
	0x00d0:  2e38 0d0a 4e54 3a20 7572 6e3a 7363 6865  .8..NT:.urn:sche
	0x00e0:  6d61 732d 7570 6e70 2d6f 7267 3a64 6576  mas-upnp-org:dev
	0x00f0:  6963 653a 5741 4e43 6f6e 6e65 6374 696f  ice:WANConnectio
	0x0100:  6e44 6576 6963 653a 310d 0a55 534e 3a20  nDevice:1..USN:.
	0x0110:  7575 6964 3a37 6137 3134 6266 372d 6137  uuid:7a714bf7-a7
	0x0120:  3432 2d34 6135 662d 6239 3463 2d30 3430  42-4a5f-b94c-040
	0x0130:  6438 3062 6232 6262 363a 3a75 726e 3a73  d80bb2bb6::urn:s
	0x0140:  6368 656d 6173 2d75 706e 702d 6f72 673a  chemas-upnp-org:
	0x0150:  6465 7669 6365 3a57 414e 436f 6e6e 6563  device:WANConnec
	0x0160:  7469 6f6e 4465 7669 6365 3a31 0d0a 4e54  tionDevice:1..NT
	0x0170:  533a 2073 7364 703a 616c 6976 650d 0a4f  S:.ssdp:alive..O
	0x0180:  5054 3a20 2268 7474 703a 2f2f 7363 6865  PT:."http://sche
	0x0190:  6d61 732e 7570 6e70 2e6f 7267 2f75 706e  mas.upnp.org/upn
	0x01a0:  702f 312f 302f 223b 206e 733d 3031 0d0a  p/1/0/";.ns=01..
	0x01b0:  3031 2d4e 4c53 3a20 310d 0a42 4f4f 5449  01-NLS:.1..BOOTI
	0x01c0:  442e 5550 4e50 2e4f 5247 3a20 310d 0a43  D.UPNP.ORG:.1..C
	0x01d0:  4f4e 4649 4749 442e 5550 4e50 2e4f 5247  ONFIGID.UPNP.ORG
	0x01e0:  3a20 3133 3337 0d0a 0d0a                 :.1337....
2024-11-10 23:35:39.306192 IP 192.168.0.1.34140 > 239.255.255.250.1900: UDP, length 428
	0x0000:  0100 5e7f fffa ac15 a269 6ce2 0800 4500  ..^......il...E.
	0x0010:  01c8 0000 4000 0211 c681 c0a8 0001 efff  ....@...........
	0x0020:  fffa 855c 076c 01b4 9021 4e4f 5449 4659  ...\.l...!NOTIFY
	0x0030:  202a 2048 5454 502f 312e 310d 0a48 4f53  .*.HTTP/1.1..HOS
	0x0040:  543a 2032 3339 2e32 3535 2e32 3535 2e32  T:.239.255.255.2
	0x0050:  3530 3a31 3930 300d 0a43 4143 4845 2d43  50:1900..CACHE-C
	0x0060:  4f4e 5452 4f4c 3a20 6d61 782d 6167 653d  ONTROL:.max-age=
	0x0070:  3630 0d0a 4c4f 4341 5449 4f4e 3a20 6874  60..LOCATION:.ht
	0x0080:  7470 3a2f 2f31 3932 2e31 3638 2e30 2e31  tp://192.168.0.1
	0x0090:  3a31 3930 302f 726f 6f74 4465 7363 2e78  :1900/rootDesc.x
	0x00a0:  6d6c 0d0a 5345 5256 4552 3a20 5450 2d4c  ml..SERVER:.TP-L
	0x00b0:  696e 6b2f 5450 2d4c 494e 4b20 5550 6e50  ink/TP-LINK.UPnP
	0x00c0:  2f31 2e31 204d 696e 6955 506e 5064 2f31  /1.1.MiniUPnPd/1
	0x00d0:  2e38 0d0a 4e54 3a20 7572 6e3a 7363 6865  .8..NT:.urn:sche
	0x00e0:  6d61 732d 7570 6e70 2d6f 7267 3a64 6576  mas-upnp-org:dev
	0x00f0:  6963 653a 5741 4e44 6576 6963 653a 310d  ice:WANDevice:1.
	0x0100:  0a55 534e 3a20 7575 6964 3a37 6137 3134  .USN:.uuid:7a714
	0x0110:  6266 372d 6137 3432 2d34 6135 662d 6239  bf7-a742-4a5f-b9
	0x0120:  3463 2d30 3430 6438 3062 6232 6262 363a  4c-040d80bb2bb6:
	0x0130:  3a75 726e 3a73 6368 656d 6173 2d75 706e  :urn:schemas-upn
	0x0140:  702d 6f72 673a 6465 7669 6365 3a57 414e  p-org:device:WAN
	0x0150:  4465 7669 6365 3a31 0d0a 4e54 533a 2073  Device:1..NTS:.s
	0x0160:  7364 703a 616c 6976 650d 0a4f 5054 3a20  sdp:alive..OPT:.
	0x0170:  2268 7474 703a 2f2f 7363 6865 6d61 732e  "http://schemas.
	0x0180:  7570 6e70 2e6f 7267 2f75 706e 702f 312f  upnp.org/upnp/1/
	0x0190:  302f 223b 206e 733d 3031 0d0a 3031 2d4e  0/";.ns=01..01-N
	0x01a0:  4c53 3a20 310d 0a42 4f4f 5449 442e 5550  LS:.1..BOOTID.UP
	0x01b0:  4e50 2e4f 5247 3a20 310d 0a43 4f4e 4649  NP.ORG:.1..CONFI
	0x01c0:  4749 442e 5550 4e50 2e4f 5247 3a20 3133  GID.UPNP.ORG:.13
	0x01d0:  3337 0d0a 0d0a                           37....
2024-11-10 23:35:39.306192 IP 192.168.0.1.34140 > 239.255.255.250.1900: UDP, length 460
	0x0000:  0100 5e7f fffa ac15 a269 6ce2 0800 4500  ..^......il...E.
	0x0010:  01e8 0000 4000 0211 c661 c0a8 0001 efff  ....@....a......
	0x0020:  fffa 855c 076c 01d4 085a 4e4f 5449 4659  ...\.l...ZNOTIFY
	0x0030:  202a 2048 5454 502f 312e 310d 0a48 4f53  .*.HTTP/1.1..HOS
	0x0040:  543a 2032 3339 2e32 3535 2e32 3535 2e32  T:.239.255.255.2
	0x0050:  3530 3a31 3930 300d 0a43 4143 4845 2d43  50:1900..CACHE-C
	0x0060:  4f4e 5452 4f4c 3a20 6d61 782d 6167 653d  ONTROL:.max-age=
	0x0070:  3630 0d0a 4c4f 4341 5449 4f4e 3a20 6874  60..LOCATION:.ht
	0x0080:  7470 3a2f 2f31 3932 2e31 3638 2e30 2e31  tp://192.168.0.1
	0x0090:  3a31 3930 302f 726f 6f74 4465 7363 2e78  :1900/rootDesc.x
	0x00a0:  6d6c 0d0a 5345 5256 4552 3a20 5450 2d4c  ml..SERVER:.TP-L
	0x00b0:  696e 6b2f 5450 2d4c 494e 4b20 5550 6e50  ink/TP-LINK.UPnP
	0x00c0:  2f31 2e31 204d 696e 6955 506e 5064 2f31  /1.1.MiniUPnPd/1
	0x00d0:  2e38 0d0a 4e54 3a20 7572 6e3a 7363 6865  .8..NT:.urn:sche
	0x00e0:  6d61 732d 7570 6e70 2d6f 7267 3a73 6572  mas-upnp-org:ser
	0x00f0:  7669 6365 3a57 414e 436f 6d6d 6f6e 496e  vice:WANCommonIn
	0x0100:  7465 7266 6163 6543 6f6e 6669 673a 310d  terfaceConfig:1.
	0x0110:  0a55 534e 3a20 7575 6964 3a37 6137 3134  .USN:.uuid:7a714
	0x0120:  6266 372d 6137 3432 2d34 6135 662d 6239  bf7-a742-4a5f-b9
	0x0130:  3463 2d30 3430 6438 3062 6232 6262 363a  4c-040d80bb2bb6:
	0x0140:  3a75 726e 3a73 6368 656d 6173 2d75 706e  :urn:schemas-upn
	0x0150:  702d 6f72 673a 7365 7276 6963 653a 5741  p-org:service:WA
	0x0160:  4e43 6f6d 6d6f 6e49 6e74 6572 6661 6365  NCommonInterface
	0x0170:  436f 6e66 6967 3a31 0d0a 4e54 533a 2073  Config:1..NTS:.s
	0x0180:  7364 703a 616c 6976 650d 0a4f 5054 3a20  sdp:alive..OPT:.
	0x0190:  2268 7474 703a 2f2f 7363 6865 6d61 732e  "http://schemas.
	0x01a0:  7570 6e70 2e6f 7267 2f75 706e 702f 312f  upnp.org/upnp/1/
	0x01b0:  302f 223b 206e 733d 3031 0d0a 3031 2d4e  0/";.ns=01..01-N
	0x01c0:  4c53 3a20 310d 0a42 4f4f 5449 442e 5550  LS:.1..BOOTID.UP
	0x01d0:  4e50 2e4f 5247 3a20 310d 0a43 4f4e 4649  NP.ORG:.1..CONFI
	0x01e0:  4749 442e 5550 4e50 2e4f 5247 3a20 3133  GID.UPNP.ORG:.13
	0x01f0:  3337 0d0a 0d0a                           37....
2024-11-10 23:35:39.307896 IP 192.168.0.1.34140 > 239.255.255.250.1900: UDP, length 442
	0x0000:  0100 5e7f fffa ac15 a269 6ce2 0800 4500  ..^......il...E.
	0x0010:  01d6 0000 4000 0211 c673 c0a8 0001 efff  ....@....s......
	0x0020:  fffa 855c 076c 01c2 ac2f 4e4f 5449 4659  ...\.l.../NOTIFY
	0x0030:  202a 2048 5454 502f 312e 310d 0a48 4f53  .*.HTTP/1.1..HOS
	0x0040:  543a 2032 3339 2e32 3535 2e32 3535 2e32  T:.239.255.255.2
	0x0050:  3530 3a31 3930 300d 0a43 4143 4845 2d43  50:1900..CACHE-C
	0x0060:  4f4e 5452 4f4c 3a20 6d61 782d 6167 653d  ONTROL:.max-age=
	0x0070:  3630 0d0a 4c4f 4341 5449 4f4e 3a20 6874  60..LOCATION:.ht
	0x0080:  7470 3a2f 2f31 3932 2e31 3638 2e30 2e31  tp://192.168.0.1
	0x0090:  3a31 3930 302f 726f 6f74 4465 7363 2e78  :1900/rootDesc.x
	0x00a0:  6d6c 0d0a 5345 5256 4552 3a20 5450 2d4c  ml..SERVER:.TP-L
	0x00b0:  696e 6b2f 5450 2d4c 494e 4b20 5550 6e50  ink/TP-LINK.UPnP
	0x00c0:  2f31 2e31 204d 696e 6955 506e 5064 2f31  /1.1.MiniUPnPd/1
	0x00d0:  2e38 0d0a 4e54 3a20 7572 6e3a 7363 6865  .8..NT:.urn:sche
	0x00e0:  6d61 732d 7570 6e70 2d6f 7267 3a73 6572  mas-upnp-org:ser
	0x00f0:  7669 6365 3a57 414e 4950 436f 6e6e 6563  vice:WANIPConnec
	0x0100:  7469 6f6e 3a31 0d0a 5553 4e3a 2075 7569  tion:1..USN:.uui
	0x0110:  643a 3761 3731 3462 6637 2d61 3734 322d  d:7a714bf7-a742-
	0x0120:  3461 3566 2d62 3934 632d 3034 3064 3830  4a5f-b94c-040d80
	0x0130:  6262 3262 6236 3a3a 7572 6e3a 7363 6865  bb2bb6::urn:sche
	0x0140:  6d61 732d 7570 6e70 2d6f 7267 3a73 6572  mas-upnp-org:ser
	0x0150:  7669 6365 3a57 414e 4950 436f 6e6e 6563  vice:WANIPConnec
	0x0160:  7469 6f6e 3a31 0d0a 4e54 533a 2073 7364  tion:1..NTS:.ssd
	0x0170:  703a 616c 6976 650d 0a4f 5054 3a20 2268  p:alive..OPT:."h
	0x0180:  7474 703a 2f2f 7363 6865 6d61 732e 7570  ttp://schemas.up
	0x0190:  6e70 2e6f 7267 2f75 706e 702f 312f 302f  np.org/upnp/1/0/
	0x01a0:  223b 206e 733d 3031 0d0a 3031 2d4e 4c53  ";.ns=01..01-NLS
	0x01b0:  3a20 310d 0a42 4f4f 5449 442e 5550 4e50  :.1..BOOTID.UPNP
	0x01c0:  2e4f 5247 3a20 310d 0a43 4f4e 4649 4749  .ORG:.1..CONFIGI
	0x01d0:  442e 5550 4e50 2e4f 5247 3a20 3133 3337  D.UPNP.ORG:.1337
	0x01e0:  0d0a 0d0a                                ....
2024-11-10 23:35:39.307896 IP 192.168.0.1.34140 > 239.255.255.250.1900: UDP, length 444
	0x0000:  0100 5e7f fffa ac15 a269 6ce2 0800 4500  ..^......il...E.
	0x0010:  01d8 0000 4000 0211 c671 c0a8 0001 efff  ....@....q......
	0x0020:  fffa 855c 076c 01c4 5bcd 4e4f 5449 4659  ...\.l..[.NOTIFY
	0x0030:  202a 2048 5454 502f 312e 310d 0a48 4f53  .*.HTTP/1.1..HOS
	0x0040:  543a 2032 3339 2e32 3535 2e32 3535 2e32  T:.239.255.255.2
	0x0050:  3530 3a31 3930 300d 0a43 4143 4845 2d43  50:1900..CACHE-C
	0x0060:  4f4e 5452 4f4c 3a20 6d61 782d 6167 653d  ONTROL:.max-age=
	0x0070:  3630 0d0a 4c4f 4341 5449 4f4e 3a20 6874  60..LOCATION:.ht
	0x0080:  7470 3a2f 2f31 3932 2e31 3638 2e30 2e31  tp://192.168.0.1
	0x0090:  3a31 3930 302f 726f 6f74 4465 7363 2e78  :1900/rootDesc.x
	0x00a0:  6d6c 0d0a 5345 5256 4552 3a20 5450 2d4c  ml..SERVER:.TP-L
	0x00b0:  696e 6b2f 5450 2d4c 494e 4b20 5550 6e50  ink/TP-LINK.UPnP
	0x00c0:  2f31 2e31 204d 696e 6955 506e 5064 2f31  /1.1.MiniUPnPd/1
	0x00d0:  2e38 0d0a 4e54 3a20 7572 6e3a 7363 6865  .8..NT:.urn:sche
	0x00e0:  6d61 732d 7570 6e70 2d6f 7267 3a73 6572  mas-upnp-org:ser
	0x00f0:  7669 6365 3a57 414e 5050 5043 6f6e 6e65  vice:WANPPPConne
	0x0100:  6374 696f 6e3a 310d 0a55 534e 3a20 7575  ction:1..USN:.uu
	0x0110:  6964 3a37 6137 3134 6266 372d 6137 3432  id:7a714bf7-a742
	0x0120:  2d34 6135 662d 6239 3463 2d30 3430 6438  -4a5f-b94c-040d8
	0x0130:  3062 6232 6262 363a 3a75 726e 3a73 6368  0bb2bb6::urn:sch
	0x0140:  656d 6173 2d75 706e 702d 6f72 673a 7365  emas-upnp-org:se
	0x0150:  7276 6963 653a 5741 4e50 5050 436f 6e6e  rvice:WANPPPConn
	0x0160:  6563 7469 6f6e 3a31 0d0a 4e54 533a 2073  ection:1..NTS:.s
	0x0170:  7364 703a 616c 6976 650d 0a4f 5054 3a20  sdp:alive..OPT:.
	0x0180:  2268 7474 703a 2f2f 7363 6865 6d61 732e  "http://schemas.
	0x0190:  7570 6e70 2e6f 7267 2f75 706e 702f 312f  upnp.org/upnp/1/
	0x01a0:  302f 223b 206e 733d 3031 0d0a 3031 2d4e  0/";.ns=01..01-N
	0x01b0:  4c53 3a20 310d 0a42 4f4f 5449 442e 5550  LS:.1..BOOTID.UP
	0x01c0:  4e50 2e4f 5247 3a20 310d 0a43 4f4e 4649  NP.ORG:.1..CONFI
	0x01d0:  4749 442e 5550 4e50 2e4f 5247 3a20 3133  GID.UPNP.ORG:.13
	0x01e0:  3337 0d0a 0d0a                           37....
2024-11-10 23:35:39.309255 IP 192.168.0.1.34140 > 239.255.255.250.1900: UDP, length 444
	0x0000:  0100 5e7f fffa ac15 a269 6ce2 0800 4500  ..^......il...E.
	0x0010:  01d8 0000 4000 0211 c671 c0a8 0001 efff  ....@....q......
	0x0020:  fffa 855c 076c 01c4 fe6f 4e4f 5449 4659  ...\.l...oNOTIFY
	0x0030:  202a 2048 5454 502f 312e 310d 0a48 4f53  .*.HTTP/1.1..HOS
	0x0040:  543a 2032 3339 2e32 3535 2e32 3535 2e32  T:.239.255.255.2
	0x0050:  3530 3a31 3930 300d 0a43 4143 4845 2d43  50:1900..CACHE-C
	0x0060:  4f4e 5452 4f4c 3a20 6d61 782d 6167 653d  ONTROL:.max-age=
	0x0070:  3630 0d0a 4c4f 4341 5449 4f4e 3a20 6874  60..LOCATION:.ht
	0x0080:  7470 3a2f 2f31 3932 2e31 3638 2e30 2e31  tp://192.168.0.1
	0x0090:  3a31 3930 302f 726f 6f74 4465 7363 2e78  :1900/rootDesc.x
	0x00a0:  6d6c 0d0a 5345 5256 4552 3a20 5450 2d4c  ml..SERVER:.TP-L
	0x00b0:  696e 6b2f 5450 2d4c 494e 4b20 5550 6e50  ink/TP-LINK.UPnP
	0x00c0:  2f31 2e31 204d 696e 6955 506e 5064 2f31  /1.1.MiniUPnPd/1
	0x00d0:  2e38 0d0a 4e54 3a20 7572 6e3a 7363 6865  .8..NT:.urn:sche
	0x00e0:  6d61 732d 7570 6e70 2d6f 7267 3a73 6572  mas-upnp-org:ser
	0x00f0:  7669 6365 3a4c 6179 6572 3346 6f72 7761  vice:Layer3Forwa
	0x0100:  7264 696e 673a 310d 0a55 534e 3a20 7575  rding:1..USN:.uu
	0x0110:  6964 3a37 6137 3134 6266 372d 6137 3432  id:7a714bf7-a742
	0x0120:  2d34 6135 662d 6239 3463 2d30 3430 6438  -4a5f-b94c-040d8
	0x0130:  3062 6232 6262 363a 3a75 726e 3a73 6368  0bb2bb6::urn:sch
	0x0140:  656d 6173 2d75 706e 702d 6f72 673a 7365  emas-upnp-org:se
	0x0150:  7276 6963 653a 4c61 7965 7233 466f 7277  rvice:Layer3Forw
	0x0160:  6172 6469 6e67 3a31 0d0a 4e54 533a 2073  arding:1..NTS:.s
	0x0170:  7364 703a 616c 6976 650d 0a4f 5054 3a20  sdp:alive..OPT:.
	0x0180:  2268 7474 703a 2f2f 7363 6865 6d61 732e  "http://schemas.
	0x0190:  7570 6e70 2e6f 7267 2f75 706e 702f 312f  upnp.org/upnp/1/
	0x01a0:  302f 223b 206e 733d 3031 0d0a 3031 2d4e  0/";.ns=01..01-N
	0x01b0:  4c53 3a20 310d 0a42 4f4f 5449 442e 5550  LS:.1..BOOTID.UP
	0x01c0:  4e50 2e4f 5247 3a20 310d 0a43 4f4e 4649  NP.ORG:.1..CONFI
	0x01d0:  4749 442e 5550 4e50 2e4f 5247 3a20 3133  GID.UPNP.ORG:.13
	0x01e0:  3337 0d0a 0d0a                           37....
2024-11-10 23:35:39.309256 IP6 fe80::ae15:a2ff:fe69:6ce2.41344 > ff02::c.1900: UDP, length 368
	0x0000:  3333 0000 000c ac15 a269 6ce2 86dd 6000  33.......il...`.
	0x0010:  0000 0178 1101 fe80 0000 0000 0000 ae15  ...x............
	0x0020:  a2ff fe69 6ce2 ff02 0000 0000 0000 0000  ...il...........
	0x0030:  0000 0000 000c a180 076c 0178 96c9 4e4f  .........l.x..NO
	0x0040:  5449 4659 202a 2048 5454 502f 312e 310d  TIFY.*.HTTP/1.1.
	0x0050:  0a48 4f53 543a 205b 4646 3032 3a3a 435d  .HOST:.[FF02::C]
	0x0060:  3a31 3930 300d 0a43 4143 4845 2d43 4f4e  :1900..CACHE-CON
	0x0070:  5452 4f4c 3a20 6d61 782d 6167 653d 3630  TROL:.max-age=60
	0x0080:  0d0a 4c4f 4341 5449 4f4e 3a20 6874 7470  ..LOCATION:.http
	0x0090:  3a2f 2f5b 3a3a 315d 3a31 3930 302f 726f  ://[::1]:1900/ro
	0x00a0:  6f74 4465 7363 2e78 6d6c 0d0a 5345 5256  otDesc.xml..SERV
	0x00b0:  4552 3a20 5450 2d4c 696e 6b2f 5450 2d4c  ER:.TP-Link/TP-L
	0x00c0:  494e 4b20 5550 6e50 2f31 2e31 204d 696e  INK.UPnP/1.1.Min
	0x00d0:  6955 506e 5064 2f31 2e38 0d0a 4e54 3a20  iUPnPd/1.8..NT:.
	0x00e0:  7570 6e70 3a72 6f6f 7464 6576 6963 650d  upnp:rootdevice.
	0x00f0:  0a55 534e 3a20 7575 6964 3a37 6137 3134  .USN:.uuid:7a714
	0x0100:  6266 372d 6137 3432 2d34 6135 662d 6239  bf7-a742-4a5f-b9
	0x0110:  3463 2d30 3430 6438 3062 6232 6262 363a  4c-040d80bb2bb6:
	0x0120:  3a75 706e 703a 726f 6f74 6465 7669 6365  :upnp:rootdevice
	0x0130:  0d0a 4e54 533a 2073 7364 703a 616c 6976  ..NTS:.ssdp:aliv
	0x0140:  650d 0a4f 5054 3a20 2268 7474 703a 2f2f  e..OPT:."http://
	0x0150:  7363 6865 6d61 732e 7570 6e70 2e6f 7267  schemas.upnp.org
	0x0160:  2f75 706e 702f 312f 302f 223b 206e 733d  /upnp/1/0/";.ns=
	0x0170:  3031 0d0a 3031 2d4e 4c53 3a20 310d 0a42  01..01-NLS:.1..B
	0x0180:  4f4f 5449 442e 5550 4e50 2e4f 5247 3a20  OOTID.UPNP.ORG:.
	0x0190:  310d 0a43 4f4e 4649 4749 442e 5550 4e50  1..CONFIGID.UPNP
	0x01a0:  2e4f 5247 3a20 3133 3337 0d0a 0d0a       .ORG:.1337....
2024-11-10 23:35:39.310322 IP6 fe80::ae15:a2ff:fe69:6ce2.41344 > ff02::c.1900: UDP, length 377
	0x0000:  3333 0000 000c ac15 a269 6ce2 86dd 6000  33.......il...`.
	0x0010:  0000 0181 1101 fe80 0000 0000 0000 ae15  ................
	0x0020:  a2ff fe69 6ce2 ff02 0000 0000 0000 0000  ...il...........
	0x0030:  0000 0000 000c a180 076c 0181 c5d7 4e4f  .........l....NO
	0x0040:  5449 4659 202a 2048 5454 502f 312e 310d  TIFY.*.HTTP/1.1.
	0x0050:  0a48 4f53 543a 205b 4646 3032 3a3a 435d  .HOST:.[FF02::C]
	0x0060:  3a31 3930 300d 0a43 4143 4845 2d43 4f4e  :1900..CACHE-CON
	0x0070:  5452 4f4c 3a20 6d61 782d 6167 653d 3630  TROL:.max-age=60
	0x0080:  0d0a 4c4f 4341 5449 4f4e 3a20 6874 7470  ..LOCATION:.http
	0x0090:  3a2f 2f5b 3a3a 315d 3a31 3930 302f 726f  ://[::1]:1900/ro
	0x00a0:  6f74 4465 7363 2e78 6d6c 0d0a 5345 5256  otDesc.xml..SERV
	0x00b0:  4552 3a20 5450 2d4c 696e 6b2f 5450 2d4c  ER:.TP-Link/TP-L
	0x00c0:  494e 4b20 5550 6e50 2f31 2e31 204d 696e  INK.UPnP/1.1.Min
	0x00d0:  6955 506e 5064 2f31 2e38 0d0a 4e54 3a20  iUPnPd/1.8..NT:.
	0x00e0:  7575 6964 3a37 6137 3134 6266 372d 6137  uuid:7a714bf7-a7
	0x00f0:  3432 2d34 6135 662d 6239 3463 2d30 3430  42-4a5f-b94c-040
	0x0100:  6438 3062 6232 6262 360d 0a55 534e 3a20  d80bb2bb6..USN:.
	0x0110:  7575 6964 3a37 6137 3134 6266 372d 6137  uuid:7a714bf7-a7
	0x0120:  3432 2d34 6135 662d 6239 3463 2d30 3430  42-4a5f-b94c-040
	0x0130:  6438 3062 6232 6262 360d 0a4e 5453 3a20  d80bb2bb6..NTS:.
	0x0140:  7373 6470 3a61 6c69 7665 0d0a 4f50 543a  ssdp:alive..OPT:
	0x0150:  2022 6874 7470 3a2f 2f73 6368 656d 6173  ."http://schemas
	0x0160:  2e75 706e 702e 6f72 672f 7570 6e70 2f31  .upnp.org/upnp/1
	0x0170:  2f30 2f22 3b20 6e73 3d30 310d 0a30 312d  /0/";.ns=01..01-
	0x0180:  4e4c 533a 2031 0d0a 424f 4f54 4944 2e55  NLS:.1..BOOTID.U
	0x0190:  504e 502e 4f52 473a 2031 0d0a 434f 4e46  PNP.ORG:.1..CONF
	0x01a0:  4947 4944 2e55 504e 502e 4f52 473a 2031  IGID.UPNP.ORG:.1
	0x01b0:  3333 370d 0a0d 0a                        337....
2024-11-10 23:35:39.310323 IP6 fe80::ae15:a2ff:fe69:6ce2.41344 > ff02::c.1900: UDP, length 440
	0x0000:  3333 0000 000c ac15 a269 6ce2 86dd 6000  33.......il...`.
	0x0010:  0000 01c0 1101 fe80 0000 0000 0000 ae15  ................
	0x0020:  a2ff fe69 6ce2 ff02 0000 0000 0000 0000  ...il...........
	0x0030:  0000 0000 000c a180 076c 01c0 27cb 4e4f  .........l..'.NO
	0x0040:  5449 4659 202a 2048 5454 502f 312e 310d  TIFY.*.HTTP/1.1.
	0x0050:  0a48 4f53 543a 205b 4646 3032 3a3a 435d  .HOST:.[FF02::C]
	0x0060:  3a31 3930 300d 0a43 4143 4845 2d43 4f4e  :1900..CACHE-CON
	0x0070:  5452 4f4c 3a20 6d61 782d 6167 653d 3630  TROL:.max-age=60
	0x0080:  0d0a 4c4f 4341 5449 4f4e 3a20 6874 7470  ..LOCATION:.http
	0x0090:  3a2f 2f5b 3a3a 315d 3a31 3930 302f 726f  ://[::1]:1900/ro
	0x00a0:  6f74 4465 7363 2e78 6d6c 0d0a 5345 5256  otDesc.xml..SERV
	0x00b0:  4552 3a20 5450 2d4c 696e 6b2f 5450 2d4c  ER:.TP-Link/TP-L
	0x00c0:  494e 4b20 5550 6e50 2f31 2e31 204d 696e  INK.UPnP/1.1.Min
	0x00d0:  6955 506e 5064 2f31 2e38 0d0a 4e54 3a20  iUPnPd/1.8..NT:.
	0x00e0:  7572 6e3a 7363 6865 6d61 732d 7570 6e70  urn:schemas-upnp
	0x00f0:  2d6f 7267 3a64 6576 6963 653a 496e 7465  -org:device:Inte
	0x0100:  726e 6574 4761 7465 7761 7944 6576 6963  rnetGatewayDevic
	0x0110:  653a 310d 0a55 534e 3a20 7575 6964 3a37  e:1..USN:.uuid:7
	0x0120:  6137 3134 6266 372d 6137 3432 2d34 6135  a714bf7-a742-4a5
	0x0130:  662d 6239 3463 2d30 3430 6438 3062 6232  f-b94c-040d80bb2
	0x0140:  6262 363a 3a75 726e 3a73 6368 656d 6173  bb6::urn:schemas
	0x0150:  2d75 706e 702d 6f72 673a 6465 7669 6365  -upnp-org:device
	0x0160:  3a49 6e74 6572 6e65 7447 6174 6577 6179  :InternetGateway
	0x0170:  4465 7669 6365 3a31 0d0a 4e54 533a 2073  Device:1..NTS:.s
	0x0180:  7364 703a 616c 6976 650d 0a4f 5054 3a20  sdp:alive..OPT:.
	0x0190:  2268 7474 703a 2f2f 7363 6865 6d61 732e  "http://schemas.
	0x01a0:  7570 6e70 2e6f 7267 2f75 706e 702f 312f  upnp.org/upnp/1/
	0x01b0:  302f 223b 206e 733d 3031 0d0a 3031 2d4e  0/";.ns=01..01-N
	0x01c0:  4c53 3a20 310d 0a42 4f4f 5449 442e 5550  LS:.1..BOOTID.UP
	0x01d0:  4e50 2e4f 5247 3a20 310d 0a43 4f4e 4649  NP.ORG:.1..CONFI
	0x01e0:  4749 442e 5550 4e50 2e4f 5247 3a20 3133  GID.UPNP.ORG:.13
	0x01f0:  3337 0d0a 0d0a                           37....
2024-11-10 23:35:39.311630 IP6 fe80::ae15:a2ff:fe69:6ce2.41344 > ff02::c.1900: UDP, length 436
	0x0000:  3333 0000 000c ac15 a269 6ce2 86dd 6000  33.......il...`.
	0x0010:  0000 01bc 1101 fe80 0000 0000 0000 ae15  ................
	0x0020:  a2ff fe69 6ce2 ff02 0000 0000 0000 0000  ...il...........
	0x0030:  0000 0000 000c a180 076c 01bc 4df9 4e4f  .........l..M.NO
	0x0040:  5449 4659 202a 2048 5454 502f 312e 310d  TIFY.*.HTTP/1.1.
	0x0050:  0a48 4f53 543a 205b 4646 3032 3a3a 435d  .HOST:.[FF02::C]
	0x0060:  3a31 3930 300d 0a43 4143 4845 2d43 4f4e  :1900..CACHE-CON
	0x0070:  5452 4f4c 3a20 6d61 782d 6167 653d 3630  TROL:.max-age=60
	0x0080:  0d0a 4c4f 4341 5449 4f4e 3a20 6874 7470  ..LOCATION:.http
	0x0090:  3a2f 2f5b 3a3a 315d 3a31 3930 302f 726f  ://[::1]:1900/ro
	0x00a0:  6f74 4465 7363 2e78 6d6c 0d0a 5345 5256  otDesc.xml..SERV
	0x00b0:  4552 3a20 5450 2d4c 696e 6b2f 5450 2d4c  ER:.TP-Link/TP-L
	0x00c0:  494e 4b20 5550 6e50 2f31 2e31 204d 696e  INK.UPnP/1.1.Min
	0x00d0:  6955 506e 5064 2f31 2e38 0d0a 4e54 3a20  iUPnPd/1.8..NT:.
	0x00e0:  7572 6e3a 7363 6865 6d61 732d 7570 6e70  urn:schemas-upnp
	0x00f0:  2d6f 7267 3a64 6576 6963 653a 5741 4e43  -org:device:WANC
	0x0100:  6f6e 6e65 6374 696f 6e44 6576 6963 653a  onnectionDevice:
	0x0110:  310d 0a55 534e 3a20 7575 6964 3a37 6137  1..USN:.uuid:7a7
	0x0120:  3134 6266 372d 6137 3432 2d34 6135 662d  14bf7-a742-4a5f-
	0x0130:  6239 3463 2d30 3430 6438 3062 6232 6262  b94c-040d80bb2bb
	0x0140:  363a 3a75 726e 3a73 6368 656d 6173 2d75  6::urn:schemas-u
	0x0150:  706e 702d 6f72 673a 6465 7669 6365 3a57  pnp-org:device:W
	0x0160:  414e 436f 6e6e 6563 7469 6f6e 4465 7669  ANConnectionDevi
	0x0170:  6365 3a31 0d0a 4e54 533a 2073 7364 703a  ce:1..NTS:.ssdp:
	0x0180:  616c 6976 650d 0a4f 5054 3a20 2268 7474  alive..OPT:."htt
	0x0190:  703a 2f2f 7363 6865 6d61 732e 7570 6e70  p://schemas.upnp
	0x01a0:  2e6f 7267 2f75 706e 702f 312f 302f 223b  .org/upnp/1/0/";
	0x01b0:  206e 733d 3031 0d0a 3031 2d4e 4c53 3a20  .ns=01..01-NLS:.
	0x01c0:  310d 0a42 4f4f 5449 442e 5550 4e50 2e4f  1..BOOTID.UPNP.O
	0x01d0:  5247 3a20 310d 0a43 4f4e 4649 4749 442e  RG:.1..CONFIGID.
	0x01e0:  5550 4e50 2e4f 5247 3a20 3133 3337 0d0a  UPNP.ORG:.1337..
	0x01f0:  0d0a                                     ..
2024-11-10 23:35:39.312463 IP6 fe80::ae15:a2ff:fe69:6ce2.41344 > ff02::c.1900: UDP, length 416
	0x0000:  3333 0000 000c ac15 a269 6ce2 86dd 6000  33.......il...`.
	0x0010:  0000 01a8 1101 fe80 0000 0000 0000 ae15  ................
	0x0020:  a2ff fe69 6ce2 ff02 0000 0000 0000 0000  ...il...........
	0x0030:  0000 0000 000c a180 076c 01a8 6235 4e4f  .........l..b5NO
	0x0040:  5449 4659 202a 2048 5454 502f 312e 310d  TIFY.*.HTTP/1.1.
	0x0050:  0a48 4f53 543a 205b 4646 3032 3a3a 435d  .HOST:.[FF02::C]
	0x0060:  3a31 3930 300d 0a43 4143 4845 2d43 4f4e  :1900..CACHE-CON
	0x0070:  5452 4f4c 3a20 6d61 782d 6167 653d 3630  TROL:.max-age=60
	0x0080:  0d0a 4c4f 4341 5449 4f4e 3a20 6874 7470  ..LOCATION:.http
	0x0090:  3a2f 2f5b 3a3a 315d 3a31 3930 302f 726f  ://[::1]:1900/ro
	0x00a0:  6f74 4465 7363 2e78 6d6c 0d0a 5345 5256  otDesc.xml..SERV
	0x00b0:  4552 3a20 5450 2d4c 696e 6b2f 5450 2d4c  ER:.TP-Link/TP-L
	0x00c0:  494e 4b20 5550 6e50 2f31 2e31 204d 696e  INK.UPnP/1.1.Min
	0x00d0:  6955 506e 5064 2f31 2e38 0d0a 4e54 3a20  iUPnPd/1.8..NT:.
	0x00e0:  7572 6e3a 7363 6865 6d61 732d 7570 6e70  urn:schemas-upnp
	0x00f0:  2d6f 7267 3a64 6576 6963 653a 5741 4e44  -org:device:WAND
	0x0100:  6576 6963 653a 310d 0a55 534e 3a20 7575  evice:1..USN:.uu
	0x0110:  6964 3a37 6137 3134 6266 372d 6137 3432  id:7a714bf7-a742
	0x0120:  2d34 6135 662d 6239 3463 2d30 3430 6438  -4a5f-b94c-040d8
	0x0130:  3062 6232 6262 363a 3a75 726e 3a73 6368  0bb2bb6::urn:sch
	0x0140:  656d 6173 2d75 706e 702d 6f72 673a 6465  emas-upnp-org:de
	0x0150:  7669 6365 3a57 414e 4465 7669 6365 3a31  vice:WANDevice:1
	0x0160:  0d0a 4e54 533a 2073 7364 703a 616c 6976  ..NTS:.ssdp:aliv
	0x0170:  650d 0a4f 5054 3a20 2268 7474 703a 2f2f  e..OPT:."http://
	0x0180:  7363 6865 6d61 732e 7570 6e70 2e6f 7267  schemas.upnp.org
	0x0190:  2f75 706e 702f 312f 302f 223b 206e 733d  /upnp/1/0/";.ns=
	0x01a0:  3031 0d0a 3031 2d4e 4c53 3a20 310d 0a42  01..01-NLS:.1..B
	0x01b0:  4f4f 5449 442e 5550 4e50 2e4f 5247 3a20  OOTID.UPNP.ORG:.
	0x01c0:  310d 0a43 4f4e 4649 4749 442e 5550 4e50  1..CONFIGID.UPNP
	0x01d0:  2e4f 5247 3a20 3133 3337 0d0a 0d0a       .ORG:.1337....
2024-11-10 23:35:39.314479 IP6 fe80::ae15:a2ff:fe69:6ce2.41344 > ff02::c.1900: UDP, length 448
	0x0000:  3333 0000 000c ac15 a269 6ce2 86dd 6000  33.......il...`.
	0x0010:  0000 01c8 1101 fe80 0000 0000 0000 ae15  ................
	0x0020:  a2ff fe69 6ce2 ff02 0000 0000 0000 0000  ...il...........
	0x0030:  0000 0000 000c a180 076c 01c8 da6d 4e4f  .........l...mNO
	0x0040:  5449 4659 202a 2048 5454 502f 312e 310d  TIFY.*.HTTP/1.1.
	0x0050:  0a48 4f53 543a 205b 4646 3032 3a3a 435d  .HOST:.[FF02::C]
	0x0060:  3a31 3930 300d 0a43 4143 4845 2d43 4f4e  :1900..CACHE-CON
	0x0070:  5452 4f4c 3a20 6d61 782d 6167 653d 3630  TROL:.max-age=60
	0x0080:  0d0a 4c4f 4341 5449 4f4e 3a20 6874 7470  ..LOCATION:.http
	0x0090:  3a2f 2f5b 3a3a 315d 3a31 3930 302f 726f  ://[::1]:1900/ro
	0x00a0:  6f74 4465 7363 2e78 6d6c 0d0a 5345 5256  otDesc.xml..SERV
	0x00b0:  4552 3a20 5450 2d4c 696e 6b2f 5450 2d4c  ER:.TP-Link/TP-L
	0x00c0:  494e 4b20 5550 6e50 2f31 2e31 204d 696e  INK.UPnP/1.1.Min
	0x00d0:  6955 506e 5064 2f31 2e38 0d0a 4e54 3a20  iUPnPd/1.8..NT:.
	0x00e0:  7572 6e3a 7363 6865 6d61 732d 7570 6e70  urn:schemas-upnp
	0x00f0:  2d6f 7267 3a73 6572 7669 6365 3a57 414e  -org:service:WAN
	0x0100:  436f 6d6d 6f6e 496e 7465 7266 6163 6543  CommonInterfaceC
	0x0110:  6f6e 6669 673a 310d 0a55 534e 3a20 7575  onfig:1..USN:.uu
	0x0120:  6964 3a37 6137 3134 6266 372d 6137 3432  id:7a714bf7-a742
	0x0130:  2d34 6135 662d 6239 3463 2d30 3430 6438  -4a5f-b94c-040d8
	0x0140:  3062 6232 6262 363a 3a75 726e 3a73 6368  0bb2bb6::urn:sch
	0x0150:  656d 6173 2d75 706e 702d 6f72 673a 7365  emas-upnp-org:se
	0x0160:  7276 6963 653a 5741 4e43 6f6d 6d6f 6e49  rvice:WANCommonI
	0x0170:  6e74 6572 6661 6365 436f 6e66 6967 3a31  nterfaceConfig:1
	0x0180:  0d0a 4e54 533a 2073 7364 703a 616c 6976  ..NTS:.ssdp:aliv
	0x0190:  650d 0a4f 5054 3a20 2268 7474 703a 2f2f  e..OPT:."http://
	0x01a0:  7363 6865 6d61 732e 7570 6e70 2e6f 7267  schemas.upnp.org
	0x01b0:  2f75 706e 702f 312f 302f 223b 206e 733d  /upnp/1/0/";.ns=
	0x01c0:  3031 0d0a 3031 2d4e 4c53 3a20 310d 0a42  01..01-NLS:.1..B
	0x01d0:  4f4f 5449 442e 5550 4e50 2e4f 5247 3a20  OOTID.UPNP.ORG:.
	0x01e0:  310d 0a43 4f4e 4649 4749 442e 5550 4e50  1..CONFIGID.UPNP
	0x01f0:  2e4f 5247 3a20 3133 3337 0d0a 0d0a       .ORG:.1337....
2024-11-10 23:35:39.314480 IP6 fe80::ae15:a2ff:fe69:6ce2.41344 > ff02::c.1900: UDP, length 430
	0x0000:  3333 0000 000c ac15 a269 6ce2 86dd 6000  33.......il...`.
	0x0010:  0000 01b6 1101 fe80 0000 0000 0000 ae15  ................
	0x0020:  a2ff fe69 6ce2 ff02 0000 0000 0000 0000  ...il...........
	0x0030:  0000 0000 000c a180 076c 01b6 7e43 4e4f  .........l..~CNO
	0x0040:  5449 4659 202a 2048 5454 502f 312e 310d  TIFY.*.HTTP/1.1.
	0x0050:  0a48 4f53 543a 205b 4646 3032 3a3a 435d  .HOST:.[FF02::C]
	0x0060:  3a31 3930 300d 0a43 4143 4845 2d43 4f4e  :1900..CACHE-CON
	0x0070:  5452 4f4c 3a20 6d61 782d 6167 653d 3630  TROL:.max-age=60
	0x0080:  0d0a 4c4f 4341 5449 4f4e 3a20 6874 7470  ..LOCATION:.http
	0x0090:  3a2f 2f5b 3a3a 315d 3a31 3930 302f 726f  ://[::1]:1900/ro
	0x00a0:  6f74 4465 7363 2e78 6d6c 0d0a 5345 5256  otDesc.xml..SERV
	0x00b0:  4552 3a20 5450 2d4c 696e 6b2f 5450 2d4c  ER:.TP-Link/TP-L
	0x00c0:  494e 4b20 5550 6e50 2f31 2e31 204d 696e  INK.UPnP/1.1.Min
	0x00d0:  6955 506e 5064 2f31 2e38 0d0a 4e54 3a20  iUPnPd/1.8..NT:.
	0x00e0:  7572 6e3a 7363 6865 6d61 732d 7570 6e70  urn:schemas-upnp
	0x00f0:  2d6f 7267 3a73 6572 7669 6365 3a57 414e  -org:service:WAN
	0x0100:  4950 436f 6e6e 6563 7469 6f6e 3a31 0d0a  IPConnection:1..
	0x0110:  5553 4e3a 2075 7569 643a 3761 3731 3462  USN:.uuid:7a714b
	0x0120:  6637 2d61 3734 322d 3461 3566 2d62 3934  f7-a742-4a5f-b94
	0x0130:  632d 3034 3064 3830 6262 3262 6236 3a3a  c-040d80bb2bb6::
	0x0140:  7572 6e3a 7363 6865 6d61 732d 7570 6e70  urn:schemas-upnp
	0x0150:  2d6f 7267 3a73 6572 7669 6365 3a57 414e  -org:service:WAN
	0x0160:  4950 436f 6e6e 6563 7469 6f6e 3a31 0d0a  IPConnection:1..
	0x0170:  4e54 533a 2073 7364 703a 616c 6976 650d  NTS:.ssdp:alive.
	0x0180:  0a4f 5054 3a20 2268 7474 703a 2f2f 7363  .OPT:."http://sc
	0x0190:  6865 6d61 732e 7570 6e70 2e6f 7267 2f75  hemas.upnp.org/u
	0x01a0:  706e 702f 312f 302f 223b 206e 733d 3031  pnp/1/0/";.ns=01
	0x01b0:  0d0a 3031 2d4e 4c53 3a20 310d 0a42 4f4f  ..01-NLS:.1..BOO
	0x01c0:  5449 442e 5550 4e50 2e4f 5247 3a20 310d  TID.UPNP.ORG:.1.
	0x01d0:  0a43 4f4e 4649 4749 442e 5550 4e50 2e4f  .CONFIGID.UPNP.O
	0x01e0:  5247 3a20 3133 3337 0d0a 0d0a            RG:.1337....
2024-11-10 23:35:39.315491 IP6 fe80::ae15:a2ff:fe69:6ce2.41344 > ff02::c.1900: UDP, length 432
	0x0000:  3333 0000 000c ac15 a269 6ce2 86dd 6000  33.......il...`.
	0x0010:  0000 01b8 1101 fe80 0000 0000 0000 ae15  ................
	0x0020:  a2ff fe69 6ce2 ff02 0000 0000 0000 0000  ...il...........
	0x0030:  0000 0000 000c a180 076c 01b8 2de1 4e4f  .........l..-.NO
	0x0040:  5449 4659 202a 2048 5454 502f 312e 310d  TIFY.*.HTTP/1.1.
	0x0050:  0a48 4f53 543a 205b 4646 3032 3a3a 435d  .HOST:.[FF02::C]
	0x0060:  3a31 3930 300d 0a43 4143 4845 2d43 4f4e  :1900..CACHE-CON
	0x0070:  5452 4f4c 3a20 6d61 782d 6167 653d 3630  TROL:.max-age=60
	0x0080:  0d0a 4c4f 4341 5449 4f4e 3a20 6874 7470  ..LOCATION:.http
	0x0090:  3a2f 2f5b 3a3a 315d 3a31 3930 302f 726f  ://[::1]:1900/ro
	0x00a0:  6f74 4465 7363 2e78 6d6c 0d0a 5345 5256  otDesc.xml..SERV
	0x00b0:  4552 3a20 5450 2d4c 696e 6b2f 5450 2d4c  ER:.TP-Link/TP-L
	0x00c0:  494e 4b20 5550 6e50 2f31 2e31 204d 696e  INK.UPnP/1.1.Min
	0x00d0:  6955 506e 5064 2f31 2e38 0d0a 4e54 3a20  iUPnPd/1.8..NT:.
	0x00e0:  7572 6e3a 7363 6865 6d61 732d 7570 6e70  urn:schemas-upnp
	0x00f0:  2d6f 7267 3a73 6572 7669 6365 3a57 414e  -org:service:WAN
	0x0100:  5050 5043 6f6e 6e65 6374 696f 6e3a 310d  PPPConnection:1.
	0x0110:  0a55 534e 3a20 7575 6964 3a37 6137 3134  .USN:.uuid:7a714
	0x0120:  6266 372d 6137 3432 2d34 6135 662d 6239  bf7-a742-4a5f-b9
	0x0130:  3463 2d30 3430 6438 3062 6232 6262 363a  4c-040d80bb2bb6:
	0x0140:  3a75 726e 3a73 6368 656d 6173 2d75 706e  :urn:schemas-upn
	0x0150:  702d 6f72 673a 7365 7276 6963 653a 5741  p-org:service:WA
	0x0160:  4e50 5050 436f 6e6e 6563 7469 6f6e 3a31  NPPPConnection:1
	0x0170:  0d0a 4e54 533a 2073 7364 703a 616c 6976  ..NTS:.ssdp:aliv
	0x0180:  650d 0a4f 5054 3a20 2268 7474 703a 2f2f  e..OPT:."http://
	0x0190:  7363 6865 6d61 732e 7570 6e70 2e6f 7267  schemas.upnp.org
	0x01a0:  2f75 706e 702f 312f 302f 223b 206e 733d  /upnp/1/0/";.ns=
	0x01b0:  3031 0d0a 3031 2d4e 4c53 3a20 310d 0a42  01..01-NLS:.1..B
	0x01c0:  4f4f 5449 442e 5550 4e50 2e4f 5247 3a20  OOTID.UPNP.ORG:.
	0x01d0:  310d 0a43 4f4e 4649 4749 442e 5550 4e50  1..CONFIGID.UPNP
	0x01e0:  2e4f 5247 3a20 3133 3337 0d0a 0d0a       .ORG:.1337....
2024-11-10 23:35:39.315491 IP6 fe80::ae15:a2ff:fe69:6ce2.41344 > ff02::c.1900: UDP, length 432
	0x0000:  3333 0000 000c ac15 a269 6ce2 86dd 6000  33.......il...`.
	0x0010:  0000 01b8 1101 fe80 0000 0000 0000 ae15  ................
	0x0020:  a2ff fe69 6ce2 ff02 0000 0000 0000 0000  ...il...........
	0x0030:  0000 0000 000c a180 076c 01b8 d083 4e4f  .........l....NO
	0x0040:  5449 4659 202a 2048 5454 502f 312e 310d  TIFY.*.HTTP/1.1.
	0x0050:  0a48 4f53 543a 205b 4646 3032 3a3a 435d  .HOST:.[FF02::C]
	0x0060:  3a31 3930 300d 0a43 4143 4845 2d43 4f4e  :1900..CACHE-CON
	0x0070:  5452 4f4c 3a20 6d61 782d 6167 653d 3630  TROL:.max-age=60
	0x0080:  0d0a 4c4f 4341 5449 4f4e 3a20 6874 7470  ..LOCATION:.http
	0x0090:  3a2f 2f5b 3a3a 315d 3a31 3930 302f 726f  ://[::1]:1900/ro
	0x00a0:  6f74 4465 7363 2e78 6d6c 0d0a 5345 5256  otDesc.xml..SERV
	0x00b0:  4552 3a20 5450 2d4c 696e 6b2f 5450 2d4c  ER:.TP-Link/TP-L
	0x00c0:  494e 4b20 5550 6e50 2f31 2e31 204d 696e  INK.UPnP/1.1.Min
	0x00d0:  6955 506e 5064 2f31 2e38 0d0a 4e54 3a20  iUPnPd/1.8..NT:.
	0x00e0:  7572 6e3a 7363 6865 6d61 732d 7570 6e70  urn:schemas-upnp
	0x00f0:  2d6f 7267 3a73 6572 7669 6365 3a4c 6179  -org:service:Lay
	0x0100:  6572 3346 6f72 7761 7264 696e 673a 310d  er3Forwarding:1.
	0x0110:  0a55 534e 3a20 7575 6964 3a37 6137 3134  .USN:.uuid:7a714
	0x0120:  6266 372d 6137 3432 2d34 6135 662d 6239  bf7-a742-4a5f-b9
	0x0130:  3463 2d30 3430 6438 3062 6232 6262 363a  4c-040d80bb2bb6:
	0x0140:  3a75 726e 3a73 6368 656d 6173 2d75 706e  :urn:schemas-upn
	0x0150:  702d 6f72 673a 7365 7276 6963 653a 4c61  p-org:service:La
	0x0160:  7965 7233 466f 7277 6172 6469 6e67 3a31  yer3Forwarding:1
	0x0170:  0d0a 4e54 533a 2073 7364 703a 616c 6976  ..NTS:.ssdp:aliv
	0x0180:  650d 0a4f 5054 3a20 2268 7474 703a 2f2f  e..OPT:."http://
	0x0190:  7363 6865 6d61 732e 7570 6e70 2e6f 7267  schemas.upnp.org
	0x01a0:  2f75 706e 702f 312f 302f 223b 206e 733d  /upnp/1/0/";.ns=
	0x01b0:  3031 0d0a 3031 2d4e 4c53 3a20 310d 0a42  01..01-NLS:.1..B
	0x01c0:  4f4f 5449 442e 5550 4e50 2e4f 5247 3a20  OOTID.UPNP.ORG:.
	0x01d0:  310d 0a43 4f4e 4649 4749 442e 5550 4e50  1..CONFIGID.UPNP
	0x01e0:  2e4f 5247 3a20 3133 3337 0d0a 0d0a       .ORG:.1337....
2024-11-10 23:35:39.329791 IP 192.168.0.1.domain > 192.168.0.141.59180: 4940 NXDomain 0/1/0 (154)
	0x0000:  0800 271e 364a ac15 a269 6ce2 0800 4500  ..'.6J...il...E.
	0x0010:  00b6 cacb 0000 6611 078d c0a8 0001 c0a8  ......f.........
	0x0020:  008d 0035 e72c 00a2 3f29 134c 8183 0001  ...5.,..?).L....
	0x0030:  0000 0001 0000 0135 0130 0139 0162 0165  .......5.0.9.b.e
	0x0040:  0131 0161 0164 0162 0162 0136 0135 0165  .1.a.d.b.b.6.5.e
	0x0050:  0135 0135 0132 0130 0130 0130 0130 0130  .5.5.2.0.0.0.0.0
	0x0060:  0130 0130 0130 0130 0130 0130 0130 0130  .0.0.0.0.0.0.0.0
	0x0070:  0138 0165 0166 0369 7036 0461 7270 6100  .8.e.f.ip6.arpa.
	0x0080:  000c 0001 c04c 0006 0001 0000 0c2b 0034  .....L.......+.4
	0x0090:  0162 0b69 7036 2d73 6572 7665 7273 c050  .b.ip6-servers.P
	0x00a0:  056e 7374 6c64 0469 616e 6103 6f72 6700  .nstld.iana.org.
	0x00b0:  78a5 79cf 0000 0708 0000 0384 0009 3a80  x.y...........:.
	0x00c0:  0000 0e10                                ....
2024-11-10 23:35:39.625546 IP 192.168.0.130.mdns > mdns.mcast.net.mdns: 0 PTR (QM)? _ipp._tcp.local. (33)
	0x0000:  0100 5e00 00fb ec2e 987a c577 0800 4500  ..^......z.w..E.
	0x0010:  003d 52dd 0000 0111 c4ad c0a8 0082 e000  .=R.............
	0x0020:  00fb 14e9 14e9 0029 afae 0000 0000 0001  .......)........
	0x0030:  0000 0000 0000 045f 6970 7004 5f74 6370  ......._ipp._tcp
	0x0040:  056c 6f63 616c 0000 0c00 01              .local.....
2024-11-10 23:35:39.625547 IP6 fe80::255e:56bb:da1e:b905.mdns > ff02::fb.mdns: 0 PTR (QM)? _ipp._tcp.local. (33)
	0x0000:  3333 0000 00fb ec2e 987a c577 86dd 6001  33.......z.w..`.
	0x0010:  4221 0029 1101 fe80 0000 0000 0000 255e  B!.)..........%^
	0x0020:  56bb da1e b905 ff02 0000 0000 0000 0000  V...............
	0x0030:  0000 0000 00fb 14e9 14e9 0029 4418 0000  ...........)D...
	0x0040:  0000 0001 0000 0000 0000 045f 6970 7004  ..........._ipp.
	0x0050:  5f74 6370 056c 6f63 616c 0000 0c00 01    _tcp.local.....
2024-11-10 23:35:39.628740 IP 192.168.0.130.mdns > mdns.mcast.net.mdns: 0 PTR (QM)? _ipps._tcp.local. (34)
	0x0000:  0100 5e00 00fb ec2e 987a c577 0800 4500  ..^......z.w..E.
	0x0010:  003e 52de 0000 0111 c4ab c0a8 0082 e000  .>R.............
	0x0020:  00fb 14e9 14e9 002a 2fb8 0000 0000 0001  .......*/.......
	0x0030:  0000 0000 0000 055f 6970 7073 045f 7463  ......._ipps._tc
	0x0040:  7005 6c6f 6361 6c00 000c 0001            p.local.....
2024-11-10 23:35:39.629560 IP6 fe80::255e:56bb:da1e:b905.mdns > ff02::fb.mdns: 0 PTR (QM)? _ipps._tcp.local. (34)
	0x0000:  3333 0000 00fb ec2e 987a c577 86dd 6001  33.......z.w..`.
	0x0010:  4221 002a 1101 fe80 0000 0000 0000 255e  B!.*..........%^
	0x0020:  56bb da1e b905 ff02 0000 0000 0000 0000  V...............
	0x0030:  0000 0000 00fb 14e9 14e9 002a c421 0000  ...........*.!..
	0x0040:  0000 0001 0000 0000 0000 055f 6970 7073  ..........._ipps
	0x0050:  045f 7463 7005 6c6f 6361 6c00 000c 0001  ._tcp.local.....
2024-11-10 23:35:39.743228 IP 192.168.0.141 > 192.168.0.203: ICMP echo request, id 21050, seq 19, length 64
	0x0000:  7ab9 bdf9 8c20 0800 271e 364a 0800 4500  z.......'.6J..E.
	0x0010:  0054 16e9 4000 4001 a117 c0a8 008d c0a8  .T..@.@.........
	0x0020:  00cb 0800 fb97 523a 0013 9b89 3167 0000  ......R:....1g..
	0x0030:  0000 1357 0b00 0000 0000 1011 1213 1415  ...W............
	0x0040:  1617 1819 1a1b 1c1d 1e1f 2021 2223 2425  ...........!"#$%
	0x0050:  2627 2829 2a2b 2c2d 2e2f 3031 3233 3435  &'()*+,-./012345
	0x0060:  3637                                     67
2024-11-10 23:35:39.908326 IP 192.168.0.203 > 192.168.0.141: ICMP echo reply, id 21050, seq 19, length 64
	0x0000:  0800 271e 364a 7ab9 bdf9 8c20 0800 4500  ..'.6Jz.......E.
	0x0010:  0054 0000 4000 4001 b800 c0a8 00cb c0a8  .T..@.@.........
	0x0020:  008d 0000 0398 523a 0013 9b89 3167 0000  ......R:....1g..
	0x0030:  0000 1357 0b00 0000 0000 1011 1213 1415  ...W............
	0x0040:  1617 1819 1a1b 1c1d 1e1f 2021 2223 2425  ...........!"#$%
	0x0050:  2627 2829 2a2b 2c2d 2e2f 3031 3233 3435  &'()*+,-./012345
	0x0060:  3637                                     67
2024-11-10 23:35:40.200422 IP 192.168.0.141.38517 > 192.168.0.1.domain: 23941+ PTR? 250.255.255.239.in-addr.arpa. (46)
	0x0000:  ac15 a269 6ce2 0800 271e 364a 0800 4500  ...il...'.6J..E.
	0x0010:  004a f3ec 4000 4011 c4d7 c0a8 008d c0a8  .J..@.@.........
	0x0020:  0001 9675 0035 0036 8226 5d85 0100 0001  ...u.5.6.&].....
	0x0030:  0000 0000 0000 0332 3530 0332 3535 0332  .......250.255.2
	0x0040:  3535 0332 3339 0769 6e2d 6164 6472 0461  55.239.in-addr.a
	0x0050:  7270 6100 000c 0001                      rpa.....
2024-11-10 23:35:40.315064 IP 192.168.0.1.38070 > 192.168.0.255.20002: UDP, length 326
	0x0000:  ffff ffff ffff ac15 a269 6ce2 0800 4500  .........il...E.
	0x0010:  0162 0000 4000 4011 b73a c0a8 0001 c0a8  .b..@.@..:......
	0x0020:  00ff 94b6 4e22 014e fd66 01f0 0001 0136  ....N".N.f.....6
	0x0030:  1100 0000 0000 f851 adbb 81a3 ceab dfb7  .......Q........
	0x0040:  d8bc 9ea4 86f6 84eb 89ec cee2 c0a4 c5b1  ................
	0x0050:  d0f2 c8b3 91f6 84eb 9eee b1d8 bc9e a486  ................
	0x0060:  b1d0 b48d b482 b686 abcf fccc af82 b684  ................
	0x0070:  bd85 a8ca f2cb fed3 e1d7 b185 b1d2 ebd9  ................
	0x0080:  e1d9 bad9 fbd7 f598 f99a b882 a0e1 a28f  ................
	0x0090:  be8b a6e7 d5f8 cef7 daec af82 c7f5 d7fb  ................
	0x00a0:  d9b0 c0e2 d8fa cbf2 c0ee dfe9 d1ff cfe1  ................
	0x00b0:  d0f2 defc 91fe 9aff 93b1 8ba9 e89a f991  ................
	0x00c0:  f486 a6e7 d0f2 defc 93e3 86f4 95e1 88e7  ................
	0x00d0:  89d6 bbd4 b0d5 f7cd efbd e9cb e7c5 b5c7  ................
	0x00e0:  a8cc b9da aef1 85fc 8ce9 cbf1 d384 ed9f  ................
	0x00f0:  fa96 f380 f3a1 cebb cfaa d8fa d6f4 96e4  ................
	0x0100:  8de9 8eeb b4d9 b6d2 b795 af9b b795 e292  ................
	0x0110:  f3c0 9fec 99e9 99f6 84f0 d2e8 8eef 83f0  ................
	0x0120:  95b9 9bf4 9aff 92f7 84ec b3c0 b5c5 b5da  ................
	0x0130:  a8dc fec4 b0c2 b7d2 fedc b3dd b8d5 b0c3  ................
	0x0140:  abf4 86e9 85e0 c2f8 dab7 d6a5 d1b4 c6e4  ................
	0x0150:  c8ea 85eb 8ee3 86f5 9dc2 b1c4 b4c4 abd9  ................
	0x0160:  adf2 84e1 93e0 89e6 88aa 90cb faa7 daa7  ................
2024-11-10 23:35:40.317449 IP 192.168.0.1.domain > 192.168.0.141.38517: 23941 NXDomain 0/1/0 (103)
	0x0000:  0800 271e 364a ac15 a269 6ce2 0800 4500  ..'.6J...il...E.
	0x0010:  0083 6a93 0000 3611 97f8 c0a8 0001 c0a8  ..j...6.........
	0x0020:  008d 0035 9675 006f b380 5d85 8183 0001  ...5.u.o..].....
	0x0030:  0000 0001 0000 0332 3530 0332 3535 0332  .......250.255.2
	0x0040:  3535 0332 3339 0769 6e2d 6164 6472 0461  55.239.in-addr.a
	0x0050:  7270 6100 000c 0001 c018 0006 0001 0000  rpa.............
	0x0060:  0431 002d 0373 6e73 0364 6e73 0569 6361  .1.-.sns.dns.ica
	0x0070:  6e6e 036f 7267 0003 6e6f 63c0 3e78 86aa  nn.org..noc.>x..
	0x0080:  0b00 001c 2000 000e 1000 093a 8000 000e  ...........:....
	0x0090:  10                                       .
2024-11-10 23:35:40.318635 IP 192.168.0.141.36986 > 192.168.0.1.domain: 16685+ PTR? c.0.0.0.0.0.0.0.0.0.0.0.0.0.0.0.0.0.0.0.0.0.0.0.0.0.0.0.2.0.f.f.ip6.arpa. (90)
	0x0000:  ac15 a269 6ce2 0800 271e 364a 0800 4500  ...il...'.6J..E.
	0x0010:  0076 efdc 4000 4011 c8bb c0a8 008d c0a8  .v..@.@.........
	0x0020:  0001 907a 0035 0062 8252 412d 0100 0001  ...z.5.b.RA-....
	0x0030:  0000 0000 0000 0163 0130 0130 0130 0130  .......c.0.0.0.0
	0x0040:  0130 0130 0130 0130 0130 0130 0130 0130  .0.0.0.0.0.0.0.0
	0x0050:  0130 0130 0130 0130 0130 0130 0130 0130  .0.0.0.0.0.0.0.0
	0x0060:  0130 0130 0130 0130 0130 0130 0130 0132  .0.0.0.0.0.0.0.2
	0x0070:  0130 0166 0166 0369 7036 0461 7270 6100  .0.f.f.ip6.arpa.
	0x0080:  000c 0001                                ....
2024-11-10 23:35:40.419024 IP 192.168.0.1.domain > 192.168.0.141.36986: 16685 NXDomain 0/1/0 (154)
	0x0000:  0800 271e 364a ac15 a269 6ce2 0800 4500  ..'.6J...il...E.
	0x0010:  00b6 769c 0000 3611 8bbc c0a8 0001 c0a8  ..v...6.........
	0x0020:  008d 0035 907a 00a2 6959 412d 8183 0001  ...5.z..iYA-....
	0x0030:  0000 0001 0000 0163 0130 0130 0130 0130  .......c.0.0.0.0
	0x0040:  0130 0130 0130 0130 0130 0130 0130 0130  .0.0.0.0.0.0.0.0
	0x0050:  0130 0130 0130 0130 0130 0130 0130 0130  .0.0.0.0.0.0.0.0
	0x0060:  0130 0130 0130 0130 0130 0130 0130 0132  .0.0.0.0.0.0.0.2
	0x0070:  0130 0166 0166 0369 7036 0461 7270 6100  .0.f.f.ip6.arpa.
	0x0080:  000c 0001 c04c 0006 0001 0000 0c29 0034  .....L.......).4
	0x0090:  0162 0b69 7036 2d73 6572 7665 7273 c050  .b.ip6-servers.P
	0x00a0:  056e 7374 6c64 0469 616e 6103 6f72 6700  .nstld.iana.org.
	0x00b0:  78a5 79cf 0000 0708 0000 0384 0009 3a80  x.y...........:.
	0x00c0:  0000 0e10                                ....
2024-11-10 23:35:40.419551 IP 192.168.0.141.35680 > 192.168.0.1.domain: 12851+ PTR? 2.e.c.6.9.6.e.f.f.f.2.a.5.1.e.a.0.0.0.0.0.0.0.0.0.0.0.0.0.8.e.f.ip6.arpa. (90)
	0x0000:  ac15 a269 6ce2 0800 271e 364a 0800 4500  ...il...'.6J..E.
	0x0010:  0076 45a1 4000 4011 72f7 c0a8 008d c0a8  .vE.@.@.r.......
	0x0020:  0001 8b60 0035 0062 8252 3233 0100 0001  ...`.5.b.R23....
	0x0030:  0000 0000 0000 0132 0165 0163 0136 0139  .......2.e.c.6.9
	0x0040:  0136 0165 0166 0166 0166 0132 0161 0135  .6.e.f.f.f.2.a.5
	0x0050:  0131 0165 0161 0130 0130 0130 0130 0130  .1.e.a.0.0.0.0.0
	0x0060:  0130 0130 0130 0130 0130 0130 0130 0130  .0.0.0.0.0.0.0.0
	0x0070:  0138 0165 0166 0369 7036 0461 7270 6100  .8.e.f.ip6.arpa.
	0x0080:  000c 0001                                ....
2024-11-10 23:35:40.520507 IP 192.168.0.1.domain > 192.168.0.141.35680: 12851 NXDomain 0/1/0 (154)
	0x0000:  0800 271e 364a ac15 a269 6ce2 0800 4500  ..'.6J...il...E.
	0x0010:  00b6 9a9a 0000 7611 27be c0a8 0001 c0a8  ......v.'.......
	0x0020:  008d 0035 8b60 00a2 7b5c 3233 8183 0001  ...5.`..{\23....
	0x0030:  0000 0001 0000 0132 0165 0163 0136 0139  .......2.e.c.6.9
	0x0040:  0136 0165 0166 0166 0166 0132 0161 0135  .6.e.f.f.f.2.a.5
	0x0050:  0131 0165 0161 0130 0130 0130 0130 0130  .1.e.a.0.0.0.0.0
	0x0060:  0130 0130 0130 0130 0130 0130 0130 0130  .0.0.0.0.0.0.0.0
	0x0070:  0138 0165 0166 0369 7036 0461 7270 6100  .8.e.f.ip6.arpa.
	0x0080:  000c 0001 c04c 0006 0001 0000 0c73 0034  .....L.......s.4
	0x0090:  0162 0b69 7036 2d73 6572 7665 7273 c050  .b.ip6-servers.P
	0x00a0:  056e 7374 6c64 0469 616e 6103 6f72 6700  .nstld.iana.org.
	0x00b0:  78a5 79cf 0000 0708 0000 0384 0009 3a80  x.y...........:.
	0x00c0:  0000 0e10                                ....
2024-11-10 23:35:40.781693 IP 192.168.0.141 > 192.168.0.203: ICMP echo request, id 21050, seq 20, length 64
	0x0000:  7ab9 bdf9 8c20 0800 271e 364a 0800 4500  z.......'.6J..E.
	0x0010:  0054 1775 4000 4001 a08b c0a8 008d c0a8  .T.u@.@.........
	0x0020:  00cb 0800 c200 523a 0014 9c89 3167 0000  ......R:....1g..
	0x0030:  0000 4bed 0b00 0000 0000 1011 1213 1415  ..K.............
	0x0040:  1617 1819 1a1b 1c1d 1e1f 2021 2223 2425  ...........!"#$%
	0x0050:  2627 2829 2a2b 2c2d 2e2f 3031 3233 3435  &'()*+,-./012345
	0x0060:  3637                                     67
2024-11-10 23:35:40.796283 IP 192.168.0.203 > 192.168.0.141: ICMP echo reply, id 21050, seq 20, length 64
	0x0000:  0800 271e 364a 7ab9 bdf9 8c20 0800 4500  ..'.6Jz.......E.
	0x0010:  0054 0000 4000 4001 b800 c0a8 00cb c0a8  .T..@.@.........
	0x0020:  008d 0000 ca00 523a 0014 9c89 3167 0000  ......R:....1g..
	0x0030:  0000 4bed 0b00 0000 0000 1011 1213 1415  ..K.............
	0x0040:  1617 1819 1a1b 1c1d 1e1f 2021 2223 2425  ...........!"#$%
	0x0050:  2627 2829 2a2b 2c2d 2e2f 3031 3233 3435  &'()*+,-./012345
	0x0060:  3637                                     67
2024-11-10 23:35:41.217795 IP 192.168.0.141.47212 > 192.168.0.1.domain: 13101+ PTR? 255.0.168.192.in-addr.arpa. (44)
	0x0000:  ac15 a269 6ce2 0800 271e 364a 0800 4500  ...il...'.6J..E.
	0x0010:  0048 df96 4000 4011 d92f c0a8 008d c0a8  .H..@.@../......
	0x0020:  0001 b86c 0035 0034 8224 332d 0100 0001  ...l.5.4.$3-....
	0x0030:  0000 0000 0000 0332 3535 0130 0331 3638  .......255.0.168
	0x0040:  0331 3932 0769 6e2d 6164 6472 0461 7270  .192.in-addr.arp
	0x0050:  6100 000c 0001                           a.....
2024-11-10 23:35:41.340304 IP 192.168.0.1.domain > 192.168.0.141.47212: 13101 NXDomain 0/0/0 (44)
	0x0000:  0800 271e 364a ac15 a269 6ce2 0800 4500  ..'.6J...il...E.
	0x0010:  0048 4379 0000 6611 8f4d c0a8 0001 c0a8  .HCy..f..M......
	0x0020:  008d 0035 b86c 0034 4da4 332d 8183 0001  ...5.l.4M.3-....
	0x0030:  0000 0000 0000 0332 3535 0130 0331 3638  .......255.0.168
	0x0040:  0331 3932 0769 6e2d 6164 6472 0461 7270  .192.in-addr.arp
	0x0050:  6100 000c 0001                           a.....
2024-11-10 23:35:41.626748 IP 192.168.0.130.mdns > mdns.mcast.net.mdns: 0 PTR (QU)? _ipp._tcp.local. (33)
	0x0000:  0100 5e00 00fb ec2e 987a c577 0800 4500  ..^......z.w..E.
	0x0010:  003d 52df 0000 0111 c4ab c0a8 0082 e000  .=R.............
	0x0020:  00fb 14e9 14e9 0029 af2e 0000 0000 0001  .......)........
	0x0030:  0000 0000 0000 045f 6970 7004 5f74 6370  ......._ipp._tcp
	0x0040:  056c 6f63 616c 0000 0c80 01              .local.....
2024-11-10 23:35:41.627950 IP6 fe80::255e:56bb:da1e:b905.mdns > ff02::fb.mdns: 0 PTR (QU)? _ipp._tcp.local. (33)
	0x0000:  3333 0000 00fb ec2e 987a c577 86dd 6001  33.......z.w..`.
	0x0010:  4221 0029 1101 fe80 0000 0000 0000 255e  B!.)..........%^
	0x0020:  56bb da1e b905 ff02 0000 0000 0000 0000  V...............
	0x0030:  0000 0000 00fb 14e9 14e9 0029 4398 0000  ...........)C...
	0x0040:  0000 0001 0000 0000 0000 045f 6970 7004  ..........._ipp.
	0x0050:  5f74 6370 056c 6f63 616c 0000 0c80 01    _tcp.local.....
2024-11-10 23:35:41.631985 IP 192.168.0.130.mdns > mdns.mcast.net.mdns: 0 PTR (QU)? _ipps._tcp.local. (34)
	0x0000:  0100 5e00 00fb ec2e 987a c577 0800 4500  ..^......z.w..E.
	0x0010:  003e 52e0 0000 0111 c4a9 c0a8 0082 e000  .>R.............
	0x0020:  00fb 14e9 14e9 002a afb7 0000 0000 0001  .......*........
	0x0030:  0000 0000 0000 055f 6970 7073 045f 7463  ......._ipps._tc
	0x0040:  7005 6c6f 6361 6c00 000c 8001            p.local.....
2024-11-10 23:35:41.632750 IP6 fe80::255e:56bb:da1e:b905.mdns > ff02::fb.mdns: 0 PTR (QU)? _ipps._tcp.local. (34)
	0x0000:  3333 0000 00fb ec2e 987a c577 86dd 6001  33.......z.w..`.
	0x0010:  4221 002a 1101 fe80 0000 0000 0000 255e  B!.*..........%^
	0x0020:  56bb da1e b905 ff02 0000 0000 0000 0000  V...............
	0x0030:  0000 0000 00fb 14e9 14e9 002a 4421 0000  ...........*D!..
	0x0040:  0000 0001 0000 0000 0000 055f 6970 7073  ..........._ipps
	0x0050:  045f 7463 7005 6c6f 6361 6c00 000c 8001  ._tcp.local.....
2024-11-10 23:35:41.809158 IP 192.168.0.141 > 192.168.0.203: ICMP echo request, id 21050, seq 21, length 64
	0x0000:  7ab9 bdf9 8c20 0800 271e 364a 0800 4500  z.......'.6J..E.
	0x0010:  0054 17ab 4000 4001 a055 c0a8 008d c0a8  .T..@.@..U......
	0x0020:  00cb 0800 7a94 523a 0015 9d89 3167 0000  ....z.R:....1g..
	0x0030:  0000 9158 0c00 0000 0000 1011 1213 1415  ...X............
	0x0040:  1617 1819 1a1b 1c1d 1e1f 2021 2223 2425  ...........!"#$%
	0x0050:  2627 2829 2a2b 2c2d 2e2f 3031 3233 3435  &'()*+,-./012345
	0x0060:  3637                                     67
2024-11-10 23:35:41.955332 IP 192.168.0.203 > 192.168.0.141: ICMP echo reply, id 21050, seq 21, length 64
	0x0000:  0800 271e 364a 7ab9 bdf9 8c20 0800 4500  ..'.6Jz.......E.
	0x0010:  0054 0000 4000 4001 b800 c0a8 00cb c0a8  .T..@.@.........
	0x0020:  008d 0000 8294 523a 0015 9d89 3167 0000  ......R:....1g..
	0x0030:  0000 9158 0c00 0000 0000 1011 1213 1415  ...X............
	0x0040:  1617 1819 1a1b 1c1d 1e1f 2021 2223 2425  ...........!"#$%
	0x0050:  2627 2829 2a2b 2c2d 2e2f 3031 3233 3435  &'()*+,-./012345
	0x0060:  3637                                     67
2024-11-10 23:35:42.055349 IP6 fe80::3af7:3dff:fe75:4946 > ff02::16: HBH ICMP6, multicast listener report v2, 2 group record(s), length 48
	0x0000:  3333 0000 0016 38f7 3d75 4946 86dd 6000  33....8.=uIF..`.
	0x0010:  0000 0038 0001 fe80 0000 0000 0000 3af7  ...8..........:.
	0x0020:  3dff fe75 4946 ff02 0000 0000 0000 0000  =..uIF..........
	0x0030:  0000 0000 0016 3a00 0502 0000 0100 8f00  ......:.........
	0x0040:  6688 0000 0002 0200 0000 ff02 0000 0000  f...............
	0x0050:  0000 0000 0000 0000 00fb 0200 0000 ff02  ................
	0x0060:  0000 0000 0000 0000 0001 ff75 4946       ...........uIF
2024-11-10 23:35:42.239016 IP 192.168.0.141.58997 > 192.168.0.1.domain: 19054+ PTR? 6.1.0.0.0.0.0.0.0.0.0.0.0.0.0.0.0.0.0.0.0.0.0.0.0.0.0.0.2.0.f.f.ip6.arpa. (90)
	0x0000:  ac15 a269 6ce2 0800 271e 364a 0800 4500  ...il...'.6J..E.
	0x0010:  0076 8bfb 4000 4011 2c9d c0a8 008d c0a8  .v..@.@.,.......
	0x0020:  0001 e675 0035 0062 8252 4a6e 0100 0001  ...u.5.b.RJn....
	0x0030:  0000 0000 0000 0136 0131 0130 0130 0130  .......6.1.0.0.0
	0x0040:  0130 0130 0130 0130 0130 0130 0130 0130  .0.0.0.0.0.0.0.0
	0x0050:  0130 0130 0130 0130 0130 0130 0130 0130  .0.0.0.0.0.0.0.0
	0x0060:  0130 0130 0130 0130 0130 0130 0130 0132  .0.0.0.0.0.0.0.2
	0x0070:  0130 0166 0166 0369 7036 0461 7270 6100  .0.f.f.ip6.arpa.
	0x0080:  000c 0001                                ....
2024-11-10 23:35:42.370150 IP 192.168.0.1.domain > 192.168.0.141.58997: 19054 NXDomain 0/1/0 (154)
	0x0000:  0800 271e 364a ac15 a269 6ce2 0800 4500  ..'.6J...il...E.
	0x0010:  00b6 83e3 0000 3611 7e75 c0a8 0001 c0a8  ......6.~u......
	0x0020:  008d 0035 e675 00a2 0a00 4a6e 8183 0001  ...5.u....Jn....
	0x0030:  0000 0001 0000 0136 0131 0130 0130 0130  .......6.1.0.0.0
	0x0040:  0130 0130 0130 0130 0130 0130 0130 0130  .0.0.0.0.0.0.0.0
	0x0050:  0130 0130 0130 0130 0130 0130 0130 0130  .0.0.0.0.0.0.0.0
	0x0060:  0130 0130 0130 0130 0130 0130 0130 0132  .0.0.0.0.0.0.0.2
	0x0070:  0130 0166 0166 0369 7036 0461 7270 6100  .0.f.f.ip6.arpa.
	0x0080:  000c 0001 c04c 0006 0001 0000 0c72 0034  .....L.......r.4
	0x0090:  0162 0b69 7036 2d73 6572 7665 7273 c050  .b.ip6-servers.P
	0x00a0:  056e 7374 6c64 0469 616e 6103 6f72 6700  .nstld.iana.org.
	0x00b0:  78a5 79cf 0000 0708 0000 0384 0009 3a80  x.y...........:.
	0x00c0:  0000 0e10                                ....
2024-11-10 23:35:42.370608 IP 192.168.0.141.38633 > 192.168.0.1.domain: 65386+ PTR? 6.4.9.4.5.7.e.f.f.f.d.3.7.f.a.3.0.0.0.0.0.0.0.0.0.0.0.0.0.8.e.f.ip6.arpa. (90)
	0x0000:  ac15 a269 6ce2 0800 271e 364a 0800 4500  ...il...'.6J..E.
	0x0010:  0076 c844 4000 4011 f053 c0a8 008d c0a8  .v.D@.@..S......
	0x0020:  0001 96e9 0035 0062 8252 ff6a 0100 0001  .....5.b.R.j....
	0x0030:  0000 0000 0000 0136 0134 0139 0134 0135  .......6.4.9.4.5
	0x0040:  0137 0165 0166 0166 0166 0164 0133 0137  .7.e.f.f.f.d.3.7
	0x0050:  0166 0161 0133 0130 0130 0130 0130 0130  .f.a.3.0.0.0.0.0
	0x0060:  0130 0130 0130 0130 0130 0130 0130 0130  .0.0.0.0.0.0.0.0
	0x0070:  0138 0165 0166 0369 7036 0461 7270 6100  .8.e.f.ip6.arpa.
	0x0080:  000c 0001                                ....
2024-11-10 23:35:42.469567 IP 192.168.0.1.domain > 192.168.0.141.38633: 65386 NXDomain 0/1/0 (154)
	0x0000:  0800 271e 364a ac15 a269 6ce2 0800 4500  ..'.6J...il...E.
	0x0010:  00b6 10f3 0000 7611 b165 c0a8 0001 c0a8  ......v..e......
	0x0020:  008d 0035 96e9 00a2 a25f ff6a 8183 0001  ...5....._.j....
	0x0030:  0000 0001 0000 0136 0134 0139 0134 0135  .......6.4.9.4.5
	0x0040:  0137 0165 0166 0166 0166 0164 0133 0137  .7.e.f.f.f.d.3.7
	0x0050:  0166 0161 0133 0130 0130 0130 0130 0130  .f.a.3.0.0.0.0.0
	0x0060:  0130 0130 0130 0130 0130 0130 0130 0130  .0.0.0.0.0.0.0.0
	0x0070:  0138 0165 0166 0369 7036 0461 7270 6100  .8.e.f.ip6.arpa.
	0x0080:  000c 0001 c04c 0006 0001 0000 0d02 0034  .....L.........4
	0x0090:  0162 0b69 7036 2d73 6572 7665 7273 c050  .b.ip6-servers.P
	0x00a0:  056e 7374 6c64 0469 616e 6103 6f72 6700  .nstld.iana.org.
	0x00b0:  78a5 79cf 0000 0708 0000 0384 0009 3a80  x.y...........:.
	0x00c0:  0000 0e10                                ....
2024-11-10 23:35:42.815339 IP 192.168.0.141 > 192.168.0.203: ICMP echo request, id 21050, seq 22, length 64
	0x0000:  7ab9 bdf9 8c20 0800 271e 364a 0800 4500  z.......'.6J..E.
	0x0010:  0054 17b7 4000 4001 a049 c0a8 008d c0a8  .T..@.@..I......
	0x0020:  00cb 0800 4e7b 523a 0016 9e89 3167 0000  ....N{R:....1g..
	0x0030:  0000 bc70 0c00 0000 0000 1011 1213 1415  ...p............
	0x0040:  1617 1819 1a1b 1c1d 1e1f 2021 2223 2425  ...........!"#$%
	0x0050:  2627 2829 2a2b 2c2d 2e2f 3031 3233 3435  &'()*+,-./012345
	0x0060:  3637                                     67
2024-11-10 23:35:42.840160 IP 192.168.0.203 > 192.168.0.141: ICMP echo reply, id 21050, seq 22, length 64
	0x0000:  0800 271e 364a 7ab9 bdf9 8c20 0800 4500  ..'.6Jz.......E.
	0x0010:  0054 0000 4000 4001 b800 c0a8 00cb c0a8  .T..@.@.........
	0x0020:  008d 0000 567b 523a 0016 9e89 3167 0000  ....V{R:....1g..
	0x0030:  0000 bc70 0c00 0000 0000 1011 1213 1415  ...p............
	0x0040:  1617 1819 1a1b 1c1d 1e1f 2021 2223 2425  ...........!"#$%
	0x0050:  2627 2829 2a2b 2c2d 2e2f 3031 3233 3435  &'()*+,-./012345
	0x0060:  3637                                     67
2024-11-10 23:35:43.181582 IP 192.168.0.1.51255 > mdns.mcast.net.mdns: 28137 PTR (QM)? 192.168.0.157.in-addr.arpa. (44)
	0x0000:  0100 5e00 00fb ac15 a269 6ce2 0800 4500  ..^......il...E.
	0x0010:  0048 0000 4000 0111 d800 c0a8 0001 e000  .H..@...........
	0x0020:  00fb c837 14e9 0034 5025 6de9 0000 0001  ...7...4P%m.....
	0x0030:  0000 0000 0000 0331 3932 0331 3638 0130  .......192.168.0
	0x0040:  0331 3537 0769 6e2d 6164 6472 0461 7270  .157.in-addr.arp
	0x0050:  6100 000c 0001                           a.....
2024-11-10 23:35:43.182819 IP 192.168.0.1.45105 > mdns.mcast.net.mdns: 28138 PTR (QM)? 192.168.0.157.in-addr.arpa. (44)
	0x0000:  0100 5e00 00fb ac15 a269 6ce2 0800 4500  ..^......il...E.
	0x0010:  0048 0000 4000 0111 d800 c0a8 0001 e000  .H..@...........
	0x0020:  00fb b031 14e9 0034 682a 6dea 0000 0001  ...1...4h*m.....
	0x0030:  0000 0000 0000 0331 3932 0331 3638 0130  .......192.168.0
	0x0040:  0331 3537 0769 6e2d 6164 6472 0461 7270  .157.in-addr.arp
	0x0050:  6100 000c 0001                           a.....
2024-11-10 23:35:43.489339 IP 192.168.0.150 > 239.255.255.250: igmp v2 report 239.255.255.250
	0x0000:  0100 5e7f fffa 5c96 66dd 290b 0800 4600  ..^...\.f.)...F.
	0x0010:  0020 b6a4 0000 0102 bcfa c0a8 0096 efff  ................
	0x0020:  fffa 9404 0000 1600 fa04 efff fffa 0000  ................
	0x0030:  0000 0000 0000 0000 0000 0000            ............
2024-11-10 23:35:43.820893 IP 192.168.0.141 > 192.168.0.203: ICMP echo request, id 21050, seq 23, length 64
	0x0000:  7ab9 bdf9 8c20 0800 271e 364a 0800 4500  z.......'.6J..E.
	0x0010:  0054 1805 4000 4001 9ffb c0a8 008d c0a8  .T..@.@.........
	0x0020:  00cb 0800 9c64 523a 0017 9f89 3167 0000  .....dR:....1g..
	0x0030:  0000 6d86 0c00 0000 0000 1011 1213 1415  ..m.............
	0x0040:  1617 1819 1a1b 1c1d 1e1f 2021 2223 2425  ...........!"#$%
	0x0050:  2627 2829 2a2b 2c2d 2e2f 3031 3233 3435  &'()*+,-./012345
	0x0060:  3637                                     67
