2024-11-20 10:50:27.690704 IP 192.168.0.12 > 192.168.0.1: ICMP echo request, id 33888, seq 1, length 64
        0x0000:  2023 51f7 529a 0800 271e 364a 0800 4500  .#Q.R...'.6J..E.
        0x0010:  0054 3810 4000 4001 813b c0a8 000c c0a8  .T8.@.@..;......
        0x0020:  0001 0800 27d5 8460 0001 4305 3e67 0000  ....'..`..C.>g..
        0x0030:  0000 018a 0a00 0000 0000 1011 1213 1415  ................
        0x0040:  1617 1819 1a1b 1c1d 1e1f 2021 2223 2425  ...........!"#$%
        0x0050:  2627 2829 2a2b 2c2d 2e2f 3031 3233 3435  &'()*+,-./012345
        0x0060:  3637                                     67
2024-11-20 10:50:27.710751 IP 192.168.0.1 > 192.168.0.12: ICMP echo reply, id 33888, seq 1, length 64
        0x0000:  0800 271e 364a 2023 51f7 529a 0800 4500  ..'.6J.#Q.R...E.
        0x0010:  0054 1c86 0000 4001 dcc5 c0a8 0001 c0a8  .T....@.........
        0x0020:  000c 0000 2fd5 8460 0001 4305 3e67 0000  ..../..`..C.>g..
        0x0030:  0000 018a 0a00 0000 0000 1011 1213 1415  ................
        0x0040:  1617 1819 1a1b 1c1d 1e1f 2021 2223 2425  ...........!"#$%
        0x0050:  2627 2829 2a2b 2c2d 2e2f 3031 3233 3435  &'()*+,-./012345
        0x0060:  3637                                     67
2024-11-20 10:50:28.692774 IP 192.168.0.12 > 192.168.0.1: ICMP echo request, id 33888, seq 2, length 64
        0x0000:  2023 51f7 529a 0800 271e 364a 0800 4500  .#Q.R...'.6J..E.
        0x0010:  0054 387e 4000 4001 80cd c0a8 000c c0a8  .T8~@.@.........
        0x0020:  0001 0800 2acc 8460 0002 4405 3e67 0000  ....*..`..D.>g..
        0x0030:  0000 fd91 0a00 0000 0000 1011 1213 1415  ................
        0x0040:  1617 1819 1a1b 1c1d 1e1f 2021 2223 2425  ...........!"#$%
        0x0050:  2627 2829 2a2b 2c2d 2e2f 3031 3233 3435  &'()*+,-./012345
        0x0060:  3637                                     67
2024-11-20 10:50:29.040588 IP 192.168.0.1 > 192.168.0.12: ICMP echo reply, id 33888, seq 2, length 64
        0x0000:  0800 271e 364a 2023 51f7 529a 0800 4500  ..'.6J.#Q.R...E.
        0x0010:  0054 1cec 0000 4001 dc5f c0a8 0001 c0a8  .T....@.._......
        0x0020:  000c 0000 32cc 8460 0002 4405 3e67 0000  ....2..`..D.>g..
        0x0030:  0000 fd91 0a00 0000 0000 1011 1213 1415  ................
        0x0040:  1617 1819 1a1b 1c1d 1e1f 2021 2223 2425  ...........!"#$%
        0x0050:  2627 2829 2a2b 2c2d 2e2f 3031 3233 3435  &'()*+,-./012345
        0x0060:  3637                                     67
2024-11-20 10:50:29.694097 IP 192.168.0.12 > 192.168.0.1: ICMP echo request, id 33888, seq 3, length 64
        0x0000:  2023 51f7 529a 0800 271e 364a 0800 4500  .#Q.R...'.6J..E.
        0x0010:  0054 3894 4000 4001 80b7 c0a8 000c c0a8  .T8.@.@.........
        0x0020:  0001 0800 03c6 8460 0003 4505 3e67 0000  .......`..E.>g..
        0x0030:  0000 2397 0a00 0000 0000 1011 1213 1415  ..#.............
        0x0040:  1617 1819 1a1b 1c1d 1e1f 2021 2223 2425  ...........!"#$%
        0x0050:  2627 2829 2a2b 2c2d 2e2f 3031 3233 3435  &'()*+,-./012345
        0x0060:  3637                                     67
2024-11-20 10:50:29.700902 IP 192.168.0.1 > 192.168.0.12: ICMP echo reply, id 33888, seq 3, length 64
        0x0000:  0800 271e 364a 2023 51f7 529a 0800 4500  ..'.6J.#Q.R...E.
        0x0010:  0054 1d7a 0000 4001 dbd1 c0a8 0001 c0a8  .T.z..@.........
        0x0020:  000c 0000 0bc6 8460 0003 4505 3e67 0000  .......`..E.>g..
        0x0030:  0000 2397 0a00 0000 0000 1011 1213 1415  ..#.............
        0x0040:  1617 1819 1a1b 1c1d 1e1f 2021 2223 2425  ...........!"#$%
        0x0050:  2627 2829 2a2b 2c2d 2e2f 3031 3233 3435  &'()*+,-./012345
        0x0060:  3637                                     67
2024-11-20 10:50:30.695999 IP 192.168.0.12 > 192.168.0.1: ICMP echo request, id 33888, seq 4, length 64
        0x0000:  2023 51f7 529a 0800 271e 364a 0800 4500  .#Q.R...'.6J..E.
        0x0010:  0054 391d 4000 4001 802e c0a8 000c c0a8  .T9.@.@.........
        0x0020:  0001 0800 8ebd 8460 0004 4605 3e67 0000  .......`..F.>g..
        0x0030:  0000 979e 0a00 0000 0000 1011 1213 1415  ................
        0x0040:  1617 1819 1a1b 1c1d 1e1f 2021 2223 2425  ...........!"#$%
        0x0050:  2627 2829 2a2b 2c2d 2e2f 3031 3233 3435  &'()*+,-./012345
        0x0060:  3637                                     67
2024-11-20 10:50:30.702740 IP 192.168.0.1 > 192.168.0.12: ICMP echo reply, id 33888, seq 4, length 64
        0x0000:  0800 271e 364a 2023 51f7 529a 0800 4500  ..'.6J.#Q.R...E.
        0x0010:  0054 1de5 0000 4001 db66 c0a8 0001 c0a8  .T....@..f......
        0x0020:  000c 0000 96bd 8460 0004 4605 3e67 0000  .......`..F.>g..
        0x0030:  0000 979e 0a00 0000 0000 1011 1213 1415  ................
        0x0040:  1617 1819 1a1b 1c1d 1e1f 2021 2223 2425  ...........!"#$%
        0x0050:  2627 2829 2a2b 2c2d 2e2f 3031 3233 3435  &'()*+,-./012345
        0x0060:  3637                                     67
2024-11-20 10:50:31.697424 IP 192.168.0.12 > 192.168.0.1: ICMP echo request, id 33888, seq 5, length 64
        0x0000:  2023 51f7 529a 0800 271e 364a 0800 4500  .#Q.R...'.6J..E.
        0x0010:  0054 3947 4000 4001 8004 c0a8 000c c0a8  .T9G@.@.........
        0x0020:  0001 0800 fcb6 8460 0005 4705 3e67 0000  .......`..G.>g..
        0x0030:  0000 28a4 0a00 0000 0000 1011 1213 1415  ..(.............
        0x0040:  1617 1819 1a1b 1c1d 1e1f 2021 2223 2425  ...........!"#$%
        0x0050:  2627 2829 2a2b 2c2d 2e2f 3031 3233 3435  &'()*+,-./012345
        0x0060:  3637                                     67
2024-11-20 10:50:31.801644 IP 192.168.0.1 > 192.168.0.12: ICMP echo reply, id 33888, seq 5, length 64
        0x0000:  0800 271e 364a 2023 51f7 529a 0800 4500  ..'.6J.#Q.R...E.
        0x0010:  0054 1e61 0000 4001 daea c0a8 0001 c0a8  .T.a..@.........
        0x0020:  000c 0000 04b7 8460 0005 4705 3e67 0000  .......`..G.>g..
        0x0030:  0000 28a4 0a00 0000 0000 1011 1213 1415  ..(.............
        0x0040:  1617 1819 1a1b 1c1d 1e1f 2021 2223 2425  ...........!"#$%
        0x0050:  2627 2829 2a2b 2c2d 2e2f 3031 3233 3435  &'()*+,-./012345
        0x0060:  3637                                     67
2024-11-20 10:50:32.697797 IP 192.168.0.12 > 192.168.0.1: ICMP echo request, id 33888, seq 6, length 64
        0x0000:  2023 51f7 529a 0800 271e 364a 0800 4500  .#Q.R...'.6J..E.
        0x0010:  0054 39c1 4000 4001 7f8a c0a8 000c c0a8  .T9.@.@.........
        0x0020:  0001 0800 85b4 8460 0006 4805 3e67 0000  .......`..H.>g..
        0x0030:  0000 9ea5 0a00 0000 0000 1011 1213 1415  ................
        0x0040:  1617 1819 1a1b 1c1d 1e1f 2021 2223 2425  ...........!"#$%
        0x0050:  2627 2829 2a2b 2c2d 2e2f 3031 3233 3435  &'()*+,-./012345
        0x0060:  3637                                     67
2024-11-20 10:50:32.704175 IP 192.168.0.1 > 192.168.0.12: ICMP echo reply, id 33888, seq 6, length 64
        0x0000:  0800 271e 364a 2023 51f7 529a 0800 4500  ..'.6J.#Q.R...E.
        0x0010:  0054 1ed2 0000 4001 da79 c0a8 0001 c0a8  .T....@..y......
        0x0020:  000c 0000 8db4 8460 0006 4805 3e67 0000  .......`..H.>g..
        0x0030:  0000 9ea5 0a00 0000 0000 1011 1213 1415  ................
        0x0040:  1617 1819 1a1b 1c1d 1e1f 2021 2223 2425  ...........!"#$%
        0x0050:  2627 2829 2a2b 2c2d 2e2f 3031 3233 3435  &'()*+,-./012345
        0x0060:  3637                                     67
2024-11-20 10:50:33.698934 IP 192.168.0.12 > 192.168.0.1: ICMP echo request, id 33888, seq 7, length 64
        0x0000:  2023 51f7 529a 0800 271e 364a 0800 4500  .#Q.R...'.6J..E.
        0x0010:  0054 3a91 4000 4001 7eba c0a8 000c c0a8  .T:.@.@.~.......
        0x0020:  0001 0800 10af 8460 0007 4905 3e67 0000  .......`..I.>g..
        0x0030:  0000 12aa 0a00 0000 0000 1011 1213 1415  ................
        0x0040:  1617 1819 1a1b 1c1d 1e1f 2021 2223 2425  ...........!"#$%
        0x0050:  2627 2829 2a2b 2c2d 2e2f 3031 3233 3435  &'()*+,-./012345
        0x0060:  3637                                     67
2024-11-20 10:50:33.705378 IP 192.168.0.1 > 192.168.0.12: ICMP echo reply, id 33888, seq 7, length 64
        0x0000:  0800 271e 364a 2023 51f7 529a 0800 4500  ..'.6J.#Q.R...E.
        0x0010:  0054 1f27 0000 4001 da24 c0a8 0001 c0a8  .T.'..@..$......
        0x0020:  000c 0000 18af 8460 0007 4905 3e67 0000  .......`..I.>g..
        0x0030:  0000 12aa 0a00 0000 0000 1011 1213 1415  ................
        0x0040:  1617 1819 1a1b 1c1d 1e1f 2021 2223 2425  ...........!"#$%
        0x0050:  2627 2829 2a2b 2c2d 2e2f 3031 3233 3435  &'()*+,-./012345
        0x0060:  3637                                     67
2024-11-20 10:50:34.701032 IP 192.168.0.12 > 192.168.0.1: ICMP echo request, id 33888, seq 8, length 64
        0x0000:  2023 51f7 529a 0800 271e 364a 0800 4500  .#Q.R...'.6J..E.
        0x0010:  0054 3b22 4000 4001 7e29 c0a8 000c c0a8  .T;"@.@.~)......
        0x0020:  0001 0800 e2a5 8460 0008 4a05 3e67 0000  .......`..J.>g..
        0x0030:  0000 3fb2 0a00 0000 0000 1011 1213 1415  ..?.............
        0x0040:  1617 1819 1a1b 1c1d 1e1f 2021 2223 2425  ...........!"#$%
        0x0050:  2627 2829 2a2b 2c2d 2e2f 3031 3233 3435  &'()*+,-./012345
        0x0060:  3637                                     67
2024-11-20 10:50:34.707649 IP 192.168.0.1 > 192.168.0.12: ICMP echo reply, id 33888, seq 8, length 64
        0x0000:  0800 271e 364a 2023 51f7 529a 0800 4500  ..'.6J.#Q.R...E.
        0x0010:  0054 1fb7 0000 4001 d994 c0a8 0001 c0a8  .T....@.........
        0x0020:  000c 0000 eaa5 8460 0008 4a05 3e67 0000  .......`..J.>g..
        0x0030:  0000 3fb2 0a00 0000 0000 1011 1213 1415  ..?.............
        0x0040:  1617 1819 1a1b 1c1d 1e1f 2021 2223 2425  ...........!"#$%
        0x0050:  2627 2829 2a2b 2c2d 2e2f 3031 3233 3435  &'()*+,-./012345
        0x0060:  3637                                     67
2024-11-20 10:50:35.703104 IP 192.168.0.12 > 192.168.0.1: ICMP echo request, id 33888, seq 9, length 64
        0x0000:  2023 51f7 529a 0800 271e 364a 0800 4500  .#Q.R...'.6J..E.
        0x0010:  0054 3bf0 4000 4001 7d5b c0a8 000c c0a8  .T;.@.@.}[......
        0x0020:  0001 0800 c99c 8460 0009 4b05 3e67 0000  .......`..K.>g..
        0x0030:  0000 57ba 0a00 0000 0000 1011 1213 1415  ..W.............
        0x0040:  1617 1819 1a1b 1c1d 1e1f 2021 2223 2425  ...........!"#$%
        0x0050:  2627 2829 2a2b 2c2d 2e2f 3031 3233 3435  &'()*+,-./012345
        0x0060:  3637                                     67
2024-11-20 10:50:35.809212 IP 192.168.0.1 > 192.168.0.12: ICMP echo reply, id 33888, seq 9, length 64
        0x0000:  0800 271e 364a 2023 51f7 529a 0800 4500  ..'.6J.#Q.R...E.
        0x0010:  0054 2096 0000 4001 d8b5 c0a8 0001 c0a8  .T....@.........
        0x0020:  000c 0000 d19c 8460 0009 4b05 3e67 0000  .......`..K.>g..
        0x0030:  0000 57ba 0a00 0000 0000 1011 1213 1415  ..W.............
        0x0040:  1617 1819 1a1b 1c1d 1e1f 2021 2223 2425  ...........!"#$%
        0x0050:  2627 2829 2a2b 2c2d 2e2f 3031 3233 3435  &'()*+,-./012345
        0x0060:  3637                                     67
2024-11-20 10:50:36.704172 IP 192.168.0.12 > 192.168.0.1: ICMP echo request, id 33888, seq 10, length 64
        0x0000:  2023 51f7 529a 0800 271e 364a 0800 4500  .#Q.R...'.6J..E.
        0x0010:  0054 3ce0 4000 4001 7c6b c0a8 000c c0a8  .T<.@.@.|k......
        0x0020:  0001 0800 9e97 8460 000a 4c05 3e67 0000  .......`..L.>g..
        0x0030:  0000 81be 0a00 0000 0000 1011 1213 1415  ................
        0x0040:  1617 1819 1a1b 1c1d 1e1f 2021 2223 2425  ...........!"#$%
        0x0050:  2627 2829 2a2b 2c2d 2e2f 3031 3233 3435  &'()*+,-./012345
        0x0060:  3637                                     67
2024-11-20 10:50:36.710351 IP 192.168.0.1 > 192.168.0.12: ICMP echo reply, id 33888, seq 10, length 64
        0x0000:  0800 271e 364a 2023 51f7 529a 0800 4500  ..'.6J.#Q.R...E.
        0x0010:  0054 2160 0000 4001 d7eb c0a8 0001 c0a8  .T!`..@.........
        0x0020:  000c 0000 a697 8460 000a 4c05 3e67 0000  .......`..L.>g..
        0x0030:  0000 81be 0a00 0000 0000 1011 1213 1415  ................
        0x0040:  1617 1819 1a1b 1c1d 1e1f 2021 2223 2425  ...........!"#$%
        0x0050:  2627 2829 2a2b 2c2d 2e2f 3031 3233 3435  &'()*+,-./012345
        0x0060:  3637                                     67
2024-11-20 10:50:37.706330 IP 192.168.0.12 > 192.168.0.1: ICMP echo request, id 33888, seq 11, length 64
        0x0000:  2023 51f7 529a 0800 271e 364a 0800 4500  .#Q.R...'.6J..E.
        0x0010:  0054 3dcb 4000 4001 7b80 c0a8 000c c0a8  .T=.@.@.{.......
        0x0020:  0001 0800 2d8e 8460 000b 4d05 3e67 0000  ....-..`..M.>g..
        0x0030:  0000 f1c6 0a00 0000 0000 1011 1213 1415  ................
        0x0040:  1617 1819 1a1b 1c1d 1e1f 2021 2223 2425  ...........!"#$%
        0x0050:  2627 2829 2a2b 2c2d 2e2f 3031 3233 3435  &'()*+,-./012345
        0x0060:  3637                                     67
2024-11-20 10:50:37.712709 IP 192.168.0.1 > 192.168.0.12: ICMP echo reply, id 33888, seq 11, length 64
        0x0000:  0800 271e 364a 2023 51f7 529a 0800 4500  ..'.6J.#Q.R...E.
        0x0010:  0054 217b 0000 4001 d7d0 c0a8 0001 c0a8  .T!{..@.........
        0x0020:  000c 0000 358e 8460 000b 4d05 3e67 0000  ....5..`..M.>g..
        0x0030:  0000 f1c6 0a00 0000 0000 1011 1213 1415  ................
        0x0040:  1617 1819 1a1b 1c1d 1e1f 2021 2223 2425  ...........!"#$%
        0x0050:  2627 2829 2a2b 2c2d 2e2f 3031 3233 3435  &'()*+,-./012345
        0x0060:  3637                                     67
2024-11-20 10:50:38.708043 IP 192.168.0.12 > 192.168.0.1: ICMP echo request, id 33888, seq 12, length 64
        0x0000:  2023 51f7 529a 0800 271e 364a 0800 4500  .#Q.R...'.6J..E.
        0x0010:  0054 3e48 4000 4001 7b03 c0a8 000c c0a8  .T>H@.@.{.......
        0x0020:  0001 0800 7b86 8460 000c 4e05 3e67 0000  ....{..`..N.>g..
        0x0030:  0000 a2cd 0a00 0000 0000 1011 1213 1415  ................
        0x0040:  1617 1819 1a1b 1c1d 1e1f 2021 2223 2425  ...........!"#$%
        0x0050:  2627 2829 2a2b 2c2d 2e2f 3031 3233 3435  &'()*+,-./012345
        0x0060:  3637                                     67
2024-11-20 10:50:38.714765 IP 192.168.0.1 > 192.168.0.12: ICMP echo reply, id 33888, seq 12, length 64
        0x0000:  0800 271e 364a 2023 51f7 529a 0800 4500  ..'.6J.#Q.R...E.
        0x0010:  0054 21f3 0000 4001 d758 c0a8 0001 c0a8  .T!...@..X......
        0x0020:  000c 0000 8386 8460 000c 4e05 3e67 0000  .......`..N.>g..
        0x0030:  0000 a2cd 0a00 0000 0000 1011 1213 1415  ................
        0x0040:  1617 1819 1a1b 1c1d 1e1f 2021 2223 2425  ...........!"#$%
        0x0050:  2627 2829 2a2b 2c2d 2e2f 3031 3233 3435  &'()*+,-./012345
        0x0060:  3637                                     67
2024-11-20 10:50:39.710082 IP 192.168.0.12 > 192.168.0.1: ICMP echo request, id 33888, seq 13, length 64
        0x0000:  2023 51f7 529a 0800 271e 364a 0800 4500  .#Q.R...'.6J..E.
        0x0010:  0054 3e64 4000 4001 7ae7 c0a8 000c c0a8  .T>d@.@.z.......
        0x0020:  0001 0800 7c7d 8460 000d 4f05 3e67 0000  ....|}.`..O.>g..
        0x0030:  0000 a0d5 0a00 0000 0000 1011 1213 1415  ................
        0x0040:  1617 1819 1a1b 1c1d 1e1f 2021 2223 2425  ...........!"#$%
        0x0050:  2627 2829 2a2b 2c2d 2e2f 3031 3233 3435  &'()*+,-./012345
        0x0060:  3637                                     67
2024-11-20 10:50:39.716462 IP 192.168.0.1 > 192.168.0.12: ICMP echo reply, id 33888, seq 13, length 64
        0x0000:  0800 271e 364a 2023 51f7 529a 0800 4500  ..'.6J.#Q.R...E.
        0x0010:  0054 2213 0000 4001 d738 c0a8 0001 c0a8  .T"...@..8......
        0x0020:  000c 0000 847d 8460 000d 4f05 3e67 0000  .....}.`..O.>g..
        0x0030:  0000 a0d5 0a00 0000 0000 1011 1213 1415  ................
        0x0040:  1617 1819 1a1b 1c1d 1e1f 2021 2223 2425  ...........!"#$%
        0x0050:  2627 2829 2a2b 2c2d 2e2f 3031 3233 3435  &'()*+,-./012345
        0x0060:  3637                                     67
2024-11-20 10:50:40.711342 IP 192.168.0.12 > 192.168.0.1: ICMP echo request, id 33888, seq 14, length 64
        0x0000:  2023 51f7 529a 0800 271e 364a 0800 4500  .#Q.R...'.6J..E.
        0x0010:  0054 3f08 4000 4001 7a43 c0a8 000c c0a8  .T?.@.@.zC......
        0x0020:  0001 0800 b977 8460 000e 5005 3e67 0000  .....w.`..P.>g..
        0x0030:  0000 62da 0a00 0000 0000 1011 1213 1415  ..b.............
        0x0040:  1617 1819 1a1b 1c1d 1e1f 2021 2223 2425  ...........!"#$%
        0x0050:  2627 2829 2a2b 2c2d 2e2f 3031 3233 3435  &'()*+,-./012345
        0x0060:  3637                                     67
2024-11-20 10:50:40.717650 IP 192.168.0.1 > 192.168.0.12: ICMP echo reply, id 33888, seq 14, length 64
        0x0000:  0800 271e 364a 2023 51f7 529a 0800 4500  ..'.6J.#Q.R...E.
        0x0010:  0054 2291 0000 4001 d6ba c0a8 0001 c0a8  .T"...@.........
        0x0020:  000c 0000 c177 8460 000e 5005 3e67 0000  .....w.`..P.>g..
        0x0030:  0000 62da 0a00 0000 0000 1011 1213 1415  ..b.............
        0x0040:  1617 1819 1a1b 1c1d 1e1f 2021 2223 2425  ...........!"#$%
        0x0050:  2627 2829 2a2b 2c2d 2e2f 3031 3233 3435  &'()*+,-./012345
        0x0060:  3637                                     67
2024-11-20 10:50:41.648426 IP 192.168.0.12 > 192.168.0.1: ICMP 192.168.0.12 udp port netbios-ns unreachable, length 86
        0x0000:  2023 51f7 529a 0800 271e 364a 0800 45c0  .#Q.R...'.6J..E.
        0x0010:  006a 3fcc 0000 4001 b8a9 c0a8 000c c0a8  .j?...@.........
        0x0020:  0001 0303 7ea6 0000 0000 4500 004e df78  ....~.....E..N.x
        0x0030:  4000 4011 d9c8 c0a8 0001 c0a8 000c bab9  @.@.............
        0x0040:  0089 003a 3121 537f 0000 0001 0000 0000  ...:1!S.........
        0x0050:  0000 2043 4b41 4141 4141 4141 4141 4141  ...CKAAAAAAAAAAA
        0x0060:  4141 4141 4141 4141 4141 4141 4141 4141  AAAAAAAAAAAAAAAA
        0x0070:  4141 4100 0021 0001                      AAA..!..
2024-11-20 10:50:41.648465 IP 192.168.0.12 > 192.168.0.1: ICMP 192.168.0.12 udp port netbios-ns unreachable, length 86
        0x0000:  2023 51f7 529a 0800 271e 364a 0800 45c0  .#Q.R...'.6J..E.
        0x0010:  006a 3fcd 0000 4001 b8a8 c0a8 000c c0a8  .j?...@.........
        0x0020:  0001 0303 7ea6 0000 0000 4500 004e df7a  ....~.....E..N.z
        0x0030:  4000 4011 d9c6 c0a8 0001 c0a8 000c e695  @.@.............
        0x0040:  0089 003a 0544 5380 0000 0001 0000 0000  ...:.DS.........
        0x0050:  0000 2043 4b41 4141 4141 4141 4141 4141  ...CKAAAAAAAAAAA
        0x0060:  4141 4141 4141 4141 4141 4141 4141 4141  AAAAAAAAAAAAAAAA
        0x0070:  4141 4100 0021 0001                      AAA..!..
2024-11-20 10:50:41.713927 IP 192.168.0.12 > 192.168.0.1: ICMP echo request, id 33888, seq 15, length 64
        0x0000:  2023 51f7 529a 0800 271e 364a 0800 4500  .#Q.R...'.6J..E.
        0x0010:  0054 3fd2 4000 4001 7979 c0a8 000c c0a8  .T?.@.@.yy......
        0x0020:  0001 0800 7b6c 8460 000f 5105 3e67 0000  ....{l.`..Q.>g..
        0x0030:  0000 9fe4 0a00 0000 0000 1011 1213 1415  ................
        0x0040:  1617 1819 1a1b 1c1d 1e1f 2021 2223 2425  ...........!"#$%
        0x0050:  2627 2829 2a2b 2c2d 2e2f 3031 3233 3435  &'()*+,-./012345
        0x0060:  3637                                     67
2024-11-20 10:50:41.720935 IP 192.168.0.1 > 192.168.0.12: ICMP echo reply, id 33888, seq 15, length 64
        0x0000:  0800 271e 364a 2023 51f7 529a 0800 4500  ..'.6J.#Q.R...E.
        0x0010:  0054 22f5 0000 4001 d656 c0a8 0001 c0a8  .T"...@..V......
        0x0020:  000c 0000 836c 8460 000f 5105 3e67 0000  .....l.`..Q.>g..
        0x0030:  0000 9fe4 0a00 0000 0000 1011 1213 1415  ................
        0x0040:  1617 1819 1a1b 1c1d 1e1f 2021 2223 2425  ...........!"#$%
        0x0050:  2627 2829 2a2b 2c2d 2e2f 3031 3233 3435  &'()*+,-./012345
        0x0060:  3637                                     67
2024-11-20 10:50:42.715372 IP 192.168.0.12 > 192.168.0.1: ICMP echo request, id 33888, seq 16, length 64
        0x0000:  2023 51f7 529a 0800 271e 364a 0800 4500  .#Q.R...'.6J..E.
        0x0010:  0054 400e 4000 4001 793d c0a8 000c c0a8  .T@.@.@.y=......
        0x0020:  0001 0800 cc65 8460 0010 5205 3e67 0000  .....e.`..R.>g..
        0x0030:  0000 4dea 0a00 0000 0000 1011 1213 1415  ..M.............
        0x0040:  1617 1819 1a1b 1c1d 1e1f 2021 2223 2425  ...........!"#$%
        0x0050:  2627 2829 2a2b 2c2d 2e2f 3031 3233 3435  &'()*+,-./012345
        0x0060:  3637                                     67
2024-11-20 10:50:42.721962 IP 192.168.0.1 > 192.168.0.12: ICMP echo reply, id 33888, seq 16, length 64
        0x0000:  0800 271e 364a 2023 51f7 529a 0800 4500  ..'.6J.#Q.R...E.
        0x0010:  0054 2319 0000 4001 d632 c0a8 0001 c0a8  .T#...@..2......
        0x0020:  000c 0000 d465 8460 0010 5205 3e67 0000  .....e.`..R.>g..
        0x0030:  0000 4dea 0a00 0000 0000 1011 1213 1415  ..M.............
        0x0040:  1617 1819 1a1b 1c1d 1e1f 2021 2223 2425  ...........!"#$%
        0x0050:  2627 2829 2a2b 2c2d 2e2f 3031 3233 3435  &'()*+,-./012345
        0x0060:  3637                                     67
2024-11-20 10:50:43.717036 IP 192.168.0.12 > 192.168.0.1: ICMP echo request, id 33888, seq 17, length 64
        0x0000:  2023 51f7 529a 0800 271e 364a 0800 4500  .#Q.R...'.6J..E.
        0x0010:  0054 4084 4000 4001 78c7 c0a8 000c c0a8  .T@.@.@.x.......
        0x0020:  0001 0800 525e 8460 0011 5305 3e67 0000  ....R^.`..S.>g..
        0x0030:  0000 c6f0 0a00 0000 0000 1011 1213 1415  ................
        0x0040:  1617 1819 1a1b 1c1d 1e1f 2021 2223 2425  ...........!"#$%
        0x0050:  2627 2829 2a2b 2c2d 2e2f 3031 3233 3435  &'()*+,-./012345
        0x0060:  3637                                     67
2024-11-20 10:50:43.823757 IP 192.168.0.1 > 192.168.0.12: ICMP echo reply, id 33888, seq 17, length 64
        0x0000:  0800 271e 364a 2023 51f7 529a 0800 4500  ..'.6J.#Q.R...E.
        0x0010:  0054 2360 0000 4001 d5eb c0a8 0001 c0a8  .T#`..@.........
        0x0020:  000c 0000 5a5e 8460 0011 5305 3e67 0000  ....Z^.`..S.>g..
        0x0030:  0000 c6f0 0a00 0000 0000 1011 1213 1415  ................
        0x0040:  1617 1819 1a1b 1c1d 1e1f 2021 2223 2425  ...........!"#$%
        0x0050:  2627 2829 2a2b 2c2d 2e2f 3031 3233 3435  &'()*+,-./012345
        0x0060:  3637                                     67
2024-11-20 10:50:44.717664 IP 192.168.0.12 > 192.168.0.1: ICMP echo request, id 33888, seq 18, length 64
        0x0000:  2023 51f7 529a 0800 271e 364a 0800 4500  .#Q.R...'.6J..E.
        0x0010:  0054 4143 4000 4001 7808 c0a8 000c c0a8  .TAC@.@.x.......
        0x0020:  0001 0800 dd5a 8460 0012 5405 3e67 0000  .....Z.`..T.>g..
        0x0030:  0000 3af3 0a00 0000 0000 1011 1213 1415  ..:.............
        0x0040:  1617 1819 1a1b 1c1d 1e1f 2021 2223 2425  ...........!"#$%
        0x0050:  2627 2829 2a2b 2c2d 2e2f 3031 3233 3435  &'()*+,-./012345
        0x0060:  3637                                     67
2024-11-20 10:50:44.724661 IP 192.168.0.1 > 192.168.0.12: ICMP echo reply, id 33888, seq 18, length 64
        0x0000:  0800 271e 364a 2023 51f7 529a 0800 4500  ..'.6J.#Q.R...E.
        0x0010:  0054 241a 0000 4001 d531 c0a8 0001 c0a8  .T$...@..1......
        0x0020:  000c 0000 e55a 8460 0012 5405 3e67 0000  .....Z.`..T.>g..
        0x0030:  0000 3af3 0a00 0000 0000 1011 1213 1415  ..:.............
        0x0040:  1617 1819 1a1b 1c1d 1e1f 2021 2223 2425  ...........!"#$%
        0x0050:  2627 2829 2a2b 2c2d 2e2f 3031 3233 3435  &'()*+,-./012345
        0x0060:  3637                                     67
2024-11-20 10:50:45.719035 IP 192.168.0.12 > 192.168.0.1: ICMP echo request, id 33888, seq 19, length 64
        0x0000:  2023 51f7 529a 0800 271e 364a 0800 4500  .#Q.R...'.6J..E.
        0x0010:  0054 416a 4000 4001 77e1 c0a8 000c c0a8  .TAj@.@.w.......
        0x0020:  0001 0800 8154 8460 0013 5505 3e67 0000  .....T.`..U.>g..
        0x0030:  0000 95f8 0a00 0000 0000 1011 1213 1415  ................
        0x0040:  1617 1819 1a1b 1c1d 1e1f 2021 2223 2425  ...........!"#$%
        0x0050:  2627 2829 2a2b 2c2d 2e2f 3031 3233 3435  &'()*+,-./012345
        0x0060:  3637                                     67
2024-11-20 10:50:45.725486 IP 192.168.0.1 > 192.168.0.12: ICMP echo reply, id 33888, seq 19, length 64
        0x0000:  0800 271e 364a 2023 51f7 529a 0800 4500  ..'.6J.#Q.R...E.
        0x0010:  0054 2464 0000 4001 d4e7 c0a8 0001 c0a8  .T$d..@.........
        0x0020:  000c 0000 8954 8460 0013 5505 3e67 0000  .....T.`..U.>g..
        0x0030:  0000 95f8 0a00 0000 0000 1011 1213 1415  ................
        0x0040:  1617 1819 1a1b 1c1d 1e1f 2021 2223 2425  ...........!"#$%
        0x0050:  2627 2829 2a2b 2c2d 2e2f 3031 3233 3435  &'()*+,-./012345
        0x0060:  3637                                     67
2024-11-20 10:50:46.720772 IP 192.168.0.12 > 192.168.0.1: ICMP echo request, id 33888, seq 20, length 64
        0x0000:  2023 51f7 529a 0800 271e 364a 0800 4500  .#Q.R...'.6J..E.
        0x0010:  0054 423b 4000 4001 7710 c0a8 000c c0a8  .TB;@.@.w.......
        0x0020:  0001 0800 bb4c 8460 0014 5605 3e67 0000  .....L.`..V.>g..
        0x0030:  0000 5aff 0a00 0000 0000 1011 1213 1415  ..Z.............
        0x0040:  1617 1819 1a1b 1c1d 1e1f 2021 2223 2425  ...........!"#$%
        0x0050:  2627 2829 2a2b 2c2d 2e2f 3031 3233 3435  &'()*+,-./012345
        0x0060:  3637                                     67
2024-11-20 10:50:46.728342 IP 192.168.0.1 > 192.168.0.12: ICMP echo reply, id 33888, seq 20, length 64
        0x0000:  0800 271e 364a 2023 51f7 529a 0800 4500  ..'.6J.#Q.R...E.
        0x0010:  0054 2540 0000 4001 d40b c0a8 0001 c0a8  .T%@..@.........
        0x0020:  000c 0000 c34c 8460 0014 5605 3e67 0000  .....L.`..V.>g..
        0x0030:  0000 5aff 0a00 0000 0000 1011 1213 1415  ..Z.............
        0x0040:  1617 1819 1a1b 1c1d 1e1f 2021 2223 2425  ...........!"#$%
        0x0050:  2627 2829 2a2b 2c2d 2e2f 3031 3233 3435  &'()*+,-./012345
        0x0060:  3637                                     67
2024-11-20 10:50:47.722460 IP 192.168.0.12 > 192.168.0.1: ICMP echo request, id 33888, seq 21, length 64
        0x0000:  2023 51f7 529a 0800 271e 364a 0800 4500  .#Q.R...'.6J..E.
        0x0010:  0054 42df 4000 4001 766c c0a8 000c c0a8  .TB.@.@.vl......
        0x0020:  0001 0800 2345 8460 0015 5705 3e67 0000  ....#E.`..W.>g..
        0x0030:  0000 f105 0b00 0000 0000 1011 1213 1415  ................
        0x0040:  1617 1819 1a1b 1c1d 1e1f 2021 2223 2425  ...........!"#$%
        0x0050:  2627 2829 2a2b 2c2d 2e2f 3031 3233 3435  &'()*+,-./012345
        0x0060:  3637                                     67
2024-11-20 10:50:47.729033 IP 192.168.0.1 > 192.168.0.12: ICMP echo reply, id 33888, seq 21, length 64
        0x0000:  0800 271e 364a 2023 51f7 529a 0800 4500  ..'.6J.#Q.R...E.
        0x0010:  0054 255d 0000 4001 d3ee c0a8 0001 c0a8  .T%]..@.........
        0x0020:  000c 0000 2b45 8460 0015 5705 3e67 0000  ....+E.`..W.>g..
        0x0030:  0000 f105 0b00 0000 0000 1011 1213 1415  ................
        0x0040:  1617 1819 1a1b 1c1d 1e1f 2021 2223 2425  ...........!"#$%
        0x0050:  2627 2829 2a2b 2c2d 2e2f 3031 3233 3435  &'()*+,-./012345
        0x0060:  3637                                     67
2024-11-20 10:50:48.724411 IP 192.168.0.12 > 192.168.0.1: ICMP echo request, id 33888, seq 22, length 64
        0x0000:  2023 51f7 529a 0800 271e 364a 0800 4500  .#Q.R...'.6J..E.
        0x0010:  0054 43a6 4000 4001 75a5 c0a8 000c c0a8  .TC.@.@.u.......
        0x0020:  0001 0800 813c 8460 0016 5805 3e67 0000  .....<.`..X.>g..
        0x0030:  0000 920d 0b00 0000 0000 1011 1213 1415  ................
        0x0040:  1617 1819 1a1b 1c1d 1e1f 2021 2223 2425  ...........!"#$%
        0x0050:  2627 2829 2a2b 2c2d 2e2f 3031 3233 3435  &'()*+,-./012345
        0x0060:  3637                                     67
2024-11-20 10:50:48.730790 IP 192.168.0.1 > 192.168.0.12: ICMP echo reply, id 33888, seq 22, length 64
        0x0000:  0800 271e 364a 2023 51f7 529a 0800 4500  ..'.6J.#Q.R...E.
        0x0010:  0054 263f 0000 4001 d30c c0a8 0001 c0a8  .T&?..@.........
        0x0020:  000c 0000 893c 8460 0016 5805 3e67 0000  .....<.`..X.>g..
        0x0030:  0000 920d 0b00 0000 0000 1011 1213 1415  ................
        0x0040:  1617 1819 1a1b 1c1d 1e1f 2021 2223 2425  ...........!"#$%
        0x0050:  2627 2829 2a2b 2c2d 2e2f 3031 3233 3435  &'()*+,-./012345
        0x0060:  3637                                     67
2024-11-20 10:50:49.725457 IP 192.168.0.12 > 192.168.0.1: ICMP echo request, id 33888, seq 23, length 64
        0x0000:  2023 51f7 529a 0800 271e 364a 0800 4500  .#Q.R...'.6J..E.
        0x0010:  0054 43f4 4000 4001 7557 c0a8 000c c0a8  .TC.@.@.uW......
        0x0020:  0001 0800 6b37 8460 0017 5905 3e67 0000  ....k7.`..Y.>g..
        0x0030:  0000 a711 0b00 0000 0000 1011 1213 1415  ................
        0x0040:  1617 1819 1a1b 1c1d 1e1f 2021 2223 2425  ...........!"#$%
        0x0050:  2627 2829 2a2b 2c2d 2e2f 3031 3233 3435  &'()*+,-./012345
        0x0060:  3637                                     67
2024-11-20 10:50:49.732016 IP 192.168.0.1 > 192.168.0.12: ICMP echo reply, id 33888, seq 23, length 64
        0x0000:  0800 271e 364a 2023 51f7 529a 0800 4500  ..'.6J.#Q.R...E.
        0x0010:  0054 26d1 0000 4001 d27a c0a8 0001 c0a8  .T&...@..z......
        0x0020:  000c 0000 7337 8460 0017 5905 3e67 0000  ....s7.`..Y.>g..
        0x0030:  0000 a711 0b00 0000 0000 1011 1213 1415  ................
        0x0040:  1617 1819 1a1b 1c1d 1e1f 2021 2223 2425  ...........!"#$%
        0x0050:  2627 2829 2a2b 2c2d 2e2f 3031 3233 3435  &'()*+,-./012345
        0x0060:  3637                                     67
2024-11-20 10:50:50.727989 IP 192.168.0.12 > 192.168.0.1: ICMP echo request, id 33888, seq 24, length 64
        0x0000:  2023 51f7 529a 0800 271e 364a 0800 4500  .#Q.R...'.6J..E.
        0x0010:  0054 4471 4000 4001 74da c0a8 000c c0a8  .TDq@.@.t.......
        0x0020:  0001 0800 822c 8460 0018 5a05 3e67 0000  .....,.`..Z.>g..
        0x0030:  0000 8f1b 0b00 0000 0000 1011 1213 1415  ................
        0x0040:  1617 1819 1a1b 1c1d 1e1f 2021 2223 2425  ...........!"#$%
        0x0050:  2627 2829 2a2b 2c2d 2e2f 3031 3233 3435  &'()*+,-./012345
        0x0060:  3637                                     67
2024-11-20 10:50:50.734544 IP 192.168.0.1 > 192.168.0.12: ICMP echo reply, id 33888, seq 24, length 64
        0x0000:  0800 271e 364a 2023 51f7 529a 0800 4500  ..'.6J.#Q.R...E.
        0x0010:  0054 26df 0000 4001 d26c c0a8 0001 c0a8  .T&...@..l......
        0x0020:  000c 0000 8a2c 8460 0018 5a05 3e67 0000  .....,.`..Z.>g..
        0x0030:  0000 8f1b 0b00 0000 0000 1011 1213 1415  ................
        0x0040:  1617 1819 1a1b 1c1d 1e1f 2021 2223 2425  ...........!"#$%
        0x0050:  2627 2829 2a2b 2c2d 2e2f 3031 3233 3435  &'()*+,-./012345
        0x0060:  3637                                     67
2024-11-20 10:45:53.234102 ARP, Request who-has 192.168.0.12 tell 192.168.0.1, length 46
        0x0000:  ffff ffff ffff 2023 51f7 529a 0806 0001  .......#Q.R.....
        0x0010:  0800 0604 0001 2023 51f7 529a c0a8 0001  .......#Q.R.....
        0x0020:  0000 0000 0000 c0a8 000c 0000 0000 0000  ................
        0x0030:  0000 0000 0000 0000 0000 0000            ............
2024-11-20 10:45:53.234123 ARP, Reply 192.168.0.12 is-at 08:00:27:1e:36:4a (oui Unknown), length 28
        0x0000:  2023 51f7 529a 0800 271e 364a 0806 0001  .#Q.R...'.6J....
        0x0010:  0800 0604 0002 0800 271e 364a c0a8 000c  ........'.6J....
        0x0020:  2023 51f7 529a c0a8 0001                 .#Q.R.....
2024-11-20 10:45:53.234147 ARP, Request who-has 192.168.0.49 tell 192.168.0.1, length 46
        0x0000:  ffff ffff ffff 2023 51f7 529a 0806 0001  .......#Q.R.....
        0x0010:  0800 0604 0001 2023 51f7 529a c0a8 0001  .......#Q.R.....
        0x0020:  0000 0000 0000 c0a8 0031 0000 0000 0000  .........1......
        0x0030:  0000 0000 0000 0000 0000 0000            ............
2024-11-20 10:45:53.234151 ARP, Request who-has 192.168.0.12 tell 192.168.0.1, length 46
        0x0000:  ffff ffff ffff 2023 51f7 529a 0806 0001  .......#Q.R.....
        0x0010:  0800 0604 0001 2023 51f7 529a c0a8 0001  .......#Q.R.....
        0x0020:  0000 0000 0000 c0a8 000c 0000 0000 0000  ................
        0x0030:  0000 0000 0000 0000 0000 0000            ............
2024-11-20 10:45:53.234154 ARP, Reply 192.168.0.12 is-at 08:00:27:1e:36:4a (oui Unknown), length 28
        0x0000:  2023 51f7 529a 0800 271e 364a 0806 0001  .#Q.R...'.6J....
        0x0010:  0800 0604 0002 0800 271e 364a c0a8 000c  ........'.6J....
        0x0020:  2023 51f7 529a c0a8 0001                 .#Q.R.....
2024-11-20 10:45:53.234161 ARP, Request who-has 192.168.0.49 tell 192.168.0.1, length 46
        0x0000:  ffff ffff ffff 2023 51f7 529a 0806 0001  .......#Q.R.....
        0x0010:  0800 0604 0001 2023 51f7 529a c0a8 0001  .......#Q.R.....
        0x0020:  0000 0000 0000 c0a8 0031 0000 0000 0000  .........1......
        0x0030:  0000 0000 0000 0000 0000 0000            ............
2024-11-20 10:45:59.681562 ARP, Request who-has 192.168.0.224 tell 192.168.0.12, length 28
        0x0000:  ffff ffff ffff 0800 271e 364a 0806 0001  ........'.6J....
        0x0010:  0800 0604 0001 0800 271e 364a c0a8 000c  ........'.6J....
        0x0020:  0000 0000 0000 c0a8 00e0                 ..........
2024-11-20 10:45:59.807770 ARP, Reply 192.168.0.224 is-at aa:d0:de:a5:cb:7e (oui Unknown), length 46
        0x0000:  0800 271e 364a aad0 dea5 cb7e 0806 0001  ..'.6J.....~....
        0x0010:  0800 0604 0002 aad0 dea5 cb7e c0a8 00e0  ...........~....
        0x0020:  0800 271e 364a c0a8 000c 0000 0000 0000  ..'.6J..........
        0x0030:  0000 0000 0000 0000 0000 0000            ............
2024-11-20 10:46:04.110270 ARP, Request who-has 192.168.0.12 tell 192.168.0.1, length 46
        0x0000:  ffff ffff ffff 2023 51f7 529a 0806 0001  .......#Q.R.....
        0x0010:  0800 0604 0001 2023 51f7 529a c0a8 0001  .......#Q.R.....
        0x0020:  0000 0000 0000 c0a8 000c 0000 0000 0000  ................
        0x0030:  0000 0000 0000 0000 0000 0000            ............
2024-11-20 10:46:04.110296 ARP, Reply 192.168.0.12 is-at 08:00:27:1e:36:4a (oui Unknown), length 28
        0x0000:  2023 51f7 529a 0800 271e 364a 0806 0001  .#Q.R...'.6J....
        0x0010:  0800 0604 0002 0800 271e 364a c0a8 000c  ........'.6J....
        0x0020:  2023 51f7 529a c0a8 0001                 .#Q.R.....
2024-11-20 10:46:04.111556 ARP, Request who-has 192.168.0.49 tell 192.168.0.1, length 46
        0x0000:  ffff ffff ffff 2023 51f7 529a 0806 0001  .......#Q.R.....
        0x0010:  0800 0604 0001 2023 51f7 529a c0a8 0001  .......#Q.R.....
        0x0020:  0000 0000 0000 c0a8 0031 0000 0000 0000  .........1......
        0x0030:  0000 0000 0000 0000 0000 0000            ............
2024-11-20 10:46:04.114231 ARP, Request who-has 192.168.0.12 tell 192.168.0.1, length 46
        0x0000:  ffff ffff ffff 2023 51f7 529a 0806 0001  .......#Q.R.....
        0x0010:  0800 0604 0001 2023 51f7 529a c0a8 0001  .......#Q.R.....
        0x0020:  0000 0000 0000 c0a8 000c 0000 0000 0000  ................
        0x0030:  0000 0000 0000 0000 0000 0000            ............
2024-11-20 10:46:04.114259 ARP, Reply 192.168.0.12 is-at 08:00:27:1e:36:4a (oui Unknown), length 28
        0x0000:  2023 51f7 529a 0800 271e 364a 0806 0001  .#Q.R...'.6J....
        0x0010:  0800 0604 0002 0800 271e 364a c0a8 000c  ........'.6J....
        0x0020:  2023 51f7 529a c0a8 0001                 .#Q.R.....
2024-11-20 10:46:04.934735 ARP, Request who-has 192.168.0.12 tell 192.168.0.224, length 46
        0x0000:  ffff ffff ffff aad0 dea5 cb7e 0806 0001  ...........~....
        0x0010:  0800 0604 0001 aad0 dea5 cb7e c0a8 00e0  ...........~....
        0x0020:  0000 0000 0000 c0a8 000c 0000 0000 0000  ................
        0x0030:  0000 0000 0000 0000 0000 0000            ............
2024-11-20 10:46:04.934761 ARP, Reply 192.168.0.12 is-at 08:00:27:1e:36:4a (oui Unknown), length 28
        0x0000:  aad0 dea5 cb7e 0800 271e 364a 0806 0001  .....~..'.6J....
        0x0010:  0800 0604 0002 0800 271e 364a c0a8 000c  ........'.6J....
        0x0020:  aad0 dea5 cb7e c0a8 00e0                 .....~....
2024-11-20 10:46:14.657757 ARP, Request who-has 192.168.0.12 tell 192.168.0.1, length 46
        0x0000:  ffff ffff ffff 2023 51f7 529a 0806 0001  .......#Q.R.....
        0x0010:  0800 0604 0001 2023 51f7 529a c0a8 0001  .......#Q.R.....
        0x0020:  0000 0000 0000 c0a8 000c 0000 0000 0000  ................
        0x0030:  0000 0000 0000 0000 0000 0000            ............
2024-11-20 10:46:14.657777 ARP, Reply 192.168.0.12 is-at 08:00:27:1e:36:4a (oui Unknown), length 28
        0x0000:  2023 51f7 529a 0800 271e 364a 0806 0001  .#Q.R...'.6J....
        0x0010:  0800 0604 0002 0800 271e 364a c0a8 000c  ........'.6J....
        0x0020:  2023 51f7 529a c0a8 0001                 .#Q.R.....
2024-11-20 10:46:14.657799 ARP, Request who-has 192.168.0.49 tell 192.168.0.1, length 46
        0x0000:  ffff ffff ffff 2023 51f7 529a 0806 0001  .......#Q.R.....
        0x0010:  0800 0604 0001 2023 51f7 529a c0a8 0001  .......#Q.R.....
        0x0020:  0000 0000 0000 c0a8 0031 0000 0000 0000  .........1......
        0x0030:  0000 0000 0000 0000 0000 0000            ............
2024-11-20 10:46:14.657803 ARP, Request who-has 192.168.0.12 tell 192.168.0.1, length 46
        0x0000:  ffff ffff ffff 2023 51f7 529a 0806 0001  .......#Q.R.....
        0x0010:  0800 0604 0001 2023 51f7 529a c0a8 0001  .......#Q.R.....
        0x0020:  0000 0000 0000 c0a8 000c 0000 0000 0000  ................
        0x0030:  0000 0000 0000 0000 0000 0000            ............
2024-11-20 10:46:14.657806 ARP, Reply 192.168.0.12 is-at 08:00:27:1e:36:4a (oui Unknown), length 28
        0x0000:  2023 51f7 529a 0800 271e 364a 0806 0001  .#Q.R...'.6J....
        0x0010:  0800 0604 0002 0800 271e 364a c0a8 000c  ........'.6J....
        0x0020:  2023 51f7 529a c0a8 0001                 .#Q.R.....
2024-11-20 10:46:14.657813 ARP, Request who-has 192.168.0.49 tell 192.168.0.1, length 46
        0x0000:  ffff ffff ffff 2023 51f7 529a 0806 0001  .......#Q.R.....
        0x0010:  0800 0604 0001 2023 51f7 529a c0a8 0001  .......#Q.R.....
        0x0020:  0000 0000 0000 c0a8 0031 0000 0000 0000  .........1......
        0x0030:  0000 0000 0000 0000 0000 0000            ............
2024-11-20 10:46:19.956871 ARP, Request who-has 192.168.0.224 tell 192.168.0.12, length 28
        0x0000:  ffff ffff ffff 0800 271e 364a 0806 0001  ........'.6J....
        0x0010:  0800 0604 0001 0800 271e 364a c0a8 000c  ........'.6J....
        0x0020:  0000 0000 0000 c0a8 00e0                 ..........
2024-11-20 10:46:20.765095 ARP, Reply 192.168.0.224 is-at aa:d0:de:a5:cb:7e (oui Unknown), length 46
        0x0000:  0800 271e 364a aad0 dea5 cb7e 0806 0001  ..'.6J.....~....
        0x0010:  0800 0604 0002 aad0 dea5 cb7e c0a8 00e0  ...........~....
        0x0020:  0800 271e 364a c0a8 000c 0000 0000 0000  ..'.6J..........
        0x0030:  0000 0000 0000 0000 0000 0000            ............
2024-11-20 10:46:21.621552 ARP, Request who-has 192.168.0.1 tell 192.168.0.12, length 28
        0x0000:  2023 51f7 529a 0800 271e 364a 0806 0001  .#Q.R...'.6J....
        0x0010:  0800 0604 0001 0800 271e 364a c0a8 000c  ........'.6J....
        0x0020:  0000 0000 0000 c0a8 0001                 ..........
2024-11-20 10:46:21.829214 ARP, Reply 192.168.0.1 is-at 20:23:51:f7:52:9a (oui Unknown), length 46
        0x0000:  0800 271e 364a 2023 51f7 529a 0806 0001  ..'.6J.#Q.R.....
        0x0010:  0800 0604 0002 2023 51f7 529a c0a8 0001  .......#Q.R.....
        0x0020:  0800 271e 364a c0a8 000c 0000 0000 0000  ..'.6J..........
        0x0030:  0000 0000 0000 0000 0000 0000            ............
2024-11-20 10:46:24.908232 ARP, Request who-has 192.168.0.12 tell 192.168.0.1, length 46
        0x0000:  ffff ffff ffff 2023 51f7 529a 0806 0001  .......#Q.R.....
        0x0010:  0800 0604 0001 2023 51f7 529a c0a8 0001  .......#Q.R.....
        0x0020:  0000 0000 0000 c0a8 000c 0000 0000 0000  ................
        0x0030:  0000 0000 0000 0000 0000 0000            ............
2024-11-20 10:46:24.908261 ARP, Reply 192.168.0.12 is-at 08:00:27:1e:36:4a (oui Unknown), length 28
        0x0000:  2023 51f7 529a 0800 271e 364a 0806 0001  .#Q.R...'.6J....
        0x0010:  0800 0604 0002 0800 271e 364a c0a8 000c  ........'.6J....
        0x0020:  2023 51f7 529a c0a8 0001                 .#Q.R.....
2024-11-20 10:46:24.908890 ARP, Request who-has 192.168.0.49 tell 192.168.0.1, length 46
        0x0000:  ffff ffff ffff 2023 51f7 529a 0806 0001  .......#Q.R.....
        0x0010:  0800 0604 0001 2023 51f7 529a c0a8 0001  .......#Q.R.....
        0x0020:  0000 0000 0000 c0a8 0031 0000 0000 0000  .........1......
        0x0030:  0000 0000 0000 0000 0000 0000            ............
2024-11-20 10:46:24.910508 ARP, Request who-has 192.168.0.12 tell 192.168.0.1, length 46
        0x0000:  ffff ffff ffff 2023 51f7 529a 0806 0001  .......#Q.R.....
        0x0010:  0800 0604 0001 2023 51f7 529a c0a8 0001  .......#Q.R.....
        0x0020:  0000 0000 0000 c0a8 000c 0000 0000 0000  ................
        0x0030:  0000 0000 0000 0000 0000 0000            ............
2024-11-20 10:46:24.910564 ARP, Reply 192.168.0.12 is-at 08:00:27:1e:36:4a (oui Unknown), length 28
        0x0000:  2023 51f7 529a 0800 271e 364a 0806 0001  .#Q.R...'.6J....
        0x0010:  0800 0604 0002 0800 271e 364a c0a8 000c  ........'.6J....
        0x0020:  2023 51f7 529a c0a8 0001                 .#Q.R.....
2024-11-20 10:46:24.916559 ARP, Request who-has 192.168.0.49 tell 192.168.0.1, length 46
        0x0000:  ffff ffff ffff 2023 51f7 529a 0806 0001  .......#Q.R.....
        0x0010:  0800 0604 0001 2023 51f7 529a c0a8 0001  .......#Q.R.....
        0x0020:  0000 0000 0000 c0a8 0031 0000 0000 0000  .........1......
        0x0030:  0000 0000 0000 0000 0000 0000            ............
2024-11-20 10:46:25.931247 ARP, Request who-has 192.168.0.12 tell 192.168.0.224, length 46
        0x0000:  ffff ffff ffff aad0 dea5 cb7e 0806 0001  ...........~....
        0x0010:  0800 0604 0001 aad0 dea5 cb7e c0a8 00e0  ...........~....
        0x0020:  0000 0000 0000 c0a8 000c 0000 0000 0000  ................
        0x0030:  0000 0000 0000 0000 0000 0000            ............
2024-11-20 10:46:25.931266 ARP, Reply 192.168.0.12 is-at 08:00:27:1e:36:4a (oui Unknown), length 28
        0x0000:  aad0 dea5 cb7e 0800 271e 364a 0806 0001  .....~..'.6J....
        0x0010:  0800 0604 0002 0800 271e 364a c0a8 000c  ........'.6J....
        0x0020:  aad0 dea5 cb7e c0a8 00e0                 .....~....
2024-11-20 10:46:28.338639 ARP, Request who-has 192.168.0.224 tell 192.168.0.12, length 28
        0x0000:  ffff ffff ffff 0800 271e 364a 0806 0001  ........'.6J....
        0x0010:  0800 0604 0001 0800 271e 364a c0a8 000c  ........'.6J....
        0x0020:  0000 0000 0000 c0a8 00e0                 ..........
2024-11-20 10:46:28.494251 ARP, Reply 192.168.0.224 is-at aa:d0:de:a5:cb:7e (oui Unknown), length 46
        0x0000:  0800 271e 364a aad0 dea5 cb7e 0806 0001  ..'.6J.....~....
        0x0010:  0800 0604 0002 aad0 dea5 cb7e c0a8 00e0  ...........~....
        0x0020:  0800 271e 364a c0a8 000c 0000 0000 0000  ..'.6J..........
        0x0030:  0000 0000 0000 0000 0000 0000            ............
2024-11-20 10:46:35.915844 ARP, Request who-has 192.168.0.12 tell 192.168.0.1, length 46
        0x0000:  ffff ffff ffff 2023 51f7 529a 0806 0001  .......#Q.R.....
        0x0010:  0800 0604 0001 2023 51f7 529a c0a8 0001  .......#Q.R.....
        0x0020:  0000 0000 0000 c0a8 000c 0000 0000 0000  ................
        0x0030:  0000 0000 0000 0000 0000 0000            ............
2024-11-20 10:46:35.915864 ARP, Reply 192.168.0.12 is-at 08:00:27:1e:36:4a (oui Unknown), length 28
        0x0000:  2023 51f7 529a 0800 271e 364a 0806 0001  .#Q.R...'.6J....
        0x0010:  0800 0604 0002 0800 271e 364a c0a8 000c  ........'.6J....
        0x0020:  2023 51f7 529a c0a8 0001                 .#Q.R.....
2024-11-20 10:46:35.915884 ARP, Request who-has 192.168.0.49 tell 192.168.0.1, length 46
        0x0000:  ffff ffff ffff 2023 51f7 529a 0806 0001  .......#Q.R.....
        0x0010:  0800 0604 0001 2023 51f7 529a c0a8 0001  .......#Q.R.....
        0x0020:  0000 0000 0000 c0a8 0031 0000 0000 0000  .........1......
        0x0030:  0000 0000 0000 0000 0000 0000            ............
2024-11-20 10:46:35.915888 ARP, Request who-has 192.168.0.12 tell 192.168.0.1, length 46
        0x0000:  ffff ffff ffff 2023 51f7 529a 0806 0001  .......#Q.R.....
        0x0010:  0800 0604 0001 2023 51f7 529a c0a8 0001  .......#Q.R.....
        0x0020:  0000 0000 0000 c0a8 000c 0000 0000 0000  ................
        0x0030:  0000 0000 0000 0000 0000 0000            ............
2024-11-20 10:46:35.915890 ARP, Reply 192.168.0.12 is-at 08:00:27:1e:36:4a (oui Unknown), length 28
        0x0000:  2023 51f7 529a 0800 271e 364a 0806 0001  .#Q.R...'.6J....
        0x0010:  0800 0604 0002 0800 271e 364a c0a8 000c  ........'.6J....
        0x0020:  2023 51f7 529a c0a8 0001                 .#Q.R.....
2024-11-20 10:46:35.915898 ARP, Request who-has 192.168.0.49 tell 192.168.0.1, length 46
        0x0000:  ffff ffff ffff 2023 51f7 529a 0806 0001  .......#Q.R.....
        0x0010:  0800 0604 0001 2023 51f7 529a c0a8 0001  .......#Q.R.....
        0x0020:  0000 0000 0000 c0a8 0031 0000 0000 0000  .........1......
        0x0030:  0000 0000 0000 0000 0000 0000            ............
2024-11-20 10:46:37.829808 ARP, Request who-has 192.168.0.224 tell 192.168.0.12, length 28
        0x0000:  ffff ffff ffff 0800 271e 364a 0806 0001  ........'.6J....
        0x0010:  0800 0604 0001 0800 271e 364a c0a8 000c  ........'.6J....
        0x0020:  0000 0000 0000 c0a8 00e0                 ..........
2024-11-20 10:46:38.529031 ARP, Reply 192.168.0.224 is-at aa:d0:de:a5:cb:7e (oui Unknown), length 46
        0x0000:  0800 271e 364a aad0 dea5 cb7e 0806 0001  ..'.6J.....~....
        0x0010:  0800 0604 0002 aad0 dea5 cb7e c0a8 00e0  ...........~....
        0x0020:  0800 271e 364a c0a8 000c 0000 0000 0000  ..'.6J..........
        0x0030:  0000 0000 0000 0000 0000 0000            ............
2024-11-20 10:46:43.848657 ARP, Request who-has 192.168.0.12 tell 192.168.0.224, length 46
        0x0000:  ffff ffff ffff aad0 dea5 cb7e 0806 0001  ...........~....
        0x0010:  0800 0604 0001 aad0 dea5 cb7e c0a8 00e0  ...........~....
        0x0020:  0000 0000 0000 c0a8 000c 0000 0000 0000  ................
        0x0030:  0000 0000 0000 0000 0000 0000            ............
2024-11-20 10:46:43.848685 ARP, Reply 192.168.0.12 is-at 08:00:27:1e:36:4a (oui Unknown), length 28
        0x0000:  aad0 dea5 cb7e 0800 271e 364a 0806 0001  .....~..'.6J....
        0x0010:  0800 0604 0002 0800 271e 364a c0a8 000c  ........'.6J....
        0x0020:  aad0 dea5 cb7e c0a8 00e0                 .....~....
2024-11-20 10:46:46.626820 ARP, Request who-has 192.168.0.12 tell 192.168.0.1, length 46
        0x0000:  ffff ffff ffff 2023 51f7 529a 0806 0001  .......#Q.R.....
        0x0010:  0800 0604 0001 2023 51f7 529a c0a8 0001  .......#Q.R.....
        0x0020:  0000 0000 0000 c0a8 000c 0000 0000 0000  ................
        0x0030:  0000 0000 0000 0000 0000 0000            ............
2024-11-20 10:46:46.626841 ARP, Reply 192.168.0.12 is-at 08:00:27:1e:36:4a (oui Unknown), length 28
        0x0000:  2023 51f7 529a 0800 271e 364a 0806 0001  .#Q.R...'.6J....
        0x0010:  0800 0604 0002 0800 271e 364a c0a8 000c  ........'.6J....
        0x0020:  2023 51f7 529a c0a8 0001                 .#Q.R.....
2024-11-20 10:46:46.627597 ARP, Request who-has 192.168.0.49 tell 192.168.0.1, length 46
        0x0000:  ffff ffff ffff 2023 51f7 529a 0806 0001  .......#Q.R.....
        0x0010:  0800 0604 0001 2023 51f7 529a c0a8 0001  .......#Q.R.....
        0x0020:  0000 0000 0000 c0a8 0031 0000 0000 0000  .........1......
        0x0030:  0000 0000 0000 0000 0000 0000            ............
2024-11-20 10:46:46.629403 ARP, Request who-has 192.168.0.12 tell 192.168.0.1, length 46
        0x0000:  ffff ffff ffff 2023 51f7 529a 0806 0001  .......#Q.R.....
        0x0010:  0800 0604 0001 2023 51f7 529a c0a8 0001  .......#Q.R.....
        0x0020:  0000 0000 0000 c0a8 000c 0000 0000 0000  ................
        0x0030:  0000 0000 0000 0000 0000 0000            ............
2024-11-20 10:46:46.629423 ARP, Reply 192.168.0.12 is-at 08:00:27:1e:36:4a (oui Unknown), length 28
        0x0000:  2023 51f7 529a 0800 271e 364a 0806 0001  .#Q.R...'.6J....
        0x0010:  0800 0604 0002 0800 271e 364a c0a8 000c  ........'.6J....
        0x0020:  2023 51f7 529a c0a8 0001                 .#Q.R.....
2024-11-20 11:02:01.658592 IP 192.168.0.12 > 192.168.0.1: ICMP echo request, id 60317, seq 5, length 64
        0x0000:  2023 51f7 529a 0800 271e 364a 0800 4500  .#Q.R...'.6J..E.
        0x0010:  0054 9e3d 4000 4001 1b0e c0a8 000c c0a8  .T.=@.@.........
        0x0020:  0001 0800 930e eb9d 0005 f907 3e67 0000  ............>g..
        0x0030:  0000 790c 0a00 0000 0000 1011 1213 1415  ..y.............
        0x0040:  1617 1819 1a1b 1c1d 1e1f 2021 2223 2425  ...........!"#$%
        0x0050:  2627 2829 2a2b 2c2d 2e2f 3031 3233 3435  &'()*+,-./012345
        0x0060:  3637                                     67
2024-11-20 11:02:01.665801 IP 192.168.0.1 > 192.168.0.12: ICMP echo reply, id 60317, seq 5, length 64
        0x0000:  0800 271e 364a 2023 51f7 529a 0800 4500  ..'.6J.#Q.R...E.
        0x0010:  0054 60f6 0000 4001 9855 c0a8 0001 c0a8  .T`...@..U......
        0x0020:  000c 0000 9b0e eb9d 0005 f907 3e67 0000  ............>g..
        0x0030:  0000 790c 0a00 0000 0000 1011 1213 1415  ..y.............
        0x0040:  1617 1819 1a1b 1c1d 1e1f 2021 2223 2425  ...........!"#$%
        0x0050:  2627 2829 2a2b 2c2d 2e2f 3031 3233 3435  &'()*+,-./012345
        0x0060:  3637                                     67
2024-11-20 11:02:02.661146 IP 192.168.0.12 > 192.168.0.1: ICMP echo request, id 60317, seq 6, length 64
        0x0000:  2023 51f7 529a 0800 271e 364a 0800 4500  .#Q.R...'.6J..E.
        0x0010:  0054 9ef8 4000 4001 1a53 c0a8 000c c0a8  .T..@.@..S......
        0x0020:  0001 0800 9803 eb9d 0006 fa07 3e67 0000  ............>g..
        0x0030:  0000 7316 0a00 0000 0000 1011 1213 1415  ..s.............
        0x0040:  1617 1819 1a1b 1c1d 1e1f 2021 2223 2425  ...........!"#$%
        0x0050:  2627 2829 2a2b 2c2d 2e2f 3031 3233 3435  &'()*+,-./012345
        0x0060:  3637                                     67
2024-11-20 11:02:02.668244 IP 192.168.0.1 > 192.168.0.12: ICMP echo reply, id 60317, seq 6, length 64
        0x0000:  0800 271e 364a 2023 51f7 529a 0800 4500  ..'.6J.#Q.R...E.
        0x0010:  0054 61d4 0000 4001 9777 c0a8 0001 c0a8  .Ta...@..w......
        0x0020:  000c 0000 a003 eb9d 0006 fa07 3e67 0000  ............>g..
        0x0030:  0000 7316 0a00 0000 0000 1011 1213 1415  ..s.............
        0x0040:  1617 1819 1a1b 1c1d 1e1f 2021 2223 2425  ...........!"#$%
        0x0050:  2627 2829 2a2b 2c2d 2e2f 3031 3233 3435  &'()*+,-./012345
        0x0060:  3637                                     67
2024-11-20 11:02:03.664142 IP 192.168.0.12 > 192.168.0.1: ICMP echo request, id 60317, seq 7, length 64
        0x0000:  2023 51f7 529a 0800 271e 364a 0800 4500  .#Q.R...'.6J..E.
        0x0010:  0054 9fa6 4000 4001 19a5 c0a8 000c c0a8  .T..@.@.........
        0x0020:  0001 0800 e1f6 eb9d 0007 fb07 3e67 0000  ............>g..
        0x0030:  0000 2822 0a00 0000 0000 1011 1213 1415  ..("............
        0x0040:  1617 1819 1a1b 1c1d 1e1f 2021 2223 2425  ...........!"#$%
        0x0050:  2627 2829 2a2b 2c2d 2e2f 3031 3233 3435  &'()*+,-./012345
        0x0060:  3637                                     67
2024-11-20 11:02:03.670917 IP 192.168.0.1 > 192.168.0.12: ICMP echo reply, id 60317, seq 7, length 64
        0x0000:  0800 271e 364a 2023 51f7 529a 0800 4500  ..'.6J.#Q.R...E.
        0x0010:  0054 627c 0000 4001 96cf c0a8 0001 c0a8  .Tb|..@.........
        0x0020:  000c 0000 e9f6 eb9d 0007 fb07 3e67 0000  ............>g..
        0x0030:  0000 2822 0a00 0000 0000 1011 1213 1415  ..("............
        0x0040:  1617 1819 1a1b 1c1d 1e1f 2021 2223 2425  ...........!"#$%
        0x0050:  2627 2829 2a2b 2c2d 2e2f 3031 3233 3435  &'()*+,-./012345
        0x0060:  3637                                     67
2024-11-20 11:02:04.665156 IP 192.168.0.12 > 192.168.0.1: ICMP echo request, id 60317, seq 8, length 64
        0x0000:  2023 51f7 529a 0800 271e 364a 0800 4500  .#Q.R...'.6J..E.
        0x0010:  0054 a073 4000 4001 18d8 c0a8 000c c0a8  .T.s@.@.........
        0x0020:  0001 0800 e9f1 eb9d 0008 fc07 3e67 0000  ............>g..
        0x0030:  0000 1f26 0a00 0000 0000 1011 1213 1415  ...&............
        0x0040:  1617 1819 1a1b 1c1d 1e1f 2021 2223 2425  ...........!"#$%
        0x0050:  2627 2829 2a2b 2c2d 2e2f 3031 3233 3435  &'()*+,-./012345
        0x0060:  3637                                     67
2024-11-20 11:02:04.672425 IP 192.168.0.1 > 192.168.0.12: ICMP echo reply, id 60317, seq 8, length 64
        0x0000:  0800 271e 364a 2023 51f7 529a 0800 4500  ..'.6J.#Q.R...E.
        0x0010:  0054 62c8 0000 4001 9683 c0a8 0001 c0a8  .Tb...@.........
        0x0020:  000c 0000 f1f1 eb9d 0008 fc07 3e67 0000  ............>g..
        0x0030:  0000 1f26 0a00 0000 0000 1011 1213 1415  ...&............
        0x0040:  1617 1819 1a1b 1c1d 1e1f 2021 2223 2425  ...........!"#$%
        0x0050:  2627 2829 2a2b 2c2d 2e2f 3031 3233 3435  &'()*+,-./012345
        0x0060:  3637                                     67
2024-11-20 11:02:05.666823 IP 192.168.0.12 > 192.168.0.1: ICMP echo request, id 60317, seq 9, length 64
        0x0000:  2023 51f7 529a 0800 271e 364a 0800 4500  .#Q.R...'.6J..E.
        0x0010:  0054 a133 4000 4001 1818 c0a8 000c c0a8  .T.3@.@.........
        0x0020:  0001 0800 64ea eb9d 0009 fd07 3e67 0000  ....d.......>g..
        0x0030:  0000 a32c 0a00 0000 0000 1011 1213 1415  ...,............
        0x0040:  1617 1819 1a1b 1c1d 1e1f 2021 2223 2425  ...........!"#$%
        0x0050:  2627 2829 2a2b 2c2d 2e2f 3031 3233 3435  &'()*+,-./012345
        0x0060:  3637                                     67
2024-11-20 11:02:05.673571 IP 192.168.0.1 > 192.168.0.12: ICMP echo reply, id 60317, seq 9, length 64
        0x0000:  0800 271e 364a 2023 51f7 529a 0800 4500  ..'.6J.#Q.R...E.
        0x0010:  0054 62e3 0000 4001 9668 c0a8 0001 c0a8  .Tb...@..h......
        0x0020:  000c 0000 6cea eb9d 0009 fd07 3e67 0000  ....l.......>g..
        0x0030:  0000 a32c 0a00 0000 0000 1011 1213 1415  ...,............
        0x0040:  1617 1819 1a1b 1c1d 1e1f 2021 2223 2425  ...........!"#$%
        0x0050:  2627 2829 2a2b 2c2d 2e2f 3031 3233 3435  &'()*+,-./012345
        0x0060:  3637                                     67
2024-11-20 11:02:06.669538 IP 192.168.0.12 > 192.168.0.1: ICMP echo request, id 60317, seq 10, length 64
        0x0000:  2023 51f7 529a 0800 271e 364a 0800 4500  .#Q.R...'.6J..E.
        0x0010:  0054 a14e 4000 4001 17fd c0a8 000c c0a8  .T.N@.@.........
        0x0020:  0001 0800 ccde eb9d 000a fe07 3e67 0000  ............>g..
        0x0030:  0000 3a37 0a00 0000 0000 1011 1213 1415  ..:7............
        0x0040:  1617 1819 1a1b 1c1d 1e1f 2021 2223 2425  ...........!"#$%
        0x0050:  2627 2829 2a2b 2c2d 2e2f 3031 3233 3435  &'()*+,-./012345
        0x0060:  3637                                     67
2024-11-20 11:02:06.676091 IP 192.168.0.1 > 192.168.0.12: ICMP echo reply, id 60317, seq 10, length 64
        0x0000:  0800 271e 364a 2023 51f7 529a 0800 4500  ..'.6J.#Q.R...E.
        0x0010:  0054 6306 0000 4001 9645 c0a8 0001 c0a8  .Tc...@..E......
        0x0020:  000c 0000 d4de eb9d 000a fe07 3e67 0000  ............>g..
        0x0030:  0000 3a37 0a00 0000 0000 1011 1213 1415  ..:7............
        0x0040:  1617 1819 1a1b 1c1d 1e1f 2021 2223 2425  ...........!"#$%
        0x0050:  2627 2829 2a2b 2c2d 2e2f 3031 3233 3435  &'()*+,-./012345
        0x0060:  3637                                     67
2024-11-20 11:02:07.671114 IP 192.168.0.12 > 192.168.0.1: ICMP echo request, id 60317, seq 11, length 64
        0x0000:  2023 51f7 529a 0800 271e 364a 0800 4500  .#Q.R...'.6J..E.
        0x0010:  0054 a1fd 4000 4001 174e c0a8 000c c0a8  .T..@.@..N......
        0x0020:  0001 0800 94d7 eb9d 000b ff07 3e67 0000  ............>g..
        0x0030:  0000 713d 0a00 0000 0000 1011 1213 1415  ..q=............
        0x0040:  1617 1819 1a1b 1c1d 1e1f 2021 2223 2425  ...........!"#$%
        0x0050:  2627 2829 2a2b 2c2d 2e2f 3031 3233 3435  &'()*+,-./012345
        0x0060:  3637                                     67
2024-11-20 11:02:07.675769 IP 192.168.0.1 > 192.168.0.12: ICMP echo reply, id 60317, seq 11, length 64
        0x0000:  0800 271e 364a 2023 51f7 529a 0800 4500  ..'.6J.#Q.R...E.
        0x0010:  0054 63c0 0000 4001 958b c0a8 0001 c0a8  .Tc...@.........
        0x0020:  000c 0000 9cd7 eb9d 000b ff07 3e67 0000  ............>g..
        0x0030:  0000 713d 0a00 0000 0000 1011 1213 1415  ..q=............
        0x0040:  1617 1819 1a1b 1c1d 1e1f 2021 2223 2425  ...........!"#$%
        0x0050:  2627 2829 2a2b 2c2d 2e2f 3031 3233 3435  &'()*+,-./012345
        0x0060:  3637                                     67
2024-11-20 11:02:08.673200 IP 192.168.0.12 > 192.168.0.1: ICMP echo request, id 60317, seq 12, length 64
        0x0000:  2023 51f7 529a 0800 271e 364a 0800 4500  .#Q.R...'.6J..E.
        0x0010:  0054 a262 4000 4001 16e9 c0a8 000c c0a8  .T.b@.@.........
        0x0020:  0001 0800 77ce eb9d 000c 0008 3e67 0000  ....w.......>g..
        0x0030:  0000 8d45 0a00 0000 0000 1011 1213 1415  ...E............
        0x0040:  1617 1819 1a1b 1c1d 1e1f 2021 2223 2425  ...........!"#$%
        0x0050:  2627 2829 2a2b 2c2d 2e2f 3031 3233 3435  &'()*+,-./012345
        0x0060:  3637                                     67
2024-11-20 11:02:08.678570 IP 192.168.0.1 > 192.168.0.12: ICMP echo reply, id 60317, seq 12, length 64
        0x0000:  0800 271e 364a 2023 51f7 529a 0800 4500  ..'.6J.#Q.R...E.
        0x0010:  0054 64b5 0000 4001 9496 c0a8 0001 c0a8  .Td...@.........
        0x0020:  000c 0000 7fce eb9d 000c 0008 3e67 0000  ............>g..
        0x0030:  0000 8d45 0a00 0000 0000 1011 1213 1415  ...E............
        0x0040:  1617 1819 1a1b 1c1d 1e1f 2021 2223 2425  ...........!"#$%
        0x0050:  2627 2829 2a2b 2c2d 2e2f 3031 3233 3435  &'()*+,-./012345
        0x0060:  3637                                     67
2024-11-20 11:02:09.674039 IP 192.168.0.12 > 192.168.0.1: ICMP echo request, id 60317, seq 13, length 64
        0x0000:  2023 51f7 529a 0800 271e 364a 0800 4500  .#Q.R...'.6J..E.
        0x0010:  0054 a2d1 4000 4001 167a c0a8 000c c0a8  .T..@.@..z......
        0x0020:  0001 0800 32ca eb9d 000d 0108 3e67 0000  ....2.......>g..
        0x0030:  0000 d148 0a00 0000 0000 1011 1213 1415  ...H............
        0x0040:  1617 1819 1a1b 1c1d 1e1f 2021 2223 2425  ...........!"#$%
        0x0050:  2627 2829 2a2b 2c2d 2e2f 3031 3233 3435  &'()*+,-./012345
        0x0060:  3637                                     67
2024-11-20 11:02:09.680676 IP 192.168.0.1 > 192.168.0.12: ICMP echo reply, id 60317, seq 13, length 64
        0x0000:  0800 271e 364a 2023 51f7 529a 0800 4500  ..'.6J.#Q.R...E.
        0x0010:  0054 6596 0000 4001 93b5 c0a8 0001 c0a8  .Te...@.........
        0x0020:  000c 0000 3aca eb9d 000d 0108 3e67 0000  ....:.......>g..
        0x0030:  0000 d148 0a00 0000 0000 1011 1213 1415  ...H............
        0x0040:  1617 1819 1a1b 1c1d 1e1f 2021 2223 2425  ...........!"#$%
        0x0050:  2627 2829 2a2b 2c2d 2e2f 3031 3233 3435  &'()*+,-./012345
        0x0060:  3637                                     67
2024-11-20 11:02:10.676396 IP 192.168.0.12 > 192.168.0.1: ICMP echo request, id 60317, seq 14, length 64
        0x0000:  2023 51f7 529a 0800 271e 364a 0800 4500  .#Q.R...'.6J..E.
        0x0010:  0054 a337 4000 4001 1614 c0a8 000c c0a8  .T.7@.@.........
        0x0020:  0001 0800 01c0 eb9d 000e 0208 3e67 0000  ............>g..
        0x0030:  0000 0152 0a00 0000 0000 1011 1213 1415  ...R............
        0x0040:  1617 1819 1a1b 1c1d 1e1f 2021 2223 2425  ...........!"#$%
        0x0050:  2627 2829 2a2b 2c2d 2e2f 3031 3233 3435  &'()*+,-./012345
        0x0060:  3637                                     67
2024-11-20 11:02:10.682932 IP 192.168.0.1 > 192.168.0.12: ICMP echo reply, id 60317, seq 14, length 64
        0x0000:  0800 271e 364a 2023 51f7 529a 0800 4500  ..'.6J.#Q.R...E.
        0x0010:  0054 65df 0000 4001 936c c0a8 0001 c0a8  .Te...@..l......
        0x0020:  000c 0000 09c0 eb9d 000e 0208 3e67 0000  ............>g..
        0x0030:  0000 0152 0a00 0000 0000 1011 1213 1415  ...R............
        0x0040:  1617 1819 1a1b 1c1d 1e1f 2021 2223 2425  ...........!"#$%
        0x0050:  2627 2829 2a2b 2c2d 2e2f 3031 3233 3435  &'()*+,-./012345
        0x0060:  3637                                     67
2024-11-20 11:02:11.677974 IP 192.168.0.12 > 192.168.0.1: ICMP echo request, id 60317, seq 15, length 64
        0x0000:  2023 51f7 529a 0800 271e 364a 0800 4500  .#Q.R...'.6J..E.
        0x0010:  0054 a340 4000 4001 160b c0a8 000c c0a8  .T.@@.@.........
        0x0020:  0001 0800 d3b8 eb9d 000f 0308 3e67 0000  ............>g..
        0x0030:  0000 2e58 0a00 0000 0000 1011 1213 1415  ...X............
        0x0040:  1617 1819 1a1b 1c1d 1e1f 2021 2223 2425  ...........!"#$%
        0x0050:  2627 2829 2a2b 2c2d 2e2f 3031 3233 3435  &'()*+,-./012345
        0x0060:  3637                                     67
2024-11-20 11:02:11.685671 IP 192.168.0.1 > 192.168.0.12: ICMP echo reply, id 60317, seq 15, length 64
        0x0000:  0800 271e 364a 2023 51f7 529a 0800 4500  ..'.6J.#Q.R...E.
        0x0010:  0054 66c9 0000 4001 9282 c0a8 0001 c0a8  .Tf...@.........
        0x0020:  000c 0000 dbb8 eb9d 000f 0308 3e67 0000  ............>g..
        0x0030:  0000 2e58 0a00 0000 0000 1011 1213 1415  ...X............
        0x0040:  1617 1819 1a1b 1c1d 1e1f 2021 2223 2425  ...........!"#$%
        0x0050:  2627 2829 2a2b 2c2d 2e2f 3031 3233 3435  &'()*+,-./012345
        0x0060:  3637                                     67
2024-11-20 11:02:12.679941 IP 192.168.0.12 > 192.168.0.1: ICMP echo request, id 60317, seq 16, length 64
        0x0000:  2023 51f7 529a 0800 271e 364a 0800 4500  .#Q.R...'.6J..E.
        0x0010:  0054 a388 4000 4001 15c3 c0a8 000c c0a8  .T..@.@.........
        0x0020:  0001 0800 22b0 eb9d 0010 0408 3e67 0000  ....".......>g..
        0x0030:  0000 de5f 0a00 0000 0000 1011 1213 1415  ..._............
        0x0040:  1617 1819 1a1b 1c1d 1e1f 2021 2223 2425  ...........!"#$%
        0x0050:  2627 2829 2a2b 2c2d 2e2f 3031 3233 3435  &'()*+,-./012345
        0x0060:  3637                                     67
2024-11-20 11:02:12.686847 IP 192.168.0.1 > 192.168.0.12: ICMP echo reply, id 60317, seq 16, length 64
        0x0000:  0800 271e 364a 2023 51f7 529a 0800 4500  ..'.6J.#Q.R...E.
        0x0010:  0054 6732 0000 4001 9219 c0a8 0001 c0a8  .Tg2..@.........
        0x0020:  000c 0000 2ab0 eb9d 0010 0408 3e67 0000  ....*.......>g..
        0x0030:  0000 de5f 0a00 0000 0000 1011 1213 1415  ..._............
        0x0040:  1617 1819 1a1b 1c1d 1e1f 2021 2223 2425  ...........!"#$%
        0x0050:  2627 2829 2a2b 2c2d 2e2f 3031 3233 3435  &'()*+,-./012345
        0x0060:  3637                                     67
2024-11-20 11:02:13.680471 IP 192.168.0.12 > 192.168.0.1: ICMP echo request, id 60317, seq 17, length 64
        0x0000:  2023 51f7 529a 0800 271e 364a 0800 4500  .#Q.R...'.6J..E.
        0x0010:  0054 a395 4000 4001 15b6 c0a8 000c c0a8  .T..@.@.........
        0x0020:  0001 0800 10ad eb9d 0011 0508 3e67 0000  ............>g..
        0x0030:  0000 ef61 0a00 0000 0000 1011 1213 1415  ...a............
        0x0040:  1617 1819 1a1b 1c1d 1e1f 2021 2223 2425  ...........!"#$%
        0x0050:  2627 2829 2a2b 2c2d 2e2f 3031 3233 3435  &'()*+,-./012345
        0x0060:  3637                                     67
2024-11-20 11:02:13.686773 IP 192.168.0.1 > 192.168.0.12: ICMP echo reply, id 60317, seq 17, length 64
        0x0000:  0800 271e 364a 2023 51f7 529a 0800 4500  ..'.6J.#Q.R...E.
        0x0010:  0054 676e 0000 4001 91dd c0a8 0001 c0a8  .Tgn..@.........
        0x0020:  000c 0000 18ad eb9d 0011 0508 3e67 0000  ............>g..
        0x0030:  0000 ef61 0a00 0000 0000 1011 1213 1415  ...a............
        0x0040:  1617 1819 1a1b 1c1d 1e1f 2021 2223 2425  ...........!"#$%
        0x0050:  2627 2829 2a2b 2c2d 2e2f 3031 3233 3435  &'()*+,-./012345
        0x0060:  3637                                     67
2024-11-20 11:02:14.681546 IP 192.168.0.12 > 192.168.0.1: ICMP echo request, id 60317, seq 18, length 64
        0x0000:  2023 51f7 529a 0800 271e 364a 0800 4500  .#Q.R...'.6J..E.
        0x0010:  0054 a47e 4000 4001 14cd c0a8 000c c0a8  .T.~@.@.........
        0x0020:  0001 0800 d9a7 eb9d 0012 0608 3e67 0000  ............>g..
        0x0030:  0000 2566 0a00 0000 0000 1011 1213 1415  ..%f............
        0x0040:  1617 1819 1a1b 1c1d 1e1f 2021 2223 2425  ...........!"#$%
        0x0050:  2627 2829 2a2b 2c2d 2e2f 3031 3233 3435  &'()*+,-./012345
        0x0060:  3637                                     67
2024-11-20 11:02:14.688115 IP 192.168.0.1 > 192.168.0.12: ICMP echo reply, id 60317, seq 18, length 64
        0x0000:  0800 271e 364a 2023 51f7 529a 0800 4500  ..'.6J.#Q.R...E.
        0x0010:  0054 681a 0000 4001 9131 c0a8 0001 c0a8  .Th...@..1......
        0x0020:  000c 0000 e1a7 eb9d 0012 0608 3e67 0000  ............>g..
        0x0030:  0000 2566 0a00 0000 0000 1011 1213 1415  ..%f............
        0x0040:  1617 1819 1a1b 1c1d 1e1f 2021 2223 2425  ...........!"#$%
        0x0050:  2627 2829 2a2b 2c2d 2e2f 3031 3233 3435  &'()*+,-./012345
        0x0060:  3637                                     67

