2024-11-10 18:15:10.582465 IP localhost > localhost: ICMP echo request, id 20512, seq 48, length 64
	0x0000:  0000 0000 0000 0000 0000 0000 0800 4500  ..............E.
	0x0010:  0054 c2ab 4000 4001 79fb 7f00 0001 7f00  .T..@.@.y.......
	0x0020:  0001 0800 4b54 5020 0030 7e3e 3167 0000  ....KTP..0~>1g..
	0x0030:  0000 e5e2 0800 0000 0000 1011 1213 1415  ................
	0x0040:  1617 1819 1a1b 1c1d 1e1f 2021 2223 2425  ...........!"#$%
	0x0050:  2627 2829 2a2b 2c2d 2e2f 3031 3233 3435  &'()*+,-./012345
	0x0060:  3637                                     67
2024-11-10 18:15:10.582482 IP localhost > localhost: ICMP echo reply, id 20512, seq 48, length 64
	0x0000:  0000 0000 0000 0000 0000 0000 0800 4500  ..............E.
	0x0010:  0054 c2ac 0000 4001 b9fa 7f00 0001 7f00  .T....@.........
	0x0020:  0001 0000 5354 5020 0030 7e3e 3167 0000  ....STP..0~>1g..
	0x0030:  0000 e5e2 0800 0000 0000 1011 1213 1415  ................
	0x0040:  1617 1819 1a1b 1c1d 1e1f 2021 2223 2425  ...........!"#$%
	0x0050:  2627 2829 2a2b 2c2d 2e2f 3031 3233 3435  &'()*+,-./012345
	0x0060:  3637                                     67
2024-11-10 18:15:11.602524 IP localhost > localhost: ICMP echo request, id 20512, seq 49, length 64
	0x0000:  0000 0000 0000 0000 0000 0000 0800 4500  ..............E.
	0x0010:  0054 c2e2 4000 4001 79c4 7f00 0001 7f00  .T..@.@.y.......
	0x0020:  0001 0800 c204 5020 0031 7f3e 3167 0000  ......P..1.>1g..
	0x0030:  0000 6d31 0900 0000 0000 1011 1213 1415  ..m1............
	0x0040:  1617 1819 1a1b 1c1d 1e1f 2021 2223 2425  ...........!"#$%
	0x0050:  2627 2829 2a2b 2c2d 2e2f 3031 3233 3435  &'()*+,-./012345
	0x0060:  3637                                     67
2024-11-10 18:15:11.602575 IP localhost > localhost: ICMP echo reply, id 20512, seq 49, length 64
	0x0000:  0000 0000 0000 0000 0000 0000 0800 4500  ..............E.
	0x0010:  0054 c2e3 0000 4001 b9c3 7f00 0001 7f00  .T....@.........
	0x0020:  0001 0000 ca04 5020 0031 7f3e 3167 0000  ......P..1.>1g..
	0x0030:  0000 6d31 0900 0000 0000 1011 1213 1415  ..m1............
	0x0040:  1617 1819 1a1b 1c1d 1e1f 2021 2223 2425  ...........!"#$%
	0x0050:  2627 2829 2a2b 2c2d 2e2f 3031 3233 3435  &'()*+,-./012345
	0x0060:  3637                                     67
2024-11-10 18:15:12.625999 IP localhost > localhost: ICMP echo request, id 20512, seq 50, length 64
	0x0000:  0000 0000 0000 0000 0000 0000 0800 4500  ..............E.
	0x0010:  0054 c314 4000 4001 7992 7f00 0001 7f00  .T..@.@.y.......
	0x0020:  0001 0800 01a8 5020 0032 803e 3167 0000  ......P..2.>1g..
	0x0030:  0000 2c8d 0900 0000 0000 1011 1213 1415  ..,.............
	0x0040:  1617 1819 1a1b 1c1d 1e1f 2021 2223 2425  ...........!"#$%
	0x0050:  2627 2829 2a2b 2c2d 2e2f 3031 3233 3435  &'()*+,-./012345
	0x0060:  3637                                     67
2024-11-10 18:15:12.626014 IP localhost > localhost: ICMP echo reply, id 20512, seq 50, length 64
	0x0000:  0000 0000 0000 0000 0000 0000 0800 4500  ..............E.
	0x0010:  0054 c315 0000 4001 b991 7f00 0001 7f00  .T....@.........
	0x0020:  0001 0000 09a8 5020 0032 803e 3167 0000  ......P..2.>1g..
	0x0030:  0000 2c8d 0900 0000 0000 1011 1213 1415  ..,.............
	0x0040:  1617 1819 1a1b 1c1d 1e1f 2021 2223 2425  ...........!"#$%
	0x0050:  2627 2829 2a2b 2c2d 2e2f 3031 3233 3435  &'()*+,-./012345
	0x0060:  3637                                     67
2024-11-10 18:15:13.645817 IP localhost > localhost: ICMP echo request, id 20512, seq 51, length 64
	0x0000:  0000 0000 0000 0000 0000 0000 0800 4500  ..............E.
	0x0010:  0054 c3c0 4000 4001 78e6 7f00 0001 7f00  .T..@.@.x.......
	0x0020:  0001 0800 ad59 5020 0033 813e 3167 0000  .....YP..3.>1g..
	0x0030:  0000 7fda 0900 0000 0000 1011 1213 1415  ................
	0x0040:  1617 1819 1a1b 1c1d 1e1f 2021 2223 2425  ...........!"#$%
	0x0050:  2627 2829 2a2b 2c2d 2e2f 3031 3233 3435  &'()*+,-./012345
	0x0060:  3637                                     67
2024-11-10 18:15:13.645842 IP localhost > localhost: ICMP echo reply, id 20512, seq 51, length 64
	0x0000:  0000 0000 0000 0000 0000 0000 0800 4500  ..............E.
	0x0010:  0054 c3c1 0000 4001 b8e5 7f00 0001 7f00  .T....@.........
	0x0020:  0001 0000 b559 5020 0033 813e 3167 0000  .....YP..3.>1g..
	0x0030:  0000 7fda 0900 0000 0000 1011 1213 1415  ................
	0x0040:  1617 1819 1a1b 1c1d 1e1f 2021 2223 2425  ...........!"#$%
	0x0050:  2627 2829 2a2b 2c2d 2e2f 3031 3233 3435  &'()*+,-./012345
	0x0060:  3637                                     67
2024-11-10 18:15:14.674802 IP localhost > localhost: ICMP echo request, id 20512, seq 52, length 64
	0x0000:  0000 0000 0000 0000 0000 0000 0800 4500  ..............E.
	0x0010:  0054 c45d 4000 4001 7849 7f00 0001 7f00  .T.]@.@.xI......
	0x0020:  0001 0800 64e7 5020 0034 823e 3167 0000  ....d.P..4.>1g..
	0x0030:  0000 c64b 0a00 0000 0000 1011 1213 1415  ...K............
	0x0040:  1617 1819 1a1b 1c1d 1e1f 2021 2223 2425  ...........!"#$%
	0x0050:  2627 2829 2a2b 2c2d 2e2f 3031 3233 3435  &'()*+,-./012345
	0x0060:  3637                                     67
2024-11-10 18:15:14.674821 IP localhost > localhost: ICMP echo reply, id 20512, seq 52, length 64
	0x0000:  0000 0000 0000 0000 0000 0000 0800 4500  ..............E.
	0x0010:  0054 c45e 0000 4001 b848 7f00 0001 7f00  .T.^..@..H......
	0x0020:  0001 0000 6ce7 5020 0034 823e 3167 0000  ....l.P..4.>1g..
	0x0030:  0000 c64b 0a00 0000 0000 1011 1213 1415  ...K............
	0x0040:  1617 1819 1a1b 1c1d 1e1f 2021 2223 2425  ...........!"#$%
	0x0050:  2627 2829 2a2b 2c2d 2e2f 3031 3233 3435  &'()*+,-./012345
	0x0060:  3637                                     67
2024-11-10 18:15:15.704805 IP localhost > localhost: ICMP echo request, id 20512, seq 53, length 64
	0x0000:  0000 0000 0000 0000 0000 0000 0800 4500  ..............E.
	0x0010:  0054 c55a 4000 4001 774c 7f00 0001 7f00  .T.Z@.@.wL......
	0x0020:  0001 0800 4171 5020 0035 833e 3167 0000  ....AqP..5.>1g..
	0x0030:  0000 e8c0 0a00 0000 0000 1011 1213 1415  ................
	0x0040:  1617 1819 1a1b 1c1d 1e1f 2021 2223 2425  ...........!"#$%
	0x0050:  2627 2829 2a2b 2c2d 2e2f 3031 3233 3435  &'()*+,-./012345
	0x0060:  3637                                     67
2024-11-10 18:15:15.704827 IP localhost > localhost: ICMP echo reply, id 20512, seq 53, length 64
	0x0000:  0000 0000 0000 0000 0000 0000 0800 4500  ..............E.
	0x0010:  0054 c55b 0000 4001 b74b 7f00 0001 7f00  .T.[..@..K......
	0x0020:  0001 0000 4971 5020 0035 833e 3167 0000  ....IqP..5.>1g..
	0x0030:  0000 e8c0 0a00 0000 0000 1011 1213 1415  ................
	0x0040:  1617 1819 1a1b 1c1d 1e1f 2021 2223 2425  ...........!"#$%
	0x0050:  2627 2829 2a2b 2c2d 2e2f 3031 3233 3435  &'()*+,-./012345
	0x0060:  3637                                     67
2024-11-10 18:15:16.721765 IP localhost > localhost: ICMP echo request, id 20512, seq 54, length 64
	0x0000:  0000 0000 0000 0000 0000 0000 0800 4500  ..............E.
	0x0010:  0054 c656 4000 4001 7650 7f00 0001 7f00  .T.V@.@.vP......
	0x0020:  0001 0800 112e 5020 0036 843e 3167 0000  ......P..6.>1g..
	0x0030:  0000 1703 0b00 0000 0000 1011 1213 1415  ................
	0x0040:  1617 1819 1a1b 1c1d 1e1f 2021 2223 2425  ...........!"#$%
	0x0050:  2627 2829 2a2b 2c2d 2e2f 3031 3233 3435  &'()*+,-./012345
	0x0060:  3637                                     67
2024-11-10 18:15:16.721781 IP localhost > localhost: ICMP echo reply, id 20512, seq 54, length 64
	0x0000:  0000 0000 0000 0000 0000 0000 0800 4500  ..............E.
	0x0010:  0054 c657 0000 4001 b64f 7f00 0001 7f00  .T.W..@..O......
	0x0020:  0001 0000 192e 5020 0036 843e 3167 0000  ......P..6.>1g..
	0x0030:  0000 1703 0b00 0000 0000 1011 1213 1415  ................
	0x0040:  1617 1819 1a1b 1c1d 1e1f 2021 2223 2425  ...........!"#$%
	0x0050:  2627 2829 2a2b 2c2d 2e2f 3031 3233 3435  &'()*+,-./012345
	0x0060:  3637                                     67
2024-11-10 18:15:17.745695 IP localhost > localhost: ICMP echo request, id 20512, seq 55, length 64
	0x0000:  0000 0000 0000 0000 0000 0000 0800 4500  ..............E.
	0x0010:  0054 c725 4000 4001 7581 7f00 0001 7f00  .T.%@.@.u.......
	0x0020:  0001 0800 75cf 5020 0037 853e 3167 0000  ....u.P..7.>1g..
	0x0030:  0000 b160 0b00 0000 0000 1011 1213 1415  ...`............
	0x0040:  1617 1819 1a1b 1c1d 1e1f 2021 2223 2425  ...........!"#$%
	0x0050:  2627 2829 2a2b 2c2d 2e2f 3031 3233 3435  &'()*+,-./012345
	0x0060:  3637                                     67
2024-11-10 18:15:17.745711 IP localhost > localhost: ICMP echo reply, id 20512, seq 55, length 64
	0x0000:  0000 0000 0000 0000 0000 0000 0800 4500  ..............E.
	0x0010:  0054 c726 0000 4001 b580 7f00 0001 7f00  .T.&..@.........
	0x0020:  0001 0000 7dcf 5020 0037 853e 3167 0000  ....}.P..7.>1g..
	0x0030:  0000 b160 0b00 0000 0000 1011 1213 1415  ...`............
	0x0040:  1617 1819 1a1b 1c1d 1e1f 2021 2223 2425  ...........!"#$%
	0x0050:  2627 2829 2a2b 2c2d 2e2f 3031 3233 3435  &'()*+,-./012345
	0x0060:  3637                                     67
2024-11-10 18:15:18.795569 IP localhost > localhost: ICMP echo request, id 20512, seq 56, length 64
	0x0000:  0000 0000 0000 0000 0000 0000 0800 4500  ..............E.
	0x0010:  0054 c80e 4000 4001 7498 7f00 0001 7f00  .T..@.@.t.......
	0x0020:  0001 0800 a40b 5020 0038 863e 3167 0000  ......P..8.>1g..
	0x0030:  0000 8123 0c00 0000 0000 1011 1213 1415  ...#............
	0x0040:  1617 1819 1a1b 1c1d 1e1f 2021 2223 2425  ...........!"#$%
	0x0050:  2627 2829 2a2b 2c2d 2e2f 3031 3233 3435  &'()*+,-./012345
	0x0060:  3637                                     67
2024-11-10 18:15:18.795585 IP localhost > localhost: ICMP echo reply, id 20512, seq 56, length 64
	0x0000:  0000 0000 0000 0000 0000 0000 0800 4500  ..............E.
	0x0010:  0054 c80f 0000 4001 b497 7f00 0001 7f00  .T....@.........
	0x0020:  0001 0000 ac0b 5020 0038 863e 3167 0000  ......P..8.>1g..
	0x0030:  0000 8123 0c00 0000 0000 1011 1213 1415  ...#............
	0x0040:  1617 1819 1a1b 1c1d 1e1f 2021 2223 2425  ...........!"#$%
	0x0050:  2627 2829 2a2b 2c2d 2e2f 3031 3233 3435  &'()*+,-./012345
	0x0060:  3637                                     67
2024-11-10 18:15:19.838158 IP localhost > localhost: ICMP echo request, id 20512, seq 57, length 64
	0x0000:  0000 0000 0000 0000 0000 0000 0800 4500  ..............E.
	0x0010:  0054 c844 4000 4001 7462 7f00 0001 7f00  .T.D@.@.tb......
	0x0020:  0001 0800 4964 5020 0039 873e 3167 0000  ....IdP..9.>1g..
	0x0030:  0000 dac9 0c00 0000 0000 1011 1213 1415  ................
	0x0040:  1617 1819 1a1b 1c1d 1e1f 2021 2223 2425  ...........!"#$%
	0x0050:  2627 2829 2a2b 2c2d 2e2f 3031 3233 3435  &'()*+,-./012345
	0x0060:  3637                                     67
2024-11-10 18:15:19.838178 IP localhost > localhost: ICMP echo reply, id 20512, seq 57, length 64
	0x0000:  0000 0000 0000 0000 0000 0000 0800 4500  ..............E.
	0x0010:  0054 c845 0000 4001 b461 7f00 0001 7f00  .T.E..@..a......
	0x0020:  0001 0000 5164 5020 0039 873e 3167 0000  ....QdP..9.>1g..
	0x0030:  0000 dac9 0c00 0000 0000 1011 1213 1415  ................
	0x0040:  1617 1819 1a1b 1c1d 1e1f 2021 2223 2425  ...........!"#$%
	0x0050:  2627 2829 2a2b 2c2d 2e2f 3031 3233 3435  &'()*+,-./012345
	0x0060:  3637                                     67
2024-11-10 18:15:20.867261 IP localhost > localhost: ICMP echo request, id 20512, seq 58, length 64
	0x0000:  0000 0000 0000 0000 0000 0000 0800 4500  ..............E.
	0x0010:  0054 c930 4000 4001 7376 7f00 0001 7f00  .T.0@.@.sv......
	0x0020:  0001 0800 8bf1 5020 003a 883e 3167 0000  ......P..:.>1g..
	0x0030:  0000 963b 0d00 0000 0000 1011 1213 1415  ...;............
	0x0040:  1617 1819 1a1b 1c1d 1e1f 2021 2223 2425  ...........!"#$%
	0x0050:  2627 2829 2a2b 2c2d 2e2f 3031 3233 3435  &'()*+,-./012345
	0x0060:  3637                                     67
2024-11-10 18:15:20.867274 IP localhost > localhost: ICMP echo reply, id 20512, seq 58, length 64
	0x0000:  0000 0000 0000 0000 0000 0000 0800 4500  ..............E.
	0x0010:  0054 c931 0000 4001 b375 7f00 0001 7f00  .T.1..@..u......
	0x0020:  0001 0000 93f1 5020 003a 883e 3167 0000  ......P..:.>1g..
	0x0030:  0000 963b 0d00 0000 0000 1011 1213 1415  ...;............
	0x0040:  1617 1819 1a1b 1c1d 1e1f 2021 2223 2425  ...........!"#$%
	0x0050:  2627 2829 2a2b 2c2d 2e2f 3031 3233 3435  &'()*+,-./012345
	0x0060:  3637                                     67
2024-11-10 18:15:21.870757 IP localhost > localhost: ICMP echo request, id 20512, seq 59, length 64
	0x0000:  0000 0000 0000 0000 0000 0000 0800 4500  ..............E.
	0x0010:  0054 c9b0 4000 4001 72f6 7f00 0001 7f00  .T..@.@.r.......
	0x0020:  0001 0800 dae2 5020 003b 893e 3167 0000  ......P..;.>1g..
	0x0030:  0000 4649 0d00 0000 0000 1011 1213 1415  ..FI............
	0x0040:  1617 1819 1a1b 1c1d 1e1f 2021 2223 2425  ...........!"#$%
	0x0050:  2627 2829 2a2b 2c2d 2e2f 3031 3233 3435  &'()*+,-./012345
	0x0060:  3637                                     67
2024-11-10 18:15:21.870775 IP localhost > localhost: ICMP echo reply, id 20512, seq 59, length 64
	0x0000:  0000 0000 0000 0000 0000 0000 0800 4500  ..............E.
	0x0010:  0054 c9b1 0000 4001 b2f5 7f00 0001 7f00  .T....@.........
	0x0020:  0001 0000 e2e2 5020 003b 893e 3167 0000  ......P..;.>1g..
	0x0030:  0000 4649 0d00 0000 0000 1011 1213 1415  ..FI............
	0x0040:  1617 1819 1a1b 1c1d 1e1f 2021 2223 2425  ...........!"#$%
	0x0050:  2627 2829 2a2b 2c2d 2e2f 3031 3233 3435  &'()*+,-./012345
	0x0060:  3637                                     67
2024-11-10 18:15:22.898198 IP localhost > localhost: ICMP echo request, id 20512, seq 60, length 64
	0x0000:  0000 0000 0000 0000 0000 0000 0800 4500  ..............E.
	0x0010:  0054 c9d4 4000 4001 72d2 7f00 0001 7f00  .T..@.@.r.......
	0x0020:  0001 0800 e776 5020 003c 8a3e 3167 0000  .....vP..<.>1g..
	0x0030:  0000 38b4 0d00 0000 0000 1011 1213 1415  ..8.............
	0x0040:  1617 1819 1a1b 1c1d 1e1f 2021 2223 2425  ...........!"#$%
	0x0050:  2627 2829 2a2b 2c2d 2e2f 3031 3233 3435  &'()*+,-./012345
	0x0060:  3637                                     67
2024-11-10 18:15:22.898215 IP localhost > localhost: ICMP echo reply, id 20512, seq 60, length 64
	0x0000:  0000 0000 0000 0000 0000 0000 0800 4500  ..............E.
	0x0010:  0054 c9d5 0000 4001 b2d1 7f00 0001 7f00  .T....@.........
	0x0020:  0001 0000 ef76 5020 003c 8a3e 3167 0000  .....vP..<.>1g..
	0x0030:  0000 38b4 0d00 0000 0000 1011 1213 1415  ..8.............
	0x0040:  1617 1819 1a1b 1c1d 1e1f 2021 2223 2425  ...........!"#$%
	0x0050:  2627 2829 2a2b 2c2d 2e2f 3031 3233 3435  &'()*+,-./012345
	0x0060:  3637                                     67
2024-11-10 18:15:23.925411 IP localhost > localhost: ICMP echo request, id 20512, seq 61, length 64
	0x0000:  0000 0000 0000 0000 0000 0000 0800 4500  ..............E.
	0x0010:  0054 cac4 4000 4001 71e2 7f00 0001 7f00  .T..@.@.q.......
	0x0020:  0001 0800 9e0b 5020 003d 8b3e 3167 0000  ......P..=.>1g..
	0x0030:  0000 801e 0e00 0000 0000 1011 1213 1415  ................
	0x0040:  1617 1819 1a1b 1c1d 1e1f 2021 2223 2425  ...........!"#$%
	0x0050:  2627 2829 2a2b 2c2d 2e2f 3031 3233 3435  &'()*+,-./012345
	0x0060:  3637                                     67
2024-11-10 18:15:23.925494 IP localhost > localhost: ICMP echo reply, id 20512, seq 61, length 64
	0x0000:  0000 0000 0000 0000 0000 0000 0800 4500  ..............E.
	0x0010:  0054 cac5 0000 4001 b1e1 7f00 0001 7f00  .T....@.........
	0x0020:  0001 0000 a60b 5020 003d 8b3e 3167 0000  ......P..=.>1g..
	0x0030:  0000 801e 0e00 0000 0000 1011 1213 1415  ................
	0x0040:  1617 1819 1a1b 1c1d 1e1f 2021 2223 2425  ...........!"#$%
	0x0050:  2627 2829 2a2b 2c2d 2e2f 3031 3233 3435  &'()*+,-./012345
	0x0060:  3637                                     67
2024-11-10 18:15:24.952230 IP localhost > localhost: ICMP echo request, id 20512, seq 62, length 64
	0x0000:  0000 0000 0000 0000 0000 0000 0800 4500  ..............E.
	0x0010:  0054 cb5a 4000 4001 714c 7f00 0001 7f00  .T.Z@.@.qL......
	0x0020:  0001 0800 aca1 5020 003e 8c3e 3167 0000  ......P..>.>1g..
	0x0030:  0000 7087 0e00 0000 0000 1011 1213 1415  ..p.............
	0x0040:  1617 1819 1a1b 1c1d 1e1f 2021 2223 2425  ...........!"#$%
	0x0050:  2627 2829 2a2b 2c2d 2e2f 3031 3233 3435  &'()*+,-./012345
	0x0060:  3637                                     67
2024-11-10 18:15:24.952253 IP localhost > localhost: ICMP echo reply, id 20512, seq 62, length 64
	0x0000:  0000 0000 0000 0000 0000 0000 0800 4500  ..............E.
	0x0010:  0054 cb5b 0000 4001 b14b 7f00 0001 7f00  .T.[..@..K......
	0x0020:  0001 0000 b4a1 5020 003e 8c3e 3167 0000  ......P..>.>1g..
	0x0030:  0000 7087 0e00 0000 0000 1011 1213 1415  ..p.............
	0x0040:  1617 1819 1a1b 1c1d 1e1f 2021 2223 2425  ...........!"#$%
	0x0050:  2627 2829 2a2b 2c2d 2e2f 3031 3233 3435  &'()*+,-./012345
	0x0060:  3637                                     67
2024-11-10 18:15:25.969849 IP localhost > localhost: ICMP echo request, id 20512, seq 63, length 64
	0x0000:  0000 0000 0000 0000 0000 0000 0800 4500  ..............E.
	0x0010:  0054 cb83 4000 4001 7123 7f00 0001 7f00  .T..@.@.q#......
	0x0020:  0001 0800 c05b 5020 003f 8d3e 3167 0000  .....[P..?.>1g..
	0x0030:  0000 5bcc 0e00 0000 0000 1011 1213 1415  ..[.............
	0x0040:  1617 1819 1a1b 1c1d 1e1f 2021 2223 2425  ...........!"#$%
	0x0050:  2627 2829 2a2b 2c2d 2e2f 3031 3233 3435  &'()*+,-./012345
	0x0060:  3637                                     67
2024-11-10 18:15:25.969861 IP localhost > localhost: ICMP echo reply, id 20512, seq 63, length 64
	0x0000:  0000 0000 0000 0000 0000 0000 0800 4500  ..............E.
	0x0010:  0054 cb84 0000 4001 b122 7f00 0001 7f00  .T....@.."......
	0x0020:  0001 0000 c85b 5020 003f 8d3e 3167 0000  .....[P..?.>1g..
	0x0030:  0000 5bcc 0e00 0000 0000 1011 1213 1415  ..[.............
	0x0040:  1617 1819 1a1b 1c1d 1e1f 2021 2223 2425  ...........!"#$%
	0x0050:  2627 2829 2a2b 2c2d 2e2f 3031 3233 3435  &'()*+,-./012345
	0x0060:  3637                                     67
2024-11-10 18:15:26.994775 IP localhost > localhost: ICMP echo request, id 20512, seq 64, length 64
	0x0000:  0000 0000 0000 0000 0000 0000 0800 4500  ..............E.
	0x0010:  0054 cb8c 4000 4001 711a 7f00 0001 7f00  .T..@.@.q.......
	0x0020:  0001 0800 74f9 5020 0040 8e3e 3167 0000  ....t.P..@.>1g..
	0x0030:  0000 a52d 0f00 0000 0000 1011 1213 1415  ...-............
	0x0040:  1617 1819 1a1b 1c1d 1e1f 2021 2223 2425  ...........!"#$%
	0x0050:  2627 2829 2a2b 2c2d 2e2f 3031 3233 3435  &'()*+,-./012345
	0x0060:  3637                                     67
2024-11-10 18:15:26.994792 IP localhost > localhost: ICMP echo reply, id 20512, seq 64, length 64
	0x0000:  0000 0000 0000 0000 0000 0000 0800 4500  ..............E.
	0x0010:  0054 cb8d 0000 4001 b119 7f00 0001 7f00  .T....@.........
	0x0020:  0001 0000 7cf9 5020 0040 8e3e 3167 0000  ....|.P..@.>1g..
	0x0030:  0000 a52d 0f00 0000 0000 1011 1213 1415  ...-............
	0x0040:  1617 1819 1a1b 1c1d 1e1f 2021 2223 2425  ...........!"#$%
	0x0050:  2627 2829 2a2b 2c2d 2e2f 3031 3233 3435  &'()*+,-./012345
	0x0060:  3637                                     67
2024-11-10 18:15:28.015573 IP localhost > localhost: ICMP echo request, id 20512, seq 65, length 64
	0x0000:  0000 0000 0000 0000 0000 0000 0800 4500  ..............E.
	0x0010:  0054 cc07 4000 4001 709f 7f00 0001 7f00  .T..@.@.p.......
	0x0020:  0001 0800 78e9 5020 0041 903e 3167 0000  ....x.P..A.>1g..
	0x0030:  0000 ae3c 0000 0000 0000 1011 1213 1415  ...<............
	0x0040:  1617 1819 1a1b 1c1d 1e1f 2021 2223 2425  ...........!"#$%
	0x0050:  2627 2829 2a2b 2c2d 2e2f 3031 3233 3435  &'()*+,-./012345
	0x0060:  3637                                     67
2024-11-10 18:15:28.015591 IP localhost > localhost: ICMP echo reply, id 20512, seq 65, length 64
	0x0000:  0000 0000 0000 0000 0000 0000 0800 4500  ..............E.
	0x0010:  0054 cc08 0000 4001 b09e 7f00 0001 7f00  .T....@.........
	0x0020:  0001 0000 80e9 5020 0041 903e 3167 0000  ......P..A.>1g..
	0x0030:  0000 ae3c 0000 0000 0000 1011 1213 1415  ...<............
	0x0040:  1617 1819 1a1b 1c1d 1e1f 2021 2223 2425  ...........!"#$%
	0x0050:  2627 2829 2a2b 2c2d 2e2f 3031 3233 3435  &'()*+,-./012345
	0x0060:  3637                                     67
2024-11-10 18:15:29.039168 IP localhost > localhost: ICMP echo request, id 20512, seq 66, length 64
	0x0000:  0000 0000 0000 0000 0000 0000 0800 4500  ..............E.
	0x0010:  0054 cc6c 4000 4001 703a 7f00 0001 7f00  .T.l@.@.p:......
	0x0020:  0001 0800 7c8c 5020 0042 913e 3167 0000  ....|.P..B.>1g..
	0x0030:  0000 a998 0000 0000 0000 1011 1213 1415  ................
	0x0040:  1617 1819 1a1b 1c1d 1e1f 2021 2223 2425  ...........!"#$%
	0x0050:  2627 2829 2a2b 2c2d 2e2f 3031 3233 3435  &'()*+,-./012345
	0x0060:  3637                                     67
2024-11-10 18:15:29.039188 IP localhost > localhost: ICMP echo reply, id 20512, seq 66, length 64
	0x0000:  0000 0000 0000 0000 0000 0000 0800 4500  ..............E.
	0x0010:  0054 cc6d 0000 4001 b039 7f00 0001 7f00  .T.m..@..9......
	0x0020:  0001 0000 848c 5020 0042 913e 3167 0000  ......P..B.>1g..
	0x0030:  0000 a998 0000 0000 0000 1011 1213 1415  ................
	0x0040:  1617 1819 1a1b 1c1d 1e1f 2021 2223 2425  ...........!"#$%
	0x0050:  2627 2829 2a2b 2c2d 2e2f 3031 3233 3435  &'()*+,-./012345
	0x0060:  3637                                     67
2024-11-10 18:15:30.071163 IP localhost > localhost: ICMP echo request, id 20512, seq 67, length 64
	0x0000:  0000 0000 0000 0000 0000 0000 0800 4500  ..............E.
	0x0010:  0054 cd16 4000 4001 6f90 7f00 0001 7f00  .T..@.@.o.......
	0x0020:  0001 0800 580e 5020 0043 923e 3167 0000  ....X.P..C.>1g..
	0x0030:  0000 cc15 0100 0000 0000 1011 1213 1415  ................
	0x0040:  1617 1819 1a1b 1c1d 1e1f 2021 2223 2425  ...........!"#$%
	0x0050:  2627 2829 2a2b 2c2d 2e2f 3031 3233 3435  &'()*+,-./012345
	0x0060:  3637                                     67
2024-11-10 18:15:30.071181 IP localhost > localhost: ICMP echo reply, id 20512, seq 67, length 64
	0x0000:  0000 0000 0000 0000 0000 0000 0800 4500  ..............E.
	0x0010:  0054 cd17 0000 4001 af8f 7f00 0001 7f00  .T....@.........
	0x0020:  0001 0000 600e 5020 0043 923e 3167 0000  ....`.P..C.>1g..
	0x0030:  0000 cc15 0100 0000 0000 1011 1213 1415  ................
	0x0040:  1617 1819 1a1b 1c1d 1e1f 2021 2223 2425  ...........!"#$%
	0x0050:  2627 2829 2a2b 2c2d 2e2f 3031 3233 3435  &'()*+,-./012345
	0x0060:  3637                                     67
2024-11-10 18:15:31.086061 IP localhost > localhost: ICMP echo request, id 20512, seq 68, length 64
	0x0000:  0000 0000 0000 0000 0000 0000 0800 4500  ..............E.
	0x0010:  0054 cdde 4000 4001 6ec8 7f00 0001 7f00  .T..@.@.n.......
	0x0020:  0001 0800 1cd3 5020 0044 933e 3167 0000  ......P..D.>1g..
	0x0030:  0000 0650 0100 0000 0000 1011 1213 1415  ...P............
	0x0040:  1617 1819 1a1b 1c1d 1e1f 2021 2223 2425  ...........!"#$%
	0x0050:  2627 2829 2a2b 2c2d 2e2f 3031 3233 3435  &'()*+,-./012345
	0x0060:  3637                                     67
2024-11-10 18:15:31.086074 IP localhost > localhost: ICMP echo reply, id 20512, seq 68, length 64
	0x0000:  0000 0000 0000 0000 0000 0000 0800 4500  ..............E.
	0x0010:  0054 cddf 0000 4001 aec7 7f00 0001 7f00  .T....@.........
	0x0020:  0001 0000 24d3 5020 0044 933e 3167 0000  ....$.P..D.>1g..
	0x0030:  0000 0650 0100 0000 0000 1011 1213 1415  ...P............
	0x0040:  1617 1819 1a1b 1c1d 1e1f 2021 2223 2425  ...........!"#$%
	0x0050:  2627 2829 2a2b 2c2d 2e2f 3031 3233 3435  &'()*+,-./012345
	0x0060:  3637                                     67
2024-11-10 18:15:32.131892 IP localhost > localhost: ICMP echo request, id 20512, seq 69, length 64
	0x0000:  0000 0000 0000 0000 0000 0000 0800 4500  ..............E.
	0x0010:  0054 ce01 4000 4001 6ea5 7f00 0001 7f00  .T..@.@.n.......
	0x0020:  0001 0800 261f 5020 0045 943e 3167 0000  ....&.P..E.>1g..
	0x0030:  0000 fb02 0200 0000 0000 1011 1213 1415  ................
	0x0040:  1617 1819 1a1b 1c1d 1e1f 2021 2223 2425  ...........!"#$%
	0x0050:  2627 2829 2a2b 2c2d 2e2f 3031 3233 3435  &'()*+,-./012345
	0x0060:  3637                                     67
2024-11-10 18:15:32.131912 IP localhost > localhost: ICMP echo reply, id 20512, seq 69, length 64
	0x0000:  0000 0000 0000 0000 0000 0000 0800 4500  ..............E.
	0x0010:  0054 ce02 0000 4001 aea4 7f00 0001 7f00  .T....@.........
	0x0020:  0001 0000 2e1f 5020 0045 943e 3167 0000  ......P..E.>1g..
	0x0030:  0000 fb02 0200 0000 0000 1011 1213 1415  ................
	0x0040:  1617 1819 1a1b 1c1d 1e1f 2021 2223 2425  ...........!"#$%
	0x0050:  2627 2829 2a2b 2c2d 2e2f 3031 3233 3435  &'()*+,-./012345
	0x0060:  3637                                     67
2024-11-10 18:15:33.154026 IP localhost > localhost: ICMP echo request, id 20512, seq 70, length 64
	0x0000:  0000 0000 0000 0000 0000 0000 0800 4500  ..............E.
	0x0010:  0054 ceb2 4000 4001 6df4 7f00 0001 7f00  .T..@.@.m.......
	0x0020:  0001 0800 acc7 5020 0046 953e 3167 0000  ......P..F.>1g..
	0x0030:  0000 7359 0200 0000 0000 1011 1213 1415  ..sY............
	0x0040:  1617 1819 1a1b 1c1d 1e1f 2021 2223 2425  ...........!"#$%
	0x0050:  2627 2829 2a2b 2c2d 2e2f 3031 3233 3435  &'()*+,-./012345
	0x0060:  3637                                     67
2024-11-10 18:15:33.154043 IP localhost > localhost: ICMP echo reply, id 20512, seq 70, length 64
	0x0000:  0000 0000 0000 0000 0000 0000 0800 4500  ..............E.
	0x0010:  0054 ceb3 0000 4001 adf3 7f00 0001 7f00  .T....@.........
	0x0020:  0001 0000 b4c7 5020 0046 953e 3167 0000  ......P..F.>1g..
	0x0030:  0000 7359 0200 0000 0000 1011 1213 1415  ..sY............
	0x0040:  1617 1819 1a1b 1c1d 1e1f 2021 2223 2425  ...........!"#$%
	0x0050:  2627 2829 2a2b 2c2d 2e2f 3031 3233 3435  &'()*+,-./012345
	0x0060:  3637                                     67
2024-11-10 18:15:34.170329 IP localhost > localhost: ICMP echo request, id 20512, seq 71, length 64
	0x0000:  0000 0000 0000 0000 0000 0000 0800 4500  ..............E.
	0x0010:  0054 cf76 4000 4001 6d30 7f00 0001 7f00  .T.v@.@.m0......
	0x0020:  0001 0800 ef86 5020 0047 963e 3167 0000  ......P..G.>1g..
	0x0030:  0000 2f99 0200 0000 0000 1011 1213 1415  ../.............
	0x0040:  1617 1819 1a1b 1c1d 1e1f 2021 2223 2425  ...........!"#$%
	0x0050:  2627 2829 2a2b 2c2d 2e2f 3031 3233 3435  &'()*+,-./012345
	0x0060:  3637                                     67
2024-11-10 18:15:34.170345 IP localhost > localhost: ICMP echo reply, id 20512, seq 71, length 64
	0x0000:  0000 0000 0000 0000 0000 0000 0800 4500  ..............E.
	0x0010:  0054 cf77 0000 4001 ad2f 7f00 0001 7f00  .T.w..@../......
	0x0020:  0001 0000 f786 5020 0047 963e 3167 0000  ......P..G.>1g..
	0x0030:  0000 2f99 0200 0000 0000 1011 1213 1415  ../.............
	0x0040:  1617 1819 1a1b 1c1d 1e1f 2021 2223 2425  ...........!"#$%
	0x0050:  2627 2829 2a2b 2c2d 2e2f 3031 3233 3435  &'()*+,-./012345
	0x0060:  3637                                     67
2024-11-10 18:15:35.197153 IP localhost > localhost: ICMP echo request, id 20512, seq 72, length 64
	0x0000:  0000 0000 0000 0000 0000 0000 0800 4500  ..............E.
	0x0010:  0054 cf7f 4000 4001 6d27 7f00 0001 7f00  .T..@.@.m'......
	0x0020:  0001 0800 361d 5020 0048 973e 3167 0000  ....6.P..H.>1g..
	0x0030:  0000 e701 0300 0000 0000 1011 1213 1415  ................
	0x0040:  1617 1819 1a1b 1c1d 1e1f 2021 2223 2425  ...........!"#$%
	0x0050:  2627 2829 2a2b 2c2d 2e2f 3031 3233 3435  &'()*+,-./012345
	0x0060:  3637                                     67
2024-11-10 18:15:35.197176 IP localhost > localhost: ICMP echo reply, id 20512, seq 72, length 64
	0x0000:  0000 0000 0000 0000 0000 0000 0800 4500  ..............E.
	0x0010:  0054 cf80 0000 4001 ad26 7f00 0001 7f00  .T....@..&......
	0x0020:  0001 0000 3e1d 5020 0048 973e 3167 0000  ....>.P..H.>1g..
	0x0030:  0000 e701 0300 0000 0000 1011 1213 1415  ................
	0x0040:  1617 1819 1a1b 1c1d 1e1f 2021 2223 2425  ...........!"#$%
	0x0050:  2627 2829 2a2b 2c2d 2e2f 3031 3233 3435  &'()*+,-./012345
	0x0060:  3637                                     67
2024-11-10 18:15:36.228300 IP localhost > localhost: ICMP echo request, id 20512, seq 73, length 64
	0x0000:  0000 0000 0000 0000 0000 0000 0800 4500  ..............E.
	0x0010:  0054 d059 4000 4001 6c4d 7f00 0001 7f00  .T.Y@.@.lM......
	0x0020:  0001 0800 85a2 5020 0049 983e 3167 0000  ......P..I.>1g..
	0x0030:  0000 967b 0300 0000 0000 1011 1213 1415  ...{............
	0x0040:  1617 1819 1a1b 1c1d 1e1f 2021 2223 2425  ...........!"#$%
	0x0050:  2627 2829 2a2b 2c2d 2e2f 3031 3233 3435  &'()*+,-./012345
	0x0060:  3637                                     67
2024-11-10 18:15:36.228320 IP localhost > localhost: ICMP echo reply, id 20512, seq 73, length 64
	0x0000:  0000 0000 0000 0000 0000 0000 0800 4500  ..............E.
	0x0010:  0054 d05a 0000 4001 ac4c 7f00 0001 7f00  .T.Z..@..L......
	0x0020:  0001 0000 8da2 5020 0049 983e 3167 0000  ......P..I.>1g..
	0x0030:  0000 967b 0300 0000 0000 1011 1213 1415  ...{............
	0x0040:  1617 1819 1a1b 1c1d 1e1f 2021 2223 2425  ...........!"#$%
	0x0050:  2627 2829 2a2b 2c2d 2e2f 3031 3233 3435  &'()*+,-./012345
	0x0060:  3637                                     67
2024-11-10 18:15:37.235559 IP localhost > localhost: ICMP echo request, id 20512, seq 74, length 64
	0x0000:  0000 0000 0000 0000 0000 0000 0800 4500  ..............E.
	0x0010:  0054 d08a 4000 4001 6c1c 7f00 0001 7f00  .T..@.@.l.......
	0x0020:  0001 0800 1b85 5020 004a 993e 3167 0000  ......P..J.>1g..
	0x0030:  0000 ff97 0300 0000 0000 1011 1213 1415  ................
	0x0040:  1617 1819 1a1b 1c1d 1e1f 2021 2223 2425  ...........!"#$%
	0x0050:  2627 2829 2a2b 2c2d 2e2f 3031 3233 3435  &'()*+,-./012345
	0x0060:  3637                                     67
2024-11-10 18:15:37.235575 IP localhost > localhost: ICMP echo reply, id 20512, seq 74, length 64
	0x0000:  0000 0000 0000 0000 0000 0000 0800 4500  ..............E.
	0x0010:  0054 d08b 0000 4001 ac1b 7f00 0001 7f00  .T....@.........
	0x0020:  0001 0000 2385 5020 004a 993e 3167 0000  ....#.P..J.>1g..
	0x0030:  0000 ff97 0300 0000 0000 1011 1213 1415  ................
	0x0040:  1617 1819 1a1b 1c1d 1e1f 2021 2223 2425  ...........!"#$%
	0x0050:  2627 2829 2a2b 2c2d 2e2f 3031 3233 3435  &'()*+,-./012345
	0x0060:  3637                                     67
2024-11-10 18:15:38.258380 IP localhost > localhost: ICMP echo request, id 20512, seq 75, length 64
	0x0000:  0000 0000 0000 0000 0000 0000 0800 4500  ..............E.
	0x0010:  0054 d0a9 4000 4001 6bfd 7f00 0001 7f00  .T..@.@.k.......
	0x0020:  0001 0800 092b 5020 004b 9a3e 3167 0000  .....+P..K.>1g..
	0x0030:  0000 10f1 0300 0000 0000 1011 1213 1415  ................
	0x0040:  1617 1819 1a1b 1c1d 1e1f 2021 2223 2425  ...........!"#$%
	0x0050:  2627 2829 2a2b 2c2d 2e2f 3031 3233 3435  &'()*+,-./012345
	0x0060:  3637                                     67
2024-11-10 18:15:38.258402 IP localhost > localhost: ICMP echo reply, id 20512, seq 75, length 64
	0x0000:  0000 0000 0000 0000 0000 0000 0800 4500  ..............E.
	0x0010:  0054 d0aa 0000 4001 abfc 7f00 0001 7f00  .T....@.........
	0x0020:  0001 0000 112b 5020 004b 9a3e 3167 0000  .....+P..K.>1g..
	0x0030:  0000 10f1 0300 0000 0000 1011 1213 1415  ................
	0x0040:  1617 1819 1a1b 1c1d 1e1f 2021 2223 2425  ...........!"#$%
	0x0050:  2627 2829 2a2b 2c2d 2e2f 3031 3233 3435  &'()*+,-./012345
	0x0060:  3637                                     67
2024-11-10 18:15:39.300088 IP localhost > localhost: ICMP echo request, id 20512, seq 76, length 64
	0x0000:  0000 0000 0000 0000 0000 0000 0800 4500  ..............E.
	0x0010:  0054 d120 4000 4001 6b86 7f00 0001 7f00  .T..@.@.k.......
	0x0020:  0001 0800 1387 5020 004c 9b3e 3167 0000  ......P..L.>1g..
	0x0030:  0000 0494 0400 0000 0000 1011 1213 1415  ................
	0x0040:  1617 1819 1a1b 1c1d 1e1f 2021 2223 2425  ...........!"#$%
	0x0050:  2627 2829 2a2b 2c2d 2e2f 3031 3233 3435  &'()*+,-./012345
	0x0060:  3637                                     67
2024-11-10 18:15:39.300110 IP localhost > localhost: ICMP echo reply, id 20512, seq 76, length 64
	0x0000:  0000 0000 0000 0000 0000 0000 0800 4500  ..............E.
	0x0010:  0054 d121 0000 4001 ab85 7f00 0001 7f00  .T.!..@.........
	0x0020:  0001 0000 1b87 5020 004c 9b3e 3167 0000  ......P..L.>1g..
	0x0030:  0000 0494 0400 0000 0000 1011 1213 1415  ................
	0x0040:  1617 1819 1a1b 1c1d 1e1f 2021 2223 2425  ...........!"#$%
	0x0050:  2627 2829 2a2b 2c2d 2e2f 3031 3233 3435  &'()*+,-./012345
	0x0060:  3637                                     67
2024-11-10 18:15:40.310828 IP localhost > localhost: ICMP echo request, id 20512, seq 77, length 64
	0x0000:  0000 0000 0000 0000 0000 0000 0800 4500  ..............E.
	0x0010:  0054 d1f9 4000 4001 6aad 7f00 0001 7f00  .T..@.@.j.......
	0x0020:  0001 0800 295c 5020 004d 9c3e 3167 0000  ....)\P..M.>1g..
	0x0030:  0000 edbd 0400 0000 0000 1011 1213 1415  ................
	0x0040:  1617 1819 1a1b 1c1d 1e1f 2021 2223 2425  ...........!"#$%
	0x0050:  2627 2829 2a2b 2c2d 2e2f 3031 3233 3435  &'()*+,-./012345
	0x0060:  3637                                     67
2024-11-10 18:15:40.310851 IP localhost > localhost: ICMP echo reply, id 20512, seq 77, length 64
	0x0000:  0000 0000 0000 0000 0000 0000 0800 4500  ..............E.
	0x0010:  0054 d1fa 0000 4001 aaac 7f00 0001 7f00  .T....@.........
	0x0020:  0001 0000 315c 5020 004d 9c3e 3167 0000  ....1\P..M.>1g..
	0x0030:  0000 edbd 0400 0000 0000 1011 1213 1415  ................
	0x0040:  1617 1819 1a1b 1c1d 1e1f 2021 2223 2425  ...........!"#$%
	0x0050:  2627 2829 2a2b 2c2d 2e2f 3031 3233 3435  &'()*+,-./012345
	0x0060:  3637                                     67
2024-11-10 18:15:41.325779 IP localhost > localhost: ICMP echo request, id 20512, seq 78, length 64
	0x0000:  0000 0000 0000 0000 0000 0000 0800 4500  ..............E.
	0x0010:  0054 d226 4000 4001 6a80 7f00 0001 7f00  .T.&@.@.j.......
	0x0020:  0001 0800 b220 5020 004e 9d3e 3167 0000  ......P..N.>1g..
	0x0030:  0000 63f8 0400 0000 0000 1011 1213 1415  ..c.............
	0x0040:  1617 1819 1a1b 1c1d 1e1f 2021 2223 2425  ...........!"#$%
	0x0050:  2627 2829 2a2b 2c2d 2e2f 3031 3233 3435  &'()*+,-./012345
	0x0060:  3637                                     67
2024-11-10 18:15:41.325795 IP localhost > localhost: ICMP echo reply, id 20512, seq 78, length 64
	0x0000:  0000 0000 0000 0000 0000 0000 0800 4500  ..............E.
	0x0010:  0054 d227 0000 4001 aa7f 7f00 0001 7f00  .T.'..@.........
	0x0020:  0001 0000 ba20 5020 004e 9d3e 3167 0000  ......P..N.>1g..
	0x0030:  0000 63f8 0400 0000 0000 1011 1213 1415  ..c.............
	0x0040:  1617 1819 1a1b 1c1d 1e1f 2021 2223 2425  ...........!"#$%
	0x0050:  2627 2829 2a2b 2c2d 2e2f 3031 3233 3435  &'()*+,-./012345
	0x0060:  3637                                     67
2024-11-10 18:15:42.350254 IP localhost > localhost: ICMP echo request, id 20512, seq 79, length 64
	0x0000:  0000 0000 0000 0000 0000 0000 0800 4500  ..............E.
	0x0010:  0054 d308 4000 4001 699e 7f00 0001 7f00  .T..@.@.i.......
	0x0020:  0001 0800 1ac0 5020 004f 9e3e 3167 0000  ......P..O.>1g..
	0x0030:  0000 f957 0500 0000 0000 1011 1213 1415  ...W............
	0x0040:  1617 1819 1a1b 1c1d 1e1f 2021 2223 2425  ...........!"#$%
	0x0050:  2627 2829 2a2b 2c2d 2e2f 3031 3233 3435  &'()*+,-./012345
	0x0060:  3637                                     67
2024-11-10 18:15:42.350271 IP localhost > localhost: ICMP echo reply, id 20512, seq 79, length 64
	0x0000:  0000 0000 0000 0000 0000 0000 0800 4500  ..............E.
	0x0010:  0054 d309 0000 4001 a99d 7f00 0001 7f00  .T....@.........
	0x0020:  0001 0000 22c0 5020 004f 9e3e 3167 0000  ....".P..O.>1g..
	0x0030:  0000 f957 0500 0000 0000 1011 1213 1415  ...W............
	0x0040:  1617 1819 1a1b 1c1d 1e1f 2021 2223 2425  ...........!"#$%
	0x0050:  2627 2829 2a2b 2c2d 2e2f 3031 3233 3435  &'()*+,-./012345
	0x0060:  3637                                     67
2024-11-10 18:15:43.380501 IP localhost > localhost: ICMP echo request, id 20512, seq 80, length 64
	0x0000:  0000 0000 0000 0000 0000 0000 0800 4500  ..............E.
	0x0010:  0054 d393 4000 4001 6913 7f00 0001 7f00  .T..@.@.i.......
	0x0020:  0001 0800 f048 5020 0050 9f3e 3167 0000  .....HP..P.>1g..
	0x0030:  0000 22ce 0500 0000 0000 1011 1213 1415  ..".............
	0x0040:  1617 1819 1a1b 1c1d 1e1f 2021 2223 2425  ...........!"#$%
	0x0050:  2627 2829 2a2b 2c2d 2e2f 3031 3233 3435  &'()*+,-./012345
	0x0060:  3637                                     67
2024-11-10 18:15:43.380518 IP localhost > localhost: ICMP echo reply, id 20512, seq 80, length 64
	0x0000:  0000 0000 0000 0000 0000 0000 0800 4500  ..............E.
	0x0010:  0054 d394 0000 4001 a912 7f00 0001 7f00  .T....@.........
	0x0020:  0001 0000 f848 5020 0050 9f3e 3167 0000  .....HP..P.>1g..
	0x0030:  0000 22ce 0500 0000 0000 1011 1213 1415  ..".............
	0x0040:  1617 1819 1a1b 1c1d 1e1f 2021 2223 2425  ...........!"#$%
	0x0050:  2627 2829 2a2b 2c2d 2e2f 3031 3233 3435  &'()*+,-./012345
	0x0060:  3637                                     67
2024-11-10 18:15:44.403620 IP localhost > localhost: ICMP echo request, id 20512, seq 81, length 64
	0x0000:  0000 0000 0000 0000 0000 0000 0800 4500  ..............E.
	0x0010:  0054 d3ee 4000 4001 68b8 7f00 0001 7f00  .T..@.@.h.......
	0x0020:  0001 0800 a0ed 5020 0051 a03e 3167 0000  ......P..Q.>1g..
	0x0030:  0000 7028 0600 0000 0000 1011 1213 1415  ..p(............
	0x0040:  1617 1819 1a1b 1c1d 1e1f 2021 2223 2425  ...........!"#$%
	0x0050:  2627 2829 2a2b 2c2d 2e2f 3031 3233 3435  &'()*+,-./012345
	0x0060:  3637                                     67
2024-11-10 18:15:44.403642 IP localhost > localhost: ICMP echo reply, id 20512, seq 81, length 64
	0x0000:  0000 0000 0000 0000 0000 0000 0800 4500  ..............E.
	0x0010:  0054 d3ef 0000 4001 a8b7 7f00 0001 7f00  .T....@.........
	0x0020:  0001 0000 a8ed 5020 0051 a03e 3167 0000  ......P..Q.>1g..
	0x0030:  0000 7028 0600 0000 0000 1011 1213 1415  ..p(............
	0x0040:  1617 1819 1a1b 1c1d 1e1f 2021 2223 2425  ...........!"#$%
	0x0050:  2627 2829 2a2b 2c2d 2e2f 3031 3233 3435  &'()*+,-./012345
	0x0060:  3637                                     67
2024-11-10 18:15:45.421731 IP localhost > localhost: ICMP echo request, id 20512, seq 82, length 64
	0x0000:  0000 0000 0000 0000 0000 0000 0800 4500  ..............E.
	0x0010:  0054 d44e 4000 4001 6858 7f00 0001 7f00  .T.N@.@.hX......
	0x0020:  0001 0800 dda5 5020 0052 a13e 3167 0000  ......P..R.>1g..
	0x0030:  0000 326f 0600 0000 0000 1011 1213 1415  ..2o............
	0x0040:  1617 1819 1a1b 1c1d 1e1f 2021 2223 2425  ...........!"#$%
	0x0050:  2627 2829 2a2b 2c2d 2e2f 3031 3233 3435  &'()*+,-./012345
	0x0060:  3637                                     67
2024-11-10 18:15:45.421751 IP localhost > localhost: ICMP echo reply, id 20512, seq 82, length 64
	0x0000:  0000 0000 0000 0000 0000 0000 0800 4500  ..............E.
	0x0010:  0054 d44f 0000 4001 a857 7f00 0001 7f00  .T.O..@..W......
	0x0020:  0001 0000 e5a5 5020 0052 a13e 3167 0000  ......P..R.>1g..
	0x0030:  0000 326f 0600 0000 0000 1011 1213 1415  ..2o............
	0x0040:  1617 1819 1a1b 1c1d 1e1f 2021 2223 2425  ...........!"#$%
	0x0050:  2627 2829 2a2b 2c2d 2e2f 3031 3233 3435  &'()*+,-./012345
	0x0060:  3637                                     67
2024-11-10 18:15:46.446744 IP localhost > localhost: ICMP echo request, id 20512, seq 83, length 64
	0x0000:  0000 0000 0000 0000 0000 0000 0800 4500  ..............E.
	0x0010:  0054 d470 4000 4001 6836 7f00 0001 7f00  .T.p@.@.h6......
	0x0020:  0001 0800 4a43 5020 0053 a23e 3167 0000  ....JCP..S.>1g..
	0x0030:  0000 c4d0 0600 0000 0000 1011 1213 1415  ................
	0x0040:  1617 1819 1a1b 1c1d 1e1f 2021 2223 2425  ...........!"#$%
	0x0050:  2627 2829 2a2b 2c2d 2e2f 3031 3233 3435  &'()*+,-./012345
	0x0060:  3637                                     67
2024-11-10 18:15:46.446760 IP localhost > localhost: ICMP echo reply, id 20512, seq 83, length 64
	0x0000:  0000 0000 0000 0000 0000 0000 0800 4500  ..............E.
	0x0010:  0054 d471 0000 4001 a835 7f00 0001 7f00  .T.q..@..5......
	0x0020:  0001 0000 5243 5020 0053 a23e 3167 0000  ....RCP..S.>1g..
	0x0030:  0000 c4d0 0600 0000 0000 1011 1213 1415  ................
	0x0040:  1617 1819 1a1b 1c1d 1e1f 2021 2223 2425  ...........!"#$%
	0x0050:  2627 2829 2a2b 2c2d 2e2f 3031 3233 3435  &'()*+,-./012345
	0x0060:  3637                                     67
2024-11-10 18:15:47.470544 IP localhost > localhost: ICMP echo request, id 20512, seq 84, length 64
	0x0000:  0000 0000 0000 0000 0000 0000 0800 4500  ..............E.
	0x0010:  0054 d47a 4000 4001 682c 7f00 0001 7f00  .T.z@.@.h,......
	0x0020:  0001 0800 32e5 5020 0054 a33e 3167 0000  ....2.P..T.>1g..
	0x0030:  0000 da2d 0700 0000 0000 1011 1213 1415  ...-............
	0x0040:  1617 1819 1a1b 1c1d 1e1f 2021 2223 2425  ...........!"#$%
	0x0050:  2627 2829 2a2b 2c2d 2e2f 3031 3233 3435  &'()*+,-./012345
	0x0060:  3637                                     67
2024-11-10 18:15:47.470566 IP localhost > localhost: ICMP echo reply, id 20512, seq 84, length 64
	0x0000:  0000 0000 0000 0000 0000 0000 0800 4500  ..............E.
	0x0010:  0054 d47b 0000 4001 a82b 7f00 0001 7f00  .T.{..@..+......
	0x0020:  0001 0000 3ae5 5020 0054 a33e 3167 0000  ....:.P..T.>1g..
	0x0030:  0000 da2d 0700 0000 0000 1011 1213 1415  ...-............
	0x0040:  1617 1819 1a1b 1c1d 1e1f 2021 2223 2425  ...........!"#$%
	0x0050:  2627 2829 2a2b 2c2d 2e2f 3031 3233 3435  &'()*+,-./012345
	0x0060:  3637                                     67
2024-11-10 18:15:48.494293 IP localhost > localhost: ICMP echo request, id 20512, seq 85, length 64
	0x0000:  0000 0000 0000 0000 0000 0000 0800 4500  ..............E.
	0x0010:  0054 d512 4000 4001 6794 7f00 0001 7f00  .T..@.@.g.......
	0x0020:  0001 0800 7187 5020 0055 a43e 3167 0000  ....q.P..U.>1g..
	0x0030:  0000 9a8a 0700 0000 0000 1011 1213 1415  ................
	0x0040:  1617 1819 1a1b 1c1d 1e1f 2021 2223 2425  ...........!"#$%
	0x0050:  2627 2829 2a2b 2c2d 2e2f 3031 3233 3435  &'()*+,-./012345
	0x0060:  3637                                     67
2024-11-10 18:15:48.494316 IP localhost > localhost: ICMP echo reply, id 20512, seq 85, length 64
	0x0000:  0000 0000 0000 0000 0000 0000 0800 4500  ..............E.
	0x0010:  0054 d513 0000 4001 a793 7f00 0001 7f00  .T....@.........
	0x0020:  0001 0000 7987 5020 0055 a43e 3167 0000  ....y.P..U.>1g..
	0x0030:  0000 9a8a 0700 0000 0000 1011 1213 1415  ................
	0x0040:  1617 1819 1a1b 1c1d 1e1f 2021 2223 2425  ...........!"#$%
	0x0050:  2627 2829 2a2b 2c2d 2e2f 3031 3233 3435  &'()*+,-./012345
	0x0060:  3637                                     67
2024-11-10 18:15:49.526594 IP localhost > localhost: ICMP echo request, id 20512, seq 86, length 64
	0x0000:  0000 0000 0000 0000 0000 0000 0800 4500  ..............E.
	0x0010:  0054 d5ad 4000 4001 66f9 7f00 0001 7f00  .T..@.@.f.......
	0x0020:  0001 0800 3d08 5020 0056 a53e 3167 0000  ....=.P..V.>1g..
	0x0030:  0000 cd08 0800 0000 0000 1011 1213 1415  ................
	0x0040:  1617 1819 1a1b 1c1d 1e1f 2021 2223 2425  ...........!"#$%
	0x0050:  2627 2829 2a2b 2c2d 2e2f 3031 3233 3435  &'()*+,-./012345
	0x0060:  3637                                     67
2024-11-10 18:15:49.526609 IP localhost > localhost: ICMP echo reply, id 20512, seq 86, length 64
	0x0000:  0000 0000 0000 0000 0000 0000 0800 4500  ..............E.
	0x0010:  0054 d5ae 0000 4001 a6f8 7f00 0001 7f00  .T....@.........
	0x0020:  0001 0000 4508 5020 0056 a53e 3167 0000  ....E.P..V.>1g..
	0x0030:  0000 cd08 0800 0000 0000 1011 1213 1415  ................
	0x0040:  1617 1819 1a1b 1c1d 1e1f 2021 2223 2425  ...........!"#$%
	0x0050:  2627 2829 2a2b 2c2d 2e2f 3031 3233 3435  &'()*+,-./012345
	0x0060:  3637                                     67
2024-11-10 18:15:50.552113 IP localhost > localhost: ICMP echo request, id 20512, seq 87, length 64
	0x0000:  0000 0000 0000 0000 0000 0000 0800 4500  ..............E.
	0x0010:  0054 d629 4000 4001 667d 7f00 0001 7f00  .T.)@.@.f}......
	0x0020:  0001 0800 84a3 5020 0057 a63e 3167 0000  ......P..W.>1g..
	0x0030:  0000 846c 0800 0000 0000 1011 1213 1415  ...l............
	0x0040:  1617 1819 1a1b 1c1d 1e1f 2021 2223 2425  ...........!"#$%
	0x0050:  2627 2829 2a2b 2c2d 2e2f 3031 3233 3435  &'()*+,-./012345
	0x0060:  3637                                     67
2024-11-10 18:15:50.552129 IP localhost > localhost: ICMP echo reply, id 20512, seq 87, length 64
	0x0000:  0000 0000 0000 0000 0000 0000 0800 4500  ..............E.
	0x0010:  0054 d62a 0000 4001 a67c 7f00 0001 7f00  .T.*..@..|......
	0x0020:  0001 0000 8ca3 5020 0057 a63e 3167 0000  ......P..W.>1g..
	0x0030:  0000 846c 0800 0000 0000 1011 1213 1415  ...l............
	0x0040:  1617 1819 1a1b 1c1d 1e1f 2021 2223 2425  ...........!"#$%
	0x0050:  2627 2829 2a2b 2c2d 2e2f 3031 3233 3435  &'()*+,-./012345
	0x0060:  3637                                     67
2024-11-10 18:15:51.570669 IP localhost > localhost: ICMP echo request, id 20512, seq 88, length 64
	0x0000:  0000 0000 0000 0000 0000 0000 0800 4500  ..............E.
	0x0010:  0054 d69f 4000 4001 6607 7f00 0001 7f00  .T..@.@.f.......
	0x0020:  0001 0800 095a 5020 0058 a73e 3167 0000  .....ZP..X.>1g..
	0x0030:  0000 feb4 0800 0000 0000 1011 1213 1415  ................
	0x0040:  1617 1819 1a1b 1c1d 1e1f 2021 2223 2425  ...........!"#$%
	0x0050:  2627 2829 2a2b 2c2d 2e2f 3031 3233 3435  &'()*+,-./012345
	0x0060:  3637                                     67
2024-11-10 18:15:51.570684 IP localhost > localhost: ICMP echo reply, id 20512, seq 88, length 64
	0x0000:  0000 0000 0000 0000 0000 0000 0800 4500  ..............E.
	0x0010:  0054 d6a0 0000 4001 a606 7f00 0001 7f00  .T....@.........
	0x0020:  0001 0000 115a 5020 0058 a73e 3167 0000  .....ZP..X.>1g..
	0x0030:  0000 feb4 0800 0000 0000 1011 1213 1415  ................
	0x0040:  1617 1819 1a1b 1c1d 1e1f 2021 2223 2425  ...........!"#$%
	0x0050:  2627 2829 2a2b 2c2d 2e2f 3031 3233 3435  &'()*+,-./012345
	0x0060:  3637                                     67
2024-11-10 18:15:52.599713 IP localhost > localhost: ICMP echo request, id 20512, seq 89, length 64
	0x0000:  0000 0000 0000 0000 0000 0000 0800 4500  ..............E.
	0x0010:  0054 d6bc 4000 4001 65ea 7f00 0001 7f00  .T..@.@.e.......
	0x0020:  0001 0800 b3e7 5020 0059 a83e 3167 0000  ......P..Y.>1g..
	0x0030:  0000 5226 0900 0000 0000 1011 1213 1415  ..R&............
	0x0040:  1617 1819 1a1b 1c1d 1e1f 2021 2223 2425  ...........!"#$%
	0x0050:  2627 2829 2a2b 2c2d 2e2f 3031 3233 3435  &'()*+,-./012345
	0x0060:  3637                                     67
2024-11-10 18:15:52.599729 IP localhost > localhost: ICMP echo reply, id 20512, seq 89, length 64
	0x0000:  0000 0000 0000 0000 0000 0000 0800 4500  ..............E.
	0x0010:  0054 d6bd 0000 4001 a5e9 7f00 0001 7f00  .T....@.........
	0x0020:  0001 0000 bbe7 5020 0059 a83e 3167 0000  ......P..Y.>1g..
	0x0030:  0000 5226 0900 0000 0000 1011 1213 1415  ..R&............
	0x0040:  1617 1819 1a1b 1c1d 1e1f 2021 2223 2425  ...........!"#$%
	0x0050:  2627 2829 2a2b 2c2d 2e2f 3031 3233 3435  &'()*+,-./012345
	0x0060:  3637                                     67
2024-11-10 18:15:53.628011 IP localhost > localhost: ICMP echo request, id 20512, seq 90, length 64
	0x0000:  0000 0000 0000 0000 0000 0000 0800 4500  ..............E.
	0x0010:  0054 d71f 4000 4001 6587 7f00 0001 7f00  .T..@.@.e.......
	0x0020:  0001 0800 0b78 5020 005a a93e 3167 0000  .....xP..Z.>1g..
	0x0030:  0000 f994 0900 0000 0000 1011 1213 1415  ................
	0x0040:  1617 1819 1a1b 1c1d 1e1f 2021 2223 2425  ...........!"#$%
	0x0050:  2627 2829 2a2b 2c2d 2e2f 3031 3233 3435  &'()*+,-./012345
	0x0060:  3637                                     67
2024-11-10 18:15:53.628027 IP localhost > localhost: ICMP echo reply, id 20512, seq 90, length 64
	0x0000:  0000 0000 0000 0000 0000 0000 0800 4500  ..............E.
	0x0010:  0054 d720 0000 4001 a586 7f00 0001 7f00  .T....@.........
	0x0020:  0001 0000 1378 5020 005a a93e 3167 0000  .....xP..Z.>1g..
	0x0030:  0000 f994 0900 0000 0000 1011 1213 1415  ................
	0x0040:  1617 1819 1a1b 1c1d 1e1f 2021 2223 2425  ...........!"#$%
	0x0050:  2627 2829 2a2b 2c2d 2e2f 3031 3233 3435  &'()*+,-./012345
	0x0060:  3637                                     67
2024-11-10 18:15:54.640571 IP localhost > localhost: ICMP echo request, id 20512, seq 91, length 64
	0x0000:  0000 0000 0000 0000 0000 0000 0800 4500  ..............E.
	0x0010:  0054 d80b 4000 4001 649b 7f00 0001 7f00  .T..@.@.d.......
	0x0020:  0001 0800 f545 5020 005b aa3e 3167 0000  .....EP..[.>1g..
	0x0030:  0000 0ec6 0900 0000 0000 1011 1213 1415  ................
	0x0040:  1617 1819 1a1b 1c1d 1e1f 2021 2223 2425  ...........!"#$%
	0x0050:  2627 2829 2a2b 2c2d 2e2f 3031 3233 3435  &'()*+,-./012345
	0x0060:  3637                                     67
2024-11-10 18:15:54.640586 IP localhost > localhost: ICMP echo reply, id 20512, seq 91, length 64
	0x0000:  0000 0000 0000 0000 0000 0000 0800 4500  ..............E.
	0x0010:  0054 d80c 0000 4001 a49a 7f00 0001 7f00  .T....@.........
	0x0020:  0001 0000 fd45 5020 005b aa3e 3167 0000  .....EP..[.>1g..
	0x0030:  0000 0ec6 0900 0000 0000 1011 1213 1415  ................
	0x0040:  1617 1819 1a1b 1c1d 1e1f 2021 2223 2425  ...........!"#$%
	0x0050:  2627 2829 2a2b 2c2d 2e2f 3031 3233 3435  &'()*+,-./012345
	0x0060:  3637                                     67
2024-11-10 18:15:55.670522 IP localhost > localhost: ICMP echo request, id 20512, seq 92, length 64
	0x0000:  0000 0000 0000 0000 0000 0000 0800 4500  ..............E.
	0x0010:  0054 d860 4000 4001 6446 7f00 0001 7f00  .T.`@.@.dF......
	0x0020:  0001 0800 f8cf 5020 005c ab3e 3167 0000  ......P..\.>1g..
	0x0030:  0000 093b 0a00 0000 0000 1011 1213 1415  ...;............
	0x0040:  1617 1819 1a1b 1c1d 1e1f 2021 2223 2425  ...........!"#$%
	0x0050:  2627 2829 2a2b 2c2d 2e2f 3031 3233 3435  &'()*+,-./012345
	0x0060:  3637                                     67
2024-11-10 18:15:55.670532 IP localhost > localhost: ICMP echo reply, id 20512, seq 92, length 64
	0x0000:  0000 0000 0000 0000 0000 0000 0800 4500  ..............E.
	0x0010:  0054 d861 0000 4001 a445 7f00 0001 7f00  .T.a..@..E......
	0x0020:  0001 0000 00d0 5020 005c ab3e 3167 0000  ......P..\.>1g..
	0x0030:  0000 093b 0a00 0000 0000 1011 1213 1415  ...;............
	0x0040:  1617 1819 1a1b 1c1d 1e1f 2021 2223 2425  ...........!"#$%
	0x0050:  2627 2829 2a2b 2c2d 2e2f 3031 3233 3435  &'()*+,-./012345
	0x0060:  3637                                     67
2024-11-10 18:15:56.693901 IP localhost > localhost: ICMP echo request, id 20512, seq 93, length 64
	0x0000:  0000 0000 0000 0000 0000 0000 0800 4500  ..............E.
	0x0010:  0054 d95e 4000 4001 6348 7f00 0001 7f00  .T.^@.@.cH......
	0x0020:  0001 0800 a473 5020 005d ac3e 3167 0000  .....sP..].>1g..
	0x0030:  0000 5c96 0a00 0000 0000 1011 1213 1415  ..\.............
	0x0040:  1617 1819 1a1b 1c1d 1e1f 2021 2223 2425  ...........!"#$%
	0x0050:  2627 2829 2a2b 2c2d 2e2f 3031 3233 3435  &'()*+,-./012345
	0x0060:  3637                                     67
2024-11-10 18:15:56.693936 IP localhost > localhost: ICMP echo reply, id 20512, seq 93, length 64
	0x0000:  0000 0000 0000 0000 0000 0000 0800 4500  ..............E.
	0x0010:  0054 d95f 0000 4001 a347 7f00 0001 7f00  .T._..@..G......
	0x0020:  0001 0000 ac73 5020 005d ac3e 3167 0000  .....sP..].>1g..
	0x0030:  0000 5c96 0a00 0000 0000 1011 1213 1415  ..\.............
	0x0040:  1617 1819 1a1b 1c1d 1e1f 2021 2223 2425  ...........!"#$%
	0x0050:  2627 2829 2a2b 2c2d 2e2f 3031 3233 3435  &'()*+,-./012345
	0x0060:  3637                                     67
2024-11-10 18:15:57.710061 IP localhost > localhost: ICMP echo request, id 20512, seq 94, length 64
	0x0000:  0000 0000 0000 0000 0000 0000 0800 4500  ..............E.
	0x0010:  0054 d9b6 4000 4001 62f0 7f00 0001 7f00  .T..@.@.b.......
	0x0020:  0001 0800 9a33 5020 005e ad3e 3167 0000  .....3P..^.>1g..
	0x0030:  0000 65d5 0a00 0000 0000 1011 1213 1415  ..e.............
	0x0040:  1617 1819 1a1b 1c1d 1e1f 2021 2223 2425  ...........!"#$%
	0x0050:  2627 2829 2a2b 2c2d 2e2f 3031 3233 3435  &'()*+,-./012345
	0x0060:  3637                                     67
2024-11-10 18:15:57.710082 IP localhost > localhost: ICMP echo reply, id 20512, seq 94, length 64
	0x0000:  0000 0000 0000 0000 0000 0000 0800 4500  ..............E.
	0x0010:  0054 d9b7 0000 4001 a2ef 7f00 0001 7f00  .T....@.........
	0x0020:  0001 0000 a233 5020 005e ad3e 3167 0000  .....3P..^.>1g..
	0x0030:  0000 65d5 0a00 0000 0000 1011 1213 1415  ..e.............
	0x0040:  1617 1819 1a1b 1c1d 1e1f 2021 2223 2425  ...........!"#$%
	0x0050:  2627 2829 2a2b 2c2d 2e2f 3031 3233 3435  &'()*+,-./012345
	0x0060:  3637                                     67
2024-11-10 18:15:58.733868 IP localhost > localhost: ICMP echo request, id 20512, seq 95, length 64
	0x0000:  0000 0000 0000 0000 0000 0000 0800 4500  ..............E.
	0x0010:  0054 da0d 4000 4001 6299 7f00 0001 7f00  .T..@.@.b.......
	0x0020:  0001 0800 7bd5 5020 005f ae3e 3167 0000  ....{.P.._.>1g..
	0x0030:  0000 8232 0b00 0000 0000 1011 1213 1415  ...2............
	0x0040:  1617 1819 1a1b 1c1d 1e1f 2021 2223 2425  ...........!"#$%
	0x0050:  2627 2829 2a2b 2c2d 2e2f 3031 3233 3435  &'()*+,-./012345
	0x0060:  3637                                     67
2024-11-10 18:15:58.733886 IP localhost > localhost: ICMP echo reply, id 20512, seq 95, length 64
	0x0000:  0000 0000 0000 0000 0000 0000 0800 4500  ..............E.
	0x0010:  0054 da0e 0000 4001 a298 7f00 0001 7f00  .T....@.........
	0x0020:  0001 0000 83d5 5020 005f ae3e 3167 0000  ......P.._.>1g..
	0x0030:  0000 8232 0b00 0000 0000 1011 1213 1415  ...2............
	0x0040:  1617 1819 1a1b 1c1d 1e1f 2021 2223 2425  ...........!"#$%
	0x0050:  2627 2829 2a2b 2c2d 2e2f 3031 3233 3435  &'()*+,-./012345
	0x0060:  3637                                     67
2024-11-10 18:15:59.760841 IP localhost > localhost: ICMP echo request, id 20512, seq 96, length 64
	0x0000:  0000 0000 0000 0000 0000 0000 0800 4500  ..............E.
	0x0010:  0054 db0b 4000 4001 619b 7f00 0001 7f00  .T..@.@.a.......
	0x0020:  0001 0800 606b 5020 0060 af3e 3167 0000  ....`kP..`.>1g..
	0x0030:  0000 9c9b 0b00 0000 0000 1011 1213 1415  ................
	0x0040:  1617 1819 1a1b 1c1d 1e1f 2021 2223 2425  ...........!"#$%
	0x0050:  2627 2829 2a2b 2c2d 2e2f 3031 3233 3435  &'()*+,-./012345
	0x0060:  3637                                     67
2024-11-10 18:15:59.760860 IP localhost > localhost: ICMP echo reply, id 20512, seq 96, length 64
	0x0000:  0000 0000 0000 0000 0000 0000 0800 4500  ..............E.
	0x0010:  0054 db0c 0000 4001 a19a 7f00 0001 7f00  .T....@.........
	0x0020:  0001 0000 686b 5020 0060 af3e 3167 0000  ....hkP..`.>1g..
	0x0030:  0000 9c9b 0b00 0000 0000 1011 1213 1415  ................
	0x0040:  1617 1819 1a1b 1c1d 1e1f 2021 2223 2425  ...........!"#$%
	0x0050:  2627 2829 2a2b 2c2d 2e2f 3031 3233 3435  &'()*+,-./012345
	0x0060:  3637                                     67
2024-11-10 18:16:00.786381 IP localhost > localhost: ICMP echo request, id 20512, seq 97, length 64
	0x0000:  0000 0000 0000 0000 0000 0000 0800 4500  ..............E.
	0x0010:  0054 dbe3 4000 4001 60c3 7f00 0001 7f00  .T..@.@.`.......
	0x0020:  0001 0800 5c06 5020 0061 b03e 3167 0000  ....\.P..a.>1g..
	0x0030:  0000 9fff 0b00 0000 0000 1011 1213 1415  ................
	0x0040:  1617 1819 1a1b 1c1d 1e1f 2021 2223 2425  ...........!"#$%
	0x0050:  2627 2829 2a2b 2c2d 2e2f 3031 3233 3435  &'()*+,-./012345
	0x0060:  3637                                     67
2024-11-10 18:16:00.786425 IP localhost > localhost: ICMP echo reply, id 20512, seq 97, length 64
	0x0000:  0000 0000 0000 0000 0000 0000 0800 4500  ..............E.
	0x0010:  0054 dbe4 0000 4001 a0c2 7f00 0001 7f00  .T....@.........
	0x0020:  0001 0000 6406 5020 0061 b03e 3167 0000  ....d.P..a.>1g..
	0x0030:  0000 9fff 0b00 0000 0000 1011 1213 1415  ................
	0x0040:  1617 1819 1a1b 1c1d 1e1f 2021 2223 2425  ...........!"#$%
	0x0050:  2627 2829 2a2b 2c2d 2e2f 3031 3233 3435  &'()*+,-./012345
	0x0060:  3637                                     67
