2024-11-07 11:05:20.163099 IP desktop-6rg0k1v.wireless.rit.edu.55004 > 224.0.0.252.5355: UDP, length 33
	0x0000:  0100 5e00 00fc 9032 4b41 e567 0800 4500  ..^....2KA.g..E.
	0x0010:  003d 0e8b 0000 0111 e000 8115 6913 e000  .=..........i...
	0x0020:  00fc d6dc 14eb 0029 f7e0 a8fa 0000 0001  .......)........
	0x0030:  0000 0000 0000 0f42 5257 3430 3233 3433  .......BRW402343
	0x0040:  3638 3132 4238 0000 0100 01              6812B8.....
2024-11-07 11:05:20.163100 IP ulong.wireless.rit.edu.58256 > 224.0.0.252.5355: UDP, length 23
	0x0000:  0100 5e00 00fc d454 8b5a 4c31 0800 4500  ..^....T.ZL1..E.
	0x0010:  0033 c342 0000 0111 5534 8115 3f32 e000  .3.B....U4..?2..
	0x0020:  00fc e390 14eb 001f 22b1 8311 0000 0001  ........".......
	0x0030:  0000 0000 0000 0555 4c6f 6e67 0000 ff00  .......ULong....
	0x0040:  01                                       .
2024-11-07 11:05:20.163101 IP milagros.wireless.rit.edu.10004 > 255.255.255.255.10004: UDP, length 83
	0x0000:  ffff ffff ffff d065 78f8 8c75 0800 4500  .......ex..u..E.
	0x0010:  006f 4e5a 0000 8011 00f9 8115 6a16 ffff  .oNZ........j...
	0x0020:  ffff 2714 2714 005b c35a 3c58 4d4c 3e3c  ..'.'..[.Z<XML><
	0x0030:  5061 636b 6574 5479 7065 3e52 6571 7565  PacketType>Reque
	0x0040:  7374 3c2f 5061 636b 6574 5479 7065 3e0a  st</PacketType>.
	0x0050:  3c50 726f 6475 6374 4e61 6d65 3e41 5047  <ProductName>APG
	0x0060:  2041 7477 6f6f 643c 2f50 726f 6475 6374  .Atwood</Product
	0x0070:  4e61 6d65 3e0a 3c2f 584d 4c3e 0a         Name>.</XML>.
2024-11-07 11:05:20.163885 IP milagros.wireless.rit.edu.10004 > 255.255.255.255.10004: UDP, length 83
	0x0000:  ffff ffff ffff d065 78f8 8c75 0800 4500  .......ex..u..E.
	0x0010:  006f 4e5b 0000 8011 00f8 8115 6a16 ffff  .oN[........j...
	0x0020:  ffff 2714 2714 005b c35a 3c58 4d4c 3e3c  ..'.'..[.Z<XML><
	0x0030:  5061 636b 6574 5479 7065 3e52 6571 7565  PacketType>Reque
	0x0040:  7374 3c2f 5061 636b 6574 5479 7065 3e0a  st</PacketType>.
	0x0050:  3c50 726f 6475 6374 4e61 6d65 3e41 5047  <ProductName>APG
	0x0060:  2041 7477 6f6f 643c 2f50 726f 6475 6374  .Atwood</Product
	0x0070:  4e61 6d65 3e0a 3c2f 584d 4c3e 0a         Name>.</XML>.
2024-11-07 11:05:20.163886 IP milagros.wireless.rit.edu.10004 > 255.255.255.255.10004: UDP, length 83
	0x0000:  ffff ffff ffff d065 78f8 8c75 0800 4500  .......ex..u..E.
	0x0010:  006f 4e5c 0000 8011 00f7 8115 6a16 ffff  .oN\........j...
	0x0020:  ffff 2714 2714 005b c35a 3c58 4d4c 3e3c  ..'.'..[.Z<XML><
	0x0030:  5061 636b 6574 5479 7065 3e52 6571 7565  PacketType>Reque
	0x0040:  7374 3c2f 5061 636b 6574 5479 7065 3e0a  st</PacketType>.
	0x0050:  3c50 726f 6475 6374 4e61 6d65 3e41 5047  <ProductName>APG
	0x0060:  2041 7477 6f6f 643c 2f50 726f 6475 6374  .Atwood</Product
	0x0070:  4e61 6d65 3e0a 3c2f 584d 4c3e 0a         Name>.</XML>.
2024-11-07 11:05:20.163886 IP milagros.wireless.rit.edu.10004 > 255.255.255.255.10004: UDP, length 83
	0x0000:  ffff ffff ffff d065 78f8 8c75 0800 4500  .......ex..u..E.
	0x0010:  006f 4e5d 0000 8011 00f6 8115 6a16 ffff  .oN]........j...
	0x0020:  ffff 2714 2714 005b c35a 3c58 4d4c 3e3c  ..'.'..[.Z<XML><
	0x0030:  5061 636b 6574 5479 7065 3e52 6571 7565  PacketType>Reque
	0x0040:  7374 3c2f 5061 636b 6574 5479 7065 3e0a  st</PacketType>.
	0x0050:  3c50 726f 6475 6374 4e61 6d65 3e41 5047  <ProductName>APG
	0x0060:  2041 7477 6f6f 643c 2f50 726f 6475 6374  .Atwood</Product
	0x0070:  4e61 6d65 3e0a 3c2f 584d 4c3e 0a         Name>.</XML>.
2024-11-07 11:05:20.163887 IP milagros.wireless.rit.edu.63202 > 255.255.255.255.22222: UDP, length 28
	0x0000:  ffff ffff ffff d065 78f8 8c75 0800 4500  .......ex..u..E.
	0x0010:  0038 4e5e 0000 8011 012c 8115 6a16 ffff  .8N^.....,..j...
	0x0020:  ffff f6e2 56ce 0024 0184 5354 525f 4243  ....V..$..STR_BC
	0x0030:  4153 5400 0000 0000 0000 5251 312e 302e  AST.......RQ1.0.
	0x0040:  3000 001c 6431                           0...d1
2024-11-07 11:05:20.164855 IP desktop-90rh817.wireless.rit.edu.netbios-dgm > 129.21.43.255.netbios-dgm: UDP, length 198
	0x0000:  ffff ffff ffff 70bc 106e e73d 0800 4500  ......p..n.=..E.
	0x0010:  00e2 20b6 0000 8011 c12d 8115 29fe 8115  .........-..)...
	0x0020:  2bff 008a 008a 00ce bba6 1106 abee 8115  +...............
	0x0030:  29fe 008a 00b8 0000 2045 4545 4646 4445  )........EEEFFDE
	0x0040:  4c46 4545 5046 4143 4e44 4a44 4146 4345  LFEEPFACNDJDAFCE
	0x0050:  4944 4944 4244 4841 4100 2046 4845 5046  IDIDBDHAA..FHEPF
	0x0060:  4345 4c45 4846 4345 5046 4646 4143 4143  CELEHFCEPFFFACAC
	0x0070:  4143 4143 4143 4143 4142 4f00 ff53 4d42  ACACACACABO..SMB
	0x0080:  2500 0000 0000 0000 0000 0000 0000 0000  %...............
	0x0090:  0000 0000 0000 0000 0000 0000 1100 001e  ................
	0x00a0:  0000 0000 0000 0000 00e8 0300 0000 0000  ................
	0x00b0:  0000 001e 0056 0003 0001 0001 0002 002f  .....V........./
	0x00c0:  005c 4d41 494c 534c 4f54 5c42 524f 5753  .\MAILSLOT\BROWS
	0x00d0:  4500 0801 240f 0110 ffff ffff 0000 0000  E...$...........
	0x00e0:  4445 534b 544f 502d 3930 5248 3831 3700  DESKTOP-90RH817.
2024-11-07 11:05:20.164856 IP milagros.wireless.rit.edu.63207 > 129.21.107.255.22222: UDP, length 28
	0x0000:  ffff ffff ffff d065 78f8 8c75 0800 4500  .......ex..u..E.
	0x0010:  0038 34c9 0000 8011 2dac 8115 6a16 8115  .84.....-...j...
	0x0020:  6bff f6e7 56ce 0024 146a 5354 525f 4243  k...V..$.jSTR_BC
	0x0030:  4153 5400 0000 0000 0000 5251 312e 302e  AST.......RQ1.0.
	0x0040:  3000 001c 6431                           0...d1
2024-11-07 11:05:20.164857 IP milagros.wireless.rit.edu.63206 > 255.255.255.255.22222: UDP, length 28
	0x0000:  ffff ffff ffff d065 78f8 8c75 0800 4500  .......ex..u..E.
	0x0010:  0038 4e62 0000 8011 0128 8115 6a16 ffff  .8Nb.....(..j...
	0x0020:  ffff f6e6 56ce 0024 0180 5354 525f 4243  ....V..$..STR_BC
	0x0030:  4153 5400 0000 0000 0000 5251 312e 302e  AST.......RQ1.0.
	0x0040:  3000 001c 6431                           0...d1
2024-11-07 11:05:20.164857 IP milagros.wireless.rit.edu.63205 > 255.255.255.255.22222: UDP, length 28
	0x0000:  ffff ffff ffff d065 78f8 8c75 0800 4500  .......ex..u..E.
	0x0010:  0038 4e60 0000 8011 012a 8115 6a16 ffff  .8N`.....*..j...
	0x0020:  ffff f6e5 56ce 0024 0181 5354 525f 4243  ....V..$..STR_BC
	0x0030:  4153 5400 0000 0000 0000 5251 312e 302e  AST.......RQ1.0.
	0x0040:  3000 001c 6431                           0...d1
2024-11-07 11:05:20.164858 IP milagros.wireless.rit.edu.63203 > 129.21.107.255.22222: UDP, length 28
	0x0000:  ffff ffff ffff d065 78f8 8c75 0800 4500  .......ex..u..E.
	0x0010:  0038 34c8 0000 8011 2dad 8115 6a16 8115  .84.....-...j...
	0x0020:  6bff f6e3 56ce 0024 146e 5354 525f 4243  k...V..$.nSTR_BC
	0x0030:  4153 5400 0000 0000 0000 5251 312e 302e  AST.......RQ1.0.
	0x0040:  3000 001c 6431                           0...d1
2024-11-07 11:05:20.164859 IP milagros.wireless.rit.edu.63211 > 129.21.107.255.3289: UDP, length 14
	0x0000:  ffff ffff ffff d065 78f8 8c75 0800 4500  .......ex..u..E.
	0x0010:  002a 34ca 0000 8011 2db9 8115 6a16 8115  .*4.....-...j...
	0x0020:  6bff f6eb 0cd9 0016 39cc 4550 534f 4e51  k.......9.EPSONQ
	0x0030:  0300 0000 0000 0000 0000 0000            ............
2024-11-07 11:05:20.164859 IP milagros.wireless.rit.edu.63208 > 255.255.255.255.22222: UDP, length 28
	0x0000:  ffff ffff ffff d065 78f8 8c75 0800 4500  .......ex..u..E.
	0x0010:  0038 4e63 0000 8011 0127 8115 6a16 ffff  .8Nc.....'..j...
	0x0020:  ffff f6e8 56ce 0024 017e 5354 525f 4243  ....V..$.~STR_BC
	0x0030:  4153 5400 0000 0000 0000 5251 312e 302e  AST.......RQ1.0.
	0x0040:  3000 001c 6431                           0...d1
2024-11-07 11:05:20.165616 IP milagros.wireless.rit.edu.63213 > 255.255.255.255.3289: UDP, length 14
	0x0000:  ffff ffff ffff d065 78f8 8c75 0800 4500  .......ex..u..E.
	0x0010:  002a 4e66 0000 8011 0132 8115 6a16 ffff  .*Nf.....2..j...
	0x0020:  ffff f6ed 0cd9 0016 26df 4550 534f 4e51  ........&.EPSONQ
	0x0030:  0300 0000 0000 0000 0000 0000            ............
2024-11-07 11:05:20.165617 IP milagros.wireless.rit.edu.63209 > 255.255.255.255.22222: UDP, length 28
	0x0000:  ffff ffff ffff d065 78f8 8c75 0800 4500  .......ex..u..E.
	0x0010:  0038 4e64 0000 8011 0126 8115 6a16 ffff  .8Nd.....&..j...
	0x0020:  ffff f6e9 56ce 0024 017d 5354 525f 4243  ....V..$.}STR_BC
	0x0030:  4153 5400 0000 0000 0000 5251 312e 302e  AST.......RQ1.0.
	0x0040:  3000 001c 6431                           0...d1
2024-11-07 11:05:20.165617 IP milagros.wireless.rit.edu.63212 > 255.255.255.255.3289: UDP, length 14
	0x0000:  ffff ffff ffff d065 78f8 8c75 0800 4500  .......ex..u..E.
	0x0010:  002a 4e65 0000 8011 0133 8115 6a16 ffff  .*Ne.....3..j...
	0x0020:  ffff f6ec 0cd9 0016 26e0 4550 534f 4e51  ........&.EPSONQ
	0x0030:  0300 0000 0000 0000 0000 0000            ............
2024-11-07 11:05:20.165618 IP milagros.wireless.rit.edu.63210 > 255.255.255.255.3289: UDP, length 14
	0x0000:  ffff ffff ffff d065 78f8 8c75 0800 4500  .......ex..u..E.
	0x0010:  002a 4e61 0000 8011 0137 8115 6a16 ffff  .*Na.....7..j...
	0x0020:  ffff f6ea 0cd9 0016 26e2 4550 534f 4e51  ........&.EPSONQ
	0x0030:  0300 0000 0000 0000 0000 0000            ............
2024-11-07 11:05:20.165618 IP milagros.wireless.rit.edu.63204 > 255.255.255.255.22222: UDP, length 28
	0x0000:  ffff ffff ffff d065 78f8 8c75 0800 4500  .......ex..u..E.
	0x0010:  0038 4e5f 0000 8011 012b 8115 6a16 ffff  .8N_.....+..j...
	0x0020:  ffff f6e4 56ce 0024 0182 5354 525f 4243  ....V..$..STR_BC
	0x0030:  4153 5400 0000 0000 0000 5251 312e 302e  AST.......RQ1.0.
	0x0040:  3000 001c 6431                           0...d1
2024-11-07 11:05:20.165619 IP 10.117.32.161.netbios-ns > 10.117.255.255.netbios-ns: UDP, length 68
	0x0000:  ffff ffff ffff 9282 7934 c602 0800 4500  ........y4....E.
	0x0010:  0060 24c2 0000 4011 2041 0a75 20a1 0a75  .`$...@..A.u...u
	0x0020:  ffff 0089 0089 004c 6bff 4569 2910 0001  .......Lk.Ei)...
	0x0030:  0000 0000 0001 2045 4e45 4245 4445 4345  .......ENEBEDECE
	0x0040:  5045 5045 4c46 4146 4345 5043 4e45 4544  PEPELFAFCEPCNEED
	0x0050:  4a45 4345 4341 4100 0020 0001 c00c 0020  JECECAA.........
	0x0060:  0001 0000 0384 0006 6000 0a75 20a1       ........`..u..
2024-11-07 11:05:20.166813 IP 10.117.32.161.netbios-ns > 10.117.255.255.netbios-ns: UDP, length 68
	0x0000:  ffff ffff ffff 9282 7934 c602 0800 4500  ........y4....E.
	0x0010:  0060 121e 0000 4011 32e5 0a75 20a1 0a75  .`....@.2..u...u
	0x0020:  ffff 0089 0089 004c 54fe 456a 4010 0001  .......LT.Ej@...
	0x0030:  0000 0000 0001 2045 4e45 4245 4445 4345  .......ENEBEDECE
	0x0040:  5045 5045 4c46 4146 4345 5043 4e45 4544  PEPELFAFCEPCNEED
	0x0050:  4a45 4345 4341 4100 0020 0001 c00c 0020  JECECAA.........
	0x0060:  0001 0000 0384 0006 6000 0a75 20a1       ........`..u..
2024-11-07 11:05:20.166814 IP 10.117.20.145.netbios-ns > 10.117.255.255.netbios-ns: UDP, length 50
	0x0000:  ffff ffff ffff 260b cca9 4bb4 0800 4500  ......&...K...E.
	0x0010:  004e 09e0 0000 4011 4745 0a75 1491 0a75  .N....@.GE.u...u
	0x0020:  ffff 0089 0089 003a 097a 48f7 0110 0001  .......:.zH.....
	0x0030:  0000 0000 0000 2046 4845 5046 4345 4c45  .......FHEPFCELE
	0x0040:  4846 4345 5046 4646 4143 4143 4143 4143  HFCEPFFFACACACAC
	0x0050:  4143 4143 4142 4e00 0020 0001            ACACABN.....
2024-11-07 11:05:20.166814 IP leehans-mbp.wireless.rit.edu.netbios-ns > 129.21.123.255.netbios-ns: UDP, length 50
	0x0000:  ffff ffff ffff 6c7e 67cf 149c 0800 4500  ......l~g.....E.
	0x0010:  004e 2a74 0000 4011 5755 8115 7aac 8115  .N*t..@.WU..z...
	0x0020:  7bff 0089 0089 003a 3ec6 464f 0110 0001  {......:>.FO....
	0x0030:  0000 0000 0000 2046 4845 5046 4345 4c45  .......FHEPFCELE
	0x0040:  4846 4345 5046 4646 4143 4143 4143 4143  HFCEPFFFACACACAC
	0x0050:  4143 4143 4142 4c00 0020 0001            ACACABL.....
2024-11-07 11:05:20.166815 IP leehans-mbp.wireless.rit.edu.netbios-ns > 129.21.123.255.netbios-ns: UDP, length 50
	0x0000:  ffff ffff ffff 6c7e 67cf 149c 0800 4500  ......l~g.....E.
	0x0010:  004e 672f 0000 4011 1a9a 8115 7aac 8115  .Ng/..@.....z...
	0x0020:  7bff 0089 0089 003a 3ec5 4650 0110 0001  {......:>.FP....
	0x0030:  0000 0000 0000 2046 4845 5046 4345 4c45  .......FHEPFCELE
	0x0040:  4846 4345 5046 4646 4143 4143 4143 4143  HFCEPFFFACACACAC
	0x0050:  4143 4143 4142 4c00 0020 0001            ACACABL.....
2024-11-07 11:05:20.167597 IP 129.21.121.55.netbios-ns > 129.21.123.255.netbios-ns: UDP, length 50
	0x0000:  ffff ffff ffff 3c22 fb6e 2d67 0800 4500  ......<".n-g..E.
	0x0010:  004e dc32 0000 4011 a70b 8115 7937 8115  .N.2..@.....y7..
	0x0020:  7bff 0089 0089 003a 3ef8 4592 0110 0001  {......:>.E.....
	0x0030:  0000 0000 0000 2046 4845 5046 4345 4c45  .......FHEPFCELE
	0x0040:  4846 4345 5046 4646 4143 4143 4143 4143  HFCEPFFFACACACAC
	0x0050:  4143 4143 4142 4e00 0020 0001            ACACABN.....
2024-11-07 11:05:20.167598 IP 10.117.21.215.33554 > 255.255.255.255.21027: UDP, length 214
	0x0000:  ffff ffff ffff b6e9 3f54 0ea8 0800 4500  ........?T....E.
	0x0010:  00f2 4fe3 4000 4011 c9cc 0a75 15d7 ffff  ..O.@.@....u....
	0x0020:  ffff 8312 5223 00de 4fad 2ea7 d90b 0a20  ....R#..O.......
	0x0030:  af81 9873 a843 25a1 abb8 7858 5f11 4b38  ...s.C%...xX_.K8
	0x0040:  1afd 7c2d 37a8 8ddb ea29 744c b179 5a0e  ..|-7....)tL.yZ.
	0x0050:  125d 7265 6c61 793a 2f2f 3834 2e33 322e  .]relay://84.32.
	0x0060:  3334 2e37 303a 3232 3036 372f 3f69 643d  34.70:22067/?id=
	0x0070:  4437 3444 4342 422d 3748 5a42 4851 372d  D74DCBB-7HZBHQ7-
	0x0080:  4432 3235 374f 342d 4550 5745 4843 452d  D2257O4-EPWEHCE-
	0x0090:  5951 3742 4454 562d 4534 5152 5437 4c2d  YQ7BDTV-E4QRT7L-
	0x00a0:  3248 3754 4246 442d 4347 3542 4151 4f12  2H7TBFD-CG5BAQO.
	0x00b0:  1471 7569 633a 2f2f 302e 302e 302e 303a  .quic://0.0.0.0:
	0x00c0:  3232 3030 3012 1a71 7569 633a 2f2f 3132  22000..quic://12
	0x00d0:  392e 3231 2e32 3535 2e37 383a 3232 3030  9.21.255.78:2200
	0x00e0:  3012 1374 6370 3a2f 2f30 2e30 2e30 2e30  0..tcp://0.0.0.0
	0x00f0:  3a32 3230 3030 18c3 e1b3 acce 9bff b01f  :22000..........
2024-11-07 11:05:20.167598 IP tippy_tappy.wireless.rit.edu.52534 > 224.0.0.252.5355: UDP, length 33
	0x0000:  0100 5e00 00fc 10b1 dfe2 fac9 0800 4500  ..^...........E.
	0x0010:  003d f6e5 0000 0111 d9e2 8115 86d6 e000  .=..............
	0x0020:  00fc cd36 14eb 0029 b575 c5f7 0000 0001  ...6...).u......
	0x0030:  0000 0000 0000 0f4d 4143 424f 4f4b 2d41  .......MACBOOK-A
	0x0040:  4952 2d31 3134 0000 0100 01              IR-114.....
2024-11-07 11:05:20.265326 IP cos-bio809.main.ad.rit.edu.49671 > 255.255.255.255.1947: UDP, length 40
	0x0000:  ffff ffff ffff 7c76 352e 2377 0800 4500  ......|v5.#w..E.
	0x0010:  0044 0647 0000 8011 4538 8115 6e15 ffff  .D.G....E8..n...
	0x0020:  ffff c207 079b 0030 bd5a 6f39 2b71 7635  .......0.Zo9+qv5
	0x0030:  5361 7452 642f 6d42 794e 6735 4732 764c  SatRd/mByNg5G2vL
	0x0040:  656a 596d 6f4a 706d 374b 5963 7865 3679  ejYmoJpm7KYcxe6y
	0x0050:  6341                                     cA
2024-11-07 11:05:20.266032 IP hariyama.wireless.rit.edu.netbios-dgm > 129.21.87.255.netbios-dgm: UDP, length 191
	0x0000:  ffff ffff ffff 7cb5 663f 10ce 0800 4500  ......|.f?....E.
	0x0010:  00db 39cb 0000 8011 4f46 8115 56d7 8115  ..9.....OF..V...
	0x0020:  57ff 008a 008a 00c7 1f08 1106 f2c7 8115  W...............
	0x0030:  56d7 008a 00b1 0000 2045 4945 4246 4345  V........EIEBFCE
	0x0040:  4a46 4a45 4245 4e45 4243 4143 4143 4143  JFJEBENEBCACACAC
	0x0050:  4143 4143 4143 4141 4100 2046 4845 5046  ACACACAAA..FHEPF
	0x0060:  4345 4c45 4846 4345 5046 4646 4143 4143  CELEHFCEPFFFACAC
	0x0070:  4143 4143 4143 4143 4142 4f00 ff53 4d42  ACACACACABO..SMB
	0x0080:  2500 0000 0000 0000 0000 0000 0000 0000  %...............
	0x0090:  0000 0000 0000 0000 0000 0000 1100 0017  ................
	0x00a0:  0000 0000 0000 0000 00e8 0300 0000 0000  ................
	0x00b0:  0000 0017 0056 0003 0001 0001 0002 0028  .....V.........(
	0x00c0:  005c 4d41 494c 534c 4f54 5c42 524f 5753  .\MAILSLOT\BROWS
	0x00d0:  4500 0801 240f 0110 68b7 8b38 0000 0000  E...$...h..8....
	0x00e0:  4841 5249 5941 4d41 00                   HARIYAMA.
2024-11-07 11:05:20.266032 IP rit-core2-hsrp-010-vlan4072.rit.edu > pim-routers.mcast.net: PIMv2, Hello, length 38
	0x0000:  0100 5e00 000d 2c21 314e 6b78 0800 45c0  ..^...,!1Nkx..E.
	0x0010:  003a 195d 0000 0167 e220 8115 5bfd e000  .:.]...g....[...
	0x0020:  000d 2000 bd05 0001 0002 0069 0002 0004  ...........i....
	0x0030:  81f4 07d0 0013 0004 0000 0001 0014 0004  ................
	0x0040:  50bb 47be 001a 0000                      P.G.....
2024-11-07 11:05:20.266033 IP 10.117.43.72.57621 > 10.117.255.255.57621: UDP, length 40
	0x0000:  ffff ffff ffff fa4d ffdd c752 0800 4500  .......M...R..E.
	0x0010:  0044 7c0a 0000 4011 be6d 0a75 2b48 0a75  .D|...@..m.u+H.u
	0x0020:  ffff e115 e115 0030 f265 5370 6f74 5564  .......0.eSpotUd
	0x0030:  7030 1ed7 f22d 8b51 ac3a 0001 0000 5acf  p0...-.Q.:....Z.
	0x0040:  8b16 fdfc 70d7 4b73 d0b5 bf88 575a 69db  ....p.Ks....WZi.
	0x0050:  481d                                     H.
2024-11-07 11:05:20.267317 IP alexiss-mbp-4.wireless.rit.edu.netbios-ns > 129.21.87.255.netbios-ns: UDP, length 50
	0x0000:  ffff ffff ffff bcd0 74ed 548e 0800 4500  ........t.T...E.
	0x0010:  004e a9e5 0000 4011 21e8 8115 54a8 8115  .N....@.!...T...
	0x0020:  57ff 0089 0089 003a 873e 45db 0110 0001  W......:.>E.....
	0x0030:  0000 0000 0000 2046 4845 5046 4345 4c45  .......FHEPFCELE
	0x0040:  4846 4345 5046 4646 4143 4143 4143 4143  HFCEPFFFACACACAC
	0x0050:  4143 4143 4142 4e00 0020 0001            ACACABN.....
2024-11-07 11:05:20.267318 IP thejballdevice.wireless.rit.edu.50733 > 255.255.255.255.22222: UDP, length 28
	0x0000:  ffff ffff ffff 5896 71c3 16e6 0800 4500  ......X.q.....E.
	0x0010:  0038 5028 0000 8011 012f 8115 6849 ffff  .8P(...../..hI..
	0x0020:  ffff c62d 56ce 0024 3406 5354 525f 4243  ...-V..$4.STR_BC
	0x0030:  4153 5400 0000 0000 0000 5251 312e 302e  AST.......RQ1.0.
	0x0040:  3000 001c 6431                           0...d1
2024-11-07 11:05:20.267319 IP thejballdevice.wireless.rit.edu.50737 > 255.255.255.255.3289: UDP, length 14
	0x0000:  ffff ffff ffff 5896 71c3 16e6 0800 4500  ......X.q.....E.
	0x0010:  002a 5026 0000 8011 013f 8115 6849 ffff  .*P&.....?..hI..
	0x0020:  ffff c631 0cd9 0016 5968 4550 534f 4e51  ...1....YhEPSONQ
	0x0030:  0300 0000 0000 0000 0000 0000            ............
2024-11-07 11:05:20.267320 IP thejballdevice.wireless.rit.edu.50732 > 255.255.255.255.22222: UDP, length 28
	0x0000:  ffff ffff ffff 5896 71c3 16e6 0800 4500  ......X.q.....E.
	0x0010:  0038 5027 0000 8011 0130 8115 6849 ffff  .8P'.....0..hI..
	0x0020:  ffff c62c 56ce 0024 3407 5354 525f 4243  ...,V..$4.STR_BC
	0x0030:  4153 5400 0000 0000 0000 5251 312e 302e  AST.......RQ1.0.
	0x0040:  3000 001c 6431                           0...d1
2024-11-07 11:05:20.267320 IP thejballdevice.wireless.rit.edu.50729 > 129.21.107.255.22222: UDP, length 28
	0x0000:  ffff ffff ffff 5896 71c3 16e6 0800 4500  ......X.q.....E.
	0x0010:  0038 f67f 0000 8011 6dc2 8115 6849 8115  .8......m...hI..
	0x0020:  6bff c629 56ce 0024 46f5 5354 525f 4243  k..)V..$F.STR_BC
	0x0030:  4153 5400 0000 0000 0000 5251 312e 302e  AST.......RQ1.0.
	0x0040:  3000 001c 6431                           0...d1
2024-11-07 11:05:20.267625 IP thejballdevice.wireless.rit.edu.50736 > 255.255.255.255.22222: UDP, length 28
	0x0000:  ffff ffff ffff 5896 71c3 16e6 0800 4500  ......X.q.....E.
	0x0010:  0038 502c 0000 8011 012b 8115 6849 ffff  .8P,.....+..hI..
	0x0020:  ffff c630 56ce 0024 3403 5354 525f 4243  ...0V..$4.STR_BC
	0x0030:  4153 5400 0000 0000 0000 5251 312e 302e  AST.......RQ1.0.
	0x0040:  3000 001c 6431                           0...d1
2024-11-07 11:05:20.269099 IP thejballdevice.wireless.rit.edu.50735 > 255.255.255.255.22222: UDP, length 28
	0x0000:  ffff ffff ffff 5896 71c3 16e6 0800 4500  ......X.q.....E.
	0x0010:  0038 5029 0000 8011 012e 8115 6849 ffff  .8P)........hI..
	0x0020:  ffff c62f 56ce 0024 3404 5354 525f 4243  .../V..$4.STR_BC
	0x0030:  4153 5400 0000 0000 0000 5251 312e 302e  AST.......RQ1.0.
	0x0040:  3000 001c 6431                           0...d1
2024-11-07 11:05:20.269100 IP thejballdevice.wireless.rit.edu.50730 > 255.255.255.255.22222: UDP, length 28
	0x0000:  ffff ffff ffff 5896 71c3 16e6 0800 4500  ......X.q.....E.
	0x0010:  0038 502e 0000 8011 0129 8115 6849 ffff  .8P......)..hI..
	0x0020:  ffff c62a 56ce 0024 3409 5354 525f 4243  ...*V..$4.STR_BC
	0x0030:  4153 5400 0000 0000 0000 5251 312e 302e  AST.......RQ1.0.
	0x0040:  3000 001c 6431                           0...d1
2024-11-07 11:05:20.269100 IP thejballdevice.wireless.rit.edu.50739 > 129.21.107.255.3289: UDP, length 14
	0x0000:  ffff ffff ffff 5896 71c3 16e6 0800 4500  ......X.q.....E.
	0x0010:  002a f680 0000 8011 6dcf 8115 6849 8115  .*......m...hI..
	0x0020:  6bff c633 0cd9 0016 6c51 4550 534f 4e51  k..3....lQEPSONQ
	0x0030:  0300 0000 0000 0000 0000 0000            ............
2024-11-07 11:05:20.269101 IP thejballdevice.wireless.rit.edu.50740 > 255.255.255.255.3289: UDP, length 14
	0x0000:  ffff ffff ffff 5896 71c3 16e6 0800 4500  ......X.q.....E.
	0x0010:  002a 5035 0000 8011 0130 8115 6849 ffff  .*P5.....0..hI..
	0x0020:  ffff c634 0cd9 0016 5965 4550 534f 4e51  ...4....YeEPSONQ
	0x0030:  0300 0000 0000 0000 0000 0000            ............
2024-11-07 11:05:20.269101 IP thejballdevice.wireless.rit.edu.50734 > 129.21.107.255.22222: UDP, length 28
	0x0000:  ffff ffff ffff 5896 71c3 16e6 0800 4500  ......X.q.....E.
	0x0010:  0038 f67e 0000 8011 6dc3 8115 6849 8115  .8.~....m...hI..
	0x0020:  6bff c62e 56ce 0024 46f0 5354 525f 4243  k...V..$F.STR_BC
	0x0030:  4153 5400 0000 0000 0000 5251 312e 302e  AST.......RQ1.0.
	0x0040:  3000 001c 6431                           0...d1
2024-11-07 11:05:20.269102 IP thejballdevice.wireless.rit.edu.50731 > 255.255.255.255.22222: UDP, length 28
	0x0000:  ffff ffff ffff 5896 71c3 16e6 0800 4500  ......X.q.....E.
	0x0010:  0038 502f 0000 8011 0128 8115 6849 ffff  .8P/.....(..hI..
	0x0020:  ffff c62b 56ce 0024 3408 5354 525f 4243  ...+V..$4.STR_BC
	0x0030:  4153 5400 0000 0000 0000 5251 312e 302e  AST.......RQ1.0.
	0x0040:  3000 001c 6431                           0...d1
2024-11-07 11:05:20.269102 IP thejballdevice.wireless.rit.edu.50738 > 255.255.255.255.3289: UDP, length 14
	0x0000:  ffff ffff ffff 5896 71c3 16e6 0800 4500  ......X.q.....E.
	0x0010:  002a 5032 0000 8011 0133 8115 6849 ffff  .*P2.....3..hI..
	0x0020:  ffff c632 0cd9 0016 5967 4550 534f 4e51  ...2....YgEPSONQ
	0x0030:  0300 0000 0000 0000 0000 0000            ............
2024-11-07 11:05:20.270052 IP thejballdevice.wireless.rit.edu.50741 > 255.255.255.255.3289: UDP, length 14
	0x0000:  ffff ffff ffff 5896 71c3 16e6 0800 4500  ......X.q.....E.
	0x0010:  002a 5036 0000 8011 012f 8115 6849 ffff  .*P6...../..hI..
	0x0020:  ffff c635 0cd9 0016 5964 4550 534f 4e51  ...5....YdEPSONQ
	0x0030:  0300 0000 0000 0000 0000 0000            ............
2024-11-07 11:05:20.270053 IP thejballdevice.wireless.rit.edu.50727 > 255.255.255.255.22222: UDP, length 28
	0x0000:  ffff ffff ffff 5896 71c3 16e6 0800 4500  ......X.q.....E.
	0x0010:  0038 502a 0000 8011 012d 8115 6849 ffff  .8P*.....-..hI..
	0x0020:  ffff c627 56ce 0024 340c 5354 525f 4243  ...'V..$4.STR_BC
	0x0030:  4153 5400 0000 0000 0000 5251 312e 302e  AST.......RQ1.0.
	0x0040:  3000 001c 6431                           0...d1
2024-11-07 11:05:20.271215 IP thejballdevice.wireless.rit.edu.50728 > 255.255.255.255.22222: UDP, length 28
	0x0000:  ffff ffff ffff 5896 71c3 16e6 0800 4500  ......X.q.....E.
	0x0010:  0038 502d 0000 8011 012a 8115 6849 ffff  .8P-.....*..hI..
	0x0020:  ffff c628 56ce 0024 340b 5354 525f 4243  ...(V..$4.STR_BC
	0x0030:  4153 5400 0000 0000 0000 5251 312e 302e  AST.......RQ1.0.
	0x0040:  3000 001c 6431                           0...d1
2024-11-07 11:05:20.271216 IP thejballdevice.wireless.rit.edu.10004 > 255.255.255.255.10004: UDP, length 83
	0x0000:  ffff ffff ffff 5896 71c3 16e6 0800 4500  ......X.q.....E.
	0x0010:  006f 5030 0000 8011 00f0 8115 6849 ffff  .oP0........hI..
	0x0020:  ffff 2714 2714 005b c527 3c58 4d4c 3e3c  ..'.'..[.'<XML><
	0x0030:  5061 636b 6574 5479 7065 3e52 6571 7565  PacketType>Reque
	0x0040:  7374 3c2f 5061 636b 6574 5479 7065 3e0a  st</PacketType>.
	0x0050:  3c50 726f 6475 6374 4e61 6d65 3e41 5047  <ProductName>APG
	0x0060:  2041 7477 6f6f 643c 2f50 726f 6475 6374  .Atwood</Product
	0x0070:  4e61 6d65 3e0a 3c2f 584d 4c3e 0a         Name>.</XML>.
2024-11-07 11:05:20.271217 IP thejballdevice.wireless.rit.edu.10004 > 255.255.255.255.10004: UDP, length 83
	0x0000:  ffff ffff ffff 5896 71c3 16e6 0800 4500  ......X.q.....E.
	0x0010:  006f 5031 0000 8011 00ef 8115 6849 ffff  .oP1........hI..
	0x0020:  ffff 2714 2714 005b c527 3c58 4d4c 3e3c  ..'.'..[.'<XML><
	0x0030:  5061 636b 6574 5479 7065 3e52 6571 7565  PacketType>Reque
	0x0040:  7374 3c2f 5061 636b 6574 5479 7065 3e0a  st</PacketType>.
	0x0050:  3c50 726f 6475 6374 4e61 6d65 3e41 5047  <ProductName>APG
	0x0060:  2041 7477 6f6f 643c 2f50 726f 6475 6374  .Atwood</Product
	0x0070:  4e61 6d65 3e0a 3c2f 584d 4c3e 0a         Name>.</XML>.
2024-11-07 11:05:20.271217 IP thejballdevice.wireless.rit.edu.10004 > 255.255.255.255.10004: UDP, length 83
	0x0000:  ffff ffff ffff 5896 71c3 16e6 0800 4500  ......X.q.....E.
	0x0010:  006f 5033 0000 8011 00ed 8115 6849 ffff  .oP3........hI..
	0x0020:  ffff 2714 2714 005b c527 3c58 4d4c 3e3c  ..'.'..[.'<XML><
	0x0030:  5061 636b 6574 5479 7065 3e52 6571 7565  PacketType>Reque
	0x0040:  7374 3c2f 5061 636b 6574 5479 7065 3e0a  st</PacketType>.
	0x0050:  3c50 726f 6475 6374 4e61 6d65 3e41 5047  <ProductName>APG
	0x0060:  2041 7477 6f6f 643c 2f50 726f 6475 6374  .Atwood</Product
	0x0070:  4e61 6d65 3e0a 3c2f 584d 4c3e 0a         Name>.</XML>.
2024-11-07 11:05:20.272016 IP thejballdevice.wireless.rit.edu.10004 > 255.255.255.255.10004: UDP, length 83
	0x0000:  ffff ffff ffff 5896 71c3 16e6 0800 4500  ......X.q.....E.
	0x0010:  006f 5034 0000 8011 00ec 8115 6849 ffff  .oP4........hI..
	0x0020:  ffff 2714 2714 005b c527 3c58 4d4c 3e3c  ..'.'..[.'<XML><
	0x0030:  5061 636b 6574 5479 7065 3e52 6571 7565  PacketType>Reque
	0x0040:  7374 3c2f 5061 636b 6574 5479 7065 3e0a  st</PacketType>.
	0x0050:  3c50 726f 6475 6374 4e61 6d65 3e41 5047  <ProductName>APG
	0x0060:  2041 7477 6f6f 643c 2f50 726f 6475 6374  .Atwood</Product
	0x0070:  4e61 6d65 3e0a 3c2f 584d 4c3e 0a         Name>.</XML>.
2024-11-07 11:05:20.272017 IP 129.21.112.190.netbios-ns > 129.21.115.255.netbios-ns: UDP, length 68
	0x0000:  ffff ffff ffff 784f 4385 e323 0800 4500  ......xOC..#..E.
	0x0010:  0060 7c9f 0000 4011 1706 8115 70be 8115  .`|...@.....p...
	0x0020:  73ff 0089 0089 004c f7e7 4567 2910 0001  s......L..Eg)...
	0x0030:  0000 0000 0001 2045 4e45 4245 4445 4345  .......ENEBEDECE
	0x0040:  5045 5045 4c46 4146 4345 5043 4e45 4644  PEPELFAFCEPCNEFD
	0x0050:  4444 4344 4441 4100 0020 0001 c00c 0020  DDCDDAA.........
	0x0060:  0001 0000 0384 0006 6000 8115 70be       ........`...p.
2024-11-07 11:05:20.272017 IP 129.21.112.190.netbios-ns > 129.21.115.255.netbios-ns: UDP, length 68
	0x0000:  ffff ffff ffff 784f 4385 e323 0800 4500  ......xOC..#..E.
	0x0010:  0060 4f75 0000 4011 4430 8115 70be 8115  .`Ou..@.D0..p...
	0x0020:  73ff 0089 0089 004c f7e4 4568 2910 0001  s......L..Eh)...
	0x0030:  0000 0000 0001 2045 4e45 4245 4445 4345  .......ENEBEDECE
	0x0040:  5045 5045 4c46 4146 4345 5043 4e45 4644  PEPELFAFCEPCNEFD
	0x0050:  4444 4344 4443 4100 0020 0001 c00c 0020  DDCDDCA.........
	0x0060:  0001 0000 0384 0006 6000 8115 70be       ........`...p.
2024-11-07 11:05:20.272018 IP laptop-pg9bt4u5.wireless.rit.edu.60375 > 224.0.0.252.5355: UDP, length 33
	0x0000:  0100 5e00 00fc 50c2 e898 6fc3 0800 4500  ..^...P...o...E.
	0x0010:  003d 4c31 0000 0111 84d7 8115 8696 e000  .=L1............
	0x0020:  00fc ebd7 14eb 0029 9b59 c1b2 0000 0001  .......).Y......
	0x0030:  0000 0000 0000 0f4d 4143 424f 4f4b 2d41  .......MACBOOK-A
	0x0040:  4952 2d31 3134 0000 0100 01              IR-114.....
2024-11-07 11:05:20.272699 IP 10.117.33.170.47176 > 10.117.255.255.21027: UDP, length 270
	0x0000:  ffff ffff ffff 7e60 97aa 663a 0800 4500  ......~`..f:..E.
	0x0010:  012a 36f0 4000 4011 cc3f 0a75 21aa 0a75  .*6.@.@..?.u!..u
	0x0020:  ffff b848 5223 0116 591a 2ea7 d90b 0a20  ...HR#..Y.......
	0x0030:  575a 597e 242c 4c4b f3f2 b9ae ec5a ed33  WZY~$,LK.....Z.3
	0x0040:  2177 1acd 377e acaf b766 536d f5cc 0ae9  !w..7~...fSm....
	0x0050:  125e 7265 6c61 793a 2f2f 3732 2e36 362e  .^relay://72.66.
	0x0060:  3733 2e31 3630 3a32 3230 3637 2f3f 6964  73.160:22067/?id
	0x0070:  3d56 4c4b 4d4d 5049 2d53 5033 5357 4f4a  =VLKMMPI-SP3SWOJ
	0x0080:  2d41 494a 5047 5859 2d52 4a50 594b 4f59  -AIJPGXY-RJPYKOY
	0x0090:  2d5a 5a55 534e 4335 2d33 5357 3732 4537  -ZZUSNC5-3SW72E7
	0x00a0:  2d45 4c4e 3644 5937 2d55 4d43 3633 4133  -ELN6DY7-UMC63A3
	0x00b0:  1214 7175 6963 3a2f 2f30 2e30 2e30 2e30  ..quic://0.0.0.0
	0x00c0:  3a32 3230 3030 121a 7175 6963 3a2f 2f31  :22000..quic://1
	0x00d0:  302e 3131 372e 3333 2e31 3730 3a32 3230  0.117.33.170:220
	0x00e0:  3030 121a 7175 6963 3a2f 2f31 3239 2e32  00..quic://129.2
	0x00f0:  312e 3235 352e 3736 3a32 3230 3030 1213  1.255.76:22000..
	0x0100:  7463 703a 2f2f 302e 302e 302e 303a 3232  tcp://0.0.0.0:22
	0x0110:  3030 3012 1974 6370 3a2f 2f31 302e 3131  000..tcp://10.11
	0x0120:  372e 3333 2e31 3730 3a32 3230 3030 18f2  7.33.170:22000..
	0x0130:  dece 95a6 9ce5 b867                      .......g
2024-11-07 11:05:20.272700 IP ntid07-a636-01.main.ad.rit.edu.netbios-ns > 129.21.127.255.netbios-ns: UDP, length 50
	0x0000:  ffff ffff ffff 10b9 c475 175b 0800 4500  .........u.[..E.
	0x0010:  004e 3d0e 0000 4011 3d69 8115 7dfe 8115  .N=...@.=i..}...
	0x0020:  7fff 0089 0089 003a ebe3 8fdf 0110 0001  .......:........
	0x0030:  0000 0000 0000 2046 4845 5046 4345 4c45  .......FHEPFCELE
	0x0040:  4846 4345 5046 4646 4143 4143 4143 4143  HFCEPFFFACACACAC
	0x0050:  4143 4143 4142 4e00 0020 0001            ACACABN.....
2024-11-07 11:05:20.273055 IP emilys-air-9.wireless.rit.edu.netbios-ns > 129.21.127.255.netbios-ns: UDP, length 50
	0x0000:  ffff ffff ffff 183e efd8 6b72 0800 4500  .......>..kr..E.
	0x0010:  004e 98ab 0000 4011 e1c4 8115 7e05 8115  .N....@.....~...
	0x0020:  7fff 0089 0089 003a 352e 468e 0110 0001  .......:5.F.....
	0x0030:  0000 0000 0000 2046 4845 5046 4345 4c45  .......FHEPFCELE
	0x0040:  4846 4345 5046 4646 4143 4143 4143 4143  HFCEPFFFACACACAC
	0x0050:  4143 4143 4142 4e00 0020 0001            ACACABN.....
2024-11-07 11:05:20.273056 IP kaylyns-mbp.wireless.rit.edu.netbios-ns > 129.21.127.255.netbios-ns: UDP, length 50
	0x0000:  ffff ffff ffff c889 f3c1 9456 0800 4500  ...........V..E.
	0x0010:  004e fb97 0000 4011 7e79 8115 7e64 8115  .N....@.~y..~d..
	0x0020:  7fff 0089 0089 003a 35d8 4585 0110 0001  .......:5.E.....
	0x0030:  0000 0000 0000 2046 4845 5046 4345 4c45  .......FHEPFCELE
	0x0040:  4846 4345 5046 4646 4143 4143 4143 4143  HFCEPFFFACACACAC
	0x0050:  4143 4143 4142 4e00 0020 0001            ACACABN.....
2024-11-07 11:05:20.273976 IP macbook-pro-55.wireless.rit.edu.netbios-ns > 129.21.127.255.netbios-ns: UDP, length 50
	0x0000:  ffff ffff ffff 603e 5f7c 2780 0800 4500  ......`>_|'...E.
	0x0010:  004e bd0f 0000 4011 bc02 8115 7f63 8115  .N....@......c..
	0x0020:  7fff 0089 0089 003a 33af 46af 0110 0001  .......:3.F.....
	0x0030:  0000 0000 0000 2046 4845 5046 4345 4c45  .......FHEPFCELE
	0x0040:  4846 4345 5046 4646 4143 4143 4143 4143  HFCEPFFFACACACAC
	0x0050:  4143 4143 4142 4e00 0020 0001            ACACABN.....
2024-11-07 11:05:20.368089 IP fa-sas1816.main.ad.rit.edu.netbios-ns > 129.21.127.255.netbios-ns: UDP, length 50
	0x0000:  ffff ffff ffff 6c96 cfde 189d 0800 4500  ......l.......E.
	0x0010:  004e d613 0000 4011 a43e 8115 7e23 8115  .N....@..>..~#..
	0x0020:  7fff 0089 0089 003a 34db 46c3 0110 0001  .......:4.F.....
	0x0030:  0000 0000 0000 2046 4845 5046 4345 4c45  .......FHEPFCELE
	0x0040:  4846 4345 5046 4646 4143 4143 4143 4143  HFCEPFFFACACACAC
	0x0050:  4143 4143 4142 4e00 0020 0001            ACACABN.....
2024-11-07 11:05:20.368090 IP 8n609718l0.main.ad.rit.edu.netbios-ns > 129.21.123.255.netbios-ns: UDP, length 68
	0x0000:  ffff ffff ffff 3c06 3056 6a51 0800 4500  ......<.0VjQ..E.
	0x0010:  0060 dd00 0000 4011 a661 8115 7901 8115  .`....@..a..y...
	0x0020:  7bff 0089 0089 004c 02ba 481e 2910 0001  {......L..H.)...
	0x0030:  0000 0000 0001 2044 4945 4f44 4744 4144  .......DIEODGDAD
	0x0040:  4a44 4844 4244 4945 4d44 4143 4143 4143  JDHDBDIEMDACACAC
	0x0050:  4143 4143 4141 4100 0020 0001 c00c 0020  ACACAAA.........
	0x0060:  0001 0000 0384 0006 6000 8115 7901       ........`...y.
2024-11-07 11:05:20.368091 IP jadens-air-6.wireless.rit.edu.netbios-ns > 129.21.127.255.netbios-ns: UDP, length 50
	0x0000:  ffff ffff ffff 00bb ccdd eeff 0800 4500  ..............E.
	0x0010:  004e 125f 0000 4011 696a 8115 7cac 8115  .N._..@.ij..|...
	0x0020:  7fff 0089 0089 003a 364c 46c9 0110 0001  .......:6LF.....
	0x0030:  0000 0000 0000 2046 4845 5046 4345 4c45  .......FHEPFCELE
	0x0040:  4846 4345 5046 4646 4143 4143 4143 4143  HFCEPFFFACACACAC
	0x0050:  4143 4143 4142 4e00 0020 0001            ACACABN.....
2024-11-07 11:05:20.368091 IP 129.21.127.53.netbios-ns > 129.21.127.255.netbios-ns: UDP, length 50
	0x0000:  ffff ffff ffff bcd0 7411 67c5 0800 4500  ........t.g...E.
	0x0010:  004e e342 0000 4011 95fd 8115 7f35 8115  .N.B..@......5..
	0x0020:  7fff 0089 0089 003a 32f5 4797 0110 0001  .......:2.G.....
	0x0030:  0000 0000 0000 2046 4845 5046 4345 4c45  .......FHEPFCELE
	0x0040:  4846 4345 5046 4646 4143 4143 4143 4143  HFCEPFFFACACACAC
	0x0050:  4143 4143 4142 4e00 0020 0001            ACACABN.....
2024-11-07 11:05:20.368322 IP macbook-air-102.wireless.rit.edu.netbios-ns > 129.21.127.255.netbios-ns: UDP, length 50
	0x0000:  ffff ffff ffff d088 0c8d d92b 0800 4500  ...........+..E.
	0x0010:  004e 6b32 0000 4011 1124 8115 7c1f 8115  .Nk2..@..$..|...
	0x0020:  7fff 0089 0089 003a 37c9 45d9 0110 0001  .......:7.E.....
	0x0030:  0000 0000 0000 2046 4845 5046 4345 4c45  .......FHEPFCELE
	0x0040:  4846 4345 5046 4646 4143 4143 4143 4143  HFCEPFFFACACACAC
	0x0050:  4143 4143 4142 4e00 0020 0001            ACACABN.....
2024-11-07 11:05:20.368323 IP lourdines-air.wireless.rit.edu.netbios-ns > 129.21.87.255.netbios-ns: UDP, length 50
	0x0000:  ffff ffff ffff 1c91 80b8 ee9c 0800 4500  ..............E.
	0x0010:  004e 97b1 0000 4011 313d 8115 5787 8115  .N....@.1=..W...
	0x0020:  57ff 0089 0089 003a 83ee 464c 0110 0001  W......:..FL....
	0x0030:  0000 0000 0000 2046 4845 5046 4345 4c45  .......FHEPFCELE
	0x0040:  4846 4345 5046 4646 4143 4143 4143 4143  HFCEPFFFACACACAC
	0x0050:  4143 4143 4142 4e00 0020 0001            ACACABN.....
2024-11-07 11:05:20.368324 IP 129.21.125.129.netbios-ns > 129.21.127.255.netbios-ns: UDP, length 50
	0x0000:  ffff ffff ffff 3ca6 f66a 6484 0800 4500  ......<..jd...E.
	0x0010:  004e 57c0 0000 4011 2334 8115 7d81 8115  .NW...@.#4..}...
	0x0020:  7fff 0089 0089 003a 7749 04f7 0110 0001  .......:wI......
	0x0030:  0000 0000 0000 2046 4845 5046 4345 4c45  .......FHEPFCELE
	0x0040:  4846 4345 5046 4646 4143 4143 4143 4143  HFCEPFFFACACACAC
	0x0050:  4143 4143 4142 4e00 0020 0001            ACACABN.....
2024-11-07 11:05:20.368324 IP zoodisc.wireless.rit.edu.netbios-ns > 129.21.127.255.netbios-ns: UDP, length 50
	0x0000:  ffff ffff ffff f84d 899e da11 0800 4500  .......M......E.
	0x0010:  004e 7e75 0000 4011 fb89 8115 7e76 8115  .N~u..@.....~v..
	0x0020:  7fff 0089 0089 003a 341a 4731 0110 0001  .......:4.G1....
	0x0030:  0000 0000 0000 2046 4845 5046 4345 4c45  .......FHEPFCELE
	0x0040:  4846 4345 5046 4646 4143 4143 4143 4143  HFCEPFFFACACACAC
	0x0050:  4143 4143 4142 4e00 0020 0001            ACACABN.....
2024-11-07 11:05:20.369985 IP mkt-uns2005.main.ad.rit.edu.netbios-ns > 129.21.127.255.netbios-ns: UDP, length 50
	0x0000:  ffff ffff ffff 3c22 fb43 e790 0800 4500  ......<".C....E.
	0x0010:  004e b543 0000 4011 c4d9 8115 7e58 8115  .N.C..@.....~X..
	0x0020:  7fff 0089 0089 003a 33c0 47a9 0110 0001  .......:3.G.....
	0x0030:  0000 0000 0000 2046 4845 5046 4345 4c45  .......FHEPFCELE
	0x0040:  4846 4345 5046 4646 4143 4143 4143 4143  HFCEPFFFACACACAC
	0x0050:  4143 4143 4142 4e00 0020 0001            ACACABN.....
2024-11-07 11:05:20.369986 IP kennys-mbp-3.wireless.rit.edu.netbios-ns > 129.21.127.255.netbios-ns: UDP, length 50
	0x0000:  ffff ffff ffff bcd0 742e 8489 0800 4500  ........t.....E.
	0x0010:  004e eddf 0000 4011 8adc 8115 7fb9 8115  .N....@.........
	0x0020:  7fff 0089 0089 003a 347b 458d 0110 0001  .......:4{E.....
	0x0030:  0000 0000 0000 2046 4845 5046 4345 4c45  .......FHEPFCELE
	0x0040:  4846 4345 5046 4646 4143 4143 4143 4143  HFCEPFFFACACACAC
	0x0050:  4143 4143 4142 4e00 0020 0001            ACACABN.....
2024-11-07 11:05:20.369987 IP gis-p2i-2201.ad.rit.edu.netbios-ns > 129.21.127.255.netbios-ns: UDP, length 50
	0x0000:  ffff ffff ffff 3c06 3052 c022 0800 4500  ......<.0R."..E.
	0x0010:  004e 0fcc 0000 4011 6bd0 8115 7cd9 8115  .N....@.k...|...
	0x0020:  7fff 0089 0089 003a 374b 459d 0110 0001  .......:7KE.....
	0x0030:  0000 0000 0000 2046 4845 5046 4345 4c45  .......FHEPFCELE
	0x0040:  4846 4345 5046 4646 4143 4143 4143 4143  HFCEPFFFACACACAC
	0x0050:  4143 4143 4142 4e00 0020 0001            ACACABN.....
2024-11-07 11:05:20.369987 IP gccis-eclvcs-m1.wireless.rit.edu.netbios-ns > 129.21.127.255.netbios-ns: UDP, length 50
	0x0000:  ffff ffff ffff c889 f3ba 427b 0800 4500  ..........B{..E.
	0x0010:  004e ba6a 0000 4011 c0e7 8115 7d23 8115  .N.j..@.....}#..
	0x0020:  7fff 0089 0089 003a 2a47 5257 0110 0001  .......:*GRW....
	0x0030:  0000 0000 0000 2046 4845 5046 4345 4c45  .......FHEPFCELE
	0x0040:  4846 4345 5046 4646 4143 4143 4143 4143  HFCEPFFFACACACAC
	0x0050:  4143 4143 4142 4e00 0020 0001            ACACABN.....
2024-11-07 11:05:20.369988 IP sa-ccl2502.ad.rit.edu.netbios-ns > 129.21.127.255.netbios-ns: UDP, length 50
	0x0000:  ffff ffff ffff 184a 5305 e2ce 0800 4500  .......JS.....E.
	0x0010:  004e 84f2 0000 4011 f678 8115 7d0a 8115  .N....@..x..}...
	0x0020:  7fff 0089 0089 003a 2860 5457 0110 0001  .......:(`TW....
	0x0030:  0000 0000 0000 2046 4845 5046 4345 4c45  .......FHEPFCELE
	0x0040:  4846 4345 5046 4646 4143 4143 4143 4143  HFCEPFFFACACACAC
	0x0050:  4143 4143 4142 4e00 0020 0001            ACACABN.....
2024-11-07 11:05:20.370940 IP helens-laptop-2.wireless.rit.edu.netbios-ns > 129.21.127.255.netbios-ns: UDP, length 50
	0x0000:  ffff ffff ffff 74a6 cdcd f8ff 0800 4500  ......t.......E.
	0x0010:  004e 0de9 0000 4011 6ce6 8115 7da6 8115  .N....@.l...}...
	0x0020:  7fff 0089 0089 003a 35f8 4623 0110 0001  .......:5.F#....
	0x0030:  0000 0000 0000 2046 4845 5046 4345 4c45  .......FHEPFCELE
	0x0040:  4846 4345 5046 4646 4143 4143 4143 4143  HFCEPFFFACACACAC
	0x0050:  4143 4143 4142 4e00 0020 0001            ACACABN.....
2024-11-07 11:05:20.370940 IP macbook-pro-333.wireless.rit.edu.netbios-ns > 129.21.127.255.netbios-ns: UDP, length 50
	0x0000:  ffff ffff ffff bcd0 745c 3bc3 0800 4500  ........t\;...E.
	0x0010:  004e 1d94 0000 4011 5d37 8115 7daa 8115  .N....@.]7..}...
	0x0020:  7fff 0089 0089 003a 3687 4590 0110 0001  .......:6.E.....
	0x0030:  0000 0000 0000 2046 4845 5046 4345 4c45  .......FHEPFCELE
	0x0040:  4846 4345 5046 4646 4143 4143 4143 4143  HFCEPFFFACACACAC
	0x0050:  4143 4143 4142 4e00 0020 0001            ACACABN.....
2024-11-07 11:05:20.370941 IP nathans-air-8.wireless.rit.edu.netbios-ns > 129.21.127.255.netbios-ns: UDP, length 50
	0x0000:  ffff ffff ffff 1c57 dc23 47f1 0800 4500  .......W.#G...E.
	0x0010:  004e d644 0000 4011 a482 8115 7dae 8115  .N.D..@.....}...
	0x0020:  7fff 0089 0089 003a 303e 4bd5 0110 0001  .......:0>K.....
	0x0030:  0000 0000 0000 2046 4845 5046 4345 4c45  .......FHEPFCELE
	0x0040:  4846 4345 5046 4646 4143 4143 4143 4143  HFCEPFFFACACACAC
	0x0050:  4143 4143 4142 4e00 0020 0001            ACACABN.....
2024-11-07 11:05:20.370941 IP rit-core1-hsrp-010-vlan4078.rit.edu > pim-routers.mcast.net: PIMv2, Hello, length 48
	0x0000:  0100 5e00 000d 30b6 4f86 fe2d 0800 45c0  ..^...0.O..-..E.
	0x0010:  0044 0ef9 0000 0167 007c 8115 47fc e000  .D.....g.|..G...
	0x0020:  000d 2000 2b7a 0001 0002 0069 0002 0004  ....+z.....i....
	0x0030:  81f4 07d0 0013 0004 0000 00c8 0018 0006  ................
	0x0040:  0100 8115 47fe 0014 0004 6907 f604 001a  ....G.....i.....
	0x0050:  0000                                     ..
2024-11-07 11:05:20.370942 IP cla-do2302.main.ad.rit.edu.netbios-ns > 129.21.127.255.netbios-ns: UDP, length 50
	0x0000:  ffff ffff ffff 3ca6 f6a2 1354 0800 4500  ......<....T..E.
	0x0010:  004e 2b36 0000 4011 4dc4 8115 7f7b 8115  .N+6..@.M....{..
	0x0020:  7fff 0089 0089 003a f95f 80e6 0110 0001  .......:._......
	0x0030:  0000 0000 0000 2046 4845 5046 4345 4c45  .......FHEPFCELE
	0x0040:  4846 4345 5046 4646 4143 4143 4143 4143  HFCEPFFFACACACAC
	0x0050:  4143 4143 4142 4e00 0020 0001            ACACABN.....
2024-11-07 11:05:20.371947 IP macbook-pro-65.wireless.rit.edu.netbios-ns > 129.21.127.255.netbios-ns: UDP, length 50
	0x0000:  ffff ffff ffff 3c06 304e 0370 0800 4500  ......<.0N.p..E.
	0x0010:  004e 3230 0000 4011 4765 8115 7ee0 8115  .N20..@.Ge..~...
	0x0020:  7fff 0089 0089 003a 3386 475b 0110 0001  .......:3.G[....
	0x0030:  0000 0000 0000 2046 4845 5046 4345 4c45  .......FHEPFCELE
	0x0040:  4846 4345 5046 4646 4143 4143 4143 4143  HFCEPFFFACACACAC
	0x0050:  4143 4143 4142 4e00 0020 0001            ACACABN.....
2024-11-07 11:05:20.371948 IP graysons-mbp.wireless.rit.edu.netbios-ns > 129.21.127.255.netbios-ns: UDP, length 50
	0x0000:  ffff ffff ffff 80a9 9725 3096 0800 4500  .........%0...E.
	0x0010:  004e 8219 0000 4011 fa4f 8115 7c0c 8115  .N....@..O..|...
	0x0020:  7fff 0089 0089 003a 37f5 45c0 0110 0001  .......:7.E.....
	0x0030:  0000 0000 0000 2046 4845 5046 4345 4c45  .......FHEPFCELE
	0x0040:  4846 4345 5046 4646 4143 4143 4143 4143  HFCEPFFFACACACAC
	0x0050:  4143 4143 4142 4e00 0020 0001            ACACABN.....
2024-11-07 11:05:20.371949 IP alicjas-air.wireless.rit.edu.netbios-ns > 129.21.127.255.netbios-ns: UDP, length 50
	0x0000:  ffff ffff ffff 3c22 fb9e 86f6 0800 4500  ......<"......E.
	0x0010:  004e 1799 0000 4011 6348 8115 7d94 8115  .N....@.cH..}...
	0x0020:  7fff 0089 0089 003a 335e 48cf 0110 0001  .......:3^H.....
	0x0030:  0000 0000 0000 2046 4845 5046 4345 4c45  .......FHEPFCELE
	0x0040:  4846 4345 5046 4646 4143 4143 4143 4143  HFCEPFFFACACACAC
	0x0050:  4143 4143 4142 4e00 0020 0001            ACACABN.....
2024-11-07 11:05:20.372957 IP chasescomputer.wireless.rit.edu.58967 > 224.0.0.252.5355: UDP, length 28
	0x0000:  0100 5e00 00fc 1413 33ea ef4d 0800 4500  ..^.....3..M..E.
	0x0010:  0038 5bb8 0000 0111 741e 8115 87cd e000  .8[.....t.......
	0x0020:  00fc e657 14eb 0024 3d96 3e7b 0000 0001  ...W...$=.>{....
	0x0030:  0000 0000 0000 0a4c 495a 5a59 532d 4d42  .......LIZZYS-MB
	0x0040:  5000 0001 0001                           P.....
2024-11-07 11:05:20.372957 IP notchromebook.wireless.rit.edu.54915 > 129.21.87.255.54915: UDP, length 263
	0x0000:  ffff ffff ffff 9859 7ac3 3b1f 0800 4500  .......Yz.;...E.
	0x0010:  0123 413c 0000 8011 48f9 8115 556b 8115  .#A<....H...Uk..
	0x0020:  57ff d683 d683 010f 9c66 004e 6f74 4368  W........f.NotCh
	0x0030:  726f 6d65 626f 6f6b 0000 40b4 8f56 5200  romebook..@..VR.
	0x0040:  0000 0000 0000 0000 0000 3327 0000 0000  ..........3'....
	0x0050:  0000 009d 88c1 5a01 0000 0000 0000 0000  ......Z.........
	0x0060:  0000 0000 0000 0000 0000 0000 0000 0000  ................
	0x0070:  0000 7c6a 0e50 0000 0000 d0a2 d476 0000  ..|j.P.......v..
	0x0080:  0000 79b8 8f56 5200 0000 0000 0000 0000  ..y..VR.........
	0x0090:  0000 805f 7dc1 5a01 0000 c4b4 8f56 5200  ..._}.Z......VR.
	0x00a0:  0000 e0b4 8f56 5200 0000 c8b1 067b 3434  .....VR......{44
	0x00b0:  6535 3537 6665 2d34 3663 362d 3461 6536  e557fe-46c6-4ae6
	0x00c0:  2d61 3763 322d 3033 6133 6232 3631 3932  -a7c2-03a3b26192
	0x00d0:  3139 7d00 0000 0000 0000 0100 0000 5200  19}...........R.
	0x00e0:  0000 c0b4 8f56 5200 0000 0000 0000 0000  .....VR.........
	0x00f0:  0000 0000 0000 0000 0000 0000 0000 0000  ................
	0x0100:  0000 0000 0000 0000 0000 0000 0000 0000  ................
	0x0110:  0000 0000 0000 0000 0000 0000 0000 0000  ................
	0x0120:  0000 0000 0000 0000 0000 0000 007f f400  ................
	0x0130:  53                                       S
2024-11-07 11:05:20.372958 IP its-ops2202.ad.rit.edu.netbios-ns > 129.21.127.255.netbios-ns: UDP, length 50
	0x0000:  ffff ffff ffff c889 f3b0 e3dc 0800 4500  ..............E.
	0x0010:  004e 2688 0000 4011 53ec 8115 7e01 8115  .N&...@.S...~...
	0x0020:  7fff 0089 0089 003a 3428 4798 0110 0001  .......:4(G.....
	0x0030:  0000 0000 0000 2046 4845 5046 4345 4c45  .......FHEPFCELE
	0x0040:  4846 4345 5046 4646 4143 4143 4143 4143  HFCEPFFFACACACAC
	0x0050:  4143 4143 4142 4e00 0020 0001            ACACABN.....
2024-11-07 11:05:20.372959 IP cla-ml2201.main.ad.rit.edu.netbios-ns > 129.21.127.255.netbios-ns: UDP, length 50
	0x0000:  ffff ffff ffff 3c06 3034 2ea7 0800 4500  ......<.04....E.
	0x0010:  004e 6fe7 0000 4011 0c31 8115 7c5d 8115  .No...@..1..|]..
	0x0020:  7fff 0089 0089 003a 371c 4648 0110 0001  .......:7.FH....
	0x0030:  0000 0000 0000 2046 4845 5046 4345 4c45  .......FHEPFCELE
	0x0040:  4846 4345 5046 4646 4143 4143 4143 4143  HFCEPFFFACACACAC
	0x0050:  4143 4143 4142 4e00 0020 0001            ACACABN.....
2024-11-07 11:05:20.373860 IP cet-pgms2502.rit.edu.netbios-ns > 129.21.127.255.netbios-ns: UDP, length 50
	0x0000:  ffff ffff ffff 80a9 9725 563f 0800 4500  .........%V?..E.
	0x0010:  004e 3bcf 0000 4011 3ce5 8115 7fc1 8115  .N;...@.<.......
	0x0020:  7fff 0089 0089 003a 2ab6 4f4a 0110 0001  .......:*.OJ....
	0x0030:  0000 0000 0000 2046 4845 5046 4345 4c45  .......FHEPFCELE
	0x0040:  4846 4345 5046 4646 4143 4143 4143 4143  HFCEPFFFACACACAC
	0x0050:  4143 4143 4142 4e00 0020 0001            ACACABN.....
2024-11-07 11:05:20.373861 IP rm23483616212351.wireless.rit.edu.netbios-ns > 129.21.115.255.netbios-ns: UDP, length 50
	0x0000:  ffff ffff ffff fce2 6c29 5c5e 0800 4500  ........l)\^..E.
	0x0010:  004e cea4 0000 4011 c360 8115 7270 8115  .N....@..`..rp..
	0x0020:  73ff 0089 0089 003a 26e7 4568 0110 0001  s......:&.Eh....
	0x0030:  0000 0000 0000 2041 4241 4346 5046 5045  .......ABACFPFPE
	0x0040:  4e46 4445 4346 4345 5046 4846 4445 4646  NFDECFCEPFHFDEFF
	0x0050:  5046 5041 4341 4200 0020 0001            PFPACAB.....
2024-11-07 11:05:20.373861 IP noels-mbp.wireless.rit.edu.netbios-ns > 129.21.127.255.netbios-ns: UDP, length 50
	0x0000:  ffff ffff ffff 3c22 fb33 8ef8 0800 4500  ......<".3....E.
	0x0010:  004e 889b 0000 4011 f1c5 8115 7e14 8115  .N....@.....~...
	0x0020:  7fff 0089 0089 003a 35fe 45af 0110 0001  .......:5.E.....
	0x0030:  0000 0000 0000 2046 4845 5046 4345 4c45  .......FHEPFCELE
	0x0040:  4846 4345 5046 4646 4143 4143 4143 4143  HFCEPFFFACACACAC
	0x0050:  4143 4143 4142 4e00 0020 0001            ACACABN.....
2024-11-07 11:05:20.373862 IP scallion.wireless.rit.edu.55154 > 129.21.71.255.32414: UDP, length 21
	0x0000:  ffff ffff ffff e8fb 1c7d 9f96 0800 4500  .........}....E.
	0x0010:  0031 d0d7 0000 8011 da46 8115 4574 8115  .1.......F..Et..
	0x0020:  47ff d772 7e9e 001d a3c6 4d2d 5345 4152  G..r~.....M-SEAR
	0x0030:  4348 202a 2048 5454 502f 312e 310d 0a    CH.*.HTTP/1.1..
2024-11-07 11:05:20.373862 IP emirs-mbp.wireless.rit.edu.netbios-ns > 129.21.127.255.netbios-ns: UDP, length 50
	0x0000:  ffff ffff ffff 3c06 302b d852 0800 4500  ......<.0+.R..E.
	0x0010:  004e cc0c 0000 4011 b018 8115 7c50 8115  .N....@.....|P..
	0x0020:  7fff 0089 0089 003a 37b9 45b8 0110 0001  .......:7.E.....
	0x0030:  0000 0000 0000 2046 4845 5046 4345 4c45  .......FHEPFCELE
	0x0040:  4846 4345 5046 4646 4143 4143 4143 4143  HFCEPFFFACACACAC
	0x0050:  4143 4143 4142 4e00 0020 0001            ACACABN.....
2024-11-07 11:05:20.373863 IP elizes-mbp.wireless.rit.edu.netbios-ns > 129.21.127.255.netbios-ns: UDP, length 50
	0x0000:  ffff ffff ffff 7cf3 4deb 437d 0800 4500  ......|.M.C}..E.
	0x0010:  004e 8892 0000 4011 f112 8115 7ed0 8115  .N....@.....~...
	0x0020:  7fff 0089 0089 003a 297d 5174 0110 0001  .......:)}Qt....
	0x0030:  0000 0000 0000 2046 4845 5046 4345 4c45  .......FHEPFCELE
	0x0040:  4846 4345 5046 4646 4143 4143 4143 4143  HFCEPFFFACACACAC
	0x0050:  4143 4143 4142 4e00 0020 0001            ACACABN.....
2024-11-07 11:05:20.374811 IP matthews-air-5.wireless.rit.edu.netbios-ns > 129.21.127.255.netbios-ns: UDP, length 50
	0x0000:  ffff ffff ffff 3c22 fbf3 08db 0800 4500  ......<"......E.
	0x0010:  004e 4885 0000 4011 304f 8115 7fa1 8115  .NH...@.0O......
	0x0020:  7fff 0089 0089 003a 345e 45c2 0110 0001  .......:4^E.....
	0x0030:  0000 0000 0000 2046 4845 5046 4345 4c45  .......FHEPFCELE
	0x0040:  4846 4345 5046 4646 4143 4143 4143 4143  HFCEPFFFACACACAC
	0x0050:  4143 4143 4142 4e00 0020 0001            ACACABN.....
2024-11-07 11:05:20.374812 IP liang.wireless.rit.edu.55635 > 224.0.0.252.5355: UDP, length 31
	0x0000:  0100 5e00 00fc c403 a835 f633 0800 4500  ..^......5.3..E.
	0x0010:  003b eceb 0000 0111 e68b 8115 8429 e000  .;...........)..
	0x0020:  00fc d953 14eb 0027 a51f ec08 0000 0001  ...S...'........
	0x0030:  0000 0000 0000 0d41 4c49 534f 4e53 2d4d  .......ALISONS-M
	0x0040:  4250 2d32 0000 0100 01                   BP-2.....
2024-11-07 11:05:20.374812 IP 129.21.127.89.57094 > 224.0.0.252.5355: UDP, length 33
	0x0000:  0100 5e00 00fc 94e7 0b06 6f7b 0800 4500  ..^.......o{..E.
	0x0010:  003d 2b8b 0000 0111 acba 8115 7f59 e000  .=+..........Y..
	0x0020:  00fc df06 14eb 0029 4823 3a30 0000 0001  .......)H#:0....
	0x0030:  0000 0000 0000 0f42 5257 3134 4143 3630  .......BRW14AC60
	0x0040:  3433 3532 3244 0000 0100 01              43522D.....
2024-11-07 11:05:20.374813 IP 129.21.127.136.netbios-ns > 129.21.127.255.netbios-ns: UDP, length 50
	0x0000:  ffff ffff ffff a483 e7db 9173 0800 4500  ...........s..E.
	0x0010:  004e f889 0000 4011 8063 8115 7f88 8115  .N....@..c......
	0x0020:  7fff 0089 0089 003a e252 97e6 0110 0001  .......:.R......
	0x0030:  0000 0000 0000 2046 4845 5046 4345 4c45  .......FHEPFCELE
	0x0040:  4846 4345 5046 4646 4143 4143 4143 4143  HFCEPFFFACACACAC
	0x0050:  4143 4143 4142 4e00 0020 0001            ACACABN.....
2024-11-07 11:05:20.374813 IP 10.118.52.124.57621 > 10.118.255.255.57621: UDP, length 44
	0x0000:  ffff ffff ffff ee76 b9d8 f112 0800 4500  .......v......E.
	0x0010:  0048 038d 0000 4011 2db1 0a76 347c 0a76  .H....@.-..v4|.v
	0x0020:  ffff e115 e115 0034 b148 5370 6f74 5564  .......4.HSpotUd
	0x0030:  7030 e33c 765a aef5 39ee 0001 0004 4895  p0.<vZ..9.....H.
	0x0040:  c203 01d0 2c14 e7de 6e47 0766 6964 5b6c  ....,...nG.fid[l
	0x0050:  3f4c 0e34 cf55                           ?L.4.U
2024-11-07 11:05:20.374814 IP heenals-mbp.wireless.rit.edu.netbios-ns > 129.21.127.255.netbios-ns: UDP, length 50
	0x0000:  ffff ffff ffff a4cf 9954 555b 0800 4500  .........TU[..E.
	0x0010:  004e 03cd 0000 4011 77f9 8115 7caf 8115  .N....@.w...|...
	0x0020:  7fff 0089 0089 003a 3726 45ec 0110 0001  .......:7&E.....
	0x0030:  0000 0000 0000 2046 4845 5046 4345 4c45  .......FHEPFCELE
	0x0040:  4846 4345 5046 4646 4143 4143 4143 4143  HFCEPFFFACACACAC
	0x0050:  4143 4143 4142 4e00 0020 0001            ACACABN.....
2024-11-07 11:05:20.374814 IP cla-do2402.ad.rit.edu.netbios-ns > 129.21.127.255.netbios-ns: UDP, length 50
	0x0000:  ffff ffff ffff 109f 41c8 488c 0800 4500  ........A.H...E.
	0x0010:  004e fce4 0000 4011 7bdf 8115 7fb1 8115  .N....@.{.......
	0x0020:  7fff 0089 0089 003a 3245 47cb 0110 0001  .......:2EG.....
	0x0030:  0000 0000 0000 2046 4845 5046 4345 4c45  .......FHEPFCELE
	0x0040:  4846 4345 5046 4646 4143 4143 4143 4143  HFCEPFFFACACACAC
	0x0050:  4143 4143 4142 4e00 0020 0001            ACACABN.....
2024-11-07 11:05:20.375852 IP laptop-2o2oin9r.wireless.rit.edu.63081 > 224.0.0.252.5355: UDP, length 33
	0x0000:  0100 5e00 00fc 5896 1dfc 4f77 0800 4500  ..^...X...Ow..E.
	0x0010:  003d f379 0000 0111 27fc 8115 3c29 e000  .=.y....'...<)..
	0x0020:  00fc f669 14eb 0029 7235 077d 0000 0001  ...i...)r5.}....
	0x0030:  0000 0000 0000 0f4c 4150 544f 502d 324f  .......LAPTOP-2O
	0x0040:  324f 494e 3952 0000 ff00 01              2OIN9R.....
2024-11-07 11:05:20.375853 IP cos-phy2410.ad.rit.edu.netbios-ns > 129.21.127.255.netbios-ns: UDP, length 50
	0x0000:  ffff ffff ffff 6c7e 67d7 2021 0800 4500  ......l~g..!..E.
	0x0010:  004e f62e 0000 4011 832c 8115 7f1a 8115  .N....@..,......
	0x0020:  7fff 0089 0089 003a 3515 4592 0110 0001  .......:5.E.....
	0x0030:  0000 0000 0000 2046 4845 5046 4345 4c45  .......FHEPFCELE
	0x0040:  4846 4345 5046 4646 4143 4143 4143 4143  HFCEPFFFACACACAC
	0x0050:  4143 4143 4142 4e00 0020 0001            ACACABN.....
2024-11-07 11:05:20.375854 IP ktf8494.student.rit.edu.52510 > 129.21.63.255.15600: UDP, length 35
	0x0000:  ffff ffff ffff 6c70 cbe2 8046 0800 4500  ......lp...F..E.
	0x0010:  003f 0cfb 4000 4011 ad61 8115 3e28 8115  .?..@.@..a..>(..
	0x0020:  3fff cd1e 3cf0 002b 2d00 5345 4152 4348  ?...<..+-.SEARCH
	0x0030:  2042 5344 502f 302e 310a 4445 5649 4345  .BSDP/0.1.DEVICE
	0x0040:  3d30 0a53 4552 5649 4345 3d31 0a         =0.SERVICE=1.
