2024-11-10 23:36:26.181098 IP 192.168.0.141 > dns.google: ICMP echo request, id 38573, seq 5, length 64
	0x0000:  ac15 a269 6ce2 0800 271e 364a 0800 4500  ...il...'.6J..E.
	0x0010:  0054 663e 4000 4001 0326 c0a8 008d 0808  .Tf>@.@..&......
	0x0020:  0808 0800 67c6 96ad 0005 ca89 3167 0000  ....g.......1g..
	0x0030:  0000 3cc3 0200 0000 0000 1011 1213 1415  ..<.............
	0x0040:  1617 1819 1a1b 1c1d 1e1f 2021 2223 2425  ...........!"#$%
	0x0050:  2627 2829 2a2b 2c2d 2e2f 3031 3233 3435  &'()*+,-./012345
	0x0060:  3637                                     67
2024-11-10 23:36:26.290621 IP dns.google > 192.168.0.141: ICMP echo reply, id 38573, seq 5, length 64
	0x0000:  0800 271e 364a ac15 a269 6ce2 0800 4500  ..'.6J...il...E.
	0x0010:  0054 0000 0000 7101 7864 0808 0808 c0a8  .T....q.xd......
	0x0020:  008d 0000 6fc6 96ad 0005 ca89 3167 0000  ....o.......1g..
	0x0030:  0000 3cc3 0200 0000 0000 1011 1213 1415  ..<.............
	0x0040:  1617 1819 1a1b 1c1d 1e1f 2021 2223 2425  ...........!"#$%
	0x0050:  2627 2829 2a2b 2c2d 2e2f 3031 3233 3435  &'()*+,-./012345
	0x0060:  3637                                     67
2024-11-10 23:36:26.292375 IP 192.168.0.141.43458 > 192.168.0.1.domain: 33447+ PTR? 8.8.8.8.in-addr.arpa. (38)
	0x0000:  ac15 a269 6ce2 0800 271e 364a 0800 4500  ...il...'.6J..E.
	0x0010:  0042 dca2 4000 4011 dc29 c0a8 008d c0a8  .B..@.@..)......
	0x0020:  0001 a9c2 0035 002e 821e 82a7 0100 0001  .....5..........
	0x0030:  0000 0000 0000 0138 0138 0138 0138 0769  .......8.8.8.8.i
	0x0040:  6e2d 6164 6472 0461 7270 6100 000c 0001  n-addr.arpa.....
2024-11-10 23:36:26.325412 IP 192.168.0.1.domain > 192.168.0.141.43458: 33447 1/0/0 PTR dns.google. (62)
	0x0000:  0800 271e 364a ac15 a269 6ce2 0800 4500  ..'.6J...il...E.
	0x0010:  005a 8a06 0000 3611 78ae c0a8 0001 c0a8  .Z....6.x.......
	0x0020:  008d 0035 a9c2 0046 1ffa 82a7 8180 0001  ...5...F........
	0x0030:  0001 0000 0000 0138 0138 0138 0138 0769  .......8.8.8.8.i
	0x0040:  6e2d 6164 6472 0461 7270 6100 000c 0001  n-addr.arpa.....
	0x0050:  c00c 000c 0001 0000 22fb 000c 0364 6e73  ........"....dns
	0x0060:  0667 6f6f 676c 6500                      .google.
2024-11-10 23:36:26.325783 IP 192.168.0.141.54826 > 192.168.0.1.domain: 54042+ PTR? 141.0.168.192.in-addr.arpa. (44)
	0x0000:  ac15 a269 6ce2 0800 271e 364a 0800 4500  ...il...'.6J..E.
	0x0010:  0048 09a3 4000 4011 af23 c0a8 008d c0a8  .H..@.@..#......
	0x0020:  0001 d62a 0035 0034 8224 d31a 0100 0001  ...*.5.4.$......
	0x0030:  0000 0000 0000 0331 3431 0130 0331 3638  .......141.0.168
	0x0040:  0331 3932 0769 6e2d 6164 6472 0461 7270  .192.in-addr.arp
	0x0050:  6100 000c 0001                           a.....
2024-11-10 23:36:26.357802 IP 192.168.0.1.domain > 192.168.0.141.54826: 54042 NXDomain 0/0/0 (44)
	0x0000:  0800 271e 364a ac15 a269 6ce2 0800 4500  ..'.6J...il...E.
	0x0010:  0048 0929 0000 6611 c99d c0a8 0001 c0a8  .H.)..f.........
	0x0020:  008d 0035 d62a 0034 90fd d31a 8183 0001  ...5.*.4........
	0x0030:  0000 0000 0000 0331 3431 0130 0331 3638  .......141.0.168
	0x0040:  0331 3932 0769 6e2d 6164 6472 0461 7270  .192.in-addr.arp
	0x0050:  6100 000c 0001                           a.....
2024-11-10 23:36:27.193006 IP 192.168.0.141 > dns.google: ICMP echo request, id 38573, seq 6, length 64
	0x0000:  ac15 a269 6ce2 0800 271e 364a 0800 4500  ...il...'.6J..E.
	0x0010:  0054 671e 4000 4001 0246 c0a8 008d 0808  .Tg.@.@..F......
	0x0020:  0808 0800 d996 96ad 0006 cb89 3167 0000  ............1g..
	0x0030:  0000 c9f1 0200 0000 0000 1011 1213 1415  ................
	0x0040:  1617 1819 1a1b 1c1d 1e1f 2021 2223 2425  ...........!"#$%
	0x0050:  2627 2829 2a2b 2c2d 2e2f 3031 3233 3435  &'()*+,-./012345
	0x0060:  3637                                     67
2024-11-10 23:36:27.200444 ARP, Request who-has 192.168.0.141 tell 192.168.0.1, length 46
	0x0000:  ffff ffff ffff ac15 a269 6ce2 0806 0001  .........il.....
	0x0010:  0800 0604 0001 ac15 a269 6ce2 c0a8 0001  .........il.....
	0x0020:  0000 0000 0000 c0a8 008d 0000 0000 0000  ................
	0x0030:  0000 0000 0000 0000 0000 0000            ............
2024-11-10 23:36:27.200464 ARP, Reply 192.168.0.141 is-at 08:00:27:1e:36:4a (oui Unknown), length 28
	0x0000:  ac15 a269 6ce2 0800 271e 364a 0806 0001  ...il...'.6J....
	0x0010:  0800 0604 0002 0800 271e 364a c0a8 008d  ........'.6J....
	0x0020:  ac15 a269 6ce2 c0a8 0001                 ...il.....
2024-11-10 23:36:27.216126 IP dns.google > 192.168.0.141: ICMP echo reply, id 38573, seq 6, length 64
	0x0000:  0800 271e 364a ac15 a269 6ce2 0800 4500  ..'.6J...il...E.
	0x0010:  0054 0000 0000 7101 7864 0808 0808 c0a8  .T....q.xd......
	0x0020:  008d 0000 e196 96ad 0006 cb89 3167 0000  ............1g..
	0x0030:  0000 c9f1 0200 0000 0000 1011 1213 1415  ................
	0x0040:  1617 1819 1a1b 1c1d 1e1f 2021 2223 2425  ...........!"#$%
	0x0050:  2627 2829 2a2b 2c2d 2e2f 3031 3233 3435  &'()*+,-./012345
	0x0060:  3637                                     67
2024-11-10 23:36:27.310685 IP 192.168.0.141.39675 > 192.168.0.1.domain: 27104+ PTR? 1.0.168.192.in-addr.arpa. (42)
	0x0000:  ac15 a269 6ce2 0800 271e 364a 0800 4500  ...il...'.6J..E.
	0x0010:  0046 b1d0 4000 4011 06f8 c0a8 008d c0a8  .F..@.@.........
	0x0020:  0001 9afb 0035 0032 8222 69e0 0100 0001  .....5.2."i.....
	0x0030:  0000 0000 0000 0131 0130 0331 3638 0331  .......1.0.168.1
	0x0040:  3932 0769 6e2d 6164 6472 0461 7270 6100  92.in-addr.arpa.
	0x0050:  000c 0001                                ....
2024-11-10 23:36:27.332277 IP 192.168.0.1.domain > 192.168.0.141.39675: 27104 NXDomain 0/0/0 (42)
	0x0000:  0800 271e 364a ac15 a269 6ce2 0800 4500  ..'.6J...il...E.
	0x0010:  0046 5c73 0000 3611 a655 c0a8 0001 c0a8  .F\s..6..U......
	0x0020:  008d 0035 9afb 0032 6b9c 69e0 8183 0001  ...5...2k.i.....
	0x0030:  0000 0000 0000 0131 0130 0331 3638 0331  .......1.0.168.1
	0x0040:  3932 0769 6e2d 6164 6472 0461 7270 6100  92.in-addr.arpa.
	0x0050:  000c 0001                                ....
2024-11-10 23:36:27.393192 ARP, Request who-has 192.168.0.1 tell 192.168.0.141, length 28
	0x0000:  ac15 a269 6ce2 0800 271e 364a 0806 0001  ...il...'.6J....
	0x0010:  0800 0604 0001 0800 271e 364a c0a8 008d  ........'.6J....
	0x0020:  0000 0000 0000 c0a8 0001                 ..........
2024-11-10 23:36:27.405276 ARP, Reply 192.168.0.1 is-at ac:15:a2:69:6c:e2 (oui Unknown), length 46
	0x0000:  0800 271e 364a ac15 a269 6ce2 0806 0001  ..'.6J...il.....
	0x0010:  0800 0604 0002 ac15 a269 6ce2 c0a8 0001  .........il.....
	0x0020:  0800 271e 364a c0a8 008d 0000 0000 0000  ..'.6J..........
	0x0030:  0000 0000 0000 0000 0000 0000            ............
2024-11-10 23:36:28.307214 IP 192.168.0.141 > dns.google: ICMP echo request, id 38573, seq 7, length 64
	0x0000:  ac15 a269 6ce2 0800 271e 364a 0800 4500  ...il...'.6J..E.
	0x0010:  0054 67ca 4000 4001 019a c0a8 008d 0808  .Tg.@.@.........
	0x0020:  0808 0800 bad7 96ad 0007 cc89 3167 0000  ............1g..
	0x0030:  0000 e5af 0400 0000 0000 1011 1213 1415  ................
	0x0040:  1617 1819 1a1b 1c1d 1e1f 2021 2223 2425  ...........!"#$%
	0x0050:  2627 2829 2a2b 2c2d 2e2f 3031 3233 3435  &'()*+,-./012345
	0x0060:  3637                                     67
2024-11-10 23:36:28.440371 IP dns.google > 192.168.0.141: ICMP echo reply, id 38573, seq 7, length 64
	0x0000:  0800 271e 364a ac15 a269 6ce2 0800 4500  ..'.6J...il...E.
	0x0010:  0054 0000 0000 7101 7864 0808 0808 c0a8  .T....q.xd......
	0x0020:  008d 0000 c2d7 96ad 0007 cc89 3167 0000  ............1g..
	0x0030:  0000 e5af 0400 0000 0000 1011 1213 1415  ................
	0x0040:  1617 1819 1a1b 1c1d 1e1f 2021 2223 2425  ...........!"#$%
	0x0050:  2627 2829 2a2b 2c2d 2e2f 3031 3233 3435  &'()*+,-./012345
	0x0060:  3637                                     67
2024-11-10 23:36:29.308850 IP 192.168.0.141 > dns.google: ICMP echo request, id 38573, seq 8, length 64
	0x0000:  ac15 a269 6ce2 0800 271e 364a 0800 4500  ...il...'.6J..E.
	0x0010:  0054 6811 4000 4001 0153 c0a8 008d 0808  .Th.@.@..S......
	0x0020:  0808 0800 56d0 96ad 0008 cd89 3167 0000  ....V.......1g..
	0x0030:  0000 48b6 0400 0000 0000 1011 1213 1415  ..H.............
	0x0040:  1617 1819 1a1b 1c1d 1e1f 2021 2223 2425  ...........!"#$%
	0x0050:  2627 2829 2a2b 2c2d 2e2f 3031 3233 3435  &'()*+,-./012345
	0x0060:  3637                                     67
2024-11-10 23:36:29.332955 IP dns.google > 192.168.0.141: ICMP echo reply, id 38573, seq 8, length 64
	0x0000:  0800 271e 364a ac15 a269 6ce2 0800 4500  ..'.6J...il...E.
	0x0010:  0054 0000 0000 7101 7864 0808 0808 c0a8  .T....q.xd......
	0x0020:  008d 0000 5ed0 96ad 0008 cd89 3167 0000  ....^.......1g..
	0x0030:  0000 48b6 0400 0000 0000 1011 1213 1415  ..H.............
	0x0040:  1617 1819 1a1b 1c1d 1e1f 2021 2223 2425  ...........!"#$%
	0x0050:  2627 2829 2a2b 2c2d 2e2f 3031 3233 3435  &'()*+,-./012345
	0x0060:  3637                                     67
2024-11-10 23:36:29.971751 IP 192.168.0.1.43450 > mdns.mcast.net.mdns: 28152 PTR (QM)? 192.168.0.107.in-addr.arpa. (44)
	0x0000:  0100 5e00 00fb ac15 a269 6ce2 0800 4500  ..^......il...E.
	0x0010:  0048 0000 4000 0111 d800 c0a8 0001 e000  .H..@...........
	0x0020:  00fb a9ba 14e9 0034 7393 6df8 0000 0001  .......4s.m.....
	0x0030:  0000 0000 0000 0331 3932 0331 3638 0130  .......192.168.0
	0x0040:  0331 3037 0769 6e2d 6164 6472 0461 7270  .107.in-addr.arp
	0x0050:  6100 000c 0001                           a.....
2024-11-10 23:36:30.073430 IP 192.168.0.1.51888 > mdns.mcast.net.mdns: 28153 PTR (QM)? 192.168.0.108.in-addr.arpa. (44)
	0x0000:  0100 5e00 00fb ac15 a269 6ce2 0800 4500  ..^......il...E.
	0x0010:  0048 0000 4000 0111 d800 c0a8 0001 e000  .H..@...........
	0x0020:  00fb cab0 14e9 0034 529b 6df9 0000 0001  .......4R.m.....
	0x0030:  0000 0000 0000 0331 3932 0331 3638 0130  .......192.168.0
	0x0040:  0331 3038 0769 6e2d 6164 6472 0461 7270  .108.in-addr.arp
	0x0050:  6100 000c 0001                           a.....
2024-11-10 23:36:30.313847 IP 192.168.0.141 > dns.google: ICMP echo request, id 38573, seq 9, length 64
	0x0000:  ac15 a269 6ce2 0800 271e 364a 0800 4500  ...il...'.6J..E.
	0x0010:  0054 68c7 4000 4001 009d c0a8 008d 0808  .Th.@.@.........
	0x0020:  0808 0800 cabb 96ad 0009 ce89 3167 0000  ............1g..
	0x0030:  0000 d3c9 0400 0000 0000 1011 1213 1415  ................
	0x0040:  1617 1819 1a1b 1c1d 1e1f 2021 2223 2425  ...........!"#$%
	0x0050:  2627 2829 2a2b 2c2d 2e2f 3031 3233 3435  &'()*+,-./012345
	0x0060:  3637                                     67
2024-11-10 23:36:30.372219 IP 192.168.0.141.34308 > 192.168.0.1.domain: 42510+ PTR? 251.0.0.224.in-addr.arpa. (42)
	0x0000:  ac15 a269 6ce2 0800 271e 364a 0800 4500  ...il...'.6J..E.
	0x0010:  0046 270d 4000 4011 91bb c0a8 008d c0a8  .F'.@.@.........
	0x0020:  0001 8604 0035 0032 8222 a60e 0100 0001  .....5.2."......
	0x0030:  0000 0000 0000 0332 3531 0130 0130 0332  .......251.0.0.2
	0x0040:  3234 0769 6e2d 6164 6472 0461 7270 6100  24.in-addr.arpa.
	0x0050:  000c 0001                                ....
2024-11-10 23:36:30.386541 IP dns.google > 192.168.0.141: ICMP echo reply, id 38573, seq 9, length 64
	0x0000:  0800 271e 364a ac15 a269 6ce2 0800 4500  ..'.6J...il...E.
	0x0010:  0054 0000 0000 7101 7864 0808 0808 c0a8  .T....q.xd......
	0x0020:  008d 0000 d2bb 96ad 0009 ce89 3167 0000  ............1g..
	0x0030:  0000 d3c9 0400 0000 0000 1011 1213 1415  ................
	0x0040:  1617 1819 1a1b 1c1d 1e1f 2021 2223 2425  ...........!"#$%
	0x0050:  2627 2829 2a2b 2c2d 2e2f 3031 3233 3435  &'()*+,-./012345
	0x0060:  3637                                     67
2024-11-10 23:36:30.397111 IP 192.168.0.1.domain > 192.168.0.141.34308: 42510 1/0/0 PTR mdns.mcast.net. (70)
	0x0000:  0800 271e 364a ac15 a269 6ce2 0800 4500  ..'.6J...il...E.
	0x0010:  0062 fa5c 0000 3611 0850 c0a8 0001 c0a8  .b.\..6..P......
	0x0020:  008d 0035 8604 004e 697e a60e 8180 0001  ...5...Ni~......
	0x0030:  0001 0000 0000 0332 3531 0130 0130 0332  .......251.0.0.2
	0x0040:  3234 0769 6e2d 6164 6472 0461 7270 6100  24.in-addr.arpa.
	0x0050:  000c 0001 c00c 000c 0001 0000 216a 0010  ............!j..
	0x0060:  046d 646e 7305 6d63 6173 7403 6e65 7400  .mdns.mcast.net.
2024-11-10 23:36:31.315303 IP 192.168.0.141 > dns.google: ICMP echo request, id 38573, seq 10, length 64
	0x0000:  ac15 a269 6ce2 0800 271e 364a 0800 4500  ...il...'.6J..E.
	0x0010:  0054 696d 4000 4001 fff6 c0a8 008d 0808  .Tim@.@.........
	0x0020:  0808 0800 20b5 96ad 000a cf89 3167 0000  ............1g..
	0x0030:  0000 7ccf 0400 0000 0000 1011 1213 1415  ..|.............
	0x0040:  1617 1819 1a1b 1c1d 1e1f 2021 2223 2425  ...........!"#$%
	0x0050:  2627 2829 2a2b 2c2d 2e2f 3031 3233 3435  &'()*+,-./012345
	0x0060:  3637                                     67
2024-11-10 23:36:31.411677 IP dns.google > 192.168.0.141: ICMP echo reply, id 38573, seq 10, length 64
	0x0000:  0800 271e 364a ac15 a269 6ce2 0800 4500  ..'.6J...il...E.
	0x0010:  0054 0000 0000 7101 7864 0808 0808 c0a8  .T....q.xd......
	0x0020:  008d 0000 28b5 96ad 000a cf89 3167 0000  ....(.......1g..
	0x0030:  0000 7ccf 0400 0000 0000 1011 1213 1415  ..|.............
	0x0040:  1617 1819 1a1b 1c1d 1e1f 2021 2223 2425  ...........!"#$%
	0x0050:  2627 2829 2a2b 2c2d 2e2f 3031 3233 3435  &'()*+,-./012345
	0x0060:  3637                                     67
2024-11-10 23:36:32.327241 IP 192.168.0.141 > dns.google: ICMP echo request, id 38573, seq 11, length 64
	0x0000:  ac15 a269 6ce2 0800 271e 364a 0800 4500  ...il...'.6J..E.
	0x0010:  0054 6a66 4000 4001 fefd c0a8 008d 0808  .Tjf@.@.........
	0x0020:  0808 0800 7685 96ad 000b d089 3167 0000  ....v.......1g..
	0x0030:  0000 25fe 0400 0000 0000 1011 1213 1415  ..%.............
	0x0040:  1617 1819 1a1b 1c1d 1e1f 2021 2223 2425  ...........!"#$%
	0x0050:  2627 2829 2a2b 2c2d 2e2f 3031 3233 3435  &'()*+,-./012345
	0x0060:  3637                                     67
2024-11-10 23:36:32.436764 IP dns.google > 192.168.0.141: ICMP echo reply, id 38573, seq 11, length 64
	0x0000:  0800 271e 364a ac15 a269 6ce2 0800 4500  ..'.6J...il...E.
	0x0010:  0054 0000 0000 7101 7864 0808 0808 c0a8  .T....q.xd......
	0x0020:  008d 0000 7e85 96ad 000b d089 3167 0000  ....~.......1g..
	0x0030:  0000 25fe 0400 0000 0000 1011 1213 1415  ..%.............
	0x0040:  1617 1819 1a1b 1c1d 1e1f 2021 2223 2425  ...........!"#$%
	0x0050:  2627 2829 2a2b 2c2d 2e2f 3031 3233 3435  &'()*+,-./012345
	0x0060:  3637                                     67
2024-11-10 23:36:33.330022 IP 192.168.0.141 > dns.google: ICMP echo request, id 38573, seq 12, length 64
	0x0000:  ac15 a269 6ce2 0800 271e 364a 0800 4500  ...il...'.6J..E.
	0x0010:  0054 6b51 4000 4001 fe12 c0a8 008d 0808  .TkQ@.@.........
	0x0020:  0808 0800 a379 96ad 000c d189 3167 0000  .....y......1g..
	0x0030:  0000 f708 0500 0000 0000 1011 1213 1415  ................
	0x0040:  1617 1819 1a1b 1c1d 1e1f 2021 2223 2425  ...........!"#$%
	0x0050:  2627 2829 2a2b 2c2d 2e2f 3031 3233 3435  &'()*+,-./012345
	0x0060:  3637                                     67
2024-11-10 23:36:33.360809 IP dns.google > 192.168.0.141: ICMP echo reply, id 38573, seq 12, length 64
	0x0000:  0800 271e 364a ac15 a269 6ce2 0800 4500  ..'.6J...il...E.
	0x0010:  0054 0000 0000 7101 7864 0808 0808 c0a8  .T....q.xd......
	0x0020:  008d 0000 ab79 96ad 000c d189 3167 0000  .....y......1g..
	0x0030:  0000 f708 0500 0000 0000 1011 1213 1415  ................
	0x0040:  1617 1819 1a1b 1c1d 1e1f 2021 2223 2425  ...........!"#$%
	0x0050:  2627 2829 2a2b 2c2d 2e2f 3031 3233 3435  &'()*+,-./012345
	0x0060:  3637                                     67
2024-11-10 23:36:34.337191 IP 192.168.0.141 > dns.google: ICMP echo request, id 38573, seq 13, length 64
	0x0000:  ac15 a269 6ce2 0800 271e 364a 0800 4500  ...il...'.6J..E.
	0x0010:  0054 6b64 4000 4001 fdff c0a8 008d 0808  .Tkd@.@.........
	0x0020:  0808 0800 c95c 96ad 000d d289 3167 0000  .....\......1g..
	0x0030:  0000 d024 0500 0000 0000 1011 1213 1415  ...$............
	0x0040:  1617 1819 1a1b 1c1d 1e1f 2021 2223 2425  ...........!"#$%
	0x0050:  2627 2829 2a2b 2c2d 2e2f 3031 3233 3435  &'()*+,-./012345
	0x0060:  3637                                     67
2024-11-10 23:36:34.369019 IP dns.google > 192.168.0.141: ICMP echo reply, id 38573, seq 13, length 64
	0x0000:  0800 271e 364a ac15 a269 6ce2 0800 4500  ..'.6J...il...E.
	0x0010:  0054 0000 0000 7101 7864 0808 0808 c0a8  .T....q.xd......
	0x0020:  008d 0000 d15c 96ad 000d d289 3167 0000  .....\......1g..
	0x0030:  0000 d024 0500 0000 0000 1011 1213 1415  ...$............
	0x0040:  1617 1819 1a1b 1c1d 1e1f 2021 2223 2425  ...........!"#$%
	0x0050:  2627 2829 2a2b 2c2d 2e2f 3031 3233 3435  &'()*+,-./012345
	0x0060:  3637                                     67
2024-11-10 23:36:35.337795 IP 192.168.0.141 > dns.google: ICMP echo request, id 38573, seq 14, length 64
	0x0000:  ac15 a269 6ce2 0800 271e 364a 0800 4500  ...il...'.6J..E.
	0x0010:  0054 6bb8 4000 4001 fdab c0a8 008d 0808  .Tk.@.@.........
	0x0020:  0808 0800 3d59 96ad 000e d389 3167 0000  ....=Y......1g..
	0x0030:  0000 5b27 0500 0000 0000 1011 1213 1415  ..['............
	0x0040:  1617 1819 1a1b 1c1d 1e1f 2021 2223 2425  ...........!"#$%
	0x0050:  2627 2829 2a2b 2c2d 2e2f 3031 3233 3435  &'()*+,-./012345
	0x0060:  3637                                     67
2024-11-10 23:36:35.364385 IP dns.google > 192.168.0.141: ICMP echo reply, id 38573, seq 14, length 64
	0x0000:  0800 271e 364a ac15 a269 6ce2 0800 4500  ..'.6J...il...E.
	0x0010:  0054 0000 0000 7101 7864 0808 0808 c0a8  .T....q.xd......
	0x0020:  008d 0000 4559 96ad 000e d389 3167 0000  ....EY......1g..
	0x0030:  0000 5b27 0500 0000 0000 1011 1213 1415  ..['............
	0x0040:  1617 1819 1a1b 1c1d 1e1f 2021 2223 2425  ...........!"#$%
	0x0050:  2627 2829 2a2b 2c2d 2e2f 3031 3233 3435  &'()*+,-./012345
	0x0060:  3637                                     67
2024-11-10 23:36:36.349839 IP 192.168.0.141 > dns.google: ICMP echo request, id 38573, seq 15, length 64
	0x0000:  ac15 a269 6ce2 0800 271e 364a 0800 4500  ...il...'.6J..E.
	0x0010:  0054 6c7a 4000 4001 fce9 c0a8 008d 0808  .Tlz@.@.........
	0x0020:  0808 0800 3a29 96ad 000f d489 3167 0000  ....:)......1g..
	0x0030:  0000 5d56 0500 0000 0000 1011 1213 1415  ..]V............
	0x0040:  1617 1819 1a1b 1c1d 1e1f 2021 2223 2425  ...........!"#$%
	0x0050:  2627 2829 2a2b 2c2d 2e2f 3031 3233 3435  &'()*+,-./012345
	0x0060:  3637                                     67
2024-11-10 23:36:36.372827 IP dns.google > 192.168.0.141: ICMP echo reply, id 38573, seq 15, length 64
	0x0000:  0800 271e 364a ac15 a269 6ce2 0800 4500  ..'.6J...il...E.
	0x0010:  0054 0000 0000 7101 7864 0808 0808 c0a8  .T....q.xd......
	0x0020:  008d 0000 4229 96ad 000f d489 3167 0000  ....B)......1g..
	0x0030:  0000 5d56 0500 0000 0000 1011 1213 1415  ..]V............
	0x0040:  1617 1819 1a1b 1c1d 1e1f 2021 2223 2425  ...........!"#$%
	0x0050:  2627 2829 2a2b 2c2d 2e2f 3031 3233 3435  &'()*+,-./012345
	0x0060:  3637                                     67
2024-11-10 23:36:37.351127 IP 192.168.0.141 > dns.google: ICMP echo request, id 38573, seq 16, length 64
	0x0000:  ac15 a269 6ce2 0800 271e 364a 0800 4500  ...il...'.6J..E.
	0x0010:  0054 6d5e 4000 4001 fc05 c0a8 008d 0808  .Tm^@.@.........
	0x0020:  0808 0800 1e23 96ad 0010 d589 3167 0000  .....#......1g..
	0x0030:  0000 785b 0500 0000 0000 1011 1213 1415  ..x[............
	0x0040:  1617 1819 1a1b 1c1d 1e1f 2021 2223 2425  ...........!"#$%
	0x0050:  2627 2829 2a2b 2c2d 2e2f 3031 3233 3435  &'()*+,-./012345
	0x0060:  3637                                     67
2024-11-10 23:36:37.377102 IP dns.google > 192.168.0.141: ICMP echo reply, id 38573, seq 16, length 64
	0x0000:  0800 271e 364a ac15 a269 6ce2 0800 4500  ..'.6J...il...E.
	0x0010:  0054 0000 0000 7101 7864 0808 0808 c0a8  .T....q.xd......
	0x0020:  008d 0000 2623 96ad 0010 d589 3167 0000  ....&#......1g..
	0x0030:  0000 785b 0500 0000 0000 1011 1213 1415  ..x[............
	0x0040:  1617 1819 1a1b 1c1d 1e1f 2021 2223 2425  ...........!"#$%
	0x0050:  2627 2829 2a2b 2c2d 2e2f 3031 3233 3435  &'()*+,-./012345
	0x0060:  3637                                     67
2024-11-10 23:36:38.403608 IP 192.168.0.141 > dns.google: ICMP echo request, id 38573, seq 17, length 64
	0x0000:  ac15 a269 6ce2 0800 271e 364a 0800 4500  ...il...'.6J..E.
	0x0010:  0054 6de8 4000 4001 fb7b c0a8 008d 0808  .Tm.@.@..{......
	0x0020:  0808 0800 d355 96ad 0011 d689 3167 0000  .....U......1g..
	0x0030:  0000 c127 0600 0000 0000 1011 1213 1415  ...'............
	0x0040:  1617 1819 1a1b 1c1d 1e1f 2021 2223 2425  ...........!"#$%
	0x0050:  2627 2829 2a2b 2c2d 2e2f 3031 3233 3435  &'()*+,-./012345
	0x0060:  3637                                     67
2024-11-10 23:36:38.438856 IP dns.google > 192.168.0.141: ICMP echo reply, id 38573, seq 17, length 64
	0x0000:  0800 271e 364a ac15 a269 6ce2 0800 4500  ..'.6J...il...E.
	0x0010:  0054 0000 0000 7101 7864 0808 0808 c0a8  .T....q.xd......
	0x0020:  008d 0000 db55 96ad 0011 d689 3167 0000  .....U......1g..
	0x0030:  0000 c127 0600 0000 0000 1011 1213 1415  ...'............
	0x0040:  1617 1819 1a1b 1c1d 1e1f 2021 2223 2425  ...........!"#$%
	0x0050:  2627 2829 2a2b 2c2d 2e2f 3031 3233 3435  &'()*+,-./012345
	0x0060:  3637                                     67
2024-11-10 23:36:39.394526 IP 192.168.0.1.34140 > 239.255.255.250.1900: UDP, length 448
	0x0000:  0100 5e7f fffa ac15 a269 6ce2 0800 4500  ..^......il...E.
	0x0010:  01dc 0000 4000 0211 c66d c0a8 0001 efff  ....@....m......
	0x0020:  fffa 855c 076c 01c8 7be5 4e4f 5449 4659  ...\.l..{.NOTIFY
	0x0030:  202a 2048 5454 502f 312e 310d 0a48 4f53  .*.HTTP/1.1..HOS
	0x0040:  543a 2032 3339 2e32 3535 2e32 3535 2e32  T:.239.255.255.2
	0x0050:  3530 3a31 3930 300d 0a43 4143 4845 2d43  50:1900..CACHE-C
	0x0060:  4f4e 5452 4f4c 3a20 6d61 782d 6167 653d  ONTROL:.max-age=
	0x0070:  3630 0d0a 4c4f 4341 5449 4f4e 3a20 6874  60..LOCATION:.ht
	0x0080:  7470 3a2f 2f31 3932 2e31 3638 2e30 2e31  tp://192.168.0.1
	0x0090:  3a31 3930 302f 726f 6f74 4465 7363 2e78  :1900/rootDesc.x
	0x00a0:  6d6c 0d0a 5345 5256 4552 3a20 5450 2d4c  ml..SERVER:.TP-L
	0x00b0:  696e 6b2f 5450 2d4c 494e 4b20 5550 6e50  ink/TP-LINK.UPnP
	0x00c0:  2f31 2e31 204d 696e 6955 506e 5064 2f31  /1.1.MiniUPnPd/1
	0x00d0:  2e38 0d0a 4e54 3a20 7572 6e3a 7363 6865  .8..NT:.urn:sche
	0x00e0:  6d61 732d 7570 6e70 2d6f 7267 3a64 6576  mas-upnp-org:dev
	0x00f0:  6963 653a 5741 4e43 6f6e 6e65 6374 696f  ice:WANConnectio
	0x0100:  6e44 6576 6963 653a 310d 0a55 534e 3a20  nDevice:1..USN:.
	0x0110:  7575 6964 3a37 6137 3134 6266 372d 6137  uuid:7a714bf7-a7
	0x0120:  3432 2d34 6135 662d 6239 3463 2d30 3430  42-4a5f-b94c-040
	0x0130:  6438 3062 6232 6262 363a 3a75 726e 3a73  d80bb2bb6::urn:s
	0x0140:  6368 656d 6173 2d75 706e 702d 6f72 673a  chemas-upnp-org:
	0x0150:  6465 7669 6365 3a57 414e 436f 6e6e 6563  device:WANConnec
	0x0160:  7469 6f6e 4465 7669 6365 3a31 0d0a 4e54  tionDevice:1..NT
	0x0170:  533a 2073 7364 703a 616c 6976 650d 0a4f  S:.ssdp:alive..O
	0x0180:  5054 3a20 2268 7474 703a 2f2f 7363 6865  PT:."http://sche
	0x0190:  6d61 732e 7570 6e70 2e6f 7267 2f75 706e  mas.upnp.org/upn
	0x01a0:  702f 312f 302f 223b 206e 733d 3031 0d0a  p/1/0/";.ns=01..
	0x01b0:  3031 2d4e 4c53 3a20 310d 0a42 4f4f 5449  01-NLS:.1..BOOTI
	0x01c0:  442e 5550 4e50 2e4f 5247 3a20 310d 0a43  D.UPNP.ORG:.1..C
	0x01d0:  4f4e 4649 4749 442e 5550 4e50 2e4f 5247  ONFIGID.UPNP.ORG
	0x01e0:  3a20 3133 3337 0d0a 0d0a                 :.1337....
2024-11-10 23:36:39.395213 IP 192.168.0.1.34140 > 239.255.255.250.1900: UDP, length 442
	0x0000:  0100 5e7f fffa ac15 a269 6ce2 0800 4500  ..^......il...E.
	0x0010:  01d6 0000 4000 0211 c673 c0a8 0001 efff  ....@....s......
	0x0020:  fffa 855c 076c 01c2 ac2f 4e4f 5449 4659  ...\.l.../NOTIFY
	0x0030:  202a 2048 5454 502f 312e 310d 0a48 4f53  .*.HTTP/1.1..HOS
	0x0040:  543a 2032 3339 2e32 3535 2e32 3535 2e32  T:.239.255.255.2
	0x0050:  3530 3a31 3930 300d 0a43 4143 4845 2d43  50:1900..CACHE-C
	0x0060:  4f4e 5452 4f4c 3a20 6d61 782d 6167 653d  ONTROL:.max-age=
	0x0070:  3630 0d0a 4c4f 4341 5449 4f4e 3a20 6874  60..LOCATION:.ht
	0x0080:  7470 3a2f 2f31 3932 2e31 3638 2e30 2e31  tp://192.168.0.1
	0x0090:  3a31 3930 302f 726f 6f74 4465 7363 2e78  :1900/rootDesc.x
	0x00a0:  6d6c 0d0a 5345 5256 4552 3a20 5450 2d4c  ml..SERVER:.TP-L
	0x00b0:  696e 6b2f 5450 2d4c 494e 4b20 5550 6e50  ink/TP-LINK.UPnP
	0x00c0:  2f31 2e31 204d 696e 6955 506e 5064 2f31  /1.1.MiniUPnPd/1
	0x00d0:  2e38 0d0a 4e54 3a20 7572 6e3a 7363 6865  .8..NT:.urn:sche
	0x00e0:  6d61 732d 7570 6e70 2d6f 7267 3a73 6572  mas-upnp-org:ser
	0x00f0:  7669 6365 3a57 414e 4950 436f 6e6e 6563  vice:WANIPConnec
	0x0100:  7469 6f6e 3a31 0d0a 5553 4e3a 2075 7569  tion:1..USN:.uui
	0x0110:  643a 3761 3731 3462 6637 2d61 3734 322d  d:7a714bf7-a742-
	0x0120:  3461 3566 2d62 3934 632d 3034 3064 3830  4a5f-b94c-040d80
	0x0130:  6262 3262 6236 3a3a 7572 6e3a 7363 6865  bb2bb6::urn:sche
	0x0140:  6d61 732d 7570 6e70 2d6f 7267 3a73 6572  mas-upnp-org:ser
	0x0150:  7669 6365 3a57 414e 4950 436f 6e6e 6563  vice:WANIPConnec
	0x0160:  7469 6f6e 3a31 0d0a 4e54 533a 2073 7364  tion:1..NTS:.ssd
	0x0170:  703a 616c 6976 650d 0a4f 5054 3a20 2268  p:alive..OPT:."h
	0x0180:  7474 703a 2f2f 7363 6865 6d61 732e 7570  ttp://schemas.up
	0x0190:  6e70 2e6f 7267 2f75 706e 702f 312f 302f  np.org/upnp/1/0/
	0x01a0:  223b 206e 733d 3031 0d0a 3031 2d4e 4c53  ";.ns=01..01-NLS
	0x01b0:  3a20 310d 0a42 4f4f 5449 442e 5550 4e50  :.1..BOOTID.UPNP
	0x01c0:  2e4f 5247 3a20 310d 0a43 4f4e 4649 4749  .ORG:.1..CONFIGI
	0x01d0:  442e 5550 4e50 2e4f 5247 3a20 3133 3337  D.UPNP.ORG:.1337
	0x01e0:  0d0a 0d0a                                ....
2024-11-10 23:36:39.397394 IP 192.168.0.1.34140 > 239.255.255.250.1900: UDP, length 444
	0x0000:  0100 5e7f fffa ac15 a269 6ce2 0800 4500  ..^......il...E.
	0x0010:  01d8 0000 4000 0211 c671 c0a8 0001 efff  ....@....q......
	0x0020:  fffa 855c 076c 01c4 fe6f 4e4f 5449 4659  ...\.l...oNOTIFY
	0x0030:  202a 2048 5454 502f 312e 310d 0a48 4f53  .*.HTTP/1.1..HOS
	0x0040:  543a 2032 3339 2e32 3535 2e32 3535 2e32  T:.239.255.255.2
	0x0050:  3530 3a31 3930 300d 0a43 4143 4845 2d43  50:1900..CACHE-C
	0x0060:  4f4e 5452 4f4c 3a20 6d61 782d 6167 653d  ONTROL:.max-age=
	0x0070:  3630 0d0a 4c4f 4341 5449 4f4e 3a20 6874  60..LOCATION:.ht
	0x0080:  7470 3a2f 2f31 3932 2e31 3638 2e30 2e31  tp://192.168.0.1
	0x0090:  3a31 3930 302f 726f 6f74 4465 7363 2e78  :1900/rootDesc.x
	0x00a0:  6d6c 0d0a 5345 5256 4552 3a20 5450 2d4c  ml..SERVER:.TP-L
	0x00b0:  696e 6b2f 5450 2d4c 494e 4b20 5550 6e50  ink/TP-LINK.UPnP
	0x00c0:  2f31 2e31 204d 696e 6955 506e 5064 2f31  /1.1.MiniUPnPd/1
	0x00d0:  2e38 0d0a 4e54 3a20 7572 6e3a 7363 6865  .8..NT:.urn:sche
	0x00e0:  6d61 732d 7570 6e70 2d6f 7267 3a73 6572  mas-upnp-org:ser
	0x00f0:  7669 6365 3a4c 6179 6572 3346 6f72 7761  vice:Layer3Forwa
	0x0100:  7264 696e 673a 310d 0a55 534e 3a20 7575  rding:1..USN:.uu
	0x0110:  6964 3a37 6137 3134 6266 372d 6137 3432  id:7a714bf7-a742
	0x0120:  2d34 6135 662d 6239 3463 2d30 3430 6438  -4a5f-b94c-040d8
	0x0130:  3062 6232 6262 363a 3a75 726e 3a73 6368  0bb2bb6::urn:sch
	0x0140:  656d 6173 2d75 706e 702d 6f72 673a 7365  emas-upnp-org:se
	0x0150:  7276 6963 653a 4c61 7965 7233 466f 7277  rvice:Layer3Forw
	0x0160:  6172 6469 6e67 3a31 0d0a 4e54 533a 2073  arding:1..NTS:.s
	0x0170:  7364 703a 616c 6976 650d 0a4f 5054 3a20  sdp:alive..OPT:.
	0x0180:  2268 7474 703a 2f2f 7363 6865 6d61 732e  "http://schemas.
	0x0190:  7570 6e70 2e6f 7267 2f75 706e 702f 312f  upnp.org/upnp/1/
	0x01a0:  302f 223b 206e 733d 3031 0d0a 3031 2d4e  0/";.ns=01..01-N
	0x01b0:  4c53 3a20 310d 0a42 4f4f 5449 442e 5550  LS:.1..BOOTID.UP
	0x01c0:  4e50 2e4f 5247 3a20 310d 0a43 4f4e 4649  NP.ORG:.1..CONFI
	0x01d0:  4749 442e 5550 4e50 2e4f 5247 3a20 3133  GID.UPNP.ORG:.13
	0x01e0:  3337 0d0a 0d0a                           37....
2024-11-10 23:36:39.404821 IP 192.168.0.141 > dns.google: ICMP echo request, id 38573, seq 18, length 64
	0x0000:  ac15 a269 6ce2 0800 271e 364a 0800 4500  ...il...'.6J..E.
	0x0010:  0054 6e58 4000 4001 fb0b c0a8 008d 0808  .TnX@.@.........
	0x0020:  0808 0800 6a4f 96ad 0012 d789 3167 0000  ....jO......1g..
	0x0030:  0000 292d 0600 0000 0000 1011 1213 1415  ..)-............
	0x0040:  1617 1819 1a1b 1c1d 1e1f 2021 2223 2425  ...........!"#$%
	0x0050:  2627 2829 2a2b 2c2d 2e2f 3031 3233 3435  &'()*+,-./012345
	0x0060:  3637                                     67
2024-11-10 23:36:39.427405 IP dns.google > 192.168.0.141: ICMP echo reply, id 38573, seq 18, length 64
	0x0000:  0800 271e 364a ac15 a269 6ce2 0800 4500  ..'.6J...il...E.
	0x0010:  0054 0000 0000 7101 7864 0808 0808 c0a8  .T....q.xd......
	0x0020:  008d 0000 724f 96ad 0012 d789 3167 0000  ....rO......1g..
	0x0030:  0000 292d 0600 0000 0000 1011 1213 1415  ..)-............
	0x0040:  1617 1819 1a1b 1c1d 1e1f 2021 2223 2425  ...........!"#$%
	0x0050:  2627 2829 2a2b 2c2d 2e2f 3031 3233 3435  &'()*+,-./012345
	0x0060:  3637                                     67
2024-11-10 23:36:39.498085 IP6 fe80::ae15:a2ff:fe69:6ce2.41344 > ff02::c.1900: UDP, length 432
	0x0000:  3333 0000 000c ac15 a269 6ce2 86dd 6000  33.......il...`.
	0x0010:  0000 01b8 1101 fe80 0000 0000 0000 ae15  ................
	0x0020:  a2ff fe69 6ce2 ff02 0000 0000 0000 0000  ...il...........
	0x0030:  0000 0000 000c a180 076c 01b8 d083 4e4f  .........l....NO
	0x0040:  5449 4659 202a 2048 5454 502f 312e 310d  TIFY.*.HTTP/1.1.
	0x0050:  0a48 4f53 543a 205b 4646 3032 3a3a 435d  .HOST:.[FF02::C]
	0x0060:  3a31 3930 300d 0a43 4143 4845 2d43 4f4e  :1900..CACHE-CON
	0x0070:  5452 4f4c 3a20 6d61 782d 6167 653d 3630  TROL:.max-age=60
	0x0080:  0d0a 4c4f 4341 5449 4f4e 3a20 6874 7470  ..LOCATION:.http
	0x0090:  3a2f 2f5b 3a3a 315d 3a31 3930 302f 726f  ://[::1]:1900/ro
	0x00a0:  6f74 4465 7363 2e78 6d6c 0d0a 5345 5256  otDesc.xml..SERV
	0x00b0:  4552 3a20 5450 2d4c 696e 6b2f 5450 2d4c  ER:.TP-Link/TP-L
	0x00c0:  494e 4b20 5550 6e50 2f31 2e31 204d 696e  INK.UPnP/1.1.Min
	0x00d0:  6955 506e 5064 2f31 2e38 0d0a 4e54 3a20  iUPnPd/1.8..NT:.
	0x00e0:  7572 6e3a 7363 6865 6d61 732d 7570 6e70  urn:schemas-upnp
	0x00f0:  2d6f 7267 3a73 6572 7669 6365 3a4c 6179  -org:service:Lay
	0x0100:  6572 3346 6f72 7761 7264 696e 673a 310d  er3Forwarding:1.
	0x0110:  0a55 534e 3a20 7575 6964 3a37 6137 3134  .USN:.uuid:7a714
	0x0120:  6266 372d 6137 3432 2d34 6135 662d 6239  bf7-a742-4a5f-b9
	0x0130:  3463 2d30 3430 6438 3062 6232 6262 363a  4c-040d80bb2bb6:
	0x0140:  3a75 726e 3a73 6368 656d 6173 2d75 706e  :urn:schemas-upn
	0x0150:  702d 6f72 673a 7365 7276 6963 653a 4c61  p-org:service:La
	0x0160:  7965 7233 466f 7277 6172 6469 6e67 3a31  yer3Forwarding:1
	0x0170:  0d0a 4e54 533a 2073 7364 703a 616c 6976  ..NTS:.ssdp:aliv
	0x0180:  650d 0a4f 5054 3a20 2268 7474 703a 2f2f  e..OPT:."http://
	0x0190:  7363 6865 6d61 732e 7570 6e70 2e6f 7267  schemas.upnp.org
	0x01a0:  2f75 706e 702f 312f 302f 223b 206e 733d  /upnp/1/0/";.ns=
	0x01b0:  3031 0d0a 3031 2d4e 4c53 3a20 310d 0a42  01..01-NLS:.1..B
	0x01c0:  4f4f 5449 442e 5550 4e50 2e4f 5247 3a20  OOTID.UPNP.ORG:.
	0x01d0:  310d 0a43 4f4e 4649 4749 442e 5550 4e50  1..CONFIGID.UPNP
	0x01e0:  2e4f 5247 3a20 3133 3337 0d0a 0d0a       .ORG:.1337....
2024-11-10 23:36:39.610306 IP 192.168.0.141.48740 > 192.168.0.1.domain: 24354+ PTR? 250.255.255.239.in-addr.arpa. (46)
	0x0000:  ac15 a269 6ce2 0800 271e 364a 0800 4500  ...il...'.6J..E.
	0x0010:  004a 3126 4000 4011 879e c0a8 008d c0a8  .J1&@.@.........
	0x0020:  0001 be64 0035 0036 8226 5f22 0100 0001  ...d.5.6.&_"....
	0x0030:  0000 0000 0000 0332 3530 0332 3535 0332  .......250.255.2
	0x0040:  3535 0332 3339 0769 6e2d 6164 6472 0461  55.239.in-addr.a
	0x0050:  7270 6100 000c 0001                      rpa.....
2024-11-10 23:36:39.699182 IP 192.168.0.1.domain > 192.168.0.141.48740: 24354 NXDomain 0/1/0 (103)
	0x0000:  0800 271e 364a ac15 a269 6ce2 0800 4500  ..'.6J...il...E.
	0x0010:  0083 dbeb 0000 7611 e69f c0a8 0001 c0a8  ......v.........
	0x0020:  008d 0035 be64 006f 8a2f 5f22 8183 0001  ...5.d.o./_"....
	0x0030:  0000 0001 0000 0332 3530 0332 3535 0332  .......250.255.2
	0x0040:  3535 0332 3339 0769 6e2d 6164 6472 0461  55.239.in-addr.a
	0x0050:  7270 6100 000c 0001 c018 0006 0001 0000  rpa.............
	0x0060:  03f6 002d 0373 6e73 0364 6e73 0569 6361  ...-.sns.dns.ica
	0x0070:  6e6e 036f 7267 0003 6e6f 63c0 3e78 86aa  nn.org..noc.>x..
	0x0080:  0b00 001c 2000 000e 1000 093a 8000 000e  ...........:....
	0x0090:  10                                       .
2024-11-10 23:36:39.699969 IP 192.168.0.141.57732 > 192.168.0.1.domain: 15451+ PTR? c.0.0.0.0.0.0.0.0.0.0.0.0.0.0.0.0.0.0.0.0.0.0.0.0.0.0.0.2.0.f.f.ip6.arpa. (90)
	0x0000:  ac15 a269 6ce2 0800 271e 364a 0800 4500  ...il...'.6J..E.
	0x0010:  0076 b1d1 4000 4011 06c7 c0a8 008d c0a8  .v..@.@.........
	0x0020:  0001 e184 0035 0062 8252 3c5b 0100 0001  .....5.b.R<[....
	0x0030:  0000 0000 0000 0163 0130 0130 0130 0130  .......c.0.0.0.0
	0x0040:  0130 0130 0130 0130 0130 0130 0130 0130  .0.0.0.0.0.0.0.0
	0x0050:  0130 0130 0130 0130 0130 0130 0130 0130  .0.0.0.0.0.0.0.0
	0x0060:  0130 0130 0130 0130 0130 0130 0130 0132  .0.0.0.0.0.0.0.2
	0x0070:  0130 0166 0166 0369 7036 0461 7270 6100  .0.f.f.ip6.arpa.
	0x0080:  000c 0001                                ....
2024-11-10 23:36:39.805120 IP 192.168.0.1.domain > 192.168.0.141.57732: 15451 NXDomain 0/1/0 (154)
	0x0000:  0800 271e 364a ac15 a269 6ce2 0800 4500  ..'.6J...il...E.
	0x0010:  00b6 e44e 0000 3611 1e0a c0a8 0001 c0a8  ...N..6.........
	0x0020:  008d 0035 e184 00a2 1d11 3c5b 8183 0001  ...5......<[....
	0x0030:  0000 0001 0000 0163 0130 0130 0130 0130  .......c.0.0.0.0
	0x0040:  0130 0130 0130 0130 0130 0130 0130 0130  .0.0.0.0.0.0.0.0
	0x0050:  0130 0130 0130 0130 0130 0130 0130 0130  .0.0.0.0.0.0.0.0
	0x0060:  0130 0130 0130 0130 0130 0130 0130 0132  .0.0.0.0.0.0.0.2
	0x0070:  0130 0166 0166 0369 7036 0461 7270 6100  .0.f.f.ip6.arpa.
	0x0080:  000c 0001 c04c 0006 0001 0000 0c39 0034  .....L.......9.4
	0x0090:  0162 0b69 7036 2d73 6572 7665 7273 c050  .b.ip6-servers.P
	0x00a0:  056e 7374 6c64 0469 616e 6103 6f72 6700  .nstld.iana.org.
	0x00b0:  78a5 79cf 0000 0708 0000 0384 0009 3a80  x.y...........:.
	0x00c0:  0000 0e10                                ....
2024-11-10 23:36:39.805516 IP 192.168.0.141.45838 > 192.168.0.1.domain: 54743+ PTR? 2.e.c.6.9.6.e.f.f.f.2.a.5.1.e.a.0.0.0.0.0.0.0.0.0.0.0.0.0.8.e.f.ip6.arpa. (90)
	0x0000:  ac15 a269 6ce2 0800 271e 364a 0800 4500  ...il...'.6J..E.
	0x0010:  0076 f8f2 4000 4011 bfa5 c0a8 008d c0a8  .v..@.@.........
	0x0020:  0001 b30e 0035 0062 8252 d5d7 0100 0001  .....5.b.R......
	0x0030:  0000 0000 0000 0132 0165 0163 0136 0139  .......2.e.c.6.9
	0x0040:  0136 0165 0166 0166 0166 0132 0161 0135  .6.e.f.f.f.2.a.5
	0x0050:  0131 0165 0161 0130 0130 0130 0130 0130  .1.e.a.0.0.0.0.0
	0x0060:  0130 0130 0130 0130 0130 0130 0130 0130  .0.0.0.0.0.0.0.0
	0x0070:  0138 0165 0166 0369 7036 0461 7270 6100  .8.e.f.ip6.arpa.
	0x0080:  000c 0001                                ....
2024-11-10 23:36:39.911351 IP 192.168.0.1.domain > 192.168.0.141.45838: 54743 NXDomain 0/1/0 (154)
	0x0000:  0800 271e 364a ac15 a269 6ce2 0800 4500  ..'.6J...il...E.
	0x0010:  00b6 120e 0000 7611 b04a c0a8 0001 c0a8  ......v..J......
	0x0020:  008d 0035 b30e 00a2 b041 d5d7 8183 0001  ...5.....A......
	0x0030:  0000 0001 0000 0132 0165 0163 0136 0139  .......2.e.c.6.9
	0x0040:  0136 0165 0166 0166 0166 0132 0161 0135  .6.e.f.f.f.2.a.5
	0x0050:  0131 0165 0161 0130 0130 0130 0130 0130  .1.e.a.0.0.0.0.0
	0x0060:  0130 0130 0130 0130 0130 0130 0130 0130  .0.0.0.0.0.0.0.0
	0x0070:  0138 0165 0166 0369 7036 0461 7270 6100  .8.e.f.ip6.arpa.
	0x0080:  000c 0001 c04c 0006 0001 0000 0c3b 0034  .....L.......;.4
	0x0090:  0162 0b69 7036 2d73 6572 7665 7273 c050  .b.ip6-servers.P
	0x00a0:  056e 7374 6c64 0469 616e 6103 6f72 6700  .nstld.iana.org.
	0x00b0:  78a5 79cf 0000 0708 0000 0384 0009 3a80  x.y...........:.
	0x00c0:  0000 0e10                                ....
2024-11-10 23:36:40.416717 IP 192.168.0.141 > dns.google: ICMP echo request, id 38573, seq 19, length 64
	0x0000:  ac15 a269 6ce2 0800 271e 364a 0800 4500  ...il...'.6J..E.
	0x0010:  0054 6ef4 4000 4001 fa6f c0a8 008d 0808  .Tn.@.@..o......
	0x0020:  0808 0800 f01f 96ad 0013 d889 3167 0000  ............1g..
	0x0030:  0000 a25b 0600 0000 0000 1011 1213 1415  ...[............
	0x0040:  1617 1819 1a1b 1c1d 1e1f 2021 2223 2425  ...........!"#$%
	0x0050:  2627 2829 2a2b 2c2d 2e2f 3031 3233 3435  &'()*+,-./012345
	0x0060:  3637                                     67
2024-11-10 23:36:40.438928 IP dns.google > 192.168.0.141: ICMP echo reply, id 38573, seq 19, length 64
	0x0000:  0800 271e 364a ac15 a269 6ce2 0800 4500  ..'.6J...il...E.
	0x0010:  0054 0000 0000 7101 7864 0808 0808 c0a8  .T....q.xd......
	0x0020:  008d 0000 f81f 96ad 0013 d889 3167 0000  ............1g..
	0x0030:  0000 a25b 0600 0000 0000 1011 1213 1415  ...[............
	0x0040:  1617 1819 1a1b 1c1d 1e1f 2021 2223 2425  ...........!"#$%
	0x0050:  2627 2829 2a2b 2c2d 2e2f 3031 3233 3435  &'()*+,-./012345
	0x0060:  3637                                     67
2024-11-10 23:36:40.755963 IP 192.168.0.130.mdns > mdns.mcast.net.mdns: 0 PTR (QU)? _ipp._tcp.local. (33)
	0x0000:  0100 5e00 00fb ec2e 987a c577 0800 4500  ..^......z.w..E.
	0x0010:  003d 52ef 0000 0111 c49b c0a8 0082 e000  .=R.............
	0x0020:  00fb 14e9 14e9 0029 af2e 0000 0000 0001  .......)........
	0x0030:  0000 0000 0000 045f 6970 7004 5f74 6370  ......._ipp._tcp
	0x0040:  056c 6f63 616c 0000 0c80 01              .local.....
2024-11-10 23:36:40.756496 IP6 fe80::255e:56bb:da1e:b905.mdns > ff02::fb.mdns: 0 PTR (QU)? _ipp._tcp.local. (33)
	0x0000:  3333 0000 00fb ec2e 987a c577 86dd 6001  33.......z.w..`.
	0x0010:  4221 0029 1101 fe80 0000 0000 0000 255e  B!.)..........%^
	0x0020:  56bb da1e b905 ff02 0000 0000 0000 0000  V...............
	0x0030:  0000 0000 00fb 14e9 14e9 0029 4398 0000  ...........)C...
	0x0040:  0000 0001 0000 0000 0000 045f 6970 7004  ..........._ipp.
	0x0050:  5f74 6370 056c 6f63 616c 0000 0c80 01    _tcp.local.....
2024-11-10 23:36:40.757441 IP 192.168.0.130.mdns > mdns.mcast.net.mdns: 0 PTR (QU)? _ipps._tcp.local. (34)
	0x0000:  0100 5e00 00fb ec2e 987a c577 0800 4500  ..^......z.w..E.
	0x0010:  003e 52f0 0000 0111 c499 c0a8 0082 e000  .>R.............
	0x0020:  00fb 14e9 14e9 002a afb7 0000 0000 0001  .......*........
	0x0030:  0000 0000 0000 055f 6970 7073 045f 7463  ......._ipps._tc
	0x0040:  7005 6c6f 6361 6c00 000c 8001            p.local.....
2024-11-10 23:36:40.757973 IP6 fe80::255e:56bb:da1e:b905.mdns > ff02::fb.mdns: 0 PTR (QU)? _ipps._tcp.local. (34)
	0x0000:  3333 0000 00fb ec2e 987a c577 86dd 6001  33.......z.w..`.
	0x0010:  4221 002a 1101 fe80 0000 0000 0000 255e  B!.*..........%^
	0x0020:  56bb da1e b905 ff02 0000 0000 0000 0000  V...............
	0x0030:  0000 0000 00fb 14e9 14e9 002a 4421 0000  ...........*D!..
	0x0040:  0000 0001 0000 0000 0000 055f 6970 7073  ..........._ipps
	0x0050:  045f 7463 7005 6c6f 6361 6c00 000c 8001  ._tcp.local.....
2024-11-10 23:36:40.823916 IP 192.168.0.1.47937 > 192.168.0.255.20002: UDP, length 326
	0x0000:  ffff ffff ffff ac15 a269 6ce2 0800 4500  .........il...E.
	0x0010:  0162 0000 4000 4011 b73a c0a8 0001 c0a8  .b..@.@..:......
	0x0020:  00ff bb41 4e22 014e d6db 01f0 0001 0136  ...AN".N.......6
	0x0030:  1100 0000 0000 f851 adbb 81a3 ceab dfb7  .......Q........
	0x0040:  d8bc 9ea4 86f6 84eb 89ec cee2 c0a4 c5b1  ................
	0x0050:  d0f2 c8b3 91f6 84eb 9eee b1d8 bc9e a486  ................
	0x0060:  b1d0 b48d b482 b686 abcf fccc af82 b684  ................
	0x0070:  bd85 a8ca f2cb fed3 e1d7 b185 b1d2 ebd9  ................
	0x0080:  e1d9 bad9 fbd7 f598 f99a b882 a0e1 a28f  ................
	0x0090:  be8b a6e7 d5f8 cef7 daec af82 c7f5 d7fb  ................
	0x00a0:  d9b0 c0e2 d8fa cbf2 c0ee dfe9 d1ff cfe1  ................
	0x00b0:  d0f2 defc 91fe 9aff 93b1 8ba9 e89a f991  ................
	0x00c0:  f486 a6e7 d0f2 defc 93e3 86f4 95e1 88e7  ................
	0x00d0:  89d6 bbd4 b0d5 f7cd efbd e9cb e7c5 b5c7  ................
	0x00e0:  a8cc b9da aef1 85fc 8ce9 cbf1 d384 ed9f  ................
	0x00f0:  fa96 f380 f3a1 cebb cfaa d8fa d6f4 96e4  ................
	0x0100:  8de9 8eeb b4d9 b6d2 b795 af9b b795 e292  ................
	0x0110:  f3c0 9fec 99e9 99f6 84f0 d2e8 8eef 83f0  ................
	0x0120:  95b9 9bf4 9aff 92f7 84ec b3c0 b5c5 b5da  ................
	0x0130:  a8dc fec4 b0c2 b7d2 fedc b3dd b8d5 b0c3  ................
	0x0140:  abf4 86e9 85e0 c2f8 dab7 d6a5 d1b4 c6e4  ................
	0x0150:  c8ea 85eb 8ee3 86f5 9dc2 b1c4 b4c4 abd9  ................
	0x0160:  adf2 84e1 93e0 89e6 88aa 90cb faa7 daa7  ................
2024-11-10 23:36:40.930820 IP 192.168.0.1.35336 > 192.168.0.141.netbios-ns: UDP, length 50
	0x0000:  0800 271e 364a ac15 a269 6ce2 0800 4500  ..'.6J...il...E.
	0x0010:  004e 0000 4000 4011 b8c0 c0a8 0001 c0a8  .N..@.@.........
	0x0020:  008d 8a08 0089 003a 9364 216c 0000 0001  .......:.d!l....
	0x0030:  0000 0000 0000 2043 4b41 4141 4141 4141  .......CKAAAAAAA
	0x0040:  4141 4141 4141 4141 4141 4141 4141 4141  AAAAAAAAAAAAAAAA
	0x0050:  4141 4141 4141 4100 0021 0001            AAAAAAA..!..
2024-11-10 23:36:40.930887 IP 192.168.0.141 > 192.168.0.1: ICMP 192.168.0.141 udp port netbios-ns unreachable, length 86
	0x0000:  ac15 a269 6ce2 0800 271e 364a 0800 45c0  ...il...'.6J..E.
	0x0010:  006a 13b4 0000 4001 e440 c0a8 008d c0a8  .j....@..@......
	0x0020:  0001 0303 7f27 0000 0000 4500 004e 0000  .....'....E..N..
	0x0030:  4000 4011 b8c0 c0a8 0001 c0a8 008d 8a08  @.@.............
	0x0040:  0089 003a 9364 216c 0000 0001 0000 0000  ...:.d!l........
	0x0050:  0000 2043 4b41 4141 4141 4141 4141 4141  ...CKAAAAAAAAAAA
	0x0060:  4141 4141 4141 4141 4141 4141 4141 4141  AAAAAAAAAAAAAAAA
	0x0070:  4141 4100 0021 0001                      AAA..!..
2024-11-10 23:36:40.931598 IP 192.168.0.1.57404 > 192.168.0.141.netbios-ns: UDP, length 50
	0x0000:  0800 271e 364a ac15 a269 6ce2 0800 4500  ..'.6J...il...E.
	0x0010:  004e 0000 4000 4011 b8c0 c0a8 0001 c0a8  .N..@.@.........
	0x0020:  008d e03c 0089 003a 3d2f 216d 0000 0001  ...<...:=/!m....
	0x0030:  0000 0000 0000 2043 4b41 4141 4141 4141  .......CKAAAAAAA
	0x0040:  4141 4141 4141 4141 4141 4141 4141 4141  AAAAAAAAAAAAAAAA
	0x0050:  4141 4141 4141 4100 0021 0001            AAAAAAA..!..
2024-11-10 23:36:40.931623 IP 192.168.0.141 > 192.168.0.1: ICMP 192.168.0.141 udp port netbios-ns unreachable, length 86
	0x0000:  ac15 a269 6ce2 0800 271e 364a 0800 45c0  ...il...'.6J..E.
	0x0010:  006a 13b5 0000 4001 e43f c0a8 008d c0a8  .j....@..?......
	0x0020:  0001 0303 7f27 0000 0000 4500 004e 0000  .....'....E..N..
	0x0030:  4000 4011 b8c0 c0a8 0001 c0a8 008d e03c  @.@............<
	0x0040:  0089 003a 3d2f 216d 0000 0001 0000 0000  ...:=/!m........
	0x0050:  0000 2043 4b41 4141 4141 4141 4141 4141  ...CKAAAAAAAAAAA
	0x0060:  4141 4141 4141 4141 4141 4141 4141 4141  AAAAAAAAAAAAAAAA
	0x0070:  4141 4100 0021 0001                      AAA..!..
2024-11-10 23:36:41.029224 IP 192.168.0.1.48820 > mdns.mcast.net.mdns: 28155 PTR (QM)? 192.168.0.141.in-addr.arpa. (44)
	0x0000:  0100 5e00 00fb ac15 a269 6ce2 0800 4500  ..^......il...E.
	0x0010:  0048 0000 4000 0111 d800 c0a8 0001 e000  .H..@...........
	0x0020:  00fb beb4 14e9 0034 5a9c 6dfb 0000 0001  .......4Z.m.....
	0x0030:  0000 0000 0000 0331 3932 0331 3638 0130  .......192.168.0
	0x0040:  0331 3431 0769 6e2d 6164 6472 0461 7270  .141.in-addr.arp
	0x0050:  6100 000c 0001                           a.....
2024-11-10 23:36:41.032474 IP 192.168.0.1.57614 > mdns.mcast.net.mdns: 28156 PTR (QM)? 192.168.0.141.in-addr.arpa. (44)
	0x0000:  0100 5e00 00fb ac15 a269 6ce2 0800 4500  ..^......il...E.
	0x0010:  0048 0000 4000 0111 d800 c0a8 0001 e000  .H..@...........
	0x0020:  00fb e10e 14e9 0034 3841 6dfc 0000 0001  .......48Am.....
	0x0030:  0000 0000 0000 0331 3932 0331 3638 0130  .......192.168.0
	0x0040:  0331 3431 0769 6e2d 6164 6472 0461 7270  .141.in-addr.arp
	0x0050:  6100 000c 0001                           a.....
2024-11-10 23:36:41.417836 IP 192.168.0.141 > dns.google: ICMP echo request, id 38573, seq 20, length 64
	0x0000:  ac15 a269 6ce2 0800 271e 364a 0800 4500  ...il...'.6J..E.
	0x0010:  0054 6fb7 4000 4001 f9ac c0a8 008d 0808  .To.@.@.........
	0x0020:  0808 0800 931a 96ad 0014 d989 3167 0000  ............1g..
	0x0030:  0000 fe5f 0600 0000 0000 1011 1213 1415  ..._............
	0x0040:  1617 1819 1a1b 1c1d 1e1f 2021 2223 2425  ...........!"#$%
	0x0050:  2627 2829 2a2b 2c2d 2e2f 3031 3233 3435  &'()*+,-./012345
	0x0060:  3637                                     67
2024-11-10 23:36:41.544324 IP dns.google > 192.168.0.141: ICMP echo reply, id 38573, seq 20, length 64
	0x0000:  0800 271e 364a ac15 a269 6ce2 0800 4500  ..'.6J...il...E.
	0x0010:  0054 0000 0000 7101 7864 0808 0808 c0a8  .T....q.xd......
	0x0020:  008d 0000 9b1a 96ad 0014 d989 3167 0000  ............1g..
	0x0030:  0000 fe5f 0600 0000 0000 1011 1213 1415  ..._............
	0x0040:  1617 1819 1a1b 1c1d 1e1f 2021 2223 2425  ...........!"#$%
	0x0050:  2627 2829 2a2b 2c2d 2e2f 3031 3233 3435  &'()*+,-./012345
	0x0060:  3637                                     67
2024-11-10 23:36:41.680088 IP 192.168.0.141.34633 > 192.168.0.1.domain: 20543+ PTR? 130.0.168.192.in-addr.arpa. (44)
	0x0000:  ac15 a269 6ce2 0800 271e 364a 0800 4500  ...il...'.6J..E.
	0x0010:  0048 e028 4000 4011 d89d c0a8 008d c0a8  .H.(@.@.........
	0x0020:  0001 8749 0035 0034 8224 503f 0100 0001  ...I.5.4.$P?....
	0x0030:  0000 0000 0000 0331 3330 0130 0331 3638  .......130.0.168
	0x0040:  0331 3932 0769 6e2d 6164 6472 0461 7270  .192.in-addr.arp
	0x0050:  6100 000c 0001                           a.....
2024-11-10 23:36:41.705223 IP 192.168.0.1.domain > 192.168.0.141.34633: 20543 NXDomain 0/0/0 (44)
	0x0000:  0800 271e 364a ac15 a269 6ce2 0800 4500  ..'.6J...il...E.
	0x0010:  0048 b098 0000 7611 122e c0a8 0001 c0a8  .H....v.........
	0x0020:  008d 0035 8749 0034 63bb 503f 8183 0001  ...5.I.4c.P?....
	0x0030:  0000 0000 0000 0331 3330 0130 0331 3638  .......130.0.168
	0x0040:  0331 3932 0769 6e2d 6164 6472 0461 7270  .192.in-addr.arp
	0x0050:  6100 000c 0001                           a.....
2024-11-10 23:36:41.705651 IP 192.168.0.141.52030 > 192.168.0.1.domain: 24676+ PTR? b.f.0.0.0.0.0.0.0.0.0.0.0.0.0.0.0.0.0.0.0.0.0.0.0.0.0.0.2.0.f.f.ip6.arpa. (90)
	0x0000:  ac15 a269 6ce2 0800 271e 364a 0800 4500  ...il...'.6J..E.
	0x0010:  0076 b91d 4000 4011 ff7a c0a8 008d c0a8  .v..@.@..z......
	0x0020:  0001 cb3e 0035 0062 8252 6064 0100 0001  ...>.5.b.R`d....
	0x0030:  0000 0000 0000 0162 0166 0130 0130 0130  .......b.f.0.0.0
	0x0040:  0130 0130 0130 0130 0130 0130 0130 0130  .0.0.0.0.0.0.0.0
	0x0050:  0130 0130 0130 0130 0130 0130 0130 0130  .0.0.0.0.0.0.0.0
	0x0060:  0130 0130 0130 0130 0130 0130 0130 0132  .0.0.0.0.0.0.0.2
	0x0070:  0130 0166 0166 0369 7036 0461 7270 6100  .0.f.f.ip6.arpa.
	0x0080:  000c 0001                                ....
2024-11-10 23:36:41.756700 IP 192.168.0.130.mdns > mdns.mcast.net.mdns: 0 PTR (QM)? _ipp._tcp.local. (33)
	0x0000:  0100 5e00 00fb ec2e 987a c577 0800 4500  ..^......z.w..E.
	0x0010:  003d 52f1 0000 0111 c499 c0a8 0082 e000  .=R.............
	0x0020:  00fb 14e9 14e9 0029 afae 0000 0000 0001  .......)........
	0x0030:  0000 0000 0000 045f 6970 7004 5f74 6370  ......._ipp._tcp
	0x0040:  056c 6f63 616c 0000 0c00 01              .local.....
2024-11-10 23:36:41.757210 IP6 fe80::255e:56bb:da1e:b905.mdns > ff02::fb.mdns: 0 PTR (QM)? _ipp._tcp.local. (33)
	0x0000:  3333 0000 00fb ec2e 987a c577 86dd 6001  33.......z.w..`.
	0x0010:  4221 0029 1101 fe80 0000 0000 0000 255e  B!.)..........%^
	0x0020:  56bb da1e b905 ff02 0000 0000 0000 0000  V...............
	0x0030:  0000 0000 00fb 14e9 14e9 0029 4418 0000  ...........)D...
	0x0040:  0000 0001 0000 0000 0000 045f 6970 7004  ..........._ipp.
	0x0050:  5f74 6370 056c 6f63 616c 0000 0c00 01    _tcp.local.....
2024-11-10 23:36:41.761080 IP 192.168.0.130.mdns > mdns.mcast.net.mdns: 0 PTR (QM)? _ipps._tcp.local. (34)
	0x0000:  0100 5e00 00fb ec2e 987a c577 0800 4500  ..^......z.w..E.
	0x0010:  003e 52f2 0000 0111 c497 c0a8 0082 e000  .>R.............
	0x0020:  00fb 14e9 14e9 002a 2fb8 0000 0000 0001  .......*/.......
	0x0030:  0000 0000 0000 055f 6970 7073 045f 7463  ......._ipps._tc
	0x0040:  7005 6c6f 6361 6c00 000c 0001            p.local.....
2024-11-10 23:36:41.761326 IP6 fe80::255e:56bb:da1e:b905.mdns > ff02::fb.mdns: 0 PTR (QM)? _ipps._tcp.local. (34)
	0x0000:  3333 0000 00fb ec2e 987a c577 86dd 6001  33.......z.w..`.
	0x0010:  4221 002a 1101 fe80 0000 0000 0000 255e  B!.*..........%^
	0x0020:  56bb da1e b905 ff02 0000 0000 0000 0000  V...............
	0x0030:  0000 0000 00fb 14e9 14e9 002a c421 0000  ...........*.!..
	0x0040:  0000 0001 0000 0000 0000 055f 6970 7073  ..........._ipps
	0x0050:  045f 7463 7005 6c6f 6361 6c00 000c 0001  ._tcp.local.....
2024-11-10 23:36:41.764117 IP 192.168.0.1.domain > 192.168.0.141.52030: 24676 NXDomain 0/1/0 (154)
	0x0000:  0800 271e 364a ac15 a269 6ce2 0800 4500  ..'.6J...il...E.
	0x0010:  00b6 bdd6 0000 6611 1482 c0a8 0001 c0a8  ......f.........
	0x0020:  008d 0035 cb3e 00a2 0f17 6064 8183 0001  ...5.>....`d....
	0x0030:  0000 0001 0000 0162 0166 0130 0130 0130  .......b.f.0.0.0
	0x0040:  0130 0130 0130 0130 0130 0130 0130 0130  .0.0.0.0.0.0.0.0
	0x0050:  0130 0130 0130 0130 0130 0130 0130 0130  .0.0.0.0.0.0.0.0
	0x0060:  0130 0130 0130 0130 0130 0130 0130 0132  .0.0.0.0.0.0.0.2
	0x0070:  0130 0166 0166 0369 7036 0461 7270 6100  .0.f.f.ip6.arpa.
	0x0080:  000c 0001 c04c 0006 0001 0000 0c3b 0034  .....L.......;.4
	0x0090:  0162 0b69 7036 2d73 6572 7665 7273 c050  .b.ip6-servers.P
	0x00a0:  056e 7374 6c64 0469 616e 6103 6f72 6700  .nstld.iana.org.
	0x00b0:  78a5 79cf 0000 0708 0000 0384 0009 3a80  x.y...........:.
	0x00c0:  0000 0e10                                ....
2024-11-10 23:36:41.764509 IP 192.168.0.141.43492 > 192.168.0.1.domain: 25048+ PTR? 5.0.9.b.e.1.a.d.b.b.6.5.e.5.5.2.0.0.0.0.0.0.0.0.0.0.0.0.0.8.e.f.ip6.arpa. (90)
	0x0000:  ac15 a269 6ce2 0800 271e 364a 0800 4500  ...il...'.6J..E.
	0x0010:  0076 9288 4000 4011 2610 c0a8 008d c0a8  .v..@.@.&.......
	0x0020:  0001 a9e4 0035 0062 8252 61d8 0100 0001  .....5.b.Ra.....
	0x0030:  0000 0000 0000 0135 0130 0139 0162 0165  .......5.0.9.b.e
	0x0040:  0131 0161 0164 0162 0162 0136 0135 0165  .1.a.d.b.b.6.5.e
	0x0050:  0135 0135 0132 0130 0130 0130 0130 0130  .5.5.2.0.0.0.0.0
	0x0060:  0130 0130 0130 0130 0130 0130 0130 0130  .0.0.0.0.0.0.0.0
	0x0070:  0138 0165 0166 0369 7036 0461 7270 6100  .8.e.f.ip6.arpa.
	0x0080:  000c 0001                                ....
2024-11-10 23:36:41.852059 IP 192.168.0.1.domain > 192.168.0.141.43492: 25048 NXDomain 0/1/0 (154)
	0x0000:  0800 271e 364a ac15 a269 6ce2 0800 4500  ..'.6J...il...E.
	0x0010:  00b6 e165 0000 7611 e0f2 c0a8 0001 c0a8  ...e..v.........
	0x0020:  008d 0035 a9e4 00a2 2dd6 61d8 8183 0001  ...5....-.a.....
	0x0030:  0000 0001 0000 0135 0130 0139 0162 0165  .......5.0.9.b.e
	0x0040:  0131 0161 0164 0162 0162 0136 0135 0165  .1.a.d.b.b.6.5.e
	0x0050:  0135 0135 0132 0130 0130 0130 0130 0130  .5.5.2.0.0.0.0.0
	0x0060:  0130 0130 0130 0130 0130 0130 0130 0130  .0.0.0.0.0.0.0.0
	0x0070:  0138 0165 0166 0369 7036 0461 7270 6100  .8.e.f.ip6.arpa.
	0x0080:  000c 0001 c04c 0006 0001 0000 0c3a 0034  .....L.......:.4
	0x0090:  0162 0b69 7036 2d73 6572 7665 7273 c050  .b.ip6-servers.P
	0x00a0:  056e 7374 6c64 0469 616e 6103 6f72 6700  .nstld.iana.org.
	0x00b0:  78a5 79cf 0000 0708 0000 0384 0009 3a80  x.y...........:.
	0x00c0:  0000 0e10                                ....
2024-11-10 23:36:41.852568 IP 192.168.0.141.51909 > 192.168.0.1.domain: 4350+ PTR? 255.0.168.192.in-addr.arpa. (44)
	0x0000:  ac15 a269 6ce2 0800 271e 364a 0800 4500  ...il...'.6J..E.
	0x0010:  0048 8ce8 4000 4011 2bde c0a8 008d c0a8  .H..@.@.+.......
	0x0020:  0001 cac5 0035 0034 8224 10fe 0100 0001  .....5.4.$......
	0x0030:  0000 0000 0000 0332 3535 0130 0331 3638  .......255.0.168
	0x0040:  0331 3932 0769 6e2d 6164 6472 0461 7270  .192.in-addr.arp
	0x0050:  6100 000c 0001                           a.....
2024-11-10 23:36:41.950529 IP 192.168.0.1.domain > 192.168.0.141.51909: 4350 NXDomain 0/0/0 (44)
	0x0000:  0800 271e 364a ac15 a269 6ce2 0800 4500  ..'.6J...il...E.
	0x0010:  0048 3ea1 0000 3611 c425 c0a8 0001 c0a8  .H>...6..%......
	0x0020:  008d 0035 cac5 0034 5d7a 10fe 8183 0001  ...5...4]z......
	0x0030:  0000 0000 0000 0332 3535 0130 0331 3638  .......255.0.168
	0x0040:  0331 3932 0769 6e2d 6164 6472 0461 7270  .192.in-addr.arp
	0x0050:  6100 000c 0001                           a.....
2024-11-10 23:36:42.426656 IP 192.168.0.141 > dns.google: ICMP echo request, id 38573, seq 21, length 64
	0x0000:  ac15 a269 6ce2 0800 271e 364a 0800 4500  ...il...'.6J..E.
	0x0010:  0054 7013 4000 4001 f950 c0a8 008d 0808  .Tp.@.@..P......
	0x0020:  0808 0800 1df7 96ad 0015 da89 3167 0000  ............1g..
	0x0030:  0000 7282 0600 0000 0000 1011 1213 1415  ..r.............
	0x0040:  1617 1819 1a1b 1c1d 1e1f 2021 2223 2425  ...........!"#$%
	0x0050:  2627 2829 2a2b 2c2d 2e2f 3031 3233 3435  &'()*+,-./012345
	0x0060:  3637                                     67
2024-11-10 23:36:42.565163 IP dns.google > 192.168.0.141: ICMP echo reply, id 38573, seq 21, length 64
	0x0000:  0800 271e 364a ac15 a269 6ce2 0800 4500  ..'.6J...il...E.
	0x0010:  0054 0000 0000 7101 7864 0808 0808 c0a8  .T....q.xd......
	0x0020:  008d 0000 25f7 96ad 0015 da89 3167 0000  ....%.......1g..
	0x0030:  0000 7282 0600 0000 0000 1011 1213 1415  ..r.............
	0x0040:  1617 1819 1a1b 1c1d 1e1f 2021 2223 2425  ...........!"#$%
	0x0050:  2627 2829 2a2b 2c2d 2e2f 3031 3233 3435  &'()*+,-./012345
	0x0060:  3637                                     67
2024-11-10 23:36:43.436580 IP 192.168.0.141 > dns.google: ICMP echo request, id 38573, seq 22, length 64
	0x0000:  ac15 a269 6ce2 0800 271e 364a 0800 4500  ...il...'.6J..E.
	0x0010:  0054 7071 4000 4001 f8f2 c0a8 008d 0808  .Tpq@.@.........
	0x0020:  0808 0800 c6cf 96ad 0016 db89 3167 0000  ............1g..
	0x0030:  0000 c8a8 0600 0000 0000 1011 1213 1415  ................
	0x0040:  1617 1819 1a1b 1c1d 1e1f 2021 2223 2425  ...........!"#$%
	0x0050:  2627 2829 2a2b 2c2d 2e2f 3031 3233 3435  &'()*+,-./012345
	0x0060:  3637                                     67
2024-11-10 23:36:43.460263 IP dns.google > 192.168.0.141: ICMP echo reply, id 38573, seq 22, length 64
	0x0000:  0800 271e 364a ac15 a269 6ce2 0800 4500  ..'.6J...il...E.
	0x0010:  0054 0000 0000 7101 7864 0808 0808 c0a8  .T....q.xd......
	0x0020:  008d 0000 cecf 96ad 0016 db89 3167 0000  ............1g..
	0x0030:  0000 c8a8 0600 0000 0000 1011 1213 1415  ................
	0x0040:  1617 1819 1a1b 1c1d 1e1f 2021 2223 2425  ...........!"#$%
	0x0050:  2627 2829 2a2b 2c2d 2e2f 3031 3233 3435  &'()*+,-./012345
	0x0060:  3637                                     67
2024-11-10 23:36:43.760474 IP 192.168.0.130.mdns > mdns.mcast.net.mdns: 0 PTR (QU)? _ipp._tcp.local. (33)
	0x0000:  0100 5e00 00fb ec2e 987a c577 0800 4500  ..^......z.w..E.
	0x0010:  003d 52f3 0000 0111 c497 c0a8 0082 e000  .=R.............
	0x0020:  00fb 14e9 14e9 0029 af2e 0000 0000 0001  .......)........
	0x0030:  0000 0000 0000 045f 6970 7004 5f74 6370  ......._ipp._tcp
	0x0040:  056c 6f63 616c 0000 0c80 01              .local.....
2024-11-10 23:36:43.761264 IP6 fe80::255e:56bb:da1e:b905.mdns > ff02::fb.mdns: 0 PTR (QU)? _ipp._tcp.local. (33)
	0x0000:  3333 0000 00fb ec2e 987a c577 86dd 6001  33.......z.w..`.
	0x0010:  4221 0029 1101 fe80 0000 0000 0000 255e  B!.)..........%^
	0x0020:  56bb da1e b905 ff02 0000 0000 0000 0000  V...............
	0x0030:  0000 0000 00fb 14e9 14e9 0029 4398 0000  ...........)C...
	0x0040:  0000 0001 0000 0000 0000 045f 6970 7004  ..........._ipp.
	0x0050:  5f74 6370 056c 6f63 616c 0000 0c80 01    _tcp.local.....
2024-11-10 23:36:43.764043 IP 192.168.0.130.mdns > mdns.mcast.net.mdns: 0 PTR (QU)? _ipps._tcp.local. (34)
	0x0000:  0100 5e00 00fb ec2e 987a c577 0800 4500  ..^......z.w..E.
	0x0010:  003e 52f4 0000 0111 c495 c0a8 0082 e000  .>R.............
	0x0020:  00fb 14e9 14e9 002a afb7 0000 0000 0001  .......*........
	0x0030:  0000 0000 0000 055f 6970 7073 045f 7463  ......._ipps._tc
	0x0040:  7005 6c6f 6361 6c00 000c 8001            p.local.....
2024-11-10 23:36:43.765432 IP6 fe80::255e:56bb:da1e:b905.mdns > ff02::fb.mdns: 0 PTR (QU)? _ipps._tcp.local. (34)
	0x0000:  3333 0000 00fb ec2e 987a c577 86dd 6001  33.......z.w..`.
	0x0010:  4221 002a 1101 fe80 0000 0000 0000 255e  B!.*..........%^
	0x0020:  56bb da1e b905 ff02 0000 0000 0000 0000  V...............
	0x0030:  0000 0000 00fb 14e9 14e9 002a 4421 0000  ...........*D!..
	0x0040:  0000 0001 0000 0000 0000 055f 6970 7073  ..........._ipps
	0x0050:  045f 7463 7005 6c6f 6361 6c00 000c 8001  ._tcp.local.....
2024-11-10 23:36:44.448781 IP 192.168.0.141 > dns.google: ICMP echo request, id 38573, seq 23, length 64
	0x0000:  ac15 a269 6ce2 0800 271e 364a 0800 4500  ...il...'.6J..E.
	0x0010:  0054 7133 4000 4001 f830 c0a8 008d 0808  .Tq3@.@..0......
	0x0020:  0808 0800 9e9f 96ad 0017 dc89 3167 0000  ............1g..
	0x0030:  0000 efd7 0600 0000 0000 1011 1213 1415  ................
	0x0040:  1617 1819 1a1b 1c1d 1e1f 2021 2223 2425  ...........!"#$%
	0x0050:  2627 2829 2a2b 2c2d 2e2f 3031 3233 3435  &'()*+,-./012345
	0x0060:  3637                                     67
2024-11-10 23:36:44.472990 IP dns.google > 192.168.0.141: ICMP echo reply, id 38573, seq 23, length 64
	0x0000:  0800 271e 364a ac15 a269 6ce2 0800 4500  ..'.6J...il...E.
	0x0010:  0054 0000 0000 7101 7864 0808 0808 c0a8  .T....q.xd......
	0x0020:  008d 0000 a69f 96ad 0017 dc89 3167 0000  ............1g..
	0x0030:  0000 efd7 0600 0000 0000 1011 1213 1415  ................
	0x0040:  1617 1819 1a1b 1c1d 1e1f 2021 2223 2425  ...........!"#$%
	0x0050:  2627 2829 2a2b 2c2d 2e2f 3031 3233 3435  &'()*+,-./012345
	0x0060:  3637                                     67
2024-11-10 23:36:45.490374 IP 192.168.0.141 > dns.google: ICMP echo request, id 38573, seq 24, length 64
	0x0000:  ac15 a269 6ce2 0800 271e 364a 0800 4500  ...il...'.6J..E.
	0x0010:  0054 714f 4000 4001 f814 c0a8 008d 0808  .TqO@.@.........
	0x0020:  0808 0800 29fb 96ad 0018 dd89 3167 0000  ....).......1g..
	0x0030:  0000 627b 0700 0000 0000 1011 1213 1415  ..b{............
	0x0040:  1617 1819 1a1b 1c1d 1e1f 2021 2223 2425  ...........!"#$%
	0x0050:  2627 2829 2a2b 2c2d 2e2f 3031 3233 3435  &'()*+,-./012345
	0x0060:  3637                                     67
2024-11-10 23:36:45.517536 IP dns.google > 192.168.0.141: ICMP echo reply, id 38573, seq 24, length 64
	0x0000:  0800 271e 364a ac15 a269 6ce2 0800 4500  ..'.6J...il...E.
	0x0010:  0054 0000 0000 7101 7864 0808 0808 c0a8  .T....q.xd......
	0x0020:  008d 0000 31fb 96ad 0018 dd89 3167 0000  ....1.......1g..
	0x0030:  0000 627b 0700 0000 0000 1011 1213 1415  ..b{............
	0x0040:  1617 1819 1a1b 1c1d 1e1f 2021 2223 2425  ...........!"#$%
	0x0050:  2627 2829 2a2b 2c2d 2e2f 3031 3233 3435  &'()*+,-./012345
	0x0060:  3637                                     67
2024-11-10 23:36:46.541349 IP 192.168.0.141 > dns.google: ICMP echo request, id 38573, seq 25, length 64
	0x0000:  ac15 a269 6ce2 0800 271e 364a 0800 4500  ...il...'.6J..E.
	0x0010:  0054 7170 4000 4001 f7f3 c0a8 008d 0808  .Tqp@.@.........
	0x0020:  0808 0800 1c33 96ad 0019 de89 3167 0000  .....3......1g..
	0x0030:  0000 6e42 0800 0000 0000 1011 1213 1415  ..nB............
	0x0040:  1617 1819 1a1b 1c1d 1e1f 2021 2223 2425  ...........!"#$%
	0x0050:  2627 2829 2a2b 2c2d 2e2f 3031 3233 3435  &'()*+,-./012345
	0x0060:  3637                                     67
2024-11-10 23:36:46.565700 IP dns.google > 192.168.0.141: ICMP echo reply, id 38573, seq 25, length 64
	0x0000:  0800 271e 364a ac15 a269 6ce2 0800 4500  ..'.6J...il...E.
	0x0010:  0054 0000 0000 7101 7864 0808 0808 c0a8  .T....q.xd......
	0x0020:  008d 0000 2433 96ad 0019 de89 3167 0000  ....$3......1g..
	0x0030:  0000 6e42 0800 0000 0000 1011 1213 1415  ..nB............
	0x0040:  1617 1819 1a1b 1c1d 1e1f 2021 2223 2425  ...........!"#$%
	0x0050:  2627 2829 2a2b 2c2d 2e2f 3031 3233 3435  &'()*+,-./012345
	0x0060:  3637                                     67
2024-11-10 23:36:47.543870 IP 192.168.0.141 > dns.google: ICMP echo request, id 38573, seq 26, length 64
	0x0000:  ac15 a269 6ce2 0800 271e 364a 0800 4500  ...il...'.6J..E.
	0x0010:  0054 717c 4000 4001 f7e7 c0a8 008d 0808  .Tq|@.@.........
	0x0020:  0808 0800 4028 96ad 001a df89 3167 0000  ....@(......1g..
	0x0030:  0000 494c 0800 0000 0000 1011 1213 1415  ..IL............
	0x0040:  1617 1819 1a1b 1c1d 1e1f 2021 2223 2425  ...........!"#$%
	0x0050:  2627 2829 2a2b 2c2d 2e2f 3031 3233 3435  &'()*+,-./012345
	0x0060:  3637                                     67
2024-11-10 23:36:47.569905 IP dns.google > 192.168.0.141: ICMP echo reply, id 38573, seq 26, length 64
	0x0000:  0800 271e 364a ac15 a269 6ce2 0800 4500  ..'.6J...il...E.
	0x0010:  0054 0000 0000 7101 7864 0808 0808 c0a8  .T....q.xd......
	0x0020:  008d 0000 4828 96ad 001a df89 3167 0000  ....H(......1g..
	0x0030:  0000 494c 0800 0000 0000 1011 1213 1415  ..IL............
	0x0040:  1617 1819 1a1b 1c1d 1e1f 2021 2223 2425  ...........!"#$%
	0x0050:  2627 2829 2a2b 2c2d 2e2f 3031 3233 3435  &'()*+,-./012345
	0x0060:  3637                                     67
2024-11-10 23:36:47.764149 IP 192.168.0.130.mdns > mdns.mcast.net.mdns: 0 PTR (QU)? _ipp._tcp.local. (33)
	0x0000:  0100 5e00 00fb ec2e 987a c577 0800 4500  ..^......z.w..E.
	0x0010:  003d 52f5 0000 0111 c495 c0a8 0082 e000  .=R.............
	0x0020:  00fb 14e9 14e9 0029 af2e 0000 0000 0001  .......)........
	0x0030:  0000 0000 0000 045f 6970 7004 5f74 6370  ......._ipp._tcp
	0x0040:  056c 6f63 616c 0000 0c80 01              .local.....
2024-11-10 23:36:47.764692 IP6 fe80::255e:56bb:da1e:b905.mdns > ff02::fb.mdns: 0 PTR (QU)? _ipp._tcp.local. (33)
	0x0000:  3333 0000 00fb ec2e 987a c577 86dd 6001  33.......z.w..`.
	0x0010:  4221 0029 1101 fe80 0000 0000 0000 255e  B!.)..........%^
	0x0020:  56bb da1e b905 ff02 0000 0000 0000 0000  V...............
	0x0030:  0000 0000 00fb 14e9 14e9 0029 4398 0000  ...........)C...
	0x0040:  0000 0001 0000 0000 0000 045f 6970 7004  ..........._ipp.
	0x0050:  5f74 6370 056c 6f63 616c 0000 0c80 01    _tcp.local.....
2024-11-10 23:36:47.768101 IP 192.168.0.130.mdns > mdns.mcast.net.mdns: 0 PTR (QU)? _ipps._tcp.local. (34)
	0x0000:  0100 5e00 00fb ec2e 987a c577 0800 4500  ..^......z.w..E.
	0x0010:  003e 52f6 0000 0111 c493 c0a8 0082 e000  .>R.............
	0x0020:  00fb 14e9 14e9 002a afb7 0000 0000 0001  .......*........
	0x0030:  0000 0000 0000 055f 6970 7073 045f 7463  ......._ipps._tc
	0x0040:  7005 6c6f 6361 6c00 000c 8001            p.local.....
2024-11-10 23:36:47.769442 IP6 fe80::255e:56bb:da1e:b905.mdns > ff02::fb.mdns: 0 PTR (QU)? _ipps._tcp.local. (34)
	0x0000:  3333 0000 00fb ec2e 987a c577 86dd 6001  33.......z.w..`.
	0x0010:  4221 002a 1101 fe80 0000 0000 0000 255e  B!.*..........%^
	0x0020:  56bb da1e b905 ff02 0000 0000 0000 0000  V...............
	0x0030:  0000 0000 00fb 14e9 14e9 002a 4421 0000  ...........*D!..
	0x0040:  0000 0001 0000 0000 0000 055f 6970 7073  ..........._ipps
	0x0050:  045f 7463 7005 6c6f 6361 6c00 000c 8001  ._tcp.local.....
2024-11-10 23:36:48.548613 IP 192.168.0.141 > dns.google: ICMP echo request, id 38573, seq 27, length 64
	0x0000:  ac15 a269 6ce2 0800 271e 364a 0800 4500  ...il...'.6J..E.
	0x0010:  0054 71e9 4000 4001 f77a c0a8 008d 0808  .Tq.@.@..z......
	0x0020:  0808 0800 ae14 96ad 001b e089 3167 0000  ............1g..
	0x0030:  0000 da5e 0800 0000 0000 1011 1213 1415  ...^............
	0x0040:  1617 1819 1a1b 1c1d 1e1f 2021 2223 2425  ...........!"#$%
	0x0050:  2627 2829 2a2b 2c2d 2e2f 3031 3233 3435  &'()*+,-./012345
	0x0060:  3637                                     67
