2024-11-07 11:24:56.633251 IP desktop-49kcuf4.wireless.rit.edu.57815 > 224.0.0.252.5355: UDP, length 33
	0x0000:  0100 5e00 00fc 6c6a 77e7 d0dd 0800 4500  ..^...ljw.....E.
	0x0010:  003d be3a 0000 0111 425f 8115 5705 e000  .=.:....B_..W...
	0x0020:  00fc e1d7 14eb 0029 384b 3830 0000 0001  .......)8K80....
	0x0030:  0000 0000 0000 0f44 4553 4b54 4f50 2d34  .......DESKTOP-4
	0x0040:  394b 4355 4634 0000 ff00 01              9KCUF4.....
2024-11-07 11:24:56.633252 IP thedevice.wireless.rit.edu.7551 > 129.21.135.255.7551: UDP, length 64
	0x0000:  ffff ffff ffff e8bf b838 74f8 0800 4500  .........8t...E.
	0x0010:  005c 8d07 0000 8011 9e26 8115 8539 8115  .\.......&...9..
	0x0020:  87ff 1d7f 1d7f 0048 5799 18f7 302b e4e6  .......HW...0+..
	0x0030:  bfff 3500 fc8d 9d8e d118 2f10 14ba a1b3  ..5......./.....
	0x0040:  3844 ffa8 f142 bcfa 827f 816e a610 c111  8D...B.....n....
	0x0050:  cc3d 31b2 11d9 f42b d37d ff0f 8709 e13b  .=1....+.}.....;
	0x0060:  f685 8e20 51c3 21db 615e                 ....Q.!.a^
2024-11-07 11:24:56.634029 IP ktf8494.student.rit.edu.44775 > 129.21.63.255.15600: UDP, length 35
	0x0000:  ffff ffff ffff 6c70 cbe2 8046 0800 4500  ......lp...F..E.
	0x0010:  003f 58fb 4000 4011 6161 8115 3e28 8115  .?X.@.@.aa..>(..
	0x0020:  3fff aee7 3cf0 002b 4b37 5345 4152 4348  ?...<..+K7SEARCH
	0x0030:  2042 5344 502f 302e 310a 4445 5649 4345  .BSDP/0.1.DEVICE
	0x0040:  3d30 0a53 4552 5649 4345 3d31 0a         =0.SERVICE=1.
2024-11-07 11:24:56.634030 IP 10.117.39.72.netbios-ns > 10.117.255.255.netbios-ns: UDP, length 50
	0x0000:  ffff ffff ffff b6aa 6cb4 4213 0800 4500  ........l.B...E.
	0x0010:  004e 7874 0000 4011 c5f9 0a75 2748 0a75  .Nxt..@....u'H.u
	0x0020:  ffff 0089 0089 003a fa02 45b7 0110 0001  .......:..E.....
	0x0030:  0000 0000 0000 2046 4845 5046 4345 4c45  .......FHEPFCELE
	0x0040:  4846 4345 5046 4646 4143 4143 4143 4143  HFCEPFFFACACACAC
	0x0050:  4143 4143 4142 4e00 0020 0001            ACACABN.....
2024-11-07 11:24:56.634030 IP 10.117.43.255.netbios-ns > 10.117.255.255.netbios-ns: UDP, length 68
	0x0000:  ffff ffff ffff 52dc 3ecc 2271 0800 4500  ......R.>."q..E.
	0x0010:  0060 fbb2 0000 4011 3df2 0a75 2bff 0a75  .`....@.=..u+..u
	0x0020:  ffff 0089 0089 004c 5d48 4567 2910 0001  .......L]HEg)...
	0x0030:  0000 0000 0001 2045 4e45 4245 4445 4345  .......ENEBEDECE
	0x0040:  5045 5045 4c45 4245 4a46 4343 4e45 4444  PEPELEBEJFCCNEDD
	0x0050:  4244 4844 4441 4100 0020 0001 c00c 0020  BDHDDAA.........
	0x0060:  0001 0000 0384 0006 6000 0a75 2bff       ........`..u+.
2024-11-07 11:24:56.634031 IP acd41229045323768736156.wireless.rit.edu.52995 > 224.0.0.252.5355: UDP, length 25
	0x0000:  0100 5e00 00fc c035 3254 6ea3 0800 4500  ..^....52Tn...E.
	0x0010:  0035 8a0d 0000 0111 4939 8115 8460 e000  .5......I9...`..
	0x0020:  00fc cf03 14eb 0021 bfe1 4ccb 0000 0001  .......!..L.....
	0x0030:  0000 0000 0000 0753 6d61 7274 4173 0000  .......SmartAs..
	0x0040:  ff00 01                                  ...
2024-11-07 11:24:56.634031 IP 10.117.41.121.netbios-ns > 10.117.255.255.netbios-ns: UDP, length 50
	0x0000:  ffff ffff ffff 8210 e3f2 1b5e 0800 4500  ...........^..E.
	0x0010:  004e 86aa 0000 4011 b592 0a75 2979 0a75  .N....@....u)y.u
	0x0020:  ffff 0089 0089 003a f7a2 45e6 0110 0001  .......:..E.....
	0x0030:  0000 0000 0000 2046 4845 5046 4345 4c45  .......FHEPFCELE
	0x0040:  4846 4345 5046 4646 4143 4143 4143 4143  HFCEPFFFACACACAC
	0x0050:  4143 4143 4142 4e00 0020 0001            ACACABN.....
2024-11-07 11:24:56.634032 IP laptop-vp5790up.wireless.rit.edu.56744 > 224.0.0.252.5355: UDP, length 33
	0x0000:  0100 5e00 00fc 94e7 0b06 6f7b 0800 4500  ..^.......o{..E.
	0x0010:  003d 337c 0000 0111 a4c9 8115 7f59 e000  .=3|.........Y..
	0x0020:  00fc dda8 14eb 0029 69da 19d7 0000 0001  .......)i.......
	0x0030:  0000 0000 0000 0f42 5257 3134 4143 3630  .......BRW14AC60
	0x0040:  3433 3532 3244 0000 0100 01              43522D.....
2024-11-07 11:24:56.634032 IP 10.117.20.247.netbios-ns > 10.117.255.255.netbios-ns: UDP, length 50
	0x0000:  ffff ffff ffff 5eb6 6b87 d035 0800 4500  ......^.k..5..E.
	0x0010:  004e 75ba 0000 4011 db04 0a75 14f7 0a75  .Nu...@....u...u
	0x0020:  ffff 0089 0089 003a 0c98 4573 0110 0001  .......:..Es....
	0x0030:  0000 0000 0000 2046 4845 5046 4345 4c45  .......FHEPFCELE
	0x0040:  4846 4345 5046 4646 4143 4143 4143 4143  HFCEPFFFACACACAC
	0x0050:  4143 4143 4142 4e00 0020 0001            ACACABN.....
2024-11-07 11:24:56.635665 IP 10.117.6.137.netbios-ns > 10.117.255.255.netbios-ns: UDP, length 50
	0x0000:  ffff ffff ffff e2cf 8bf2 8147 0800 4500  ...........G..E.
	0x0010:  004e 5a31 0000 4011 04fc 0a75 0689 0a75  .NZ1..@....u...u
	0x0020:  ffff 0089 0089 003a 1b01 4578 0110 0001  .......:..Ex....
	0x0030:  0000 0000 0000 2046 4845 5046 4345 4c45  .......FHEPFCELE
	0x0040:  4846 4345 5046 4646 4143 4143 4143 4143  HFCEPFFFACACACAC
	0x0050:  4143 4143 4142 4e00 0020 0001            ACACABN.....
2024-11-07 11:24:56.635666 IP 10.117.48.36.netbios-ns > 10.117.255.255.netbios-ns: UDP, length 50
	0x0000:  ffff ffff ffff c2b1 0490 4e6e 0800 4500  ..........Nn..E.
	0x0010:  004e d916 0000 4011 5c7b 0a75 3024 0a75  .N....@.\{.u0$.u
	0x0020:  ffff 0089 0089 003a f165 4578 0110 0001  .......:.eEx....
	0x0030:  0000 0000 0000 2046 4845 5046 4345 4c45  .......FHEPFCELE
	0x0040:  4846 4345 5046 4646 4143 4143 4143 4143  HFCEPFFFACACACAC
	0x0050:  4143 4143 4142 4e00 0020 0001            ACACABN.....
2024-11-07 11:24:56.635667 IP 10.118.1.243.57621 > 10.118.255.255.57621: UDP, length 40
	0x0000:  ffff ffff ffff d2a2 3e31 83c3 0800 4500  ........>1....E.
	0x0010:  0044 532f 4000 4011 d09b 0a76 01f3 0a76  .DS/@.@....v...v
	0x0020:  ffff e115 e115 0030 deeb 5370 6f74 5564  .......0..SpotUd
	0x0030:  7030 e67f 85d1 b226 bcfd 0001 0000 ff84  p0.....&........
	0x0040:  0c57 150a 90e6 5766 5e2f 3b05 6326 5b2c  .W....Wf^/;.c&[,
	0x0050:  82ed                                     ..
2024-11-07 11:24:56.635668 IP 10.117.63.253.netbios-ns > 10.117.255.255.netbios-ns: UDP, length 50
	0x0000:  ffff ffff ffff 429c f1dd 23c3 0800 4500  ......B...#...E.
	0x0010:  004e d49f 0000 4011 5119 0a75 3ffd 0a75  .N....@.Q..u?..u
	0x0020:  ffff 0089 0089 003a e18d 4577 0110 0001  .......:..Ew....
	0x0030:  0000 0000 0000 2046 4845 5046 4345 4c45  .......FHEPFCELE
	0x0040:  4846 4345 5046 4646 4143 4143 4143 4143  HFCEPFFFACACACAC
	0x0050:  4143 4143 4142 4e00 0020 0001            ACACABN.....
2024-11-07 11:24:56.635668 IP 10.117.17.33.netbios-ns > 10.117.255.255.netbios-ns: UDP, length 50
	0x0000:  ffff ffff ffff 9e2e 7eea 3c15 0800 4500  ........~.<...E.
	0x0010:  004e 6180 0000 4011 f314 0a75 1121 0a75  .Na...@....u.!.u
	0x0020:  ffff 0089 0089 003a 102d 45b4 0110 0001  .......:.-E.....
	0x0030:  0000 0000 0000 2046 4845 5046 4345 4c45  .......FHEPFCELE
	0x0040:  4846 4345 5046 4646 4143 4143 4143 4143  HFCEPFFFACACACAC
	0x0050:  4143 4143 4142 4e00 0020 0001            ACACABN.....
2024-11-07 11:24:56.635669 IP 10.117.42.242.netbios-ns > 10.117.255.255.netbios-ns: UDP, length 50
	0x0000:  ffff ffff ffff 1295 1608 1cd6 0800 4500  ..............E.
	0x0010:  004e 1826 0000 4011 229e 0a75 2af2 0a75  .N.&..@."..u*..u
	0x0020:  ffff 0089 0089 003a f643 45cc 0110 0001  .......:.CE.....
	0x0030:  0000 0000 0000 2046 4845 5046 4345 4c45  .......FHEPFCELE
	0x0040:  4846 4345 5046 4646 4143 4143 4143 4143  HFCEPFFFACACACAC
	0x0050:  4143 4143 4142 4e00 0020 0001            ACACABN.....
2024-11-07 11:24:56.635670 IP 10.117.63.18.netbios-ns > 10.117.255.255.netbios-ns: UDP, length 50
	0x0000:  ffff ffff ffff aa91 91f8 4e26 0800 4500  ..........N&..E.
	0x0010:  004e 4e7a 0000 4011 d829 0a75 3f12 0a75  .NNz..@..).u?..u
	0x0020:  ffff 0089 0089 003a e277 4578 0110 0001  .......:.wEx....
	0x0030:  0000 0000 0000 2046 4845 5046 4345 4c45  .......FHEPFCELE
	0x0040:  4846 4345 5046 4646 4143 4143 4143 4143  HFCEPFFFACACACAC
	0x0050:  4143 4143 4142 4e00 0020 0001            ACACABN.....
2024-11-07 11:24:56.635670 IP 10.117.44.38.netbios-ns > 10.117.255.255.netbios-ns: UDP, length 50
	0x0000:  ffff ffff ffff 5a56 7db0 21e3 0800 4500  ......ZV}.!...E.
	0x0010:  004e f1fa 0000 4011 4795 0a75 2c26 0a75  .N....@.G..u,&.u
	0x0020:  ffff 0089 0089 003a f4ae 462d 0110 0001  .......:..F-....
	0x0030:  0000 0000 0000 2046 4845 5046 4345 4c45  .......FHEPFCELE
	0x0040:  4846 4345 5046 4646 4143 4143 4143 4143  HFCEPFFFACACACAC
	0x0050:  4143 4143 4142 4e00 0020 0001            ACACABN.....
2024-11-07 11:24:56.637226 IP cc9952.student.rit.edu.54915 > 129.21.63.255.54915: UDP, length 263
	0x0000:  ffff ffff ffff 48e7 da11 6b27 0800 4500  ......H...k'..E.
	0x0010:  0123 9a7b 0000 8011 1f3d 8115 3de8 8115  .#.{.....=..=...
	0x0020:  3fff d683 d683 010f 0e14 0044 796c 696d  ?..........Dylim
	0x0030:  6d00 106b ab22 e101 0000 00b7 3f93 9100  m..k."......?...
	0x0040:  0000 0000 0000 0000 0000 3327 0000 0000  ..........3'....
	0x0050:  0000 006b ab22 e101 0000 0000 0000 0000  ...k."..........
	0x0060:  0000 0000 0000 0000 0000 0000 0000 0000  ................
	0x0070:  0000 7c6a 7753 0000 0000 30a4 2554 0000  ..|jwS....0.%T..
	0x0080:  0000 39bb 3f93 9100 0000 0000 0000 0000  ..9.?...........
	0x0090:  0000 609f 8b23 e101 0000 84b7 3f93 9100  ..`..#......?...
	0x00a0:  0000 a0b7 3f93 9100 0000 88ed 9b7b 3336  ....?........{36
	0x00b0:  6335 3734 3461 2d63 3330 342d 3461 3462  c5744a-c304-4a4b
	0x00c0:  2d61 3162 342d 3634 3437 3533 3161 3030  -a1b4-6447531a00
	0x00d0:  3762 7d00 0000 0000 0000 0100 0000 9100  7b}.............
	0x00e0:  0000 80b7 3f93 9100 0000 0000 0000 0000  ....?...........
	0x00f0:  0000 0000 0000 0000 0000 0000 0000 0000  ................
	0x0100:  0000 0000 0000 0000 0000 0000 0000 0000  ................
	0x0110:  0000 0000 0000 0000 0000 0000 0000 0000  ................
	0x0120:  0000 0000 0000 0000 0000 0000 0077 835d  .............w.]
	0x0130:  8a                                       .
2024-11-07 11:24:56.637227 IP book-dbgdrstf2q.wireless.rit.edu.netbios-dgm > 129.21.71.255.netbios-dgm: UDP, length 198
	0x0000:  ffff ffff ffff 64d6 9a67 2e51 0800 4500  ......d..g.Q..E.
	0x0010:  00e2 93a0 0000 8011 1620 8115 4621 8115  ............F!..
	0x0020:  47ff 008a 008a 00ce 97f5 1106 ff06 8115  G...............
	0x0030:  4621 008a 00b8 0000 2045 4345 5045 5045  F!.......ECEPEPE
	0x0040:  4c43 4e45 4545 4345 4845 4546 4346 4446  LCNEEECEHEEFCFDF
	0x0050:  4545 4744 4346 4241 4100 2046 4845 5046  EEGDCFBAA..FHEPF
	0x0060:  4345 4c45 4846 4345 5046 4646 4143 4143  CELEHFCEPFFFACAC
	0x0070:  4143 4143 4143 4143 4142 4f00 ff53 4d42  ACACACACABO..SMB
	0x0080:  2500 0000 0000 0000 0000 0000 0000 0000  %...............
	0x0090:  0000 0000 0000 0000 0000 0000 1100 001e  ................
	0x00a0:  0000 0000 0000 0000 00e8 0300 0000 0000  ................
	0x00b0:  0000 001e 0056 0003 0001 0001 0002 002f  .....V........./
	0x00c0:  005c 4d41 494c 534c 4f54 5c42 524f 5753  .\MAILSLOT\BROWS
	0x00d0:  4500 0801 240f 0110 a9e8 d81d 0000 0000  E...$...........
	0x00e0:  424f 4f4b 2d44 4247 4452 5354 4632 5100  BOOK-DBGDRSTF2Q.
2024-11-07 11:24:56.637228 IP 10.117.26.148.netbios-ns > 10.117.255.255.netbios-ns: UDP, length 50
	0x0000:  ffff ffff ffff 6226 e332 c3e9 0800 4500  ......b&.2....E.
	0x0010:  004e 4ada 0000 4011 0048 0a75 1a94 0a75  .NJ...@..H.u...u
	0x0020:  ffff 0089 0089 003a 06fb 4573 0110 0001  .......:..Es....
	0x0030:  0000 0000 0000 2046 4845 5046 4345 4c45  .......FHEPFCELE
	0x0040:  4846 4345 5046 4646 4143 4143 4143 4143  HFCEPFFFACACACAC
	0x0050:  4143 4143 4142 4e00 0020 0001            ACACABN.....
2024-11-07 11:24:56.637228 IP 10.117.38.126.netbios-ns > 10.117.255.255.netbios-ns: UDP, length 50
	0x0000:  ffff ffff ffff 46b6 4d53 9b05 0800 4500  ......F.MS....E.
	0x0010:  004e b241 0000 4011 8cf6 0a75 267e 0a75  .N.A..@....u&~.u
	0x0020:  ffff 0089 0089 003a fb0e 4575 0110 0001  .......:..Eu....
	0x0030:  0000 0000 0000 2046 4845 5046 4345 4c45  .......FHEPFCELE
	0x0040:  4846 4345 5046 4646 4143 4143 4143 4143  HFCEPFFFACACACAC
	0x0050:  4143 4143 4142 4e00 0020 0001            ACACABN.....
2024-11-07 11:24:56.736245 IP 10.117.20.102.netbios-ns > 10.117.255.255.netbios-ns: UDP, length 50
	0x0000:  ffff ffff ffff 5271 3a2b b385 0800 4500  ......Rq:+....E.
	0x0010:  004e 8085 0000 4011 d0ca 0a75 1466 0a75  .N....@....u.f.u
	0x0020:  ffff 0089 0089 003a 0d1e 457e 0110 0001  .......:..E~....
	0x0030:  0000 0000 0000 2046 4845 5046 4345 4c45  .......FHEPFCELE
	0x0040:  4846 4345 5046 4646 4143 4143 4143 4143  HFCEPFFFACACACAC
	0x0050:  4143 4143 4142 4e00 0020 0001            ACACABN.....
2024-11-07 11:24:56.736246 IP 10.117.46.251.netbios-ns > 10.117.255.255.netbios-ns: UDP, length 50
	0x0000:  ffff ffff ffff a64a 90d6 7547 0800 4500  .......J..uG..E.
	0x0010:  004e 3a37 0000 4011 fc83 0a75 2efb 0a75  .N:7..@....u...u
	0x0020:  ffff 0089 0089 003a f26b 459b 0110 0001  .......:.kE.....
	0x0030:  0000 0000 0000 2046 4845 5046 4345 4c45  .......FHEPFCELE
	0x0040:  4846 4345 5046 4646 4143 4143 4143 4143  HFCEPFFFACACACAC
	0x0050:  4143 4143 4142 4e00 0020 0001            ACACABN.....
2024-11-07 11:24:56.736247 IP c22350.wireless.rit.edu.61748 > 224.0.0.252.5355: UDP, length 24
	0x0000:  0100 5e00 00fc d41b 81ab 1631 0800 4500  ..^........1..E.
	0x0010:  0034 7896 0000 0111 8a3d 8115 54d4 e000  .4x......=..T...
	0x0020:  00fc f134 14eb 0020 014b a4b1 0000 0001  ...4.....K......
	0x0030:  0000 0000 0000 0643 3232 3335 3000 00ff  .......C22350...
	0x0040:  0001                                     ..
2024-11-07 11:24:56.736247 IP 10.118.28.187.netbios-ns > 10.118.255.255.netbios-ns: UDP, length 50
	0x0000:  ffff ffff ffff 0ecc 64ea b545 0800 4500  ........d..E..E.
	0x0010:  004e 5c5e 0000 4011 ec9a 0a76 1cbb 0a76  .N\^..@....v...v
	0x0020:  ffff 0089 0089 003a dd93 45af 0110 0001  .......:..E.....
	0x0030:  0000 0000 0000 2041 4241 4346 5046 5045  .......ABACFPFPE
	0x0040:  4e46 4445 4346 4345 5046 4846 4445 4646  NFDECFCEPFHFDEFF
	0x0050:  5046 5041 4341 4200 0020 0001            PFPACAB.....
2024-11-07 11:24:56.736248 IP 10.118.28.187.netbios-ns > 10.118.255.255.netbios-ns: UDP, length 50
	0x0000:  ffff ffff ffff 0ecc 64ea b545 0800 4500  ........d..E..E.
	0x0010:  004e 1652 0000 4011 32a7 0a76 1cbb 0a76  .N.R..@.2..v...v
	0x0020:  ffff 0089 0089 003a dd92 45b0 0110 0001  .......:..E.....
	0x0030:  0000 0000 0000 2041 4241 4346 5046 5045  .......ABACFPFPE
	0x0040:  4e46 4445 4346 4345 5046 4846 4445 4646  NFDECFCEPFHFDEFF
	0x0050:  5046 5041 4341 4200 0020 0001            PFPACAB.....
2024-11-07 11:24:56.736248 IP 10.117.28.223.netbios-ns > 10.117.255.255.netbios-ns: UDP, length 50
	0x0000:  ffff ffff ffff 2a72 5b5e 2c08 0800 4500  ......*r[^,...E.
	0x0010:  004e 01d1 0000 4011 4706 0a75 1cdf 0a75  .N....@.G..u...u
	0x0020:  ffff 0089 0089 003a 04a7 457c 0110 0001  .......:..E|....
	0x0030:  0000 0000 0000 2046 4845 5046 4345 4c45  .......FHEPFCELE
	0x0040:  4846 4345 5046 4646 4143 4143 4143 4143  HFCEPFFFACACACAC
	0x0050:  4143 4143 4142 4e00 0020 0001            ACACABN.....
2024-11-07 11:24:56.737113 IP sjp1460.student.rit.edu.8001 > st-routers.mcast.net.8001: UDP, length 202
	0x0000:  0100 5e00 0007 c812 0b5d 675e 0800 4500  ..^......]g^..E.
	0x0010:  00e6 55b6 4000 0111 513f 8115 70f5 e000  ..U.@...Q?..p...
	0x0020:  0007 1f41 1f41 00d2 c71f 7b22 6461 7461  ...A.A....{"data
	0x0030:  223a 7b22 7631 223a 7b22 7572 6922 3a22  ":{"v1":{"uri":"
	0x0040:  6874 7470 3a2f 2f31 3239 2e32 312e 3131  http://129.21.11
	0x0050:  322e 3234 353a 3830 3031 2f6d 732f 312e  2.245:8001/ms/1.
	0x0060:  302f 227d 2c22 7632 223a 7b22 7572 6922  0/"},"v2":{"uri"
	0x0070:  3a22 6874 7470 3a2f 2f31 3239 2e32 312e  :"http://129.21.
	0x0080:  3131 322e 3234 353a 3830 3031 2f61 7069  112.245:8001/api
	0x0090:  2f76 322f 227d 7d2c 2272 656d 6f74 6522  /v2/"}},"remote"
	0x00a0:  3a22 312e 3022 2c22 7369 6422 3a22 7575  :"1.0","sid":"uu
	0x00b0:  6964 3a64 6331 6335 3734 312d 6534 6463  id:dc1c5741-e4dc
	0x00c0:  2d34 6232 662d 3939 3765 2d30 3765 3137  -4b2f-997e-07e17
	0x00d0:  3264 3664 3332 6422 2c22 7474 6c22 3a38  2d6d32d","ttl":8
	0x00e0:  3030 302c 2274 7970 6522 3a22 616c 6976  000,"type":"aliv
	0x00f0:  6522 7d0a                                e"}.
2024-11-07 11:24:56.738813 IP acad-rgr2501.ad.rit.edu.55725 > 255.255.255.255.3289: UDP, length 14
	0x0000:  ffff ffff ffff ec4c 8c3a a610 0800 4500  .......L.:....E.
	0x0010:  002a e619 0000 8011 770d 8115 5c87 ffff  .*......w...\...
	0x0020:  ffff d9ad 0cd9 0016 51ae 4550 534f 4e51  ........Q.EPSONQ
	0x0030:  0300 0000 0000 0000 0000 0000            ............
2024-11-07 11:24:56.738813 IP acad-rgr2501.ad.rit.edu.55726 > 129.21.95.255.3289: UDP, length 14
	0x0000:  ffff ffff ffff ec4c 8c3a a610 0800 4500  .......L.:....E.
	0x0010:  002a 5bd1 0000 8011 2041 8115 5c87 8115  .*[......A..\...
	0x0020:  5fff d9ae 0cd9 0016 7098 4550 534f 4e51  _.......p.EPSONQ
	0x0030:  0300 0000 0000 0000 0000 0000            ............
2024-11-07 11:24:56.738814 IP acad-rgr2501.ad.rit.edu.10004 > 255.255.255.255.10004: UDP, length 83
	0x0000:  ffff ffff ffff ec4c 8c3a a610 0800 4500  .......L.:....E.
	0x0010:  006f e61e 0000 8011 76c3 8115 5c87 ffff  .o......v...\...
	0x0020:  ffff 2714 2714 005b d0e9 3c58 4d4c 3e3c  ..'.'..[..<XML><
	0x0030:  5061 636b 6574 5479 7065 3e52 6571 7565  PacketType>Reque
	0x0040:  7374 3c2f 5061 636b 6574 5479 7065 3e0a  st</PacketType>.
	0x0050:  3c50 726f 6475 6374 4e61 6d65 3e41 5047  <ProductName>APG
	0x0060:  2041 7477 6f6f 643c 2f50 726f 6475 6374  .Atwood</Product
	0x0070:  4e61 6d65 3e0a 3c2f 584d 4c3e 0a         Name>.</XML>.
2024-11-07 11:24:56.738815 IP acad-rgr2501.ad.rit.edu.55727 > 255.255.255.255.3289: UDP, length 14
	0x0000:  ffff ffff ffff ec4c 8c3a a610 0800 4500  .......L.:....E.
	0x0010:  002a e61b 0000 8011 770b 8115 5c87 ffff  .*......w...\...
	0x0020:  ffff d9af 0cd9 0016 51ac 4550 534f 4e51  ........Q.EPSONQ
	0x0030:  0300 0000 0000 0000 0000 0000            ............
2024-11-07 11:24:56.738815 IP acad-rgr2501.ad.rit.edu.55717 > 255.255.255.255.22222: UDP, length 28
	0x0000:  ffff ffff ffff ec4c 8c3a a610 0800 4500  .......L.:....E.
	0x0010:  0038 e61d 0000 8011 76fb 8115 5c87 ffff  .8......v...\...
	0x0020:  ffff d9a5 56ce 0024 2c50 5354 525f 4243  ....V..$,PSTR_BC
	0x0030:  4153 5400 0000 0000 0000 5251 312e 302e  AST.......RQ1.0.
	0x0040:  3000 001c 6431                           0...d1
2024-11-07 11:24:56.738816 IP acad-rgr2501.ad.rit.edu.55716 > 129.21.95.255.22222: UDP, length 28
	0x0000:  ffff ffff ffff ec4c 8c3a a610 0800 4500  .......L.:....E.
	0x0010:  0038 5bd2 0000 8011 2032 8115 5c87 8115  .8[......2..\...
	0x0020:  5fff d9a4 56ce 0024 4b3c 5354 525f 4243  _...V..$K<STR_BC
	0x0030:  4153 5400 0000 0000 0000 5251 312e 302e  AST.......RQ1.0.
	0x0040:  3000 001c 6431                           0...d1
2024-11-07 11:24:56.738816 IP 10.117.2.170.netbios-ns > 10.117.255.255.netbios-ns: UDP, length 50
	0x0000:  ffff ffff ffff ced8 f5eb d49a 0800 4500  ..............E.
	0x0010:  004e d28b 0000 4011 9080 0a75 02aa 0a75  .N....@....u...u
	0x0020:  ffff 0089 0089 003a 1eb3 45a5 0110 0001  .......:..E.....
	0x0030:  0000 0000 0000 2046 4845 5046 4345 4c45  .......FHEPFCELE
	0x0040:  4846 4345 5046 4646 4143 4143 4143 4143  HFCEPFFFACACACAC
	0x0050:  4143 4143 4142 4e00 0020 0001            ACACABN.....
2024-11-07 11:24:56.739807 IP 10.117.42.162.netbios-ns > 10.117.255.255.netbios-ns: UDP, length 50
	0x0000:  ffff ffff ffff deba ff0a 79ff 0800 4500  ..........y...E.
	0x0010:  004e b205 0000 4011 890e 0a75 2aa2 0a75  .N....@....u*..u
	0x0020:  ffff 0089 0089 003a f684 45db 0110 0001  .......:..E.....
	0x0030:  0000 0000 0000 2046 4845 5046 4345 4c45  .......FHEPFCELE
	0x0040:  4846 4345 5046 4646 4143 4143 4143 4143  HFCEPFFFACACACAC
	0x0050:  4143 4143 4142 4e00 0020 0001            ACACABN.....
2024-11-07 11:24:56.739808 IP 10.117.13.61.netbios-ns > 10.117.255.255.netbios-ns: UDP, length 50
	0x0000:  ffff ffff ffff be96 fbfe b985 0800 4500  ..............E.
	0x0010:  004e 539a 0000 4011 04df 0a75 0d3d 0a75  .NS...@....u.=.u
	0x0020:  ffff 0089 0089 003a 1450 4575 0110 0001  .......:.PEu....
	0x0030:  0000 0000 0000 2046 4845 5046 4345 4c45  .......FHEPFCELE
	0x0040:  4846 4345 5046 4646 4143 4143 4143 4143  HFCEPFFFACACACAC
	0x0050:  4143 4143 4142 4e00 0020 0001            ACACABN.....
2024-11-07 11:24:56.739809 IP 10.117.24.53.netbios-ns > 10.117.255.255.netbios-ns: UDP, length 50
	0x0000:  ffff ffff ffff 8e04 a941 94a8 0800 4500  .........A....E.
	0x0010:  004e 6347 0000 4011 ea39 0a75 1835 0a75  .NcG..@..9.u.5.u
	0x0020:  ffff 0089 0089 003a 0944 4589 0110 0001  .......:.DE.....
	0x0030:  0000 0000 0000 2046 4845 5046 4345 4c45  .......FHEPFCELE
	0x0040:  4846 4345 5046 4646 4143 4143 4143 4143  HFCEPFFFACACACAC
	0x0050:  4143 4143 4142 4e00 0020 0001            ACACABN.....
2024-11-07 11:24:56.739809 IP 8n610687l0.wireless.rit.edu.55337 > 129.21.135.255.netbios-ns: UDP, length 50
	0x0000:  ffff ffff ffff 4c5f 7015 722d 0800 4500  ......L_p.r-..E.
	0x0010:  004e b87e 0000 8011 71ac 8115 864a 8115  .N.~....q....J..
	0x0020:  87ff d829 0089 003a 7fcb 0a00 0110 0001  ...)...:........
	0x0030:  0000 0000 0000 2044 4146 4a46 4244 4446  .......DAFJFBDDF
	0x0040:  4345 4a46 4445 4c46 4946 4744 4a46 4745  CEJFDELFIFGDJFGE
	0x0050:  4f45 4444 4443 4100 0020 0001            OEDDDCA.....
2024-11-07 11:24:56.739810 IP cadenslaptop.wireless.rit.edu.64359 > 255.255.255.255.35891: UDP, length 23
	0x0000:  ffff ffff ffff 546c ebd1 e827 0800 4500  ......Tl...'..E.
	0x0010:  0033 ddf3 0000 8011 877d 8115 5434 ffff  .3.......}..T4..
	0x0020:  ffff fb67 8c33 001f 2a8b 0015 504a 5f53  ...g.3..*...PJ_S
	0x0030:  5452 4154 4153 5953 5f50 5249 4e54 4552  TRATASYS_PRINTER
	0x0040:  53                                       S
2024-11-07 11:24:56.739810 IP 10.117.35.194.netbios-ns > 10.117.255.255.netbios-ns: UDP, length 50
	0x0000:  ffff ffff ffff d283 7f24 b59e 0800 4500  .........$....E.
	0x0010:  004e 9a85 0000 4011 a76e 0a75 23c2 0a75  .N....@..n.u#..u
	0x0020:  ffff 0089 0089 003a fd8b 45b4 0110 0001  .......:..E.....
	0x0030:  0000 0000 0000 2046 4845 5046 4345 4c45  .......FHEPFCELE
	0x0040:  4846 4345 5046 4646 4143 4143 4143 4143  HFCEPFFFACACACAC
	0x0050:  4143 4143 4142 4e00 0020 0001            ACACABN.....
2024-11-07 11:24:56.740741 IP 10.117.40.156.netbios-ns > 10.117.255.255.netbios-ns: UDP, length 50
	0x0000:  ffff ffff ffff 9216 545a 2292 0800 4500  ........TZ"...E.
	0x0010:  004e 6902 0000 4011 d417 0a75 289c 0a75  .Ni...@....u(..u
	0x0020:  ffff 0089 0089 003a f886 45df 0110 0001  .......:..E.....
	0x0030:  0000 0000 0000 2046 4845 5046 4345 4c45  .......FHEPFCELE
	0x0040:  4846 4345 5046 4646 4143 4143 4143 4143  HFCEPFFFACACACAC
	0x0050:  4143 4143 4142 4e00 0020 0001            ACACABN.....
2024-11-07 11:24:56.740742 IP 10.117.31.49.netbios-ns > 10.117.255.255.netbios-ns: UDP, length 50
	0x0000:  ffff ffff ffff 1aeb ec87 5128 0800 4500  ..........Q(..E.
	0x0010:  004e 7aae 0000 4011 cbd6 0a75 1f31 0a75  .Nz...@....u.1.u
	0x0020:  ffff 0089 0089 003a 025b 4576 0110 0001  .......:.[Ev....
	0x0030:  0000 0000 0000 2046 4845 5046 4345 4c45  .......FHEPFCELE
	0x0040:  4846 4345 5046 4646 4143 4143 4143 4143  HFCEPFFFACACACAC
	0x0050:  4143 4143 4142 4e00 0020 0001            ACACABN.....
2024-11-07 11:24:56.740742 IP 10.117.44.24.netbios-ns > 10.117.255.255.netbios-ns: UDP, length 50
	0x0000:  ffff ffff ffff 7aa0 a1d2 767e 0800 4500  ......z...v~..E.
	0x0010:  004e bd96 0000 4011 7c07 0a75 2c18 0a75  .N....@.|..u,..u
	0x0020:  ffff 0089 0089 003a f541 45a8 0110 0001  .......:.AE.....
	0x0030:  0000 0000 0000 2046 4845 5046 4345 4c45  .......FHEPFCELE
	0x0040:  4846 4345 5046 4646 4143 4143 4143 4143  HFCEPFFFACACACAC
	0x0050:  4143 4143 4142 4e00 0020 0001            ACACABN.....
2024-11-07 11:24:56.740743 IP 10.117.50.135.netbios-ns > 10.117.255.255.netbios-ns: UDP, length 50
	0x0000:  ffff ffff ffff 82ec 9a0a b187 0800 4500  ..............E.
	0x0010:  004e 9113 0000 4011 a21b 0a75 3287 0a75  .N....@....u2..u
	0x0020:  ffff 0089 0089 003a eec5 45b5 0110 0001  .......:..E.....
	0x0030:  0000 0000 0000 2046 4845 5046 4345 4c45  .......FHEPFCELE
	0x0040:  4846 4345 5046 4646 4143 4143 4143 4143  HFCEPFFFACACACAC
	0x0050:  4143 4143 4142 4e00 0020 0001            ACACABN.....
2024-11-07 11:24:56.740743 IP 10.117.26.51.netbios-ns > 10.117.255.255.netbios-ns: UDP, length 50
	0x0000:  ffff ffff ffff 5256 5c3b a95b 0800 4500  ......RV\;.[..E.
	0x0010:  004e ca09 0000 4011 8179 0a75 1a33 0a75  .N....@..y.u.3.u
	0x0020:  ffff 0089 0089 003a 0724 45ab 0110 0001  .......:.$E.....
	0x0030:  0000 0000 0000 2046 4845 5046 4345 4c45  .......FHEPFCELE
	0x0040:  4846 4345 5046 4646 4143 4143 4143 4143  HFCEPFFFACACACAC
	0x0050:  4143 4143 4142 4e00 0020 0001            ACACABN.....
2024-11-07 11:24:56.741649 IP ishhhtiaq.wireless.rit.edu.17500 > 255.255.255.255.17500: UDP, length 172
	0x0000:  ffff ffff ffff 2c98 117b 4045 0800 4500  ......,..{@E..E.
	0x0010:  00c8 84cd 0000 8011 daba 8115 5988 ffff  ............Y...
	0x0020:  ffff 445c 445c 00b4 1a91 7b22 7665 7273  ..D\D\....{"vers
	0x0030:  696f 6e22 3a20 5b32 2c20 305d 2c20 2270  ion":.[2,.0],."p
	0x0040:  6f72 7422 3a20 3137 3530 302c 2022 686f  ort":.17500,."ho
	0x0050:  7374 5f69 6e74 223a 2032 3738 3931 3836  st_int":.2789186
	0x0060:  3435 3437 3532 3637 3230 3435 3235 3035  4547526720452505
	0x0070:  3233 3634 3939 3735 3537 3435 3531 3736  2364997557455176
	0x0080:  2c20 2264 6973 706c 6179 6e61 6d65 223a  ,."displayname":
	0x0090:  2022 222c 2022 6e61 6d65 7370 6163 6573  ."",."namespaces
	0x00a0:  223a 205b 3131 3134 3234 3133 3732 392c  ":.[11142413729,
	0x00b0:  2031 3231 3739 3637 3236 362c 2031 3131  .1217967266,.111
	0x00c0:  3433 3534 3435 3239 2c20 3132 3137 3936  43544529,.121796
	0x00d0:  3731 3131 5d7d                           7111]}
2024-11-07 11:24:56.741650 IP 10.117.35.172.netbios-ns > 10.117.255.255.netbios-ns: UDP, length 50
	0x0000:  ffff ffff ffff 3651 ab98 df7b 0800 4500  ......6Q...{..E.
	0x0010:  004e e9ab 0000 4011 585e 0a75 23ac 0a75  .N....@.X^.u#..u
	0x0020:  ffff 0089 0089 003a fde2 4573 0110 0001  .......:..Es....
	0x0030:  0000 0000 0000 2046 4845 5046 4345 4c45  .......FHEPFCELE
	0x0040:  4846 4345 5046 4646 4143 4143 4143 4143  HFCEPFFFACACACAC
	0x0050:  4143 4143 4142 4e00 0020 0001            ACACABN.....
2024-11-07 11:24:56.741650 IP 10.117.62.45.netbios-ns > 10.117.255.255.netbios-ns: UDP, length 50
	0x0000:  ffff ffff ffff f649 492a 12a8 0800 4500  .......II*....E.
	0x0010:  004e 593c 0000 4011 ce4c 0a75 3e2d 0a75  .NY<..@..L.u>-.u
	0x0020:  ffff 0089 0089 003a e358 457c 0110 0001  .......:.XE|....
	0x0030:  0000 0000 0000 2046 4845 5046 4345 4c45  .......FHEPFCELE
	0x0040:  4846 4345 5046 4646 4143 4143 4143 4143  HFCEPFFFACACACAC
	0x0050:  4143 4143 4142 4e00 0020 0001            ACACABN.....
2024-11-07 11:24:56.741651 IP ishhhtiaq.wireless.rit.edu.17500 > 255.255.255.255.17500: UDP, length 172
	0x0000:  ffff ffff ffff 2c98 117b 4045 0800 4500  ......,..{@E..E.
	0x0010:  00c8 84ce 0000 8011 dab9 8115 5988 ffff  ............Y...
	0x0020:  ffff 445c 445c 00b4 1a91 7b22 7665 7273  ..D\D\....{"vers
	0x0030:  696f 6e22 3a20 5b32 2c20 305d 2c20 2270  ion":.[2,.0],."p
	0x0040:  6f72 7422 3a20 3137 3530 302c 2022 686f  ort":.17500,."ho
	0x0050:  7374 5f69 6e74 223a 2032 3738 3931 3836  st_int":.2789186
	0x0060:  3435 3437 3532 3637 3230 3435 3235 3035  4547526720452505
	0x0070:  3233 3634 3939 3735 3537 3435 3531 3736  2364997557455176
	0x0080:  2c20 2264 6973 706c 6179 6e61 6d65 223a  ,."displayname":
	0x0090:  2022 222c 2022 6e61 6d65 7370 6163 6573  ."",."namespaces
	0x00a0:  223a 205b 3131 3134 3234 3133 3732 392c  ":.[11142413729,
	0x00b0:  2031 3231 3739 3637 3236 362c 2031 3131  .1217967266,.111
	0x00c0:  3433 3534 3435 3239 2c20 3132 3137 3936  43544529,.121796
	0x00d0:  3731 3131 5d7d                           7111]}
2024-11-07 11:24:56.742550 IP ishhhtiaq.wireless.rit.edu.17500 > 255.255.255.255.17500: UDP, length 172
	0x0000:  ffff ffff ffff 2c98 117b 4045 0800 4500  ......,..{@E..E.
	0x0010:  00c8 84cf 0000 8011 dab8 8115 5988 ffff  ............Y...
	0x0020:  ffff 445c 445c 00b4 1a91 7b22 7665 7273  ..D\D\....{"vers
	0x0030:  696f 6e22 3a20 5b32 2c20 305d 2c20 2270  ion":.[2,.0],."p
	0x0040:  6f72 7422 3a20 3137 3530 302c 2022 686f  ort":.17500,."ho
	0x0050:  7374 5f69 6e74 223a 2032 3738 3931 3836  st_int":.2789186
	0x0060:  3435 3437 3532 3637 3230 3435 3235 3035  4547526720452505
	0x0070:  3233 3634 3939 3735 3537 3435 3531 3736  2364997557455176
	0x0080:  2c20 2264 6973 706c 6179 6e61 6d65 223a  ,."displayname":
	0x0090:  2022 222c 2022 6e61 6d65 7370 6163 6573  ."",."namespaces
	0x00a0:  223a 205b 3131 3134 3234 3133 3732 392c  ":.[11142413729,
	0x00b0:  2031 3231 3739 3637 3236 362c 2031 3131  .1217967266,.111
	0x00c0:  3433 3534 3435 3239 2c20 3132 3137 3936  43544529,.121796
	0x00d0:  3731 3131 5d7d                           7111]}
2024-11-07 11:24:56.742551 IP ishhhtiaq.wireless.rit.edu.17500 > 255.255.255.255.17500: UDP, length 172
	0x0000:  ffff ffff ffff 2c98 117b 4045 0800 4500  ......,..{@E..E.
	0x0010:  00c8 84d0 0000 8011 dab7 8115 5988 ffff  ............Y...
	0x0020:  ffff 445c 445c 00b4 1a91 7b22 7665 7273  ..D\D\....{"vers
	0x0030:  696f 6e22 3a20 5b32 2c20 305d 2c20 2270  ion":.[2,.0],."p
	0x0040:  6f72 7422 3a20 3137 3530 302c 2022 686f  ort":.17500,."ho
	0x0050:  7374 5f69 6e74 223a 2032 3738 3931 3836  st_int":.2789186
	0x0060:  3435 3437 3532 3637 3230 3435 3235 3035  4547526720452505
	0x0070:  3233 3634 3939 3735 3537 3435 3531 3736  2364997557455176
	0x0080:  2c20 2264 6973 706c 6179 6e61 6d65 223a  ,."displayname":
	0x0090:  2022 222c 2022 6e61 6d65 7370 6163 6573  ."",."namespaces
	0x00a0:  223a 205b 3131 3134 3234 3133 3732 392c  ":.[11142413729,
	0x00b0:  2031 3231 3739 3637 3236 362c 2031 3131  .1217967266,.111
	0x00c0:  3433 3534 3435 3239 2c20 3132 3137 3936  43544529,.121796
	0x00d0:  3731 3131 5d7d                           7111]}
2024-11-07 11:24:56.742552 IP laptop-d898010h.wireless.rit.edu.54915 > 129.21.71.255.54915: UDP, length 263
	0x0000:  ffff ffff ffff b07d 6484 6c7d 0800 4500  .......}d.l}..E.
	0x0010:  0123 70d6 0000 8011 3928 8115 45a2 8115  .#p.....9(..E...
	0x0020:  47ff d683 d683 010f c67a 004c 4150 544f  G........z.LAPTO
	0x0030:  502d 4438 3938 3031 3048 00b7 3f8f a900  P-D898010H..?...
	0x0040:  0000 0000 0000 0000 0000 3327 0000 0000  ..........3'....
	0x0050:  0000 b046 9cef 4702 0000 0000 0000 0000  ...F..G.........
	0x0060:  0000 0000 0000 0000 0000 0000 0000 0000  ................
	0x0070:  0000 7c6a c56f 0000 0000 d0a2 6f70 0000  ..|j.o......op..
	0x0080:  0000 89bb 3f8f a900 0000 0000 0000 0000  ....?...........
	0x0090:  0000 10e6 25f0 4702 0000 d4b7 3f8f a900  ....%.G.....?...
	0x00a0:  0000 f0b7 3f8f a900 0000 d828 3b7b 3336  ....?......(;{36
	0x00b0:  3739 3936 3165 2d66 3436 322d 3436 6439  79961e-f462-46d9
	0x00c0:  2d61 3461 642d 6637 3233 3662 3339 6466  -a4ad-f7236b39df
	0x00d0:  6562 7d00 0000 0000 0000 0100 0000 a900  eb}.............
	0x00e0:  0000 d0b7 3f8f a900 0000 0000 0000 0000  ....?...........
	0x00f0:  0000 0000 0000 0000 0000 0000 0000 0000  ................
	0x0100:  0000 0000 0000 0000 0000 0000 0000 0000  ................
	0x0110:  0000 0000 0000 0000 0000 0000 0000 0000  ................
	0x0120:  0000 0000 0000 0000 0000 0000 00aa 319d  ..............1.
	0x0130:  c4                                       .
2024-11-07 11:24:56.742552 IP 10.117.5.251.netbios-ns > 10.117.255.255.netbios-ns: UDP, length 50
	0x0000:  ffff ffff ffff 6240 3bd0 46c6 0800 4500  ......b@;.F...E.
	0x0010:  004e d0c9 0000 4011 8ef1 0a75 05fb 0a75  .N....@....u...u
	0x0020:  ffff 0089 0089 003a 1b92 4575 0110 0001  .......:..Eu....
	0x0030:  0000 0000 0000 2046 4845 5046 4345 4c45  .......FHEPFCELE
	0x0040:  4846 4345 5046 4646 4143 4143 4143 4143  HFCEPFFFACACACAC
	0x0050:  4143 4143 4142 4e00 0020 0001            ACACABN.....
2024-11-07 11:24:56.742552 IP 10.117.9.252.netbios-ns > 10.117.255.255.netbios-ns: UDP, length 50
	0x0000:  ffff ffff ffff da1c 6aed 2674 0800 4500  ........j.&t..E.
	0x0010:  004e f931 0000 4011 6288 0a75 09fc 0a75  .N.1..@.b..u...u
	0x0020:  ffff 0089 0089 003a 178f 4577 0110 0001  .......:..Ew....
	0x0030:  0000 0000 0000 2046 4845 5046 4345 4c45  .......FHEPFCELE
	0x0040:  4846 4345 5046 4646 4143 4143 4143 4143  HFCEPFFFACACACAC
	0x0050:  4143 4143 4142 4e00 0020 0001            ACACABN.....
2024-11-07 11:24:56.742553 IP 10.117.31.205.netbios-ns > 10.117.255.255.netbios-ns: UDP, length 50
	0x0000:  ffff ffff ffff ae02 a452 21c5 0800 4500  .........R!...E.
	0x0010:  004e 1684 0000 4011 2f65 0a75 1fcd 0a75  .N....@./e.u...u
	0x0020:  ffff 0089 0089 003a 01b5 4580 0110 0001  .......:..E.....
	0x0030:  0000 0000 0000 2046 4845 5046 4345 4c45  .......FHEPFCELE
	0x0040:  4846 4345 5046 4646 4143 4143 4143 4143  HFCEPFFFACACACAC
	0x0050:  4143 4143 4142 4e00 0020 0001            ACACABN.....
2024-11-07 11:24:56.743393 IP 10.117.19.106.netbios-ns > 10.117.255.255.netbios-ns: UDP, length 50
	0x0000:  ffff ffff ffff 2ee2 e6e7 5892 0800 4500  ..........X...E.
	0x0010:  004e 6058 0000 4011 f1f3 0a75 136a 0a75  .N`X..@....u.j.u
	0x0020:  ffff 0089 0089 003a 0e1e 457a 0110 0001  .......:..Ez....
	0x0030:  0000 0000 0000 2046 4845 5046 4345 4c45  .......FHEPFCELE
	0x0040:  4846 4345 5046 4646 4143 4143 4143 4143  HFCEPFFFACACACAC
	0x0050:  4143 4143 4142 4e00 0020 0001            ACACABN.....
2024-11-07 11:24:56.743394 IP 10.117.48.136.netbios-ns > 10.117.255.255.netbios-ns: UDP, length 50
	0x0000:  ffff ffff ffff e685 70d9 d907 0800 4500  ........p.....E.
	0x0010:  004e 8ae0 0000 4011 aa4d 0a75 3088 0a75  .N....@..M.u0..u
	0x0020:  ffff 0089 0089 003a f0fd 457c 0110 0001  .......:..E|....
	0x0030:  0000 0000 0000 2046 4845 5046 4345 4c45  .......FHEPFCELE
	0x0040:  4846 4345 5046 4646 4143 4143 4143 4143  HFCEPFFFACACACAC
	0x0050:  4143 4143 4142 4e00 0020 0001            ACACABN.....
2024-11-07 11:24:56.743394 IP 10.117.51.2.netbios-ns > 10.117.255.255.netbios-ns: UDP, length 50
	0x0000:  ffff ffff ffff 523a 7495 8de7 0800 4500  ......R:t.....E.
	0x0010:  004e a14c 0000 4011 9167 0a75 3302 0a75  .N.L..@..g.u3..u
	0x0020:  ffff 0089 0089 003a ed81 467e 0110 0001  .......:..F~....
	0x0030:  0000 0000 0000 2046 4845 5046 4345 4c45  .......FHEPFCELE
	0x0040:  4846 4345 5046 4646 4143 4143 4143 4143  HFCEPFFFACACACAC
	0x0050:  4143 4143 4142 4e00 0020 0001            ACACABN.....
2024-11-07 11:24:56.743395 IP 10.117.35.71.netbios-ns > 10.117.255.255.netbios-ns: UDP, length 50
	0x0000:  ffff ffff ffff eaf5 e923 5f5c 0800 4500  .........#_\..E.
	0x0010:  004e 1ff2 0000 4011 227d 0a75 2347 0a75  .N....@."}.u#G.u
	0x0020:  ffff 0089 0089 003a fe41 4579 0110 0001  .......:.AEy....
	0x0030:  0000 0000 0000 2046 4845 5046 4345 4c45  .......FHEPFCELE
	0x0040:  4846 4345 5046 4646 4143 4143 4143 4143  HFCEPFFFACACACAC
	0x0050:  4143 4143 4142 4e00 0020 0001            ACACABN.....
2024-11-07 11:24:56.743395 IP 10.117.60.163.netbios-ns > 10.117.255.255.netbios-ns: UDP, length 50
	0x0000:  ffff ffff ffff 32dd 78bd e61f 0800 4500  ......2.x.....E.
	0x0010:  004e 070f 0000 4011 2204 0a75 3ca3 0a75  .N....@."..u<..u
	0x0020:  ffff 0089 0089 003a e4cc 4592 0110 0001  .......:..E.....
	0x0030:  0000 0000 0000 2046 4845 5046 4345 4c45  .......FHEPFCELE
	0x0040:  4846 4345 5046 4646 4143 4143 4143 4143  HFCEPFFFACACACAC
	0x0050:  4143 4143 4142 4e00 0020 0001            ACACABN.....
2024-11-07 11:24:56.743395 IP acd41229045323768734718.wireless.rit.edu.54915 > 129.21.107.255.54915: UDP, length 263
	0x0000:  ffff ffff ffff 84c5 a66f 726e 0800 4500  .........orn..E.
	0x0010:  0123 7858 0000 8011 e92d 8115 6a1a 8115  .#xX.....-..j...
	0x0020:  6bff d683 d683 010f 1313 0048 6f6c 6372  k..........Holcr
	0x0030:  6f66 742d 426c 6164 6531 3500 afa5 fc00  oft-Blade15.....
	0x0040:  0000 0000 0000 0000 0000 3327 0000 0000  ..........3'....
	0x0050:  0000 10d9 9bb1 c702 0000 603b e0b1 c702  ..........`;....
	0x0060:  0000 00a7 5eb2 c702 0000 0000 0000 0000  ....^...........
	0x0070:  0000 7c6a 066f 0000 0000 10a6 b06f 0000  ..|j.o.......o..
	0x0080:  0000 d9be afa5 fc00 0000 0000 0000 0000  ................
	0x0090:  0000 a03b e0b1 c702 0000 24bb afa5 fc00  ...;......$.....
	0x00a0:  0000 40bb afa5 fc00 0000 2810 037b 6533  ..@.......(..{e3
	0x00b0:  3439 3838 3737 2d37 3863 382d 3461 3065  498877-78c8-4a0e
	0x00c0:  2d38 3164 332d 3363 6266 3163 6437 3939  -81d3-3cbf1cd799
	0x00d0:  3061 7d00 0000 0000 0000 0100 0000 0000  0a}.............
	0x00e0:  0000 20bb afa5 fc00 0000 0000 0000 0000  ................
	0x00f0:  0000 0000 0000 0000 0000 0000 0000 0000  ................
	0x0100:  0000 0000 0000 0000 0000 0000 0000 0000  ................
	0x0110:  0000 0000 0000 0000 0000 0000 0000 0000  ................
	0x0120:  0000 0000 0000 0000 0000 0000 00ca bb19  ................
	0x0130:  be                                       .
2024-11-07 11:24:56.744257 IP 10.118.16.112.57621 > 10.118.255.255.57621: UDP, length 44
	0x0000:  ffff ffff ffff 7280 ca3d afad 0800 4500  ......r..=....E.
	0x0010:  0048 6da0 0000 4011 e7a9 0a76 1070 0a76  .Hm...@....v.p.v
	0x0020:  ffff e115 e115 0034 b2cf 5370 6f74 5564  .......4..SpotUd
	0x0030:  7030 1a37 e4be 5d24 0de1 0001 0004 4895  p0.7..]$......H.
	0x0040:  c203 b5f4 ad60 8280 053f c711 7bd3 5ebe  .....`...?..{.^.
	0x0050:  d38d 6803 9fd2                           ..h...
2024-11-07 11:24:56.744257 IP 10.117.38.213.netbios-ns > 10.117.255.255.netbios-ns: UDP, length 50
	0x0000:  ffff ffff ffff 1ead f46a a0dc 0800 4500  .........j....E.
	0x0010:  004e c655 0000 4011 788b 0a75 26d5 0a75  .N.U..@.x..u&..u
	0x0020:  ffff 0089 0089 003a fab0 457c 0110 0001  .......:..E|....
	0x0030:  0000 0000 0000 2046 4845 5046 4345 4c45  .......FHEPFCELE
	0x0040:  4846 4345 5046 4646 4143 4143 4143 4143  HFCEPFFFACACACAC
	0x0050:  4143 4143 4142 4e00 0020 0001            ACACABN.....
2024-11-07 11:24:56.744258 IP desktop-6rg0k1v.wireless.rit.edu.49419 > 224.0.0.252.5355: UDP, length 33
	0x0000:  0100 5e00 00fc 9032 4b41 e567 0800 4500  ..^....2KA.g..E.
	0x0010:  003d 1711 0000 0111 d77a 8115 6913 e000  .=.......z..i...
	0x0020:  00fc c10b 14eb 0029 147f a22d 0000 0001  .......)...-....
	0x0030:  0000 0000 0000 0f42 5257 3430 3233 3433  .......BRW402343
	0x0040:  3638 3132 4238 0000 0100 01              6812B8.....
2024-11-07 11:24:56.744258 IP 10.117.28.176.netbios-ns > 10.117.255.255.netbios-ns: UDP, length 50
	0x0000:  ffff ffff ffff c603 9e95 d50a 0800 4500  ..............E.
	0x0010:  004e cb07 0000 4011 7dfe 0a75 1cb0 0a75  .N....@.}..u...u
	0x0020:  ffff 0089 0089 003a 04ca 4588 0110 0001  .......:..E.....
	0x0030:  0000 0000 0000 2046 4845 5046 4345 4c45  .......FHEPFCELE
	0x0040:  4846 4345 5046 4646 4143 4143 4143 4143  HFCEPFFFACACACAC
	0x0050:  4143 4143 4142 4e00 0020 0001            ACACABN.....
2024-11-07 11:24:56.744258 IP makennas_device.wireless.rit.edu.55276 > 224.0.0.252.5355: UDP, length 42
	0x0000:  0100 5e00 00fc 202b 201d 6ef1 0800 4500  ..^....+..n...E.
	0x0010:  0046 3703 0000 0111 da23 8115 466f e000  .F7......#..Fo..
	0x0020:  00fc d7ec 14eb 0032 75c7 c049 0000 0001  .......2u..I....
	0x0030:  0000 0000 0000 1873 6f6c 7374 6963 6564  .......solsticed
	0x0040:  6973 636f 7665 7279 7365 7276 6963 6500  iscoveryservice.
	0x0050:  0001 0001                                ....
2024-11-07 11:24:56.744259 IP 10.117.57.115.netbios-ns > 10.117.255.255.netbios-ns: UDP, length 50
	0x0000:  ffff ffff ffff ee8c 5be1 739d 0800 4500  ........[.s...E.
	0x0010:  004e 9bdf 0000 4011 9063 0a75 3973 0a75  .N....@..c.u9s.u
	0x0020:  ffff 0089 0089 003a e81b 4573 0110 0001  .......:..Es....
	0x0030:  0000 0000 0000 2046 4845 5046 4345 4c45  .......FHEPFCELE
	0x0040:  4846 4345 5046 4646 4143 4143 4143 4143  HFCEPFFFACACACAC
	0x0050:  4143 4143 4142 4e00 0020 0001            ACACABN.....
2024-11-07 11:24:56.838017 IP acad-rgr2501.ad.rit.edu.55868 > 255.255.255.255.22222: UDP, length 28
	0x0000:  ffff ffff ffff ec4c 8c3a a610 0800 4500  .......L.:....E.
	0x0010:  0038 e621 0000 8011 76f7 8115 5c87 ffff  .8.!....v...\...
	0x0020:  ffff da3c 56ce 0024 2bb9 5354 525f 4243  ...<V..$+.STR_BC
	0x0030:  4153 5400 0000 0000 0000 5251 312e 302e  AST.......RQ1.0.
	0x0040:  3000 001c 6431                           0...d1
2024-11-07 11:24:56.838018 IP acad-rgr2501.ad.rit.edu.55878 > 255.255.255.255.3289: UDP, length 14
	0x0000:  ffff ffff ffff ec4c 8c3a a610 0800 4500  .......L.:....E.
	0x0010:  002a e622 0000 8011 7704 8115 5c87 ffff  .*."....w...\...
	0x0020:  ffff da46 0cd9 0016 5115 4550 534f 4e51  ...F....Q.EPSONQ
	0x0030:  0300 0000 0000 0000 0000 0000            ............
2024-11-07 11:24:56.838754 IP acad-rgr2501.ad.rit.edu.55873 > 255.255.255.255.22222: UDP, length 28
	0x0000:  ffff ffff ffff ec4c 8c3a a610 0800 4500  .......L.:....E.
	0x0010:  0038 e620 0000 8011 76f8 8115 5c87 ffff  .8......v...\...
	0x0020:  ffff da41 56ce 0024 2bb4 5354 525f 4243  ...AV..$+.STR_BC
	0x0030:  4153 5400 0000 0000 0000 5251 312e 302e  AST.......RQ1.0.
	0x0040:  3000 001c 6431                           0...d1
2024-11-07 11:24:56.838754 IP acad-rgr2501.ad.rit.edu.55879 > 255.255.255.255.3289: UDP, length 14
	0x0000:  ffff ffff ffff ec4c 8c3a a610 0800 4500  .......L.:....E.
	0x0010:  002a e624 0000 8011 7702 8115 5c87 ffff  .*.$....w...\...
	0x0020:  ffff da47 0cd9 0016 5114 4550 534f 4e51  ...G....Q.EPSONQ
	0x0030:  0300 0000 0000 0000 0000 0000            ............
2024-11-07 11:24:56.838755 IP acad-rgr2501.ad.rit.edu.55880 > 129.21.95.255.3289: UDP, length 14
	0x0000:  ffff ffff ffff ec4c 8c3a a610 0800 4500  .......L.:....E.
	0x0010:  002a 5bd3 0000 8011 203f 8115 5c87 8115  .*[......?..\...
	0x0020:  5fff da48 0cd9 0016 6ffe 4550 534f 4e51  _..H....o.EPSONQ
	0x0030:  0300 0000 0000 0000 0000 0000            ............
2024-11-07 11:24:56.838755 IP acad-rgr2501.ad.rit.edu.55881 > 255.255.255.255.3289: UDP, length 14
	0x0000:  ffff ffff ffff ec4c 8c3a a610 0800 4500  .......L.:....E.
	0x0010:  002a e625 0000 8011 7701 8115 5c87 ffff  .*.%....w...\...
	0x0020:  ffff da49 0cd9 0016 5112 4550 534f 4e51  ...I....Q.EPSONQ
	0x0030:  0300 0000 0000 0000 0000 0000            ............
2024-11-07 11:24:56.838756 IP acad-rgr2501.ad.rit.edu.10004 > 255.255.255.255.10004: UDP, length 83
	0x0000:  ffff ffff ffff ec4c 8c3a a610 0800 4500  .......L.:....E.
	0x0010:  006f e61f 0000 8011 76c2 8115 5c87 ffff  .o......v...\...
	0x0020:  ffff 2714 2714 005b d0e9 3c58 4d4c 3e3c  ..'.'..[..<XML><
	0x0030:  5061 636b 6574 5479 7065 3e52 6571 7565  PacketType>Reque
	0x0040:  7374 3c2f 5061 636b 6574 5479 7065 3e0a  st</PacketType>.
	0x0050:  3c50 726f 6475 6374 4e61 6d65 3e41 5047  <ProductName>APG
	0x0060:  2041 7477 6f6f 643c 2f50 726f 6475 6374  .Atwood</Product
	0x0070:  4e61 6d65 3e0a 3c2f 584d 4c3e 0a         Name>.</XML>.
2024-11-07 11:24:56.840359 IP acad-rgr2501.ad.rit.edu.55875 > 129.21.95.255.22222: UDP, length 28
	0x0000:  ffff ffff ffff ec4c 8c3a a610 0800 4500  .......L.:....E.
	0x0010:  0038 5bd5 0000 8011 202f 8115 5c87 8115  .8[....../..\...
	0x0020:  5fff da43 56ce 0024 4a9d 5354 525f 4243  _..CV..$J.STR_BC
	0x0030:  4153 5400 0000 0000 0000 5251 312e 302e  AST.......RQ1.0.
	0x0040:  3000 001c 6431                           0...d1
2024-11-07 11:24:56.840360 IP acad-rgr2501.ad.rit.edu.55869 > 255.255.255.255.22222: UDP, length 28
	0x0000:  ffff ffff ffff ec4c 8c3a a610 0800 4500  .......L.:....E.
	0x0010:  0038 e623 0000 8011 76f5 8115 5c87 ffff  .8.#....v...\...
	0x0020:  ffff da3d 56ce 0024 2bb8 5354 525f 4243  ...=V..$+.STR_BC
	0x0030:  4153 5400 0000 0000 0000 5251 312e 302e  AST.......RQ1.0.
	0x0040:  3000 001c 6431                           0...d1
2024-11-07 11:24:56.840361 IP acad-rgr2501.ad.rit.edu.55876 > 255.255.255.255.22222: UDP, length 28
	0x0000:  ffff ffff ffff ec4c 8c3a a610 0800 4500  .......L.:....E.
	0x0010:  0038 e628 0000 8011 76f0 8115 5c87 ffff  .8.(....v...\...
	0x0020:  ffff da44 56ce 0024 2bb1 5354 525f 4243  ...DV..$+.STR_BC
	0x0030:  4153 5400 0000 0000 0000 5251 312e 302e  AST.......RQ1.0.
	0x0040:  3000 001c 6431                           0...d1
2024-11-07 11:24:56.840361 IP acad-rgr2501.ad.rit.edu.10004 > 255.255.255.255.10004: UDP, length 83
	0x0000:  ffff ffff ffff ec4c 8c3a a610 0800 4500  .......L.:....E.
	0x0010:  006f e629 0000 8011 76b8 8115 5c87 ffff  .o.)....v...\...
	0x0020:  ffff 2714 2714 005b d0e9 3c58 4d4c 3e3c  ..'.'..[..<XML><
	0x0030:  5061 636b 6574 5479 7065 3e52 6571 7565  PacketType>Reque
	0x0040:  7374 3c2f 5061 636b 6574 5479 7065 3e0a  st</PacketType>.
	0x0050:  3c50 726f 6475 6374 4e61 6d65 3e41 5047  <ProductName>APG
	0x0060:  2041 7477 6f6f 643c 2f50 726f 6475 6374  .Atwood</Product
	0x0070:  4e61 6d65 3e0a 3c2f 584d 4c3e 0a         Name>.</XML>.
2024-11-07 11:24:56.840362 IP acad-rgr2501.ad.rit.edu.55874 > 255.255.255.255.22222: UDP, length 28
	0x0000:  ffff ffff ffff ec4c 8c3a a610 0800 4500  .......L.:....E.
	0x0010:  0038 e626 0000 8011 76f2 8115 5c87 ffff  .8.&....v...\...
	0x0020:  ffff da42 56ce 0024 2bb3 5354 525f 4243  ...BV..$+.STR_BC
	0x0030:  4153 5400 0000 0000 0000 5251 312e 302e  AST.......RQ1.0.
	0x0040:  3000 001c 6431                           0...d1
2024-11-07 11:24:56.840362 IP acad-rgr2501.ad.rit.edu.55871 > 255.255.255.255.22222: UDP, length 28
	0x0000:  ffff ffff ffff ec4c 8c3a a610 0800 4500  .......L.:....E.
	0x0010:  0038 e627 0000 8011 76f1 8115 5c87 ffff  .8.'....v...\...
	0x0020:  ffff da3f 56ce 0024 2bb6 5354 525f 4243  ...?V..$+.STR_BC
	0x0030:  4153 5400 0000 0000 0000 5251 312e 302e  AST.......RQ1.0.
	0x0040:  3000 001c 6431                           0...d1
2024-11-07 11:24:56.840551 IP acad-rgr2501.ad.rit.edu.10004 > 255.255.255.255.10004: UDP, length 83
	0x0000:  ffff ffff ffff ec4c 8c3a a610 0800 4500  .......L.:....E.
	0x0010:  006f e62a 0000 8011 76b7 8115 5c87 ffff  .o.*....v...\...
	0x0020:  ffff 2714 2714 005b d0e9 3c58 4d4c 3e3c  ..'.'..[..<XML><
	0x0030:  5061 636b 6574 5479 7065 3e52 6571 7565  PacketType>Reque
	0x0040:  7374 3c2f 5061 636b 6574 5479 7065 3e0a  st</PacketType>.
	0x0050:  3c50 726f 6475 6374 4e61 6d65 3e41 5047  <ProductName>APG
	0x0060:  2041 7477 6f6f 643c 2f50 726f 6475 6374  .Atwood</Product
	0x0070:  4e61 6d65 3e0a 3c2f 584d 4c3e 0a         Name>.</XML>.
2024-11-07 11:24:56.840552 IP 8n610844l0.main.ad.rit.edu.50080 > 129.21.135.255.netbios-ns: UDP, length 50
	0x0000:  ffff ffff ffff 80a9 9718 0d17 0800 4500  ..............E.
	0x0010:  004e 1af5 0000 4011 5077 8115 8509 8115  .N....@.Pw......
	0x0020:  87ff c3a0 0089 003a 9282 0017 0110 0001  .......:........
	0x0030:  0000 0000 0000 2045 4b45 4245 4445 4c43  .......EKEBEDELC
	0x0040:  4e45 4746 4345 4245 4e45 4646 4845 5046  NEGFCEBENEFFHEPF
	0x0050:  4345 4c43 4143 4100 0020 0001            CELCACA.....
2024-11-07 11:24:56.840552 IP acad-rgr2501.ad.rit.edu.10004 > 255.255.255.255.10004: UDP, length 83
	0x0000:  ffff ffff ffff ec4c 8c3a a610 0800 4500  .......L.:....E.
	0x0010:  006f e62b 0000 8011 76b6 8115 5c87 ffff  .o.+....v...\...
	0x0020:  ffff 2714 2714 005b d0e9 3c58 4d4c 3e3c  ..'.'..[..<XML><
	0x0030:  5061 636b 6574 5479 7065 3e52 6571 7565  PacketType>Reque
	0x0040:  7374 3c2f 5061 636b 6574 5479 7065 3e0a  st</PacketType>.
	0x0050:  3c50 726f 6475 6374 4e61 6d65 3e41 5047  <ProductName>APG
	0x0060:  2041 7477 6f6f 643c 2f50 726f 6475 6374  .Atwood</Product
	0x0070:  4e61 6d65 3e0a 3c2f 584d 4c3e 0a         Name>.</XML>.
2024-11-07 11:24:56.840553 IP 10.117.48.120.netbios-ns > 10.117.255.255.netbios-ns: UDP, length 50
	0x0000:  ffff ffff ffff 92d2 5e4e 7c9b 0800 4500  ........^N|...E.
	0x0010:  004e 50d5 0000 4011 e468 0a75 3078 0a75  .NP...@..h.u0x.u
	0x0020:  ffff 0089 0089 003a f111 4578 0110 0001  .......:..Ex....
	0x0030:  0000 0000 0000 2046 4845 5046 4345 4c45  .......FHEPFCELE
	0x0040:  4846 4345 5046 4646 4143 4143 4143 4143  HFCEPFFFACACACAC
	0x0050:  4143 4143 4142 4e00 0020 0001            ACACABN.....
2024-11-07 11:24:56.841867 IP acd41229045323768734718.wireless.rit.edu.58175 > 224.0.0.252.5355: UDP, length 33
	0x0000:  0100 5e00 00fc 84c5 a66f 726e 0800 4500  ..^......orn..E.
	0x0010:  003d 410b 0000 0111 ac79 8115 6a1a e000  .=A......y..j...
	0x0020:  00fc e33f 14eb 0029 adf9 7d2e 0000 0001  ...?...)..}.....
	0x0030:  0000 0000 0000 0f48 4f4c 4352 4f46 542d  .......HOLCROFT-
	0x0040:  424c 4144 4531 0000 0100 01              BLADE1.....
2024-11-07 11:24:56.841868 IP cpo7212.student.rit.edu.60977 > 129.21.71.255.19132: UDP, length 33
	0x0000:  ffff ffff ffff e8d8 191b 29a5 0800 4500  ..........)...E.
	0x0010:  003d 1159 0000 4011 d9ce 8115 455f 8115  .=.Y..@.....E_..
	0x0020:  47ff ee31 4abc 0029 d5a7 0100 0000 0008  G..1J..)........
	0x0030:  03f1 4a00 ffff 00fe fefe fefd fdfd fd12  ..J.............
	0x0040:  3456 78a2 9ccd c5b5 a5fb 63              4Vx.......c
2024-11-07 11:24:56.841869 IP acd41229045323768734718.wireless.rit.edu.53925 > 224.0.0.252.5355: UDP, length 33
	0x0000:  0100 5e00 00fc 84c5 a66f 726e 0800 4500  ..^......orn..E.
	0x0010:  003d 410a 0000 0111 ac7a 8115 6a1a e000  .=A......z..j...
	0x0020:  00fc d2a5 14eb 0029 9b91 8530 0000 0001  .......)...0....
	0x0030:  0000 0000 0000 0f48 4f4c 4352 4f46 542d  .......HOLCROFT-
	0x0040:  424c 4144 4531 0000 1c00 01              BLADE1.....
2024-11-07 11:24:56.841869 IP 10.117.11.253.netbios-ns > 10.117.255.255.netbios-ns: UDP, length 50
	0x0000:  ffff ffff ffff de1d ca58 6efe 0800 4500  .........Xn...E.
	0x0010:  004e fe94 0000 4011 5b24 0a75 0bfd 0a75  .N....@.[$.u...u
	0x0020:  ffff 0089 0089 003a 158a 457b 0110 0001  .......:..E{....
	0x0030:  0000 0000 0000 2046 4845 5046 4345 4c45  .......FHEPFCELE
	0x0040:  4846 4345 5046 4646 4143 4143 4143 4143  HFCEPFFFACACACAC
	0x0050:  4143 4143 4142 4e00 0020 0001            ACACABN.....
2024-11-07 11:24:56.841870 IP inspiron-3558.wireless.rit.edu.48968 > 129.21.123.255.21027: UDP, length 262
	0x0000:  ffff ffff ffff e402 9b43 a7d8 0800 4500  .........C....E.
	0x0010:  0122 d55c 4000 4011 6b32 8115 7b12 8115  .".\@.@.k2..{...
	0x0020:  7bff bf48 5223 010e fec4 2ea7 d90b 0a20  {..HR#..........
	0x0030:  df8f 26df b908 e6eb 38b9 5483 164a 822d  ..&.....8.T..J.-
	0x0040:  5c78 70cc 5758 9c4f 89fc bd9e f41c 8c6c  \xp.WX.O.......l
	0x0050:  1214 7175 6963 3a2f 2f30 2e30 2e30 2e30  ..quic://0.0.0.0
	0x0060:  3a32 3230 3030 1216 7175 6963 3a2f 2f31  :22000..quic://1
	0x0070:  302e 382e 3232 2e34 3a32 3230 3030 121a  0.8.22.4:22000..
	0x0080:  7175 6963 3a2f 2f31 3239 2e32 312e 3132  quic://129.21.12
	0x0090:  332e 3138 3a32 3230 3030 1213 7463 703a  3.18:22000..tcp:
	0x00a0:  2f2f 302e 302e 302e 303a 3232 3030 3012  //0.0.0.0:22000.
	0x00b0:  1574 6370 3a2f 2f31 302e 382e 3232 2e34  .tcp://10.8.22.4
	0x00c0:  3a32 3230 3030 125e 7265 6c61 793a 2f2f  :22000.^relay://
	0x00d0:  3335 2e31 3732 2e31 3334 2e31 3739 3a34  35.172.134.179:4
	0x00e0:  3433 2f3f 6964 3d49 5337 5a36 5649 2d4f  43/?id=IS7Z6VI-O
	0x00f0:  3643 4757 4d54 2d48 5248 5054 5654 2d55  6CGWMT-HRHPTVT-U
	0x0100:  4d54 3554 544e 2d5a 4133 4648 4953 2d41  MT5TTN-ZA3FHIS-A
	0x0110:  4a46 3736 5359 2d51 5357 4e41 3243 2d4c  JF76SY-QSWNA2C-L
	0x0120:  4955 3341 4143 18a5 e2b3 ddfa b4a0 9b3b  IU3AAC.........;
2024-11-07 11:24:56.841984 IP rswish.wireless.rit.edu.4242 > ospf-all.mcast.net.4242: UDP, length 311
	0x0000:  0100 5e00 0005 6cf6 da83 e57d 0800 4500  ..^...l....}..E.
	0x0010:  0153 64bc 0000 0111 82ec 8115 6fd7 e000  .Sd.........o...
	0x0020:  0005 1092 1092 013f a700 7b22 7665 7273  .......?..{"vers
	0x0030:  696f 6e22 3a22 3322 2c22 6275 696c 6422  ion":"3","build"
	0x0040:  3a22 3133 3139 3332 222c 2261 6363 6f75  :"131932","accou
	0x0050:  6e74 223a 2230 3131 3030 3030 3135 6565  nt":"011000015ee
	0x0060:  6434 3930 663a 3030 3030 3030 3030 3030  d490f:0000000000
	0x0070:  3030 3030 3032 222c 2262 6e65 745f 6163  000002","bnet_ac
	0x0080:  636f 756e 7422 3a22 3030 3030 3030 3030  count":"00000000
	0x0090:  3333 6531 3337 3962 3a30 3130 3030 3030  33e1379b:0100000
	0x00a0:  3030 3030 3030 3030 3022 2c22 6c65 7665  000000000","leve
	0x00b0:  6c22 3a30 2c22 6176 6174 6172 223a 3136  l":0,"avatar":16
	0x00c0:  3636 3333 3138 3632 3132 3731 3131 3838  6633186212711188
	0x00d0:  2c22 7066 7261 6d65 223a 3136 3636 3333  ,"pframe":166633
	0x00e0:  3138 3632 3132 3731 3036 3830 2c22 6e61  186212710680,"na
	0x00f0:  6d65 5f63 6172 6422 3a31 3636 3633 3331  me_card":1666331
	0x0100:  3836 3231 3237 3330 3037 332c 2274 6974  86212730073,"tit
	0x0110:  6c65 223a 3136 3636 3333 3138 3632 3132  le":166633186212
	0x0120:  3733 3438 3331 2c22 6e61 6d65 5f62 6163  734831,"name_bac
	0x0130:  6b69 6e67 223a 3136 3636 3333 3138 3632  king":1666331862
	0x0140:  3132 3733 3837 3837 2c22 706c 6174 666f  12738787,"platfo
	0x0150:  726d 223a 312c 2265 6c65 7665 6c22 3a33  rm":1,"elevel":3
	0x0160:  7d                                       }
2024-11-07 11:24:56.841984 IP 10.117.41.212.netbios-ns > 10.117.255.255.netbios-ns: UDP, length 50
	0x0000:  ffff ffff ffff 4e3a 900b abdb 0800 4500  ......N:......E.
	0x0010:  004e 9480 0000 4011 a761 0a75 29d4 0a75  .N....@..a.u)..u
	0x0020:  ffff 0089 0089 003a ef61 4dcc 0110 0001  .......:.aM.....
	0x0030:  0000 0000 0000 2046 4845 5046 4345 4c45  .......FHEPFCELE
	0x0040:  4846 4345 5046 4646 4143 4143 4143 4143  HFCEPFFFACACACAC
	0x0050:  4143 4143 4142 4e00 0020 0001            ACACABN.....
2024-11-07 11:24:56.841985 IP 10.117.59.100.57621 > 10.117.255.255.57621: UDP, length 44
	0x0000:  ffff ffff ffff 36ad 243a 202e 0800 4500  ......6.$:....E.
	0x0010:  0048 d76d 0000 4011 52ea 0a75 3b64 0a75  .H.m..@.R..u;d.u
	0x0020:  ffff e115 e115 0034 f730 5370 6f74 5564  .......4.0SpotUd
	0x0030:  7030 9c29 2b8b 0a36 4941 0001 0004 4895  p0.)+..6IA....H.
	0x0040:  c203 5be0 8bb4 49af cb4c 36a9 a8a5 2d3a  ..[...I..L6...-:
	0x0050:  c103 d418 a961                           .....a
2024-11-07 11:24:56.843108 IP k-leighs-mbp.wireless.rit.edu.netbios-ns > 129.21.63.255.netbios-ns: UDP, length 68
	0x0000:  ffff ffff ffff 603e 5f88 ff91 0800 4500  ......`>_.....E.
	0x0010:  0060 d19b 0000 4011 29c9 8115 3cff 8115  .`....@.)...<...
	0x0020:  3fff 0089 0089 004c b673 4567 2910 0001  ?......L.sEg)...
	0x0030:  0000 0000 0001 2045 4e45 4245 4443 4e44  .......ENEBEDCND
	0x0040:  4944 4945 4745 4744 4a44 4243 4143 4143  IDIEGEGDJDBCACAC
	0x0050:  4143 4143 4141 4100 0020 0001 c00c 0020  ACACAAA.........
	0x0060:  0001 0000 0384 0006 6000 8115 3cff       ........`...<.
2024-11-07 11:24:56.941108 IP 129.21.134.7.netbios-ns > 129.21.135.255.netbios-ns: UDP, length 50
	0x0000:  ffff ffff ffff d088 0c60 c538 0800 4500  .........`.8..E.
	0x0010:  004e 5cb5 0000 4011 0db9 8115 8607 8115  .N\...@.........
	0x0020:  87ff 0089 0089 003a 4ed5 46f3 0110 0001  .......:N.F.....
	0x0030:  0000 0000 0000 2045 4845 4646 4545 4743  .......EHEFFEEGC
	0x0040:  4143 4143 4143 4143 4143 4143 4143 4143  ACACACACACACACAC
	0x0050:  4143 4143 4142 4e00 0020 0001            ACACABN.....
2024-11-07 11:24:56.941110 IP 129.21.134.7.netbios-ns > 129.21.135.255.netbios-ns: UDP, length 50
	0x0000:  ffff ffff ffff d088 0c60 c538 0800 4500  .........`.8..E.
	0x0010:  004e 27c2 0000 4011 42ac 8115 8607 8115  .N'...@.B.......
	0x0020:  87ff 0089 0089 003a 1cc5 46ef 0110 0001  .......:..F.....
	0x0030:  0000 0000 0000 2046 4545 4945 4643 4145  .......FEEIEFCAE
	0x0040:  4545 4a45 4845 4a46 4545 4245 4d43 4146  EEJEHEJFEEBEMCAF
	0x0050:  4445 4645 4242 4e00 0020 0001            DEFEBBN.....
2024-11-07 11:24:56.941110 IP boo-efbfaa-m.wireless.rit.edu.netbios-dgm > 129.21.135.255.netbios-dgm: UDP, length 174
	0x0000:  ffff ffff ffff bcd0 745b a5bc 0800 4500  ........t[....E.
	0x0010:  00ca 7f09 0000 4011 ec61 8115 848e 8115  ......@..a......
	0x0020:  87ff 008a 008a 00b6 7116 1102 4853 8115  ........q...HS..
	0x0030:  848e 0000 00a0 0000 2045 4345 5045 5043  .........ECEPEPC
	0x0040:  4e45 4645 4745 4345 4745 4245 4243 4e45  NEFEGECEGEBEBCNE
	0x0050:  4e43 4143 4143 4141 4100 2046 4845 5046  NCACACAAA..FHEPF
	0x0060:  4345 4c45 4846 4345 5046 4646 4143 4143  CELEHFCEPFFFACAC
	0x0070:  4143 4143 4143 4143 4142 4e00 ff53 4d42  ACACACACABN..SMB
	0x0080:  2500 0000 0000 0000 0000 0000 0000 0000  %...............
	0x0090:  0000 0000 0000 6758 0000 5248 1100 0006  ......gX..RH....
	0x00a0:  0000 0000 0000 0002 0000 0000 0000 0000  ................
	0x00b0:  0000 0006 0056 0003 0001 0001 0002 0017  .....V..........
	0x00c0:  005c 4d41 494c 534c 4f54 5c42 524f 5753  .\MAILSLOT\BROWS
	0x00d0:  4500 0904 4248 0000                      E...BH..
2024-11-07 11:24:56.941111 IP clairputer.wireless.rit.edu.netbios-ns > 129.21.135.255.netbios-ns: UDP, length 50
	0x0000:  ffff ffff ffff 8866 5a37 8b65 0800 4500  .......fZ7.e..E.
	0x0010:  004e ba5f 0000 4011 ae8c 8115 8789 8115  .N._..@.........
	0x0020:  87ff 0089 0089 003a 1aa9 4789 0110 0001  .......:..G.....
	0x0030:  0000 0000 0000 2046 4545 4945 4643 4145  .......FEEIEFCAE
	0x0040:  4545 4a45 4845 4a46 4545 4245 4d43 4146  EEJEHEJFEEBEMCAF
	0x0050:  4445 4645 4242 4e00 0020 0001            DEFEBBN.....
2024-11-07 11:24:56.941111 IP clairputer.wireless.rit.edu.netbios-ns > 129.21.135.255.netbios-ns: UDP, length 50
	0x0000:  ffff ffff ffff 8866 5a37 8b65 0800 4500  .......fZ7.e..E.
	0x0010:  004e 2292 0000 4011 465a 8115 8789 8115  .N"...@.FZ......
	0x0020:  87ff 0089 0089 003a 3dba 478d 0110 0001  .......:=.G.....
	0x0030:  0000 0000 0000 2045 4e45 4245 4a45 4f43  .......ENEBEJEOC
	0x0040:  4143 4143 4143 4143 4143 4143 4143 4143  ACACACACACACACAC
	0x0050:  4143 4143 4142 4e00 0020 0001            ACACABN.....
2024-11-07 11:24:56.941332 IP jdscis.rit.edu.56537 > 129.21.107.255.15600: UDP, length 35
	0x0000:  ffff ffff ffff cc6e a4dd 6e27 0800 4500  .......n..n'..E.
	0x0010:  003f 5946 4000 4011 0ae2 8115 685c 8115  .?YF@.@.....h\..
	0x0020:  6bff dcd9 3cf0 002b c710 5345 4152 4348  k...<..+..SEARCH
	0x0030:  2042 5344 502f 302e 310a 4445 5649 4345  .BSDP/0.1.DEVICE
	0x0040:  3d30 0a53 4552 5649 4345 3d31 0a         =0.SERVICE=1.
